:10400000007F002051770100F97501004D77010014
:104010004D7701004D7701004D7701004D7701008C
:104020000000000000000000000000004D770100CB
:104030004D770100000000004D7701004D77010031
:104040000000000000000000000000000000000070
:104050000000000000000000000000000000000060
:104060000000000000000000000000000000000050
:104070000000000000000000000000000000000040
:104080000000000000000000000000000000000030
:104090000000000000000000000000000000000020
:1040A0000000000000000000000000000000000010
:1040B0000000000000000000000000000000000000
:1040C00010B5054C237833B9044B13B10448AFF352
:1040D00000800123237010BD98070020000000001D
:1040E000C04F020008B5034B1BB103490348AFF3AF
:1040F000008008BD000000009C070020C04F0200A7
:10410000084611461AF02CBD084619F063BF084650
:1041100019F058BF10B5034B0360044608F09AFF2E
:10412000204610BD740F020010B5034B0360044617
:10413000FFF7F0FF204610BD840F020010B5034BBF
:104140000360044608F086FF204610BD640F02009D
:1041500010B50446FFF7DEFF20460C2118F09EFF45
:10416000204610BD10B50446FFF7DEFF20460C21A7
:1041700018F094FF204610BD10B50446FFF7DEFF8F
:1041800020460C2118F08AFF204610BD4FF6FF7321
:1041900099421FBF0368CA0903EBC20301F07F0104
:1041A0001ABF586800EBC1000020704770B5044684
:1041B00016460D46084609B11AF002FEC4E9005041
:1041C0002672204670BD2DE9F84F05680446A168A7
:1041D00031B10B68A3602B6828465B689847F6E707
:1041E000266804F10C0B0D468946228EE76AABB2B5
:1041F0009A420FD907EBC3089A46D8F8041019B1B0
:10420000336830465B68984747F83A900135C8F8FC
:104210000490EAE700232386BB454FF6FF73A3868D
:1042200004D0336839465B68304698472046BDE87D
:10423000F88F38B5C588044601F12C002946FFF7F0
:10424000A5FFA580206008B1C388E38038BD38B5DC
:10425000436A034400251D710446011D006815F0E2
:1042600091FE00B16562606A38BD38B5436A0133BA
:104270001F2B04460D4606D8636A5A1C62621C4412
:104280000120257138BDFFF7E2FF0028F4D000209F
:10429000F8E72DE9F0470379DA0705460C4611D512
:1042A0000168A36800226BB1994233D18B882068E2
:1042B000013B9BB28B802BB90B684AB31360036838
:1042C0005B6898472B79DB0608D52E8804F12C0013
:1042D0003146FFF75BFFA38E0380A6862B7913F090
:1042E000600F1CD02E884FF6FF7A04F12C0956453A
:1042F00013D031464846FFF749FF21460746B0F83C
:104300000680FFF7C6FFA38E3B80A6864646EEE7F3
:10431000A360D4E71A461B68C5E72E806E80002391
:104320002B71BDE8F087FFFFF0B59DB03C493D4ED5
:104330003D4C3E4F0CA815F020FD00220CA93C4836
:1043400005F0DAFB0CA815F0CDFC3A4801F038FA7C
:1043500016F0ECFC054616F0E9FC401BB04216D8FE
:10436000204601F0ADFD204601F090FD00BB16F0A7
:10437000DDFC4FF4FA73B0FBF3F010F0010F2D48A1
:104380004BD101F01DFA642016F08CFCE3E72A49BA
:104390000CA815F0F2FC264802220CA905F0ACFB93
:1043A0000CA815F09FFC254801F078FF1DB0F0BD6A
:1043B0002122002103A819F0AEFE402200210CA802
:1043C00019F0A9FE0CAA03A9204601F062FD3946A6
:1043D000684615F0D2FC00226946154805F08CFBB2
:1043E000684615F07FFC0CAA03A9144801F06AFE88
:1043F00018B10D4801F060FDD5E7204601F05CFDE5
:104400000F49684615F0B9FC02226946084805F0D4
:1044100073FB684615F066FCA9E701F0C9F9B2E73D
:10442000DA100200DF930400B80700204A110200EE
:10443000DC0800207008002009110200E0080020BC
:104440008C11020000B54FF41651A7B0464805F094
:1044500015FC464805F0BEF9444805F00FF94349FC
:10446000434801F013FE4149424804F09DF9424996
:1044700016A815F082FC0DA805F074F90DA916A870
:1044800015F090FD00220146374805F035FB0DA8D8
:1044900015F028FC16A815F025FC384801F098F90D
:1044A000374805F063F8374805F00AF8364801F058
:1044B0003FFC212200210DA819F02DFE40220021F1
:1044C00016A819F028FE16AA0DA9294801F0CCFE5D
:1044D000002833D1FFF728FF264804F075FE244852
:1044E00003F08AF8224803F011FE264805F014F87C
:1044F000264806F015FB032828D1254904A815F005
:104500003CFC224907A806F0CBFB07A901A815F03F
:10451000FDF901A904A815F045FD1E4915F04EFD51
:1045200000220146104805F0E7FA01A815F0DAFB71
:1045300004A815F0D7FB27B05DF804FB16AA0DA957
:104540000B4801F0BFFD0028C6D1C3E7124907A8F8
:1045500015F013FC002207A9034805F0CDFA07A8BF
:1045600015F0C0FBE7E700BFDC080020D8080020FA
:10457000E0080020480900205312020070080020C3
:10458000B407002030090020B8070020A410002044
:1045900074120200A7120200AB1202008B8C30B51D
:1045A000013B0D6A9AB205EBC204616849B16388A8
:1045B00035F832509D4204D95D1C11EBC301658072
:1045C00005D1002303604FF6FF73838030BD016087
:1045D00003EBC213F9E72DE9F74F8D8E4FF6FF730A
:1045E0009D4206460C460ED0294604F12C00FFF7EA
:1045F000CDFD0388A386002303714FF6FF73C380AC
:104600003060B58061E00B8E0F6801F10C0843B19A
:1046100068464146FFF7C2FF009810B1BDF804504C
:10462000E9E7228E638E934218D1B3F5007F45D01F
:104630005B009DB2E36A396898454FEAC50235D1FF
:104640000B683846114698478146002836D020220C
:10465000414619F03CFDC4F82C906586B4F83090C2
:10466000D4F82CB009F101039BB2B3F5007F238687
:104670003B680CBF7F258025E9001B6838469847BA
:104680000BEBC90A002808BF00250023CAF8040064
:1046900041462BF839506846AAF80230FFF77EFFF2
:1046A0000098BDF804500028A5D107E0D1F8089083
:1046B00038461946C84781460028CCD101232371CA
:1046C000002333604FF6FF73B380304603B0BDE87C
:1046D000F08F07B50368082203EBC101684619F0A3
:1046E000F6FC9DED000B03B05DF804FB2DE9FF41E6
:1046F000064604A800E90E00019DDDF82880002D83
:1047000067D09DF80C7037B104233371356038469B
:1047100004B0BDE8F081029C032C1BD82A463B461E
:10472000E0B2511BC9B2884206D912F9011B002917
:1047300008BF43F00103F4E763B902223271DAB231
:10474000904203D9EA56F2540133F8E70023335577
:104750000127DCE7D8F80800B0B1C3889C420AD131
:1047600000239C4209D0C218E95692F908209142D0
:1047700001D10133F5E70068EEE7838801338380D8
:10478000052333713060E3E7B4F5803F14D209218B
:10479000611811D2D8F8000003681B68984758B117
:1047A00001238380C48000F1080200239C4207D0CB
:1047B000E956D1540133F9E7012388F80430A6E71C
:1047C000044400232372D8F808300360C8F80800B6
:1047D000D6E72F469BE7F8B5054616460C468F18D8
:1047E000BC4205D014F8011B2846FFF73EFDF7E751
:1047F000AB6A3344AB62F8BD38B5054608460C4693
:104800001AF0DEFA214602462846FFF7E4FF38BDDB
:104810002DE9F04186B00DF11604054616461F46F7
:10482000A046304639460A22002319F099F9303261
:1048300004F8012D0023304639460A2219F090F978
:1048400006460F4656EA0703EBD1A8EB04022146C1
:104850002846FFF7C0FF06B0BDE8F0812DE9F04F14
:1048600091B003AC84E80E00074694E807000AAD57
:104870001A9E85E80B00804620BB0D904FF6FF7313
:10488000ADF8383010AD55F80C3D43B131462846EF
:10489000FFF7CFFCDDF83480B8F1000F0ED194E8BB
:1048A000070085E80700314606A8FFF794FEDDF80B
:1048B0001890B9F1000F50D14FF00008404611B0E8
:1048C000BDE8F08F3D88DDF82CA0294606F12C00CC
:1048D000FFF75CFCADF82450089010B3C388ADF826
:1048E00026300125AB464FF00009089999B35DB316
:1048F0000B79042B18D0052B19D0022B1FD10022C5
:104900000DA8FFF753FC0E9A52451DD10D990023B7
:104910009A4247D018F903C0C856844514D10133D0
:10492000F6E74FF6FF73DAE701220968E8E70B685C
:10493000DA888DF83C900833CDE90D32E3E7CDE914
:104940000D998DF83CB0DEE7314608A885F00105E9
:10495000FFF76FFCC9E70D9190E7314608A8FFF714
:104960003AFEDDF82080B8F1000FA5D0009695E85A
:104970000E004846FFF7BAFE00289DD0BDF824403F
:10498000A9F806407988BDF81C504FF6FF7399428C
:1049900006D006F12C00FFF7F9FBC5807C808DE77F
:1049A0003D80FBE708AA92E803000DAB83E8030013
:1049B00068E770B5036813F1380686B002D10020AD
:1049C00006B070BD021D07CA03AC84E807000246AA
:1049D0000028F4D093F83C1071B9202183F83C10E2
:1049E0004FF6FF71198759870392009394E80E00E0
:1049F0003046FFF733FFE3E72029F5D0DFE710B5B6
:104A00002DED028B0446B0EE408AFFF7D2FF2168FD
:104A1000044630B1FFF73DFC0E23237184ED008A7C
:104A20000120BDEC028B10BD38B504460D46FFF7E2
:104A3000C0FF2168044628B1FFF72BFC0C2323712B
:104A40002560012038BD10B50446FFF70EFCA36AAF
:104A50001844A06210BDFFFF2DE9F0410D46222150
:104A600016460446FFF7EFFFDFF850802E44B542AC
:104A700015D015F9011B104B13F9027CAFB10233AD
:104A800013F9032C8A42F7D15C212046FFF7DBFFA4
:104A9000F9B20DE041462046FFF7AEFEE7E72221DE
:104AA0002046FFF7D0FFBDE8F0810029F2D0C9B25F
:104AB0002046FFF7C8FFDAE7D6110200E311020033
:104AC00070B5002A1D4675F100030646144605DA46
:104AD0002D21FFF7B8FF644265EB450522462B46C2
:104AE0003046FFF795FE70BD2DE9F04F5BEC10AB43
:104AF0008BB007460D4610EE102A5B4610EE100AEA
:104B0000594618F0FDFE30B9AF493846FFF774FE3C
:104B10000BB0BDE8F08F002200235046594618F034
:104B2000EFFE68B952465B465046594618F0CAFA3D
:104B300002460B465046594618F0E2FE0028E3D1E3
:104B4000002200235046594618F0E4FE30B12D21D2
:104B50003846FFF778FF0BF100439B460123019392
:104B60002C460A2324B1019A5A43013C0192F9E7E9
:104B700091A3D3E900235046594618F0DFFE0028E0
:104B80006AD0DFF850924FF008084FF48076414623
:104B900004A8CDF81090FFF79CFD52465B4651ECFF
:104BA000100B18F0C1FE78B1884B0493414604A85D
:104BB000FFF78FFD5046594653EC102B18F038FC88
:104BC000344482468B4624B218F1FF384FEA660619
:104BD000DDD2CDF80C80002200235046594618F053
:104BE000B7FE00283DD076A3D3E9002350465946AE
:104BF00018F09AFEA8B300230293DDE90223A3EB89
:104C0000020919F0800F2CD10DF128086F4B48F8DC
:104C1000183D49464046FFF75CFD00226C4B51ECC5
:104C2000100B18F005FC52465B4618F091FE78B167
:104C3000684B049349464046FFF74BFD50465946A2
:104C400053EC102B18F0F4FBA41B82468B4624B2C5
:104C5000029B76100133CFE708234FF4807603934D
:104C6000B9E75046594618F0BBFE0A2206460346ED
:104C7000092B08D9B3FBF2F3013D0199B1FBF2F125
:104C80006DB20191F4E7304618F058FB02460B462E
:104C90005046594618F014FA80460198894618F093
:104CA0004DFB02460B464046494618F0C1FB804684
:104CB000894618F095FE824618F040FB02460B46E6
:104CC0004046494618F0FCF90B46024618F0FAF93E
:104CD00018F086FE019B0AEB0008434508D8013610
:104CE00094B1092E10D9013424B24FF000080126E6
:104CF0000A22B8FBF2F302FB138141B9002D06DD55
:104D0000013D98466DB2F4E74FF00008F0E70DF171
:104D100026010A22B6FBF2F302FB1366303601F8D5
:104D2000016D1E46002BF5D10DF12606721A38468C
:104D3000FFF751FDEDB108AA2B4611464FF00A0CC2
:104D4000013B5BB2581C09D0B8FBFCF00CFB10888F
:104D500008F1300802F8018D8046F1E7EDB2EB432F
:104D60004D1B2E2205F8012C19445A423846FFF7F4
:104D700032FD002C3FF4CCAE65213846FFF763FED0
:104D8000002CA5B205DA2D213846FFF75CFE6D42F6
:104D9000ADB231460A22B5FBF2F302FB13553035B2
:104DA00001F8015D9DB2002DF5D1721A3846FFF76A
:104DB00012FDADE6AFF3008000000000D0126341A9
:104DC000F168E388B5F8E43ECB110200900F0200D1
:104DD00000002440D80F02002DE9FF410579064666
:104DE0000C46018815F0100003D002F12C00FFF7EB
:104DF000CDF90C2D00F0998016D8042D00F0878095
:104E000006D8022D78D0032D00F08880504998E014
:104E1000062D00F093807DD30A2DF7D13268002350
:104E20002046FFF7F5FC1DE01C2D00F0848006D81D
:104E30000E2D0ED01A2DE9D1D0E90023F0E7202D58
:104E400035D0402D12D01E2DE0D1092190ED000B60
:104E500005E0306818F094FA41EC100B062120466A
:104E6000FFF742FEA06A04B0BDE8F0815B21204656
:104E7000FFF7E9FD35884FF6FF76B54212D0E76AB5
:104E8000294607F12C00FFF781F905463A462146ED
:104E9000FFF7A2FFED88B542EFD02C212046FFF7A7
:104EA000D2FDEAE75D212046FFF7CDFDDAE77B2161
:104EB0002046FFF7C8FD4FF6FF7735880126BD4233
:104EC00018D0D4F82C80294608F12C00FFF75EF9A1
:104ED000054642462146FFF77FFFED88BD4206D0DA
:104EE000002E0CBF2C213A212046FFF7ACFD86F0A6
:104EF0000106E4E77D21D6E70022314601A8FFF74D
:104F000055F9DDE901122046FFF7A6FDAAE70122C7
:104F10003168F3E73168CA880831F4E73168204620
:104F2000CA880831FFF757FC9CE73268D317204640
:104F3000FFF7C6FD96E7D0E90023F8E7337823B101
:104F400004492046FFF758FC8CE70349F9E700BF06
:104F5000CB110200EA110200EF1102002DE9F0432B
:104F6000B7B06B46002783E8030002AD3946104610
:104F700002920B9714F0ABFF0FCD0CAC0FC40FCD0A
:104F80000FC495E8030084E803000CAE0FCE16AD05
:104F9000DDE900890FC50FCE0FC594E8030085E851
:104FA000030016AE0FCE20AC0FC40FCE0FC495E891
:104FB000030020AE84E803000FCE2AAD0FC50FCE4C
:104FC0000FC594E8030085E8030020A83497FFF795
:104FD0003EF916A8CDF8D490FFF739F9B8F1000FD3
:104FE00012D04A462AA94046FFF7F6FE04462AA8F0
:104FF000FFF72DF90CA8FFF72AF902A8FFF727F908
:10500000204637B0BDE8F08302492AA8FFF7F4FB39
:10501000349CECE7CB1102002DE9F0432DED048B1D
:10502000A3B012AC7449204614F0A7FE002221461A
:10503000724804F061FD204614F054FE704B93ED6D
:10504000009AD3ED018A93ED028A5E69D3E9038762
:105050006C4B129315AB1D934FF4802300251E93C8
:1050600008A84FF6FF738DF84C501495ADF87C30BE
:105070008DF88450ADF8863004F074FB624B0F93CA
:10508000082310930EA801238DF844300E94FFF7E7
:1050900090FC089B0B930A9B8DF83450DDF83890F8
:1050A0000C93054648B14946FFF7F3F8CDF8009058
:1050B0000BAB0ECB2846FFF719FB08A814F012FE25
:1050C000524B0F9301250B23B0EE490A0EA8109303
:1050D0008DF844500E94FFF792FC4D4B0F93B0EEB9
:1050E000680A08230EA810938DF844500E94FFF719
:1050F00086FC484B0F93B0EE480A0E230EA810937F
:105100008DF844500E94FFF77AFC434B0F934146C1
:1051100011230EA810938DF844500E94FFF784FCD1
:105120003E4B0F93394614230EA810938DF844502C
:105130000E94FFF779FC3A4B0F930EA809238DF8D4
:1051400044500E941093FFF734FC0E99054620B19D
:10515000FFF79FF80A232B712E60324905A814F03F
:105160000CFE20ABCDE9033403AB93E8030005AAA2
:10517000FFF7F4FE2C490EA814F0FFFD05A90EA8B8
:1051800014F010FF002201461C4804F0B5FC0EA8E4
:1051900014F0A8FD05A908A814F089FE23490EA85B
:1051A00014F0EBFD0EAA08A9214802F0E7F8054625
:1051B0000EA814F097FD08A814F094FDB5B11D4990
:1051C0000EA814F0DAFD00220EA90C4804F094FC9D
:1051D0000EA814F087FD05A814F084FD2046FEF704
:1051E000F2FF23B0BDEC048BBDE8F08312490EA89A
:1051F00014F0C3FD0322E7E720100200DC080020C2
:1052000050080020B80300202D10020036100200C4
:10521000421002004B1002005A1002006C100200F3
:1052200081100200E21102008B10020099100200AE
:10523000E0080020AF100200C61002002DE9F04186
:105240002DED048B7448A6B000F022FF734803F0E4
:10525000D1FF15F06BFD0546714805F061FC032890
:105260005FD0704800F0A4FA6F4A1368EB1AB3F5E8
:105270007A7F56D36D48156000F022FE6B4800F02F
:1052800005FE00284DD0212200210DA818F043FF73
:105290004022002116A818F03EFF16AA0DA9634867
:1052A00000F0F7FD624907A814F067FD002207A986
:1052B000604804F021FC07A814F014FD16AA0DA9FB
:1052C000554800F0FFFE60B3584800F0F5FD5A491C
:1052D00007A814F052FD002207A9564804F00CFC60
:1052E00007A814F0FFFC554904A814F046FD4C49EA
:1052F00007A805F0D5FC07A901A814F007FB01A930
:1053000004A814F04FFE4E4914F058FE0022014646
:10531000484804F0F1FB01A814F0E4FC04A814F0E0
:10532000E1FC484A136842F20F71EB1A8B424FD9E5
:105330004549156016A814F020FD002216A93D4825
:1053400004F0DAFB16A814F0CDFC404804F032F863
:105350003E48F0EE408A04F031F83D48B0EE408A15
:1053600004F01EF93A48B0EE409A04F05BF90146A9
:105370000746374804F072F9F4EE688AF1EE10FA45
:10538000804630D6B4EE488AF1EE10FA2BD6314E74
:10539000346804F04DFD304B182202FB0433C3ED9A
:1053A000008A83ED018A83ED029AC3E9037858618C
:1053B00033680133002B336003DDFFF72DFE00233C
:1053C0003360234804F051F908B3164800F0F8F9A7
:1053D000224A23491368EB1A8B4213D90E481560F1
:1053E00002F094FE0EE01F4916A814F0C6FC03223A
:1053F00016A9104804F080FB16A814F073FC0948A5
:1054000000F0D6F926B0BDEC048BBDE8F08105486C
:1054100000F0C6F9DCE700BFE008002048090020E2
:10542000A41000207008002024090020B8070020E4
:105430004A110200DC080020F5110200841202006B
:10544000A7120200280900202612020030090020BD
:10545000B407002068080020500800202C09002014
:105460007FEE36003D120200F8B5174C174E184F6C
:10547000184D204604F006FB304603F0D3F82146D1
:10548000154803F075FF2146384600F079F92146AA
:10549000124804F069F82146114804F098F93B4697
:1054A00032462146284600F0DBFD0E4804F0E5F8C0
:1054B00021462A460C4803F06BF921460B48BDE80B
:1054C000F84000F0BBBB00BFDC0800202009002032
:1054D00070080020E008002030090020B4070020F8
:1054E000D80800206C08002048090020B8070020D8
:1054F00010B5124C04F12800FEF716FE04F11C0052
:10550000FEF71CFE04F11000FEF718FE201D07F048
:10551000DBFF0B480B4B0C4CC3601C3005F052FDFD
:1055200004F1340014F0DEFB04F1100005F04AFD34
:105530000648BDE8104012F0BDBC00BFB80700200F
:1055400048090020F4340200E008002098080020F8
:105550004308400003F0553300F0AA301843830895
:10556000800000F0CC3003F03333034318091B01F3
:1055700003F0F03300F00F30184300BA7047FFFF1C
:1055800030B585B0044600210DF10F0012F016FB76
:10559000431C21D004F12405104BDFED110A9FEDCF
:1055A000110A9DF80F20019400930021C3B22846F0
:1055B00012F0AAFB00220C210446284612F096FCA9
:1055C0000440284612F0FCFBE4B20440284612F0E6
:1055D0001EFC204005B030BD0020FBE7495600000E
:1055E0000000484200401C4630B5016802690D01C8
:1055F00085B004465059FFF7ABFF2A44019050682C
:10560000FFF7A6FF02909068FFF7A2FF0390D36810
:105610006269A3610131B1FBF2F302FB1311216056
:1056200049B994F8203003B9A361236E03B19847B8
:10563000012384F85C300C2201A9024818F047FDD0
:1056400005B030BD880900202C49F8B50D680A68FE
:105650002B4C0B68D210A25C5C4204F0070403F0F0
:10566000070358BF6342274C42FA03F3226822F42F
:10567000384222F018022260226C22F4415222F0B9
:105680003002DB07226404F140041CD51E4B1F4F7F
:1056900013F8152003EB45031C325B7837F83220F2
:1056A0001C331612360156FA82F237F8333004F5FD
:1056B000F864052644F822601A12120152FA83F3A4
:1056C000042244F823200B686024013393FBF4F296
:1056D00004FB12330B6080B1046874B1A36963B139
:1056E00015F024FBE369C01AA369984205D9204646
:1056F000FFF77AFF15F01AFBE061F8BD840900207E
:1057000088090020000004402814020034410200EF
:1057100030B585B00B6800934B6801938B6802939A
:10572000002501230560C0F810D0436104460395AD
:10573000FFF75AFFA56105B030BDF8B50F46011D52
:105740000E463D460024EB1BDBB29A420AD915F8FF
:1057500001CB01334CEA0404DB0604BF3460043699
:105760006400F0E7FFF7D4FFF8BD1FB5002301A9DF
:10577000CDE901330393FFF7CBFF05B05DF804FBE0
:1057800038B50025044601604560C0E9075580F83A
:105790002450283012F050F984F86050204638BD6B
:1057A00008B502490430FFF7B3FF08BD1814020022
:1057B00008B502490430FFF7ABFF08BDF81302003B
:1057C00008B502490430FFF7A3FF08BD0814020022
:1057D0001FB504460430FFF7D3FE2046FFF7F0FF65
:1057E0002468064901A814F0C8FA01A9204604F06B
:1057F0004BF901A814F076FA04B010BDE8140200C9
:1058000070B505460324061D2846FFF7D9FF4FF45F
:10581000FA7015F047FA3046FFF7A7FF4FF4FA7019
:1058200015F040FA013CEFD170BDFFFF70B5602468
:10583000B0B00646351D22462F49684618F047FC91
:10584000224669462846FFF778FF4FF47A7015F034
:1058500029FA224600210DEB040018F05CFC01231C
:1058600022460DEB040128468DF86E308DF8753018
:105870008DF87A308DF881308DF886308DF88D3046
:105880008DF892308DF899308DF89E308DF8A530D6
:105890008DF8AB308DF8AC308DF8AD308DF8AE3082
:1058A0008DF8AF308DF8B030FFF747FF4FF44870F8
:1058B00015F0F8F9224669462846FFF73EFF4FF4F7
:1058C0002F7015F0EFF93046FFF76AFF4FF42F7095
:1058D00015F0E8F9224669462846FFF72EFF4FF4F7
:1058E0002F7015F0DFF93046FFF75AFF4FF42F7095
:1058F00015F0D8F930B070BDD81202002DE9F04390
:105900000C1EB3B0054643DB632C42DD03260DF1CC
:10591000C809012400F104081AAB1F4600229C5458
:1059200001320C2AFBD10C334B45F7D160223946AA
:105930004046FFF702FFC82015F0B4F92846FFF7EC
:105940002FFF4FF4FA7015F0ADF9013EE4D160225B
:105950003146384618F0DFFB4046602239468DF864
:105960007D408DF888408DF893408DF89A408DF8F1
:105970009E408DF8A7408DF8A9408DF8B440FFF700
:10598000DCFE4FF4FA6015F08DF933B0BDE8F0831A
:1059900000246022514902A818F099FB0A230093C1
:1059A000002319466422204613F070FE012608AB3E
:1059B00014A90122824202DC9E540132FAE70C3320
:1059C0008B42F6D10435602202A92846FFF7B5FEC6
:1059D00015F0ACF9424B1A6841F28831821A8A42BA
:1059E0000AD8192194FBF1F201FB1242002ACCD112
:1059F0003C4A1268A242C8D018603A4B192C1C606D
:105A000036D1602200211AA818F085FB012340F24C
:105A10000112ADF876208DF87830ADF87A20ADF827
:105A20007C208DF881308DF889308DF895308DF897
:105A30009C308DF8A0308DF8A7308DF8AB30ADF8E4
:105A4000B220ADF8B4208DF8B7308DF8B8308DF8AD
:105A5000B93060221AA92846FFF76FFE40F2DC50E9
:105A600015F020F9602202A92846FFF766FE8CE7B0
:105A7000322C05D160221C491AA818F028FBE8E74F
:105A80004B2CEBD1602200211AA818F044FB012313
:105A900040F201128DF875308DF876308DF8773040
:105AA0008DF87830ADF87A208DF87C308DF8843020
:105AB0008DF889308DF890308DF895308DF89B30C9
:105AC0008DF8A0308DF8A6308DF8AB308DF8B13060
:105AD000ADF8B6208DF8B830BBE700BF3813020030
:105AE00094090020BC0300209813020070B5E0B0B8
:105AF000054660220021684618F00DFB6022012453
:105B00004FF0013600210DEB02008DF827408DF893
:105B10002C408DF833408DF838400796109618F0D9
:105B2000FAFA6022002130A88DF871408DF8724099
:105B30008DF87C408DF87F408DF887408DF88C4043
:105B40008DF893408DF898408DF8A0408DF8A340D3
:105B50008DF8AD408DF8AE4018F0DDFA60220021DE
:105B600048A88DF8DB408DF8E0408DF8E7408DF8CF
:105B7000EC408DF8F3408DF8F8408DF8FF408DF83B
:105B800004413496439618F0C6FA8DF82E418DF8EC
:105B900031418DF834418DF837418DF83A418DF817
:105BA0003D418DF840418DF843418DF846418DF8D7
:105BB00049418DF84C418DF84F418DF852418DF897
:105BC00055418DF858418DF85B418DF85E418DF857
:105BD00061418DF864418DF86A418DF86D418DF811
:105BE00070418DF873412C1D602248A92046FFF7B3
:105BF000A4FD4FF4487015F055F80325602269465E
:105C00002046FFF79AFD4FF4967015F04BF860228E
:105C10000DEB02012046FFF790FD4FF4967015F052
:105C200041F8602230A92046FFF787FD4FF49670B7
:105C300015F038F8013DE1D160B070BD10B50446F3
:105C400040F8041B104907F075FC21230A220F4974
:105C500004F1100007F094FC40230A220C4904F1DF
:105C60001C0007F08DFC0A220A4904F1280007F005
:105C7000D9FC002384F8953084F8343084F855300A
:105C8000054B20461C6010BDE71502000C160200F3
:105C9000311602005616020098090020F0B5214D79
:105CA00085B0044600F11007294601A814F065F8F4
:105CB00001A9384607F072FC01A814F013F804F1AA
:105CC0001C06294601A814F058F801A9304607F02F
:105CD00065FC01A814F006F8002304F128058DF8EE
:105CE000043001231A46043401A9284607F030FA8B
:105CF0003946204607F03CFC3146204607F038FC88
:105D00002946204607F034FC074B186803682146F3
:105D10001B6D9847054A0321284607F036FA05B05F
:105D2000F0BD00BFE2110200883802007D5E000075
:105D300070B5294B1C6823688AB006469B682046CC
:105D40009847054678B93468244907A814F015F82F
:105D5000032207A9204603F0CFFE07A813F0C2FFD5
:105D600028460AB070BD1E4907A814F006F81D4960
:105D700004A814F002F804A907A814F013F90146C6
:105D800001A814F094F804A813F0ACFF07A813F0CE
:105D9000A9FF23680199DB6B204698472368311DD2
:105DA000DB6A204698473046FFF778FF2368204695
:105DB0005B6D984734680C4907A813F0DEFF00229A
:105DC00007A9204603F098FE07A813F08BFF01A84F
:105DD00013F088FF0120C4E788380200671502002D
:105DE0008715020092150200A61502007FB500F18A
:105DF00028050446284607F097F90646284607F086
:105E000089F93146024601A818F061F99DF804307D
:105E100083B304F1100101A807F0C4FB202201990B
:105E200004F1340018F0E6FF002501A813F05AFF32
:105E300004F11C0184F8545001A807F0B3FB3F2281
:105E4000019904F1550018F0D5FF01A813F04AFF9D
:105E5000012384F8953084F894502468064901A8F9
:105E600013F08BFF20462A4601A903F045FE01A846
:105E700013F038FF04B070BDFF140200024B186825
:105E800008B1FFF7B3BF70479809002090F895005C
:105E9000704738B50446154694F89530084653B116
:105EA00004F1340118F084FF04F155012846BDE8DF
:105EB000384018F07DBF38BD002380F8953070471A
:105EC00030B5204B19680B689BB004461B6F07A8C0
:105ED000984707A807F0C8F978B31B49256804A8B4
:105EE00013F04BFF07A901A807F0A4F901A904A822
:105EF00014F058F800220146284603F0FDFD01A8E1
:105F000013F0F0FE04A813F0EDFE07A807F0BCF9AB
:105F100030B194F895301BB90A2014F0C3FEF4E7B1
:105F200024680A4904A813F028FF2046002204A987
:105F300003F0E2FD04A813F0D5FE07A807F037F937
:105F40001BB030BD8838020028150200461502003B
:105F50004FF6FF7399421FBF0368CA0903EBC203E0
:105F600001F07F011ABF586800EBC10000207047A4
:105F700010B50446B4F5803F08460BD209216118DC
:105F800008D203681B68984700B910BD0123C4807C
:105F90008380FAE70020F8E70A680B46526801465A
:105FA0001846104710B50A79042A044608D0052A75
:105FB00009D0022A0FD10022FEF7F8F8204610BDC2
:105FC00001220968F8E70B68DA880833C0E9003273
:105FD00000232372F2E70023C0E900330123F8E72E
:105FE000B2F5803FF8B506460F461546046807D25D
:105FF000236809329B682046984708B1C580F8BDE0
:10600000236820465B683946984701233371002096
:10601000F5E738B5002383604368044643B9056853
:106020001F202968FFF7A4FF08B901232B716060C6
:1060300038BD38B50D464168044649B18268CB8801
:106040009A4205D1520001320068FFF7C9FF606033
:10605000636823B1A2681344511CA1601D7238BD4E
:1060600038B504460025C0E900128360C5601030D1
:1060700005F02EFB84F83050034904F1340013F08E
:106080007CFE204638BD00BFE2110200C1607047AF
:1060900002F0CABA1FB50346C06818B103F062FC2B
:1060A00004B010BD1C68064901A813F066FE204626
:1060B000022201A903F020FD01A813F013FEEFE76F
:1060C000C41902002DE9F04F8DB0076804460D4653
:1060D00006A85B49164613F050FE294603A813F0A4
:1060E0004CFE03A906A813F05DFF002201463846C6
:1060F00003F002FD03A813F0F5FD06A813F0F2FD6E
:10610000A068FFF75DFB4F4804F00AFD032806D1A5
:106110004C4804F031FE4FF47A7014F0C3FD32465F
:1061200029464848474FDFF828A1DFF828B104F096
:1061300027FD14F0FBFD81464FF00708384604F0B8
:10614000EFFC03281FD014F0F1FD44F61F63A0EB11
:106150000900984217D85146584613F0EEFC4FF408
:106160007A7014F09FFDB8F10108E7D1384604F0C9
:1061700003FE4FF4FA7014F095FD32462946384676
:1061800004F0FEFCD8E714F0D1FDDFF8B880074634
:1061900044F61F69414606A804F082FD002106A8C6
:1061A00013F081FC03788BB3264804F0B9FC032874
:1061B0000CBF4FF001084FF00008276830D122498A
:1061C00003A813F0DAFD1F4906A804F069FD06A92B
:1061D000684613F09BFB694603A813F0E3FE002218
:1061E0000146384603F088FC684613F07BFD03A89F
:1061F00013F078FDA068FFF7D3FA3246294620460F
:10620000FFF748FF40460DB0BDE8F08F14F08EFD5B
:10621000C01B4845C8D84FF4FA7014F043FDB9E7E5
:106220000A4906A813F0A9FD032206A9384603F07F
:1062300063FC06A813F056FDA068FFF7B9FAE1E782
:10624000AC160200A4100020C1160200D9160200EC
:10625000EB1E0200C41C0020014A0249FFF732BFB6
:10626000F3160200FD16020030B5C46885B024B1F3
:10627000204603F097FB05B030BD0568064901A82C
:1062800013F07BFD022201A9284603F035FC01A88A
:1062900013F028FD2046EEE78919020030B5A1B0C1
:1062A00004462122002107A817F035FF40220021D3
:1062B0000DEB020017F02FFF10AA07A92046FFF7E9
:1062C000D3FF08B32568124901A813F056FD002238
:1062D00001A9284603F010FC01A813F003FD10AA41
:1062E00007A92046FFF7EEFE0A4804F019FC032830
:1062F00008D1084901A804F0D3FC074A074901A8BE
:1063000002F0D4F921B030BD2046FFF7A5FFEBE73E
:106310002A1F0200A4100020F3160200FD1602003E
:106320002DE9F047002504460E46A946A28C276AAF
:10633000ABB29A420FD907EBC3089A46D8F80410BB
:1063400019B1336830465B68984747F83A90013591
:10635000C8F80490EAE70023A384BC424FF6FF7319
:10636000238507D0336839465B6830469847042355
:106370002462E384BDE8F08730B5022303710A7913
:1063800003461C1AE5B2AA4204D90D682C5703F83B
:10639000014BF6E70023835430BDC0E900120F2201
:1063A00082600122027370472DE9F3470E8D4FF68C
:1063B000FF739E4205460C4617460CD0314604F149
:1063C0002000FFF7C5FD038823852860AE8028469E
:1063D00002B0BDE8F0878B8C53B16E463046FEF7B5
:1063E000DDF8009B23B196E8030085E80300EEE7A3
:1063F000A28CE38C934217D1B3F5007F3FD05B00B2
:106400009EB2236A3968A3424FEAC6022FD10B68B5
:10641000384611469847804688B32022214617F017
:1064200056FEC4F82080E684B4F82480D4F820A076
:1064300008F101039BB2B3F5007FA3843B680CBF56
:106440007F268026F1001B68384698470AEBC8096A
:10645000002808BF00260023C9F8040021462AF8B6
:1064600038602846A9F80230FEF798F8AFE7D1F86F
:10647000088038461946C04780460028D1D10023FD
:106480002B604FF6FF73AB80A1E737B50A6804466F
:106490000D4668460C31FFF787FF009B43B9012288
:1064A00023604FF6FF732A71A380204603B030BDEE
:1064B000BDF804202360A280F7E7FFFFFFFFFFFF86
:1064C0002DE9F74F91F900302B2B044632D02D2BBC
:1064D00031D10131012591F90020A2F13003DBB265
:1064E000092B01D92E2A28D1DFF868B2884600206E
:1064F00000214FF0993A4FF00A0EC4461CF9013BB7
:10650000A3F13002D2B2092A1DD88B4508BF8245BB
:1065100020D30EFB01F3A0FB0E0119440023D2B2DD
:10652000DF43D6438F4208BF864213D380185941B8
:10653000E046E2E701310025CDE700232370204645
:1065400003B0BDE8F08F2BB9E5B1B1F1004F08BF42
:1065500001280FD3764F00234FF0FF368F4208BF3C
:10656000864203F1010910D200230A2217F0F8FA3B
:106570004B46F3E702234042237061EB4101C4E93B
:106580000201DCE703232370F9E7A3EB080707EB1D
:106590000806434618F901CB32B2ACF13006F6B228
:1065A000092EF4D9BCF12E0F22D1C6460FF278196C
:1065B000D9E900894FF00A0A73460EF1010E93F8EB
:1065C00000C0ACF1300C5FFA8CFCBCF1090F0FD8A5
:1065D000894508BF8045EFD3A0FB0A6716EB0C0086
:1065E0000AFB017702F1FF3647F1000132B2E3E71F
:1065F00093F9006026F02006452E66D193F90160DC
:106600002D2E25D19F1C4FF0010C00264FF00A08BB
:106610003B4617F901EBAEF1300E5FFA8EF9B9F196
:10662000090F26D808FB06E6B318B3F59A7FEFDD0D
:10663000BCF1000F13D0DFED3F7A9FED3F7A002DC4
:1066400018BFF0EE477A01232370C4ED027A76E793
:106650002B2E14BF5F1C9F1C4FF0000CD5E70022AF
:106660002DB1364B04212170C4E9022367E7344B76
:10667000F8E7BCF1000F00D0764293F90030002B10
:106680007FF45BAF164406F126034C2B24D8002977
:1066900008BFB0F5000F1FD207EE900A002EF8EEEB
:1066A000E77AD6BF27492849764200237EB1F20710
:1066B00042BFDAB201EB820292ED007A4FEA66063F
:1066C00048BF67EE877A0133F0E70026D5E7002D53
:1066D000B9D0F1EE677AB6E716F074FE002ECABFA5
:1066E0001A4B1B4B019380468946DCBF01937642CF
:1066F000002786B1F3070BD5F9B201A8FDF7E9FF32
:106700004046494653EC102B16F092FE80468946CF
:1067100076100137EDE715B109F1004399460423DE
:106720002370C4E902890AE7989999999999010017
:10673000FFFF0F0000000000000000800000F0FFDD
:106740000000F07F7C16020094160200D80F0200B1
:10675000900F02009999991970B5006878B1C488B2
:106760004B689C42F9D10D6800239C4207D9C2189E
:10677000EE5692F908209642EFD10133F5E770BD4D
:106780002DE9FF4182684368032A04460D4603F160
:10679000080319D818460021D7B2C61AF6B2BE426D
:1067A00006D210F9016B002E08BF41F00101F4E799
:1067B00051B98DF80C10284601A9CDE90132FFF737
:1067C000DBFD04B0BDE8F08100269E542768D4F8B4
:1067D00008808DF80C6001A907F10800CDE90138A7
:1067E000FFF7BAFF68B9424661683846FFF7F8FB21
:1067F00023689A6802609860666005232B712860A0
:10680000DFE7838801338380F7E72DE9F0418AB021
:1068100001AC84E80E00109D0F4671B907914FF648
:10682000FF73ADF82030079820B107A82946FDF77F
:1068300000FD07980AB0BDE8F0810488DDF8088003
:10684000214605F12C00FFF783FBADF818400590B9
:10685000C0B1C388ADF81A30012607AC0599D9B18B
:106860009EB12046FFF79EFB089A42450DD107993D
:1068700000239A4212D017F903C0C856844504D1A8
:106880000133F6E74FF6FF73E4E7294605A886F0E3
:106890000106FDF7CEFCE1E70791C0E705AB93E801
:1068A000030084E80300BEE730B5054689B00C4616
:1068B000084609B118F084FACDE9024000248DF8A9
:1068C000104002AA95F83C3007CA202B08BF05F1FA
:1068D000380405AB83E807004CB100950ECB204689
:1068E000FFF793FF003018BF012009B030BD2046EC
:1068F000F8E7FFFFFFFFFFFF30B585B001466846B0
:10690000FFF7DEFD9DF80030013B032B48D8DFE8A0
:1069100003F00218242FDDED027A9FED257AF4EEC4
:10692000C77AF1EE10FA3BDB9FED227AF4EEC77ADC
:10693000F1EE10FA34D8FDEEE77A17EE900A05B0C2
:1069400030BDDDE9020110F1004241F10003012BED
:1069500008BF002A28BF0020F1E7DDE9020100237B
:106960008B426FF0004208BF824238BF0020E6E74A
:10697000DDE902450022104B2046294616F0DEFFD5
:106980000028DCD008A3D3E900232046294616F0CE
:10699000CBFF0028D3D02046294616F0F9FFCEE7DA
:1069A0000020CCE7AFF300800000C0FFFFFFDF4115
:1069B000000000CFFFFFFF4E0000E0C1FFFFFFFF20
:1069C00038B5057904460B46018815F0100003D050
:1069D00003F12C00FFF7BCFA023D1C2D65D8DFE85F
:1069E00005F02E6432340F646464116415643764F6
:1069F00064646464646464646464176422644C0062
:106A0000207838BD206820EAE070FAE72068F8E7CF
:106A1000D0E9000100238B426FF0004208BF8242A0
:106A200038BF0020EDE7D0E9000110F1004241F14C
:106A30000003012B08BF002A28BF0020E1E7204601
:106A4000FFF75AFFDDE72068FAE720680830F7E72C
:106A5000D4ED007A9FED187AF4EEC77AF1EE10FAD1
:106A600023DB9FED167AF4EEC77AF1EE10FA1CD80C
:106A7000FDEEE77A17EE900AC3E7D0E90045002261
:106A80000F4B2046294616F059FF0028B9D008A31D
:106A9000D3E900232046294616F046FF0028B0D04F
:106AA0002046294616F074FFABE70020A9E700BF97
:106AB0000000C0FFFFFFDF41000000CFFFFFFF4EDF
:106AC0000000E0C1437E6BB9D0E9043293423DBF80
:106AD0005A1C02611B784FF0FF3323EAE3730376FD
:106AE0000123437690F91800704738B50446002515
:106AF0002046FFF7E7FF0A2806DC092808DA48B134
:106B00000123237300200AE00D2801D02028F7D1AB
:106B10006576EDE7237B002B14BF0220012038BDF2
:106B200070B505464C1E002614F9010F50B12846D9
:106B3000FFF7C8FF28B194F90030834203D16E7685
:106B4000F2E7022070BD0320FCE72DE9F04387B097
:106B500006460D46FFF7B6FF002427462F28E3B26E
:106B60000BDD39280BDC0134402C24D03319777627
:106B7000D8773046FFF7A6FFF0E72B28F3D0A0F137
:106B80002D02D2B2012AEED920F0200252B2452ABB
:106B9000E9D03344002283F8202006F1200102A826
:106BA000FFF78EFC9DF80830013B032B62D8DFE82D
:106BB00003F03924043E3F23EBE7DDE90489B9F112
:106BC000010F08BFB8F1000F07D20A232B71C5F8D7
:106BD0000080002007B0BDE8F083F1696846FFF748
:106BE00054FC009B0BB90420F4E71A222A71BDF86B
:106BF00004202A80C3E90089EBE7DDE9048918F164
:106C0000004249F10003012B08BF002A01D20C23E6
:106C1000DCE7F1696846FFF738FC009B002BE2D007
:106C20001C22E3E70E232B71049B2B60D1E7DDE9E7
:106C300004894946404616F0F3FE074616F0A0FBCD
:106C400002460B464046494616F05AFE18B10E233E
:106C50002B712F60BDE7F1696846FFF716FC009BBA
:106C6000002BC0D01E222A71BDF804202A80C3E95F
:106C70000089AEE70320ADE770B550F8046B07C894
:106C80008CB003AB16F1380583E8070002D1002071
:106C90000CB070BD93E8070096F83C30202B06AC92
:106CA00009AB18BF002584E8070083E80700002D22
:106CB000EDD000960ECB2846FFF7A7FDE8E770B5AC
:106CC0000646FFF7D9FF054688B10479018814F01C
:106CD000100003D030682C30FFF73AF90C2C29D083
:106CE00006D8062C24D00A2C24D07CB3012070BDF9
:106CF0001A2C24D00BD80E2CF8D1D5ED007AF5EE55
:106D0000407AF1EE10FA14BF01200020EFE71C2CAE
:106D100015D01E2CEAD100220023D0E900014FF04B
:106D2000010416F0EDFD08B14FF00004E0B2DEE71B
:106D30002878DCE72868003018BF0120D7E7D0E9C1
:106D40000023134314BF01200020D0E72046CEE7E4
:106D5000F8B506460F46FFF78FFF3368054668B162
:106D60000479018814F0100003D003F12C00FFF720
:106D7000EFF80C2C1AD003D80A2C12D038681CE07B
:106D80001A2C1BD01C2CF9D1D0E9002312F10040A1
:106D900043F10001012908BF002834BF012300236B
:106DA00002E02B68DB43DB0F002BE7D03046FFF718
:106DB00063FF316808B1FFF703FEF8BDD0E9002397
:106DC000002199426FF0004008BF90422CBF012380
:106DD0000023E9E738B504460D46FFF773FEA842E5
:106DE0004FF0000004BF6076012038BD7F2837B522
:106DF0000C4605D841B22046FFF71BF903B030BD61
:106E000000238DF8003000F03F03800982B263F068
:106E10007F031F2A8DF80130C3B20DD863F03F0302
:106E20008DF802300DF1030515F9011D0029E5D09B
:106E30002046FFF7FEF8F7E7C0F3891003F03F03A1
:106E400063F07F030F288DF80230C3B205DC63F0D6
:106E50001F038DF8033001ADE6E703F03F03801117
:106E600063F07F0360F00F008DF803308DF80400AD
:106E70000DF10505D8E7FFFF2DE9F0478046FFF744
:106E800021FE0024384E88F8194007462546404622
:106E9000FFF718FE8742014688F819505CD010B9F8
:106EA0000220BDE8F0875C2852D14046FFF70AFE79
:106EB0000028F5D075283CD188F819504FF0040906
:106EC0004FF0000A4046FFF7FDFD0028E8D04028BB
:106ED000CBBF20F020023038373AC3B2C8BFD3B29C
:106EE0000F2B01D90320DCE709F1FF3943EA0A132C
:106EF00019F0FF091FFA83FA88F81950E2D10AF550
:106F000020539BB2B3F5806F02D2CAF30904BEE7E7
:106F10000AF510539BB2B3F5806F3DBFCAF3090A5F
:106F20004AEA842A0AF5803050464146FFF75EFF60
:106F3000ADE700239A579919002AD3D0904203F164
:106F40000203F7D191F901100029CBD088F819502C
:106F50004046FFF76EF89AE7D8F80430002B0CBFD4
:106F6000042000209DE700BFD011020070B50E463E
:106F700086B00446FDF71DFDB36832682568CDE98B
:106F8000032300238DF81430064648B12946FDF747
:106F900080F9009506AB13E90E003046FDF7A6FB1D
:106FA000206810B1007980F0010006B070BDF0B526
:106FB00087B00F460546FDF7FCFC044638462E68B0
:106FC00017F0FEFE0023CDE903708DF8143054B1A4
:106FD00031462046FDF75DF9009606AB13E90E0039
:106FE0002046FDF783FB286810B1007980F001008E
:106FF00007B0F0BD2F280EDD392803DD5E2803DD44
:107000007A2803DC01207047402804DD5A28CCBFD1
:107010000020012070470020704770B50446FEF73D
:10702000F8FF2046FFF74EFD27281ED022281CD04F
:107030002046FFF747FD0546FFF7DCFF98B1002625
:10704000294620466676FEF7F4FF2046FFF73AFD14
:107050000546FFF7CFFF0028F2D16368002B0CBF75
:107060000420002000E0032070BD2046FFF704FF4D
:10707000FAE72DE9F04F5FFA83F98DB004460D462B
:10708000B9F1000F00F0858000234376FFF72DFD56
:10709000B8B97D212046FFF79DFE88B90DF124087F
:1070A0002046FFF7BAFF60B92046FFF71EFD0646EF
:1070B00038B93A212046FFF78DFE28B9032000E0B9
:1070C00000200DB0BDE8F08FD4E9013213448DF8F3
:1070D0002C601E72D4E901320833CDE90932E3692C
:1070E000009398E80E002846FFF78FFB074600281C
:1070F0004BD1D4F81CB005A85946FDF76CFA059E93
:107100000EB90420DDE7594607A8FDF764FA079F8A
:10711000002FF6D0BDF820A0A6F806A06988BDF81B
:1071200018304FF6FF7291422DD00BF12C000393D3
:10713000FEF70EFF039BC380A5F802A03146204650
:10714000FFF71EFB09F1FF334FF0000239462046DE
:1071500000F022F80028B4D12046FFF7C6FC002832
:10716000AFD17D212046FFF735FE0028A8D12C2184
:107170002046FFF72FFE0028A0D02046FFF7B5FCE1
:1071800000288DD09DE72B80D6E7E169FDF781F8D7
:10719000D8E7052095E7FFFFF8B506460C461F46E1
:1071A000FFF7A3FC0546B8B93046FFF78BFC66280D
:1071B00042D013DC272803D05B2817D0222840D1E7
:1071C0003046FEF726FF3046FFF756FE054618B953
:1071D00021463046FFF7D4FA2846F8BD742822D05D
:1071E0007B2812D06E282CD1184921E0402323712E
:1071F0004FF6FF73238063804FF000023B46214629
:10720000304600F029F80546E6E7202323714FF6C3
:10721000FF73238063804FF000023B4621463046D7
:10722000FFF727FFEFE706232371094901232370A6
:107230003046FFF775FCE6E7062323712570054904
:10724000F6E721463046FFF780FCDCE7CB11020071
:10725000EA110200EF1102002DE9F347DDB2044606
:107260000E46002D46D000234376FFF73EFCA8B91A
:107270005D212046FFF7AEFD78B94FF6FF7A013D5C
:10728000D4F81C9068464946FDF7A5F9DDF8008062
:10729000B8F1000F05D1042000E0002002B0BDE8E5
:1072A000F0877188BDF80470514521D009F12C0098
:1072B000FEF74EFEC78077802B464FF00002414616
:1072C0002046FFF769FF0028E8D12046FFF70DFCB4
:1072D0000028E3D15D212046FFF77CFD0028DCD1AA
:1072E0002C212046FFF776FD0028C9D10320D5E7E1
:1072F0003780E0E70520D1E72DE9F04104460E682C
:107300008D68016898B000F138070C30FFF708F875
:107310000023D4F8008023713544A06828B10368A5
:10732000A3604146FEF738FEF7E784F83C00CDE95C
:10733000004002908DF80C008DF819004FF00A0300
:107340004FF0000239466846CDE904650794FFF71F
:1073500023FF054640B99DF918302BB194F83C3015
:1073600013F0080F18BF0325019818B1009B196886
:10737000FEF712FE284618B0BDE8F0812DE9F04F67
:10738000DFF870928DB004460F46904601268A4879
:1073900003F0C6FB03284FD1A06804F11005FEF7E7
:1073A0000FFA40F6B8324946284603F057FE002847
:1073B0005CD12568814909A812F0DFFC2846032228
:1073C00009A902F099FB09A812F08CFC032E05D143
:1073D000A068FEF7EDF94FF0000A43E07849256810
:1073E00006A812F0CAFC0A22314603A812F0F5FCE6
:1073F00003A906A812F0D6FD724912F0DFFD0A2299
:107400008246022109A812F0E8FC09A9504612F0B0
:10741000C9FD00220146284602F06EFB09A812F0C1
:1074200061FC03A812F05EFC06A812F05BFCA068E9
:10743000FEF7E6F90136AAE72568634909A812F0C4
:107440009CFC022209A9284602F056FB09A812F06A
:1074500049FCA068FEF7ACF92046FEF7FDFE824627
:10746000002899D150460DB0BDE8F08F574903A8C8
:1074700012F083FC414603A812F094FD544912F027
:107480009DFD544912F09AFD4946824606A812F025
:1074900074FC06A9504612F085FD4F4912F08EFD8E
:1074A0004E4912F08BFD4E4912F088FD0A228246A9
:1074B000B96809A812F0A3FC09A9504612F072FDA0
:1074C000454912F07BFD474912F078FD394612F02C
:1074D00069FD0146684612F0EAFC09A812F002FCB8
:1074E00006A812F0FFFB03A812F0FCFB6946284631
:1074F00012F01EFB13F01AFC42F20F7B824613F0CF
:1075000015FCA0EB0A0058454CD8284603F03EFE77
:1075100000284CD0294603A812F0B8FB284603F0F7
:10752000B9FF314906A812F028FC06A903A812F0F9
:1075300002FE002830DC2D4909A812F01EFC09A922
:1075400003A812F0F8FD002809A8D4BF4FF0000AE4
:107550004FF0010A12F0C6FB06A812F0C3FBBAF105
:10756000000F1CD02249256809A812F006FC4146EC
:1075700009A812F017FD0146284602F085FA09A86D
:1075800012F0B0FBA068FEF70BF903A812F0AAFBFB
:10759000684612F0A7FB65E74FF0010ADCE703A895
:1075A00012F0A0FB284603F075FF68460CE70A209E
:1075B00013F078FBA3E700BFA4100020451A0200D7
:1075C000FF1902000E1A0200211A0200611A0200BD
:1075D000671A0200731A0200BF1A02007A1A020028
:1075E0009B1A0200AC1A02002F220200C21A0200EB
:1075F000CE1A0200131A0200F0B59DB00CAC05685B
:1076000041490646204612F0B8FB00222146284692
:1076100002F072FA204612F065FB3C4B0C930FAB64
:1076200017934FF480230025189305A84FF6FF7396
:10763000ADF86430ADF86E308DF834500E958DF89D
:107640006C5002F08FF8324B09930127082305A9EB
:1076500008A80A938DF82C700894FFF787FC05A8FA
:1076600012F040FB2B4B09932B498DF82C7009230A
:1076700008A80A930894FFF79AFC284A214608A80C
:10768000FEF78BFE264908A8FFF791FC254902A8C2
:1076900012F073FB1AABCDE900346B4693E803009C
:1076A00002AAFDF75BFC02A905A812F000FC1E4926
:1076B00008A812F062FB08AA05A93046FFF75EFE93
:1076C000074608A812F00EFB05A812F00BFB36685F
:1076D000A7B1164908A812F050FB2A4608A930465F
:1076E00002F00AFA08A812F0FDFA02A812F0FAFA5B
:1076F0002046FCF768FD38461DB0F0BD0C4908A8CF
:1077000012F03BFB0322E9E701170200B803002057
:107710002D10020020170200921502002A17020005
:107720003A170200E2110200411702005617020048
:10773000751702002DE9F04F00F110050446B3B0B3
:107740000F469046B04940F6B832284603F086FC12
:107750002668814680B9AD4912A812F00EFB30466A
:10776000032212A902F0C8F912A812F0BBFA4E4681
:10777000304633B0BDE8F08FA549DFF8D892DFF886
:10778000D8A212A812F0F9FA002212A9304602F08B
:10779000B3F912A812F0A6FA9E49266812A812F0B0
:1077A000ECFA0A2241460EA812F017FB0EA912A805
:1077B00012F0F8FB984912F001FC0146304602F045
:1077C00063F90EA812F08EFA12A812F08BFA934900
:1077D000266812A812F0D1FA394612A812F0E2FB7C
:1077E0000146304602F050F912A812F07BFAA06868
:1077F000FEF77CF98A490EA812F0BFFA39460EA8A6
:1078000012F0D0FB874912F0D9FB874912F0D6FB62
:107810007D49064612A812F0B0FA12A9304612F0BD
:10782000C1FB824912F0CAFB814912F0C7FB014635
:1078300005A812F03CFB12A812F054FA0EA812F0A0
:1078400051FA05A9284612F073F913F06FFA42F2C3
:107850000F77064613F06AFA801BB84207D828460D
:1078600003F094FCC0B90A2013F01CFAF2E7246874
:10787000704912A812F081FA2046032212A902F0E0
:107880003BF912A812F02EFA284603F003FE002658
:1078900005A812F027FA6BE70A2229460EA812F073
:1078A00009FA494612A8D4F800B012F066FA0EA9F7
:1078B00012A812F077FB0146584602F0E5F812A82C
:1078C00012F010FA51460EA812F0A7FB28B30EA82A
:1078D00012F008FA2668584912A812F04EFA00224F
:1078E00012A9304602F008F912A812F0FBF940463E
:1078F00000F016FF2768064698B9504912A812F002
:107900003CFA3846032212A902F0F6F812A812F047
:10791000E9F9284603F0BEFDBAE70EA812F0E2F935
:10792000A1E7474912A812F028FA002212A9384606
:1079300002F0E2F812A812F0D5F913F0F7F9834635
:1079400013F0F4F900218246A068FDF7D7FF28461E
:1079500003F01CFC80B926683A4912A812F00DFA0F
:10796000022212A9304602F0C7F812A812F0BAF9A2
:107970004FF47A7013F096F94FF0FF39002747451E
:1079800080F2158113F0D2F947F23053A0EB0B00CF
:1079900098420FD924682C4912A812F0EEF920461B
:1079A000022212A902F0A8F812A812F09BF900F026
:1079B000E3FE69E713F0BAF942F21073A0EB0A0094
:1079C000984202D924682149E6E7284603F0DEFB05
:1079D000002800F0B780802212A9284603F0CFFCCF
:1079E000061E3BDC26681A490EA812F0C6F90222D0
:1079F0000EA9304602F080F80EA812F073F9642048
:107A000013F050F9BBE700BF131A0200801C0200FC
:107A1000A51C0200C11C0200CF1C0200D61C0200E3
:107A2000E51C0200671A0200731A0200BF1A020066
:107A3000AC1A0200EA1C0200141D0200341D0200F0
:107A40005C1D02007C1D02009C1D0200C61D020080
:107A5000F41D02000B1D0200D03C020013F066F979
:107A60003146824612A800F067FE86422AD0019075
:107A7000B04924680BA812F080F90A22314608A800
:107A800012F0ABF908A90BA812F08CFAAA4912F06F
:107A900095FA019B0A22194606460EA812F09DF996
:107AA0000EA9304612F07EFA0146204601F0ECFFA6
:107AB0000EA812F017F908A812F014F90BA812F08A
:107AC00011F974E73744642605237E4396FBF8F6E4
:107AD00096FBF3F299FBF3F39A427FF750AF3146EE
:107AE000A068FDF70BFF2368944901930BA812F0DF
:107AF00044F90A22394608A812F06FF908A90BA820
:107B000012F050FA8E4912F059FA0A228146314693
:107B10000EA812F062F90EA9484612F043FA8949FC
:107B200012F04CFA019B0146184601F0ADFF0EA879
:107B300012F0D8F808A812F0D5F80BA812F0D2F875
:107B4000B1461CE7284603F0E1FC064668BB7E49C7
:107B500024680EA812F011F90A2239460BA812F077
:107B60003CF90BA90EA812F01DFA784912F026FA7A
:107B70000A220746414612A812F02FF912A93846E8
:107B800012F010FA724912F019FA0146204601F07B
:107B90007BFF12A812F0A6F80BA812F0A3F80EA80B
:107BA00012F0A0F800F0E8FDB3E60A2028E7284626
:107BB00003F070FC12AD26686649284612F0DDF825
:107BC00000222946304601F097FF284612F08AF835
:107BD00000F0CAFD2768064660B95F49284612F0E2
:107BE000CCF838460322294601F086FF284612F0D9
:107BF00079F84DE65949284612F0BFF80022294687
:107C0000384601F079FF284612F06CF8276854498D
:107C1000284612F0B2F800222946384601F06CFFDF
:107C2000284612F05FF86421A068FDF767FE4D4B0F
:107C3000129315AB1D934FF4802300271E930BA8BE
:107C40004FF6FF73ADF87C30ADF886308DF84C7090
:107C500014978DF8847001F085FD434B0F930BA9A9
:107C600008234FF001080EA810938DF844800E955C
:107C7000FFF77CF90BA812F035F83C4A29460EA80C
:107C8000FEF78BFB3A490EA8FFF791F9394B0F939A
:107C900039498DF8448009230EA810930E95FFF7FB
:107CA00086F9364908A812F068F820ABCDE903350B
:107CB00003AB93E8030008AAFDF750F9D4F800805D
:107CC0002F490EA812F059F83A460EA9404601F085
:107CD00013FF0EA812F006F808A90BA812F0E7F897
:107CE00028490EA812F049F80EAA0BA92046FFF762
:107CF00045FB0EA811F0F6FF0BA811F0F3FF40F6BC
:107D0000B83012F0CFFF24681F490EA812F035F8E2
:107D10003A460EA9204601F0EFFE0EA811F0E2FF50
:107D200000F030FD08A811F0DDFF2846FCF74BFA03
:107D3000AEE500BF101E0200371E0200411E020009
:107D40004E1E0200571E02005A1E0200A51202001B
:107D5000CF1C0200881E02009A1E0200B81E0200FC
:107D6000DA1E0200B80300202D1002002A170200BC
:107D70003A1702002017020092150200E2110200D9
:107D8000ED1E0200411702000D1F02002DE9F04117
:107D9000A0B010AE0F460468B1490546304611F058
:107DA000ECFF3946304612F0FDF80146204601F05E
:107DB0006BFE304611F096FFAA4B109313AB1B934A
:107DC0004FF4802300241C9339464FF6FF7330464E
:107DD0008DF844401294ADF874308DF87C40ADF8C5
:107DE0007E30FFF789FAC7B2FFB19F492D680CA812
:107DF00011F0C3FF9D4B09A853F8271011F0BDFFE8
:107E000009A90CA812F0CEF80146284601F03CFE64
:107E100009A811F067FF0CA811F064FF3046FCF7C9
:107E2000D2F9204620B0BDE8F08191493046FEF7F6
:107E30003BFD044658B92D688E490CA811F09DFFF2
:107E4000284602220CA901F057FE0CA83DE0884A02
:107E500031460CA8FEF7A1FA0CA8FEF730FF85F812
:107E60003000002836D1844B0D9307230E930CA8C5
:107E700001230C968DF83C30FEF7FEFE40B30379EB
:107E80001A1F012A01D9022B22D10CA8FEF7F4FEF9
:107E9000014618B109A8FEF785F8099909A811F05B
:107EA0006CFF76492F680CA811F067FF09A90CA890
:107EB00012F078F80146384601F0E6FD0CA811F002
:107EC00011FFA868FDF76CFC09A811F00BFFA5E7EE
:107ED0006B49E3E76B4F30463946FEF7E5FC044655
:107EE00010B92D686849A8E768493046FEF7DCFC00
:107EF000044610B92D6866499FE70D230E930CA820
:107F00000123CDE90C678DF83C30FEF7B5FE6149E1
:107F10000C9F044606A811F030FF002C00F096805C
:107F2000214609A8FEF73EF80999002900F08E8045
:107F300006A811F0CCFF05F1340406A9204611F083
:107F4000C0FF06A811F0CEFE53492F680CA811F00F
:107F500014FF21460CA812F025F8002201463846ED
:107F600001F0CAFD0CA811F0BDFE4C492F680CA809
:107F700011F003FF4A4909A811F0FFFE09A90CA856
:107F800012F010F800220146384601F0B5FD09A8AC
:107F900011F0A8FE0CA811F0A5FEA868FDF746FC9C
:107FA000404909A811F0E9FE06A801F0DBFB06A98B
:107FB00009A811F0F7FF3C4912F000F8214611F032
:107FC000F1FF3A4911F0FAFF394904460CA811F0C3
:107FD000D4FE0CA9204611F0E5FF014603A811F0DC
:107FE00066FF0CA811F07EFE06A811F07BFE09A822
:107FF00011F078FE254B0D9304230E9300240123EA
:1080000009A90CA80C968DF83C300994FEF7A0FE47
:10801000071ED5F800804FDC26490CA811F0ADFEF4
:108020000A22394609A811F0D8FE09A90CA811F0B6
:10803000B9FF02220146404601F05EFD09A811F099
:1080400051FE0CA811F04EFE03A83EE7CDE9014712
:1080500001AB06AA93E80300FCF780FF6BE700BFC3
:10806000FE1A0200B8030020181B0200C003002003
:108070002B1B02003B1B0200721B02007A1B02003A
:10808000E91A02008A1B0200981B0200C41B0200AE
:10809000C91B0200E2110200EC1B0200061C0200D8
:1080A0003A170200211C0200421C02004C1C020074
:1080B00092150200581C020012490CA811F05DFE36
:1080C0000A22394609A811F088FE09A90CA811F066
:1080D00069FF0D4911F072FF22460146404601F04A
:1080E0000BFD09A811F0FEFD0CA811F0FBFD4FF4EB
:1080F000FA6012F0D7FD3A4603A92846FFF71AFBAB
:108100000446A1E7701C0200CF1C02002DE9F04FCD
:108110000568B44997B0044613A811F02EFE00225A
:1081200013A9284601F0E8FC13A811F0DBFDAE49C5
:10813000256813A811F021FEAC4910A811F01DFE0E
:1081400010A913A811F02EFF00220146284601F0C5
:10815000D3FC10A811F0C6FD13A811F0C3FDA06850
:10816000FDF72EFBA24802F0DBFC0328064612D0E6
:108170002568A04913A811F000FE022213A9284681
:1081800001F0BAFC13A811F0ADFDA068FDF710FBDB
:1081900017B0BDE8F08F98490DA811F0EEFD0AA8C0
:1081A00001F0E0FA0AA90DA811F0FCFE934911F0C4
:1081B00005FF8E49054610A811F0DFFD10A92846DD
:1081C00011F0F0FE8E4911F0F9FE8E49054613A814
:1081D00011F0D3FD13A9284611F0E4FE014601A8D1
:1081E00011F065FE13A811F07DFD10A811F07AFDC5
:1081F0000AA811F077FD25460DA811F073FD8249FC
:1082000055F8107B13A811F0B8FD01A913A811F0BF
:10821000C9FE0146384601F037FC13A811F062FD93
:1082200040F6B8327949284602F018FF98B9256817
:10823000774913A811F0A1FD324613A9284601F091
:108240005BFC13A811F04EFDA068FDF7B1FA01A880
:1082500011F048FD9CE76F49DFF8E491DFF8E4A1F5
:10826000DFF8E4B110A811F088FD01A910A811F001
:1082700099FE694911F0A2FE684911F09FFE634919
:10828000064613A811F079FD13A9304611F08AFEB5
:10829000634911F093FE634911F090FE014604A872
:1082A00011F005FE13A811F01DFD10A811F01AFD24
:1082B00004A9284611F03CFC26685B4913A811F07C
:1082C0005CFD002213A9304601F016FC13A811F042
:1082D00009FD564907A811F050FD12F027FD53493A
:1082E00080460AA811F049FD00273E4612F01EFD07
:1082F00042F20F73A0EB0800984200F2E680284695
:1083000002F044FF002800F0AA800A2229460DA8A6
:1083100011F0D0FC494613A811F02FFD13A90DA8A8
:1083200011F0C1FE064613A811F0DCFC002E40D06F
:108330003F49266813A811F020FD0DA913A811F0DC
:1083400031FE0146304601F09FFB13A811F0CAFC34
:10835000384913A811F011FD13A90DA811F0EBFE77
:10836000064613A811F0BEFC002E22DA3249266818
:1083700013A811F002FD0DA913A811F013FE014678
:10838000304601F081FB13A811F0ACFC284603F045
:1083900081F8A068FDF70CFA0DA811F0A3FC0AA85B
:1083A00011F0A0FC07A811F09DFC04A811F09AFCA4
:1083B0004DE751460DA811F030FE0646002845D085
:1083C00027681E4913A811F0D8FC002213A93846CB
:1083D00001F092FB13A811F085FC0DA811F082FCAE
:1083E000374683E790170200B11702003A170200E0
:1083F000A4100020C3170200ED1702000B180200A2
:108400004C1C0200921502001C180200131A0200F4
:108410002F180200E51C0200671A0200731A0200FE
:10842000BF1A0200AC1A020052180200E211020048
:10843000741802002F22020086180200A7180200FA
:108440006C180200D03C0200C61802008FB10DA9C2
:108450000AA811F086FD0DA811F044FC012628465B
:1084600003F054F808B9002E2FD10A2012F01AFC9C
:108470003CE7594610A811F080FC10A90DA811F096
:1084800012FE064658B95E4913A811F076FC13A9EE
:108490000DA811F008FE064613A811F023FC10A841
:1084A00011F020FC002ED6D05649266813A811F0F2
:1084B00064FC0DA913A811F075FD0146304601F0CA
:1084C000E3FA13A811F00EFCC5E7284602F0E2FF1C
:1084D0006EB925684C4913A811F04FFC28460322B9
:1084E00013A901F009FB13A811F0FCFB6BE06FB3BB
:1084F0000C9B5BB30AA811F082FE7B210AA811F045
:1085000005FE7D2105460AA811F02FFE002D5EDA3A
:1085100025683E4913A811F030FC022213A9284611
:1085200001F0EAFA13A811F0DDFB3949256813A818
:1085300011F023FC0AA913A811F034FD01462846C6
:1085400001F0A2FA13A811F0CDFB56E025683149DD
:1085500013A811F012FC022213A9284601F0CCFA4C
:1085600013A811F0BFFB2C49256813A811F005FCD6
:108570000A22394610A811F030FC10A913A811F0F6
:1085800011FD0146284601F07FFA10A811F0AAFB60
:1085900013A811F0A7FB2149256813A811F0EDFBE2
:1085A0000A220C9910A811F02AFC10A913A811F0A6
:1085B000F9FC0146284601F067FA10A811F092FB79
:1085C00013A811F08FFBA068FDF7F2F8E7E600288A
:1085D0009EDB431C2A460AA913A811F0CBFD13A960
:1085E0000AA811F06EFC13A811F07CFB0AA9204622
:1085F000FFF7CCFB00287FF4D2AE256808496AE774
:10860000D41802000B1D0200E418020040190200F9
:108610006519020005190200221902003219020030
:10862000751902007047FFFF10B50A4C88B004F1BD
:108630003001684603F0EAF8694620460BF08CF8F2
:10864000684602F0BFFC04F1600120460AF0CAFE51
:1086500008B010BD9C09002010B5084C20460AF057
:10866000F9FD04F130004FF47F4103F0BDF804F14F
:108670006000BDE8104003F095BA00BF9C090020DF
:1086800010B5084C084B236304F1400002F09AFC3B
:1086900004F10C0011F026FB2046BDE8104011F05B
:1086A00021BB00BF9C090020F4340200F0B5031D7B
:1086B00005460E4617460FCB8FB003AC84E80F007B
:1086C000144B089394E80F0095F814C0124C8DF8E1
:1086D00034C009AD85E80F00104B009332463B468D
:1086E00008A920460AF0CCFD04F1300003F040F95F
:1086F000FB23009300231A46E02108A811F0A4F8F8
:1087000041F2E94208A904F1600003F0E9FA0FB070
:10871000F0BD00BF504302009C090020F01A002069
:10872000014608B503480AF0DFFC003018BF0120FD
:1087300008BD00BFF01A00202DE9F041094F0546A1
:1087400000EB010804464445A4EB050606D014F8E6
:10875000011B38460AF002FD0128F4D03046BDE87E
:10876000F08100BFF01A002008B502480AF0E4FCCE
:10877000012008BDF01A002001480AF0DDBC00BF4E
:10878000F01A002001480AF033BD00BFF01A0020A3
:1087900010B50023C0E900120446836050210C305C
:1087A00003F022F8204610BD8160704730B50C46BA
:1087B00087B058492046154611F0D8F95649204649
:1087C00011F0D4F95549204611F0D0F9204611F0A6
:1087D000BDF95349204611F0C9F95249204611F01C
:1087E000C5F95149204611F0C1F95049204611F010
:1087F000BDF94F49204611F0B9F94E4903A811F0CF
:10880000BCFA2946684611F0B8FA694603A811F087
:10881000C9FB494911F0D2FB0146204611F09CF9F1
:10882000684611F05FFA03A811F05CFA434920464C
:1088300011F09CF94249204611F098F9414920462F
:1088400011F094F94049204611F090F93F49204633
:1088500011F08CF93E49204611F088F93D49204637
:1088600011F084F93C49204611F080F93B4920463B
:1088700011F07CF93A49204611F078F9394920463F
:1088800011F074F93849204611F070F93749204643
:1088900011F06CF93649204611F068F93549204647
:1088A00011F064F93449204611F060F9334920464B
:1088B00011F05CF93249204611F058F9314920464F
:1088C00011F054F93049204611F050F92F49204653
:1088D00011F04CF92E49204611F048F92D4903A812
:1088E00011F04BFA2946684611F047FA694603A889
:1088F00011F058FB284911F061FB0146204611F0A8
:108900002BF9684611F0EEF903A811F0EBF907B066
:1089100030BD00BF26220200362202004D22020096
:108920005F2202006F2202008022020087220200E2
:108930009E220200E5220200F92202000223020028
:108940000A23020072230200C92302000924020044
:108950008B2402009D240200C32402001225020081
:10896000BE250200EF2502001C260200532602004D
:1089700078260200BC2602001027020019270200F8
:108980002127020028270200312702004B2702007E
:10899000552702006D270200E927020030B50C467A
:1089A0008BB01F49204611F0E1F81E49204611F016
:1089B000DDF81D4904A811F0E0F901F073FA0A226C
:1089C000014601A811F009FA01A904A811F0EAFA78
:1089D000164911F0F3FA1649054607A811F0CDF92A
:1089E00007A9284611F0DEFA0146204611F0B4F836
:1089F00007A811F077F901A811F074F904A811F093
:108A000071F90C49204611F0B1F80B49204611F0DC
:108A1000ADF80A49204611F0A9F80BB030BD00BFEF
:108A20008F21020096210200ED210200FF210200A9
:108A30003A1702000C220200162202001E22020037
:108A400070B506688CB00C4605468C4906A811F036
:108A500094F906A90122304601F04EF806A811F05B
:108A600041F9874A21462846FFF7A0FE854920465E
:108A700011F07CF88449204611F078F8834906A863
:108A800011F07BF903A800F06DFE03A906A811F010
:108A900089FA7F4911F092FA0146204611F05CF8FC
:108AA00003A811F01FF906A811F01CF9794906A8CE
:108AB00011F063F9784903A811F05FF903A906A83A
:108AC00011F070FA724911F079FA0146204611F05E
:108AD00043F803A811F006F906A811F003F96F494D
:108AE00006A811F04AF96E4903A811F046F903A946
:108AF00006A811F057FA664911F060FA01462046BF
:108B000011F02AF803A811F0EDF806A811F0EAF820
:108B1000644903A811F031F906A8634902F0C0F8CE
:108B200006A9684610F0F2FE694603A811F03AFA69
:108B3000574911F043FA0146204611F00DF86846F6
:108B400011F0D0F803A811F0CDF85849204611F0E3
:108B50000DF84C49204611F009F85549204611F00E
:108B600005F85449204611F001F85349204610F009
:108B7000FDFF5249204610F0F9FF4C49204610F005
:108B8000F5FF4A49204610F0F1FF3E49204610F01B
:108B9000EDFF4B49204610F0E9FF4A4906A811F0C5
:108BA000ECF8414801F0F4FE014603A811F0E5F8A5
:108BB00003A906A811F0F6F9434911F0FFF906469A
:108BC000394801F0ADFF414B4149032818BF194610
:108BD000304611F0F3F93F4911F0F0F90146204613
:108BE00010F0BAFF03A811F07DF806A811F07AF88A
:108BF000394906A811F0C1F82B4802F029F80A22D9
:108C0000014603A811F00DF903A906A811F0CAF94D
:108C1000324911F0D3F90146204610F09DFF03A818
:108C200011F060F806A811F05DF82D4906A811F0C2
:108C3000A4F812F07BF80A224FF47A71B0FBF1F13C
:108C400003A811F000F903A906A811F0ABF9254912
:108C500011F0B4F90146204610F07EFF03A811F090
:108C600041F806A811F03EF81049204610F07EFFAA
:108C700021462846FFF792FE0CB070BD9B1F0200F4
:108C8000B11F0200D01F0200E31F0200FF1F0200FD
:108C90003C2102001F200200921502003B2002002E
:108CA0003A1702005A200200A41000208F2102006F
:108CB0007B20020092200200AB200200E320020091
:108CC0001021020020210200541E02008E1F02000B
:108CD000841F02003B210200412102005C210200AE
:108CE0006521020082210200F0B505683A4F87B085
:108CF0000C460646394903A811F03FF803A90122A2
:108D0000284600F0F9FE03A810F0ECFF344A354D78
:108D100021463046FFF74AFD3349204610F026FF32
:108D20003249204610F022FF3149204610F01EFF44
:108D30003946204610F01AFF2E49204610F016FF43
:108D40002D4903A811F019F82C49684611F015F8BF
:108D5000694603A811F026F9294911F02FF90146B7
:108D6000204610F0F9FE684610F0BCFF03A810F092
:108D7000B9FF2946204610F0F9FE3946204610F08A
:108D8000F5FE2049204610F0F1FE1F49204610F064
:108D9000EDFE2946204610F0E9FE3946204610F047
:108DA000E5FE1A49204610F0E1FE1949204610F070
:108DB000DDFE2946204610F0D9FE1649204610F067
:108DC000D5FE2946204610F0D1FE21463046FFF759
:108DD000E5FD07B0F0BD00BFC12802004D2802002C
:108DE000672802008F210200D01F020078280200AD
:108DF00094280200DA280200FF280200FD16020073
:108E0000E2220200302902005D290200B42902009A
:108E1000F0290200202A020070B5144A144D0C46B5
:108E20000646FFF7C3FC1349204610F09FFE124987
:108E3000204610F09BFE1149204610F097FE104985
:108E4000204610F093FE0F49204610F08FFE294671
:108E5000204610F08BFE2946204610F087FE214662
:108E60003046BDE87040FFF799BD00BFC227020041
:108E70008F210200D01F0200D1270200EF2702003D
:108E8000922002002128020073B5234906461546A8
:108E900010F073FF214B18681B7900908DF8043097
:108EA0000024AB689C4234D22146284611F004F9D4
:108EB00090F900302B2B05D12021304611F067F8B6
:108EC0000134EEE72146284611F0F6F890F900301B
:108ED000252B17D1611C284611F0EEF8023490F9C9
:108EE00000308DF802302146284611F0E5F80021C7
:108EF00090F900308DF803301022684616F038F8EB
:108F000041B2DAE72146284611F0D6F890F9001070
:108F1000D3E7304602B070BDE2110200082C020017
:108F2000F0B587B0076804460D4603A819491646F0
:108F300010F023FF2946684610F01FFF694603A87A
:108F400011F030F800220146384600F0D5FD6846A1
:108F500010F0C8FE03A810F0C5FEA06890B132461C
:108F6000294600F0FFFC0C49246803A810F005FF17
:108F7000002203A9204600F0BFFD03A810F0B2FEB6
:108F800007B0F0BD0549246803A810F0F6FE0222E0
:108F9000EFE700BF6E2B02008F2B0200B32B020005
:108FA000F0B507688DB005460C4609A8724916460B
:108FB00010F0E3FE012209A9384600F09DFD09A842
:108FC00010F090FE6D4909A810F0D7FE09A93046AF
:108FD00011F0B1F8074609A810F084FEB3683A1DF5
:108FE0003146684611F0C6F8654909A810F0C5FE7B
:108FF00009A9684611F09FF8064609A810F072FE0C
:109000000536604909A810F0B8FE324609A968463D
:1090100011F07FF8074609A810F064FE3B4632467F
:10902000694609A811F0A6F809AA294603A8FFF77E
:109030002BFF09A810F056FE534909A810F09DFE19
:109040003A4609A9684611F064F8064609A810F0E6
:1090500049FE029B06F10902694609A811F08AF847
:1090600009AA294606A8FFF70FFF09A810F03AFE43
:10907000059B002B4FD0089B002B4CD0069A0399E0
:109080002846FFF74DFF414A21462846FFF78EFB51
:109090003F49204610F06AFD3E49204610F066FD2B
:1090A0003D49204610F062FD3C4909A810F065FEDC
:1090B00003A909A810F076FF394910F07FFF014697
:1090C000204610F049FD09A810F00CFE3549204655
:1090D00010F04CFD3449204610F048FD334920463D
:1090E00010F044FD3149204610F040FD214628464D
:1090F000FFF754FC4FF47A7011F0D4FDBFF34F8F9B
:109100002B492C4BCA6802F4E0621343CB60BFF3D7
:109110004F8F00BFFDE7284A21462846FFF746FB50
:109120001B49204610F022FD2449204610F01EFD68
:109130002349204610F01AFD1A49204610F016FD6A
:109140002049204610F012FD1849204610F00EFD6F
:109150001649204610F00AFD21462846FFF71EFC5E
:1091600006A810F0BFFD03A810F0BCFD684610F083
:10917000B9FD0DB0F0BD00BF282A0200BD1A0200E3
:10918000472A02004D2A02004F2A0200592A0200F3
:10919000D01F0200682A02008D2A0200CF2A020096
:1091A0003C21020092200200212802008F210200AF
:1091B00000ED00E00400FA052A3F0200EE2A02005A
:1091C0000D2B02003D2B02001FB504460C3002F0AF
:1091D000CFFB2468064901A810F0CFFD01A9204665
:1091E00000F052FC01A810F07DFD04B010BD00BFDE
:1091F000F12B02002DE9F04194B000F10C0104467E
:109200000CA802F003FB109B013361D05249DFF838
:109210004881684610F0B1FD4F4903A810F0ADFD3C
:1092200011F084FD40F6B73706460CA802F06EF93F
:10923000002834D011F07AFD801BB8422FD80CA83A
:1092400001F0A4FF0028F0D00CA801F0EDFD45B21C
:10925000294603A810F09BFE0A2D75D1029B002B16
:109260006DD13E4906A810F088FD06A903A810F0AC
:109270001AFF054658B93A4909A810F07EFD09A918
:1092800003A810F010FF054609A810F02BFD06A852
:1092900010F028FD15B30CA92046FFF7D1FB0120E3
:1092A00011F000FD0CA802F0F5F824682D4909A87A
:1092B00010F063FD012209A9204600F01DFC09A859
:1092C00010F010FD03A810F00DFD684610F00AFD27
:1092D0000CA801F077FE14B0BDE8F081224909A87E
:1092E00010F04BFD09A903A810F0DDFE054609A802
:1092F00010F0F8FC25B10CA92046FFF7F5FCCEE7ED
:109300001A4909A810F039FD09A903A810F0CBFEED
:10931000054609A810F0E6FC65B103A909A810F0FC
:10932000C6FD204609AA0CA9FFF73AFE09A810F0CD
:10933000D9FCB4E70CA92046FFF76EFDAFE7414624
:10934000684610F0C4FD70E70D2D3FF46EAF29465E
:10935000684610F01CFE68E7E21102007227020066
:1093600079270200AE2702008A270200992702000F
:1093700038B504460D4606231622022103F076F87E
:109380006561204638BDFFFF1FB50446372103F055
:1093900073F86469064901A810F0EFFC01A92046A2
:1093A00000F072FB01A810F09DFC04B010BD00BFDE
:1093B0000B2D02000022114603F002B9002103F038
:1093C0009BB9FFFF30B52DED028B8BB045692E495F
:1093D000044607A810F0D1FC07A9284600F054FB6A
:1093E00007A810F07FFC2046FFF7E4FF2046F0EED0
:1093F000408AFFF7E3FFF4EE688AF1EE10FAB0EE70
:10940000408A646934D6B4EE400AF1EE10FA2FD6E1
:109410001E4904A810F0B1FCB0EE680A022101A8B0
:1094200010F05FFD01A904A810F0BCFD184910F070
:10943000C5FDB0EE480A0546022107A810F051FD0F
:1094400007A9284610F0AEFD124910F0B7FD0146FD
:10945000204600F019FB07A810F044FC01A810F00A
:1094600041FC04A810F03EFC0BB0BDEC028B30BDFB
:10947000094907A810F081FC204607A900F004FB69
:1094800007A810F02FFCEFE7842C0200972C0200B5
:10949000B52C0200C42C0200C62C02001FB5446982
:1094A000064901A810F069FC01A9204600F0ECFA79
:1094B00001A810F017FC04B010BD00BFF42C02008E
:1094C00010B50446FFF760FF2046BDE81040FFF7E7
:1094D000E5BFFFFF30B585B045690D49044601A8D9
:1094E00010F04BFC01A9284600F0CEFA01A810F0BC
:1094F000F9FB6469074901A810F03FFC01A9204667
:1095000000F0C2FA01A810F0EDFB05B030BD00BFBD
:10951000432C0200562C020030B585B04569104935
:10952000044601A810F029FC01A9284600F0ACFA75
:1095300001A810F0D7FB2046FFF744FF2046FFF7B5
:10954000C9FF6469074901A810F017FC01A920466A
:1095500000F09AFA01A810F0C5FB05B030BD00BFBD
:109560000D2C0200282C0200016070471FB5044634
:109570000E2010F02FF800210E2011F05DFA246863
:10958000064901A810F0F9FB01A9204600F07CFA79
:1095900001A810F0A7FB04B010BD00BF222D0200EF
:1095A00070B50E200FF044FF0A25044602260E2057
:1095B0000FF03EFF0444012011F074FB94FBF6F41D
:1095C000013DF4D1204613F0C9FE05A3D3E90023E1
:1095D00013F02EFF14F024FA00EE100A70BD00BF45
:1095E000006DA601D0662A3F07B5FFF7D9FFDFED72
:1095F0000C7A20EE270A6423FDEEC07A00934FF424
:109600002F7200234FF4FA7117EE900A10F03EF813
:109610006428A8BF642020EAE07003B05DF804FB72
:1096200000007A44DFED0C7A07B520EE270A6423A8
:10963000FDEEC07A00934FF42F7200234FF4FA71BD
:1096400017EE900A10F022F86428A8BF642020EAE0
:10965000E07003B05DF804FB00007A444FF4F07052
:109660004143642091FBF0F0704708B5FFF7BCFF61
:109670001328CCBF0020012008BD7047014B1860A3
:10968000704700BFD80F0020F0B587B001AD294664
:109690001248134F134E01F0E7F91349114810F027
:1096A00016FC00242B5D0F2B03D83946304610F0F2
:1096B00069FC1022295D03A810F07EFB03A9304647
:1096C00010F04FFC013403A810F00CFB062CE9D17C
:1096D000044810F088FD07B0F0BD00BFA4100020C2
:1096E0003F170200DC0F0020E21102001FB5164CEC
:1096F000206810B3154900F0CBF898B1144901A8BF
:1097000010F03BFB114901A810F04CFC0146114838
:1097100010F022FA01A810F0E5FA0F4B01221A709E
:1097200004B010BD0D490B4810F020FAFFF7ACFF54
:109730000649206800F080F8EFE70949054810F075
:1097400015FAFFF7A1FFE8E7D80F0020DC0F002093
:10975000392D0200C41C0020D40F0020582D020017
:10976000912D0200064B1B7810B504460BB9FFF78C
:10977000BDFF0449204610F09AFB204610BD00BFF3
:10978000D40F0020DC0F00200149024810F0F5BA88
:10979000E2110200DC0F0020014810F0A3BA00BF64
:1097A000DC0F002010B5044603F022FA2168BDE862
:1097B000104003F045BA13B502AB0C4643F8040D54
:1097C0001846FFF7EFFF2070204602B010BD016081
:1097D0007047FFFF1FB50468064901A810F0CDFAD5
:1097E000012201A9204600F087F901A810F07AFAB9
:1097F00004B010BD312F020030B587B004680D46AB
:1098000003A80C4910F0B9FA0A222946684610F05C
:10981000E4FA694603A810F0C5FB01220146204680
:1098200000F06AF9684610F05DFA03A810F05AFAE1
:1098300007B030BD752E020030B58B680468202B50
:1098400085B00D460ED9104901A810F096FA2046B1
:10985000032201A900F050F901A810F043FA0020FA
:1098600005B030BD094901A810F087FA294601A8C2
:1098700010F098FB00220146204600F03DF901A8B7
:1098800010F030FAEBE700BF122E0200372E020074
:109890002DE9F0438FB007468846642505AC204685
:1098A0000595FFF77FFF01AB2B440135682D03F8C9
:1098B000640CF4D164213846FFF79EFF019D6B1EB6
:1098C0001F2B14D92449404610F001FB3D68234961
:1098D000204610F052FA02222146284600F00CF9E8
:1098E000204610F0FFF900200FB0BDE8F0830026FD
:1098F00006F1680902A94846FFF75DFF4946384668
:10990000FFF77AFF9DF80830A3550136B542EFD135
:109910000EAB1D442146002602A805F8246C10F069
:109920002CFA02A9404610F0CCFA02A810F0DAF99D
:109930000B493C6802A810F020FA414602A810F03A
:1099400031FB32460146204600F0D6F802A810F05E
:10995000C9F90120C8E700BFE2110200CD2D0200C5
:10996000F02D020030B587B004680D4603A80C49FD
:1099700010F003FA2946684610F0FFF9694603A87B
:1099800010F010FB00220146204600F0B5F86846B2
:1099900010F0A8F903A810F0A5F9002007B030BD19
:1099A000E32E02002DE9F04387B006AD002445F810
:1099B0000C4D064628460F469046FFF7F3FE21461B
:1099C00081463046FFF718FFB9F1010F10D0366815
:1099D0002A49284610F0D1F901222946304600F0E4
:1099E0008BF8284610F07EF9204607B0BDE8F083DA
:1099F00007F1FF39013429462046FFF7DCFE2146F6
:109A00003046FFF7F9FE9DF90C3009F8013F0BB124
:109A1000212CEFD1002387F8203008F1FF392224D0
:109A200029462046FFF7C7FE21463046FFF7E4FEF1
:109A30009DF90C3009F8013F13B10134622CEFD1CC
:109A4000002488F83F400E493668284610F095F902
:109A50003946684610F091F96946284610F0A2FA96
:109A600022460146304600F047F8684610F03AF9C1
:109A7000284610F037F90120B7E700BF902E02000A
:109A8000B42E02007047FFFF1FB50C4601A808491D
:109A900010F073F9214601A810F084FA0146054838
:109AA00010F05AF801A810F01DF904B010BD00BF65
:109AB000892F0200C41C002010B50446032A0FD8C9
:109AC000DFE802F002080A0C0649204610F055F9BA
:109AD000204610BD0449F8E70449F6E70449F4E7D5
