:10400000007F00208DF0000035EF000089F00000F7
:1040100089F0000089F0000089F0000089F00000BC
:1040200000000000000000000000000089F0000017
:1040300089F000000000000089F0000089F0000015
:104040000000000000000000000000000000000070
:104050000000000000000000000000000000000060
:104060000000000000000000000000000000000050
:104070000000000000000000000000000000000040
:104080000000000000000000000000000000000030
:104090000000000000000000000000000000000020
:1040A0000000000000000000000000000000000010
:1040B0000000000000000000000000000000000000
:1040C00010B5054C237833B9044B13B10448AFF352
:1040D00000800123237010BD58060020000000005E
:1040E000F8AE010008B5034B1BB103490348AFF319
:1040F000008008BD000000005C060020F8AE010052
:104100000846114612F044B9084611F07FBB084634
:1041100011F074BB4FF6FF7399421FBF0368CA09C1
:1041200003EBC20301F07F011ABF586800EBC10026
:104130000020704770B5044616460D46084609B182
:1041400012F0EDF9C4E900502672204670BD2DE949
:10415000F84F05680446A16831B10B68A3602B686D
:1041600028465B689847F6E7266804F10C0B0D4675
:104170008946228EE76AABB29A420FD907EBC30891
:104180009A46D8F8041019B1336830465B689847EE
:1041900047F83A900135C8F80490EAE700232386EF
:1041A000BB454FF6FF73A38604D0336839465B687E
:1041B000304698472046BDE8F88F38B5C588044694
:1041C00001F12C002946FFF7A5FFA580206008B16A
:1041D000C388E38038BD38B5436A034400251D71A8
:1041E0000446011D00680DF073FB00B16562606A52
:1041F00038BD38B5436A01331F2B04460D4606D837
:10420000636A5A1C62621C440120257138BDFFF7A5
:10421000E2FF0028F4D00020F8E72DE9F047037909
:10422000DA0705460C4611D50168A36800226BB178
:10423000994233D18B882068013B9BB28B802BB98C
:104240000B684AB3136003685B6898472B79DB06F9
:1042500008D52E8804F12C003146FFF75BFFA38EB2
:104260000380A6862B7913F0600F1CD02E884FF6A2
:10427000FF7A04F12C09564513D031464846FFF722
:1042800049FF21460746B0F80680FFF7C6FFA38E18
:104290003B80A6864646EEE7A360D4E71A461B6835
:1042A000C5E72E806E8000232B71BDE8F087C0E942
:1042B0000012082282600122027370478B8C30B595
:1042C000013B0D6A9AB205EBC204616849B163888B
:1042D00035F832509D4204D95D1C11EBC301658055
:1042E00005D1002303604FF6FF73838030BD01606A
:1042F00003EBC213F9E72DE9F74F8D8E4FF6FF73ED
:104300009D4206460C460ED0294604F12C00FFF7CC
:1043100001FF0388A386002303714FF6FF73C38058
:104320003060B58061E00B8E0F6801F10C0843B17D
:1043300068464146FFF7C2FF009810B1BDF804502F
:10434000E9E7228E638E934218D1B3F5007F45D002
:104350005B009DB2E36A396898454FEAC50235D1E2
:104360000B683846114698478146002836D02022EF
:10437000414611F0C4FAC4F82C906586B4F8309028
:10438000D4F82CB009F101039BB2B3F5007F23866A
:104390003B680CBF7F258025E9001B68384698479D
:1043A0000BEBC90A002808BF00250023CAF8040047
:1043B00041462BF839506846AAF80230FFF77EFFD5
:1043C0000098BDF804500028A5D107E0D1F8089066
:1043D00038461946C84781460028CCD101232371AD
:1043E000002333604FF6FF73B380304603B0BDE85F
:1043F000F08F07B50368082203EBC101684611F08E
:104400007EFA9DED000B03B05DF804FB2DE9FF4142
:10441000064604A800E90E00019DDDF82880002D65
:1044200067D09DF80C7037B104233371356038467E
:1044300004B0BDE8F081029C032C1BD82A463B4601
:10444000E0B2511BC9B2884206D912F9011B0029FA
:1044500008BF43F00103F4E763B902223271DAB214
:10446000904203D9EA56F2540133F8E7002333555A
:104470000127DCE7D8F80800B0B1C3889C420AD114
:1044800000239C4209D0C218E95692F908209142B3
:1044900001D10133F5E70068EEE7838801338380BB
:1044A000052333713060E3E7B4F5803F14D209216E
:1044B000611811D2D8F8000003681B68984758B1FA
:1044C00001238380C48000F1080200239C4207D0AE
:1044D000E956D1540133F9E7012388F80430A6E7FF
:1044E000044400232372D8F808300360C8F8080099
:1044F000D6E72F469BE7F8B5054616460C468F18BB
:10450000BC4205D014F8011B2846FFF772FEF7E7FE
:10451000AB6A3344AB62F8BD38B5054608460C4675
:1045200011F0FDFF214602462846FFF7E4FF38BDA3
:104530002DE9F04186B00DF11604054616461F46DA
:10454000A046304639460A22002310F089FF303257
:1045500004F8012D0023304639460A2210F080FF6E
:1045600006460F4656EA0703EBD1A8EB04022146A4
:104570002846FFF7C0FF06B0BDE8F0812DE9F04FF7
:1045800091B003AC84E80E00074694E807000AAD3A
:104590001A9E85E80B00804620BB0D904FF6FF73F6
:1045A000ADF8383010AD55F80C3D43B131462846D2
:1045B000FFF703FEDDF83480B8F1000F0ED194E868
:1045C000070085E80700314606A8FFF794FEDDF8EE
:1045D0001890B9F1000F50D14FF00008404611B0CB
:1045E000BDE8F08F3D88DDF82CA0294606F12C00AF
:1045F000FFF790FDADF82450089010B3C388ADF8D4
:1046000026300125AB464FF00009089999B35DB3F8
:104610000B79042B18D0052B19D0022B1FD10022A7
:104620000DA8FFF787FD0E9A52451DD10D99002365
:104630009A4247D018F903C0C856844514D10133B3
:10464000F6E74FF6FF73DAE701220968E8E70B683F
:10465000DA888DF83C900833CDE90D32E3E7CDE9F7
:104660000D998DF83CB0DEE7314608A885F00105CC
:10467000FFF7A3FDC9E70D9190E7314608A8FFF7C2
:104680003AFEDDF82080B8F1000FA5D0009695E83D
:104690000E004846FFF7BAFE00289DD0BDF8244022
:1046A000A9F806407988BDF81C504FF6FF7399426F
:1046B00006D006F12C00FFF72DFDC5807C808DE72C
:1046C0003D80FBE708AA92E803000DAB83E80300F6
:1046D00068E770B5036813F1380686B002D1002090
:1046E00006B070BD021D07CA03AC84E8070002468D
:1046F0000028F4D093F83C1071B9202183F83C10C5
:104700004FF6FF71198759870392009394E80E00C2
:104710003046FFF733FFE3E72029F5D0DFE770B538
:104720000E4686B00446FFF7D4FFB36832682568AA
:10473000CDE9032300238DF81430064648B12946FD
:10474000FFF76BFD009506AB13E90E003046FFF74F
:104750005DFE206810B1007980F0010006B070BDE8
:1047600010B52DED028B0446B0EE408AFFF7B1FF85
:104770002168044630B1FFF750FD0E23237184ED0C
:10478000008A0120BDEC028B10BD38B504460D46F1
:10479000FFF79FFF2168044628B1FFF73EFD0C2379
:1047A00023712560012038BDF0B587B00F4605465E
:1047B000FFF78FFF044638462E6811F0B0FE002345
:1047C000CDE903708DF8143054B131462046FFF71F
:1047D00024FD009606AB13E90E002046FFF716FEF7
:1047E000286810B1007980F0010007B0F0BD10B565
:1047F0000446FFF7FEFCA36A1844A06210BDFFFF49
:104800002DE9F0410D46222116460446FFF7EFFF41
:10481000DFF850802E44B54215D015F9011B104B1E
:1048200013F9027CAFB1023313F9032C8A42F7D19A
:104830005C212046FFF7DBFFF9B20DE04146204640
:10484000FFF76AFEE7E722212046FFF7D0FFBDE829
:10485000F0810029F2D0C9B22046FFF7C8FFDAE79D
:104860008D8901009A89010070B5002A1D4675F1F5
:1048700000030646144605DA2D21FFF7B8FF64420F
:1048800065EB450522462B463046FFF751FE70BDCD
:104890002DE9F04F5BEC10AB8BB007460D4610EEE8
:1048A000102A5B4610EE100A594610F0A9FC30B9E8
:1048B000AF493846FFF730FE0BB0BDE8F08F00225D
:1048C00000235046594610F09BFC68B952465B469F
:1048D0005046594610F076F802460B465046594667
:1048E00010F08EFC0028E3D10022002350465946E8
:1048F00010F090FC30B12D213846FFF778FF0BF116
:1049000000439B46012301932C460A2324B1019ABC
:104910005A43013C0192F9E791A3D3E900235046A1
:10492000594610F08BFC00286AD0DFF850924FF007
:1049300008084FF48076414604A8CDF81090FFF7A0
:1049400058FD52465B4651EC100B10F06DFC78B1EF
:10495000884B0493414604A8FFF74BFD5046594647
:1049600053EC102B10F0E4F9344482468B4624B209
:1049700018F1FF384FEA6606DDD2CDF80C80002230
:1049800000235046594610F063FC00283DD076A322
:10499000D3E900235046594610F046FCA8B3002343
:1049A0000293DDE90223A3EB020919F0800F2CD159
:1049B0000DF128086F4B48F8183D49464046FFF76F
:1049C00018FD00226C4B51EC100B10F0B1F952465F
:1049D0005B4610F03DFC78B1684B04934946404675
:1049E000FFF707FD5046594653EC102B10F0A0F985
:1049F000A41B82468B4624B2029B76100133CFE77C
:104A000008234FF480760393B9E75046594610F0D7
:104A100067FC0A2206460346092B08D9B3FBF2F3CA
:104A2000013D0199B1FBF2F16DB20191F4E730461D
:104A300010F004F902460B46504659460FF0C0FFED
:104A400080460198894610F0F9F802460B46404628
:104A5000494610F06DF98046894610F041FC8246C7
:104A600010F0ECF802460B46404649460FF0A8FF0E
:104A70000B4602460FF0A6FF10F032FC019B0AEB3A
:104A80000008434508D8013694B1092E10D90134E5
:104A900024B24FF0000801260A22B8FBF2F302FB11
:104AA000138141B9002D06DD013D98466DB2F4E752
:104AB0004FF00008F0E70DF126010A22B6FBF2F3F1
:104AC00002FB1366303601F8016D1E46002BF5D14E
:104AD0000DF12606721A3846FFF70DFDEDB108AA52
:104AE0002B4611464FF00A0C013B5BB2581C09D013
:104AF000B8FBFCF00CFB108808F1300802F8018DBF
:104B00008046F1E7EDB2EB434D1B2E2205F8012C58
:104B100019445A423846FFF7EEFC002C3FF4CCAE65
:104B200065213846FFF763FE002CA5B205DA2D217A
:104B30003846FFF75CFE6D42ADB231460A22B5FB46
:104B4000F2F302FB1355303501F8015D9DB2002DE3
:104B5000F5D1721A3846FFF7CEFCADE6AFF3008010
:104B600000000000D0126341F168E388B5F8E43E2C
:104B700082890100388801000000244080880100FB
:104B80002DE9FF41057906460C46018815F0100015
:104B900003D002F12C00FFF7BDFA0C2D00F0998034
:104BA00016D8042D00F0878006D8022D78D0032D6A
:104BB00000F08880504998E0062D00F093807DD366
:104BC0000A2DF7D1326800232046FFF7B1FC1DE023
:104BD0001C2D00F0848006D80E2D0ED01A2DE9D1A0
:104BE000D0E90023F0E7202D35D0402D12D01E2D26
:104BF000E0D1092190ED000B05E0306810F040F89D
:104C000041EC100B06212046FFF742FEA06A04B0DB
:104C1000BDE8F0815B212046FFF7E9FD35884FF6BE
:104C2000FF76B54212D0E76A294607F12C00FFF75C
:104C300071FA05463A462146FFF7A2FFED88B542D4
:104C4000EFD02C212046FFF7D2FDEAE75D21204678
:104C5000FFF7CDFDDAE77B212046FFF7C8FD4FF6D1
:104C6000FF7735880126BD4218D0D4F82C8029461C
:104C700008F12C00FFF74EFA054642462146FFF7A1
:104C80007FFFED88BD4206D0002E0CBF2C213A21BB
:104C90002046FFF7ACFD86F00106E4E77D21D6E76C
:104CA0000022314601A8FFF745FADDE9011220464E
:104CB000FFF7A6FDAAE701223168F3E73168CA8849
:104CC0000831F4E731682046CA880831FFF713FC41
:104CD0009CE73268D3172046FFF7C6FD96E7D0E978
:104CE0000023F8E7337823B104492046FFF714FC8A
:104CF0008CE70349F9E700BF82890100A18901001F
:104D0000A68901002DE9F043B7B06B46002783E880
:104D1000030002AD3946104602920B970CF07DFD60
:104D20000FCD0CAC0FC40FCD0FC495E8030084E881
:104D300003000CAE0FCE16ADDDE900890FC50FCE16
:104D40000FC594E8030085E8030016AE0FCE20AC33
:104D50000FC40FCE0FC495E8030020AE84E8030013
:104D60000FCE2AAD0FC50FCE0FC594E8030085E81E
:104D7000030020A83497FFF72EFA16A8CDF8D49098
:104D8000FFF729FAB8F1000F12D04A462AA9404687
:104D9000FFF7F6FE04462AA8FFF71DFA0CA8FFF756
:104DA0001AFA02A8FFF717FA204637B0BDE8F083D9
:104DB00002492AA8FFF7B0FB349CECE78289010086
:104DC0002DE9F0412DED048B9CB00CAC68492046D8
:104DD0000CF079FC21460022664803F0EBFB2046EC
:104DE0000CF026FC644B0FAAD3E9038793ED009ADD
:104DF000D3ED018A93ED028A5E6917925F4B0C93A3
:104E00004FF480220023189205A84FF6FF728DF808
:104E100034300E938DF86C30ADF86420ADF86E2010
:104E200003F050FB564A214608A8FFF740FA05A9AF
:104E300008A8FFF774FC05A80CF0FAFB514B099386
:104E400001250B23B0EE490A08A80A938DF82C50CF
:104E50000894FFF785FC4C4A214608A8FFF727FA7B
:104E6000B0EE680A08A8FFF77BFC484B0993B0EE48
:104E7000480A0E2308A80A938DF82C500894FFF7CF
:104E80006FFC434B09934146112308A80A938DF800
:104E90002C500894FFF779FC3E4B099339461423B4
:104EA00008A80A938DF82C500894FFF76EFC3A4B33
:104EB000099308A809238DF82C5008940A93FFF74A
:104EC00008FC0899054620B1FFF7A7F90A232B71C2
:104ED0002E60324902A80CF0F6FB1AABCDE9003483
:104EE0006B4693E8030002AAFFF70CFF2C4908A8C1
:104EF0000CF0E9FB02A908A80CF0FAFC002201461C
:104F00001C4803F057FB08A80CF092FB02A905A867
:104F10000CF073FC234908A80CF0D5FB08AA05A9DE
:104F2000214801F07FFF054608A80CF081FB05A889
:104F30000CF07EFBB5B11D4908A80CF0C4FB0022A3
:104F400008A90C4803F036FB08A80CF071FB02A876
:104F50000CF06EFB2046FFF7FAF81CB0BDEC048B9A
:104F6000BDE8F081124908A80CF0ADFB0322E7E789
:104F7000C8880100FC06002078060020B803002045
:104F8000D5880100DE880100EA880100F38801006D
:104F90000289010014890100298901009989010011
:104FA0003389010041890100000700205789010071
:104FB0006E8901002DE9F0412DED048B674886B024
:104FC00000F00EFE0DF034FB0446654804F0BAF91B
:104FD000032811D0634800F035FB634903A80CF0A7
:104FE00072FB022203A9614803F0E4FA03A80CF063
:104FF0001FFB5A4800F0F6FD5D4E356842F20F7314
:10500000621B9A4226D842F2107215442D1BB5FB42
:10501000F2F302FB1353632B1CD8564903A80CF080
:1050200052FB0A224FF47A716846B5FBF1F10CF09D
:10503000B0FB694603A80CF05BFC4F490CF064FC24
:1050400001464A4803F07EFA68460CF0F1FA03A8DC
:105050000CF0EEFA336842F20F72E31A93424FD922
:105060004649346003A80CF02EFB002203A93F48F8
:1050700003F0A0FA03A80CF0DBFA414803F0DAF9D8
:105080003F48F0EE408A03F0D9F93E48B0EE408A3E
:1050900003F03AF83B48B0EE409A03F077F8014647
:1050A0000746384803F08EF8F4EE688AF1EE10FAFD
:1050B00080463BD6B4EE488AF1EE10FA36D6324E30
:1050C000356803F063FB314B182202FB0533C3ED57
:1050D000008A83ED018A83ED029AC3E9037858615F
:1050E00033680133002B336003DDFFF769FE0023D3
:1050F0003360244803F06DF860B31A4800F0AAFA50
:10510000234A136842F20F71E31A8B4203D91D48F8
:10511000146003F067F81F4A1F491368E31A8B42B3
:1051200013D90E48146002F0ABFC0EE01B4903A833
:105130000CF0C9FA032203A90C4803F03BFA03A8B8
:105140000CF076FA074800F07DFA06B0BDEC048B4F
:10515000BDE8F081034800F06DFAD1E700070020B8
:10516000640E002098060020AC890100FC06002097
:105170003C070020CF89010090A90100E5890100CA
:1051800044070020740600209006002078060020C6
:1051900038070020400700207FEE3600FC89010020
:1051A0002DE9F0419CB00CAC5E4D5F495F4E604F05
:1051B00020460CF088FA00222146284603F0FAF92E
:1051C00020460CF035FA28464FF4165103F0B4FA95
:1051D000584920460CF077FA00222146284603F071
:1051E000E9F920460CF024FA03F060F9524803F084
:1051F0007BF9304600F036FA304600F02BFA4F4982
:1052000020460CF060FA00222146284603F0D2F92D
:1052100020460CF00DFA4A4803F082F8494920462E
:105220000CF051FA21460022284603F0C3F920462B
:105230000CF0FEF9444803F059F8384600F0B8FD88
:10524000424B0C930FAB17934FF480230026189317
:1052500005A84FF6FF73ADF86430ADF86E308DF8E9
:1052600034600E968DF86C6003F02CF9384A2146B4
:1052700008A8FFF71CF805A908A8FFF750FA05A829
:105280000CF0D6F9334B09934FF00108092332494A
:105290000A9308A808948DF82C80FFF785FA2F4B05
:1052A00009932F4908940F2308A80A938DF82C809E
:1052B000FFF77AFA2B4902A80CF005FA1AABCDE9F0
:1052C00000346B4693E8030002AAFFF71BFD02A916
:1052D00005A80CF092FA244908A80CF0F4F908AAE1
:1052E00005A9384601F09EFD08A80CF0A1F905A813
:1052F0000CF09EF9384602F0C3FB1C4908A80CF0DC
:10530000E2F9324608A9284603F054F908A80CF03F
:105310008FF902A80CF08CF92046FEF718FF1CB09C
:10532000BDE8F081FC060020128A010098060020EA
:10533000000700202C8A0100940600204A8A010000
:10534000440700205F8A010074060020B803002093
:10535000D58801007F8A0100898A01009D8A0100A9
:10536000AD8A010099890100B48A0100C98A01004F
:1053700038B50C4D0C4C284600F04CF92246294615
:105380000A4800F019FC2146094802F0BDFF2146F9
:10539000084802F0B5FE21460748BDE8384003F052
:1053A00050B800BF98060020FC060020000700202F
:1053B00044070020740600209406002010B5074C16
:1053C00004F12C000CF034F904F1080004F00CFA9C
:1053D0000348BDE810400AF00BBA00BF00070020E8
:1053E000BC0600204308400003F0553300F0AA300B
:1053F00018438308800000F0CC3003F033330343BC
:1054000018091B0103F0F03300F00F30184300BA05
:105410007047FFFF30B585B0044600210DF10F0045
:105420000AF06AF8431C21D004F12405104BDFED8B
:10543000110A9FED110A9DF80F200194009300219D
:10544000C3B228460AF0FEF800220C210446284682
:105450000AF0EAF9044028460AF050F9E4B20440A0
:1054600028460AF072F9204005B030BD0020FBE765
:10547000DD5400000000484200401C4630B5016881
:1054800002690D0185B004465059FFF7ABFF2A446D
:1054900001905068FFF7A6FF02909068FFF7A2FF07
:1054A0000390D3686269A3610131B1FBF2F302FB9F
:1054B0001311216049B994F8203003B9A361236E18
:1054C00003B19847012384F85C300C2201A90248FB
:1054D00010F015FA05B030BD600700202C49F8B572
:1054E0000D680A682B4C0B68D210A25C5C4204F079
:1054F000070403F0070358BF6342274C42FA03F343
:10550000226822F4384222F018022260226C22F42F
:10551000415222F03002DB07226404F140041CD522
:105520001E4B1F4F13F8152003EB45031C325B780D
:1055300037F832201C331612360156FA82F237F849
:10554000333004F5F864052644F822601A1212017B
:1055500052FA83F3042244F823200B6860240133B9
:1055600093FBF4F204FB12330B6080B1046874B156
:10557000A36963B10DF05CF8E369C01AA3699842AE
:1055800005D92046FFF77AFF0DF052F8E061F8BD2B
:105590005C0700206007002000000440288C010008
:1055A00068A0010030B585B00B6800934B6801938B
:1055B0008B680293002501230560C0F810D0436179
:1055C00004460395FFF75AFFA56105B030BDF8B555
:1055D0000F46011D0E463D460024EB1BDBB29A42EE
:1055E0000AD915F801CB01334CEA0404DB0604BFE9
:1055F000346004366400F0E7FFF7D4FFF8BD1FB550
:10560000002301A9CDE901330393FFF7CBFF05B0D8
:105610005DF804FB38B5002504460560C0E9065571
:1056200080F82050243009F0A5FE84F85C50204614
:1056300038BDFFFF08B50249FFF7B4FF08BD00BF42
:10564000188C010008B50249FFF7ACFF08BD00BF88
:10565000F88B010008B50249FFF7A4FF08BD00BFA1
:10566000088C010010B50446FFF7D4FE2046BDE8C3
:105670001040FFF7EFBF38B5054603242846FFF773
:10568000E9FF4FF4FA700CF08FFF2846FFF7B7FFE1
:105690004FF4FA700CF088FF013CEFD138BDFFFFEA
:1056A00030B56025B1B004462A463049684610F04E
:1056B00026F92A4669462046FFF789FF4FF47A709B
:1056C0000CF072FF2A4600210DEB050010F03BF9AB
:1056D00001232A460DEB050120468DF86E308DF82A
:1056E00075308DF87A308DF881308DF886308DF8F0
:1056F0008D308DF892308DF899308DF89E308DF880
:10570000A5308DF8AB308DF8AC308DF8AD308DF81C
:10571000AE308DF8AF308DF8B030FFF758FF4FF452
:1057200048700CF041FF2A4669462046FFF74FFFBC
:105730004FF42F700CF038FF2046FFF77BFF4FF43B
:105740002F700CF031FF2A4669462046FFF73FFFD5
:105750004FF42F700CF028FF2046FFF76BFF4FF43B
:105760002F700CF021FF31B030BD00BFD88A01008E
:105770002DE9F0410C1EB2B0054641DB632C40DD43
:1057800003260DF1C80801241AAB1F4600229C54C1
:1057900001320C2AFBD10C339845F7D160223946EF
:1057A0002846FFF714FFC8200CF0FEFE2846FFF73E
:1057B00041FF4FF4FA700CF0F7FE013EE4D1602295
:1057C0003146384610F0BFF82846602239468DF839
:1057D0007D408DF888408DF893408DF89A408DF883
:1057E0009E408DF8A7408DF8A9408DF8B440FFF792
:1057F000EEFE4FF4FA600CF0D7FE32B0BDE8F08157
:1058000000246022504902A810F079F80A2300937E
:1058100000231946642220460BF0E8FB012608AB62
:1058200014A90122824202DC9E540132FAE70C33B1
:105830008B42F6D1602202A92846FFF7C8FE0CF081
:10584000F7FE424B1A6841F28831821A8A420AD81E
:10585000192194FBF1F201FB1242002ACDD13C4AFE
:105860001268A242C9D01860394B192C1C6036D17D
:10587000602200211AA810F066F8012340F20112FC
:10588000ADF876208DF87830ADF87A20ADF87C2030
:105890008DF881308DF889308DF895308DF89C30F9
:1058A0008DF8A0308DF8A7308DF8AB30ADF8B22070
:1058B000ADF8B4208DF8B7308DF8B8308DF8B93028
:1058C00060221AA92846FFF782FE40F2DC500CF055
:1058D0006BFE602202A92846FFF779FE8DE7322C85
:1058E00005D160221B491AA810F009F8E8E74B2CF3
:1058F000EBD1602200211AA810F025F8012340F214
:1059000001128DF875308DF876308DF877308DF87E
:105910007830ADF87A208DF87C308DF884308DF8B1
:1059200089308DF890308DF895308DF89B308DF85A
:10593000A0308DF8A6308DF8AB308DF8B130ADF8D1
:10594000B6208DF8B830BBE7388B01006C0700201B
:10595000BC030020988B010070B5E0B005466022C2
:10596000002168460FF0EFFF602201244FF001365E
:1059700000210DEB02008DF827408DF82C408DF8AA
:1059800033408DF83840079610960FF0DCFF602208
:10599000002130A88DF871408DF872408DF87C4060
:1059A0008DF87F408DF887408DF88C408DF89340BE
:1059B0008DF898408DF8A0408DF8A3408DF8AD404B
:1059C0008DF8AE400FF0BFFF6022002148A88DF88F
:1059D000DB408DF8E0408DF8E7408DF8EC408DF825
:1059E000F3408DF8F8408DF8FF408DF8044134966F
:1059F00043960FF0A8FF602248A928468DF82E4153
:105A00008DF831418DF834418DF837418DF83A41A8
:105A10008DF83D418DF840418DF843418DF8464168
:105A20008DF849418DF84C418DF84F418DF8524128
:105A30008DF855418DF858418DF85B418DF85E41E8
:105A40008DF861418DF864418DF86A418DF86D41A2
:105A50008DF870418DF87341FFF7B9FD4FF4487030
:105A60000CF0A2FD0324602269462846FFF7AFFD33
:105A70004FF496700CF098FD60220DEB0201284661
:105A8000FFF7A5FD4FF496700CF08EFD602230A953
:105A90002846FFF79CFD4FF496700CF085FD013C05
:105AA000E1D160B070BD4FF6FF7399421FBF03682C
:105AB000CA0903EBC20301F07F011ABF586800EB6B
:105AC000C1000020704710B50446B4F5803F084679
:105AD0000BD20921611808D203681B68984700B9E6
:105AE00010BD0123C4808380FAE70020F8E70A682C
:105AF0000B46526801461846104710B50A79042A29
:105B0000044608D0052A09D0022A0FD10022FEF748
:105B100011FB204610BD01220968F8E70B68DA88FE
:105B20000833C0E9003200232372F2E70023C0E902
:105B300000330123F8E7B2F5803FF8B506460F467B
:105B40001546046807D2236809329B6820469847A7
:105B500008B1C580F8BD236820465B683946984780
:105B6000012333710020F5E738B5002383604368D3
:105B7000044643B905681F202968FFF7A4FF08B948
:105B800001232B71606038BD38B50D46416804466D
:105B900049B18268CB889A4205D15200013200682F
:105BA000FFF7C9FF6060636823B1A2681344511C0A
:105BB000A1601D7238BDFFFF10B50446C0E9001298
:105BC000083004F097F9002384F82830034904F1E1
:105BD0002C000BF078FD204610BD00BF9989010014
:105BE00002F0DAB92DE9F04391B045686649044600
:105BF0000AA80BF068FD654907A80BF064FD07A92A
:105C00000AA80BF075FE00220146284602F0D2FCDD
:105C100007A80BF00DFD0AA80BF00AFD2068FFF79E
:105C200019FD5B4803F08EFB032806D1584803F0AA
:105C3000B5FC4FF47A700CF0B7FC564A53495448FF
:105C4000534DDFF86481DFF8649103F0ABFB0CF097
:105C5000EFFC07460726284603F074FB03281DD0F7
:105C60000CF0E6FC44F61F63C01B984216D8414670
:105C700048460BF012FC4FF47A700CF095FC013E94
:105C8000E9D1284603F08AFC4FF4FA700CF08CFC42
:105C9000404A3E49284603F085FBDBE70CF0C8FC90
:105CA0003B4E054644F61F6731460AA803F00AFC3E
:105CB00000210AA80BF0A7FB0378002B46D034483C
:105CC00003F040FB03284BD131490AA803F0FAFB4B
:105CD00000210AA80BF097FB0378002B40D02E4937
:105CE000656804A80BF0EFFC29490AA803F0EAFB59
:105CF0000AA901A80BF0BAFA01A904A80BF0F8FD53
:105D000026490BF001FE0646214803F0B3FB0A22A8
:105D1000014607A80BF02BFD07A930460BF0E8FD64
:105D20001F490BF0F1FD00220146284602F042FC1B
:105D300007A80BF07DFC01A80BF07AFC04A80BF07F
:105D400077FC2068FFF776FC01201AE00CF070FC6D
:105D5000401BB842B3D84FF4FA700CF025FCA3E70F
:105D6000656810490AA80BF0AEFC03220AA9284670
:105D700002F020FC0AA80BF05BFC2068FFF762FC35
:105D8000002011B0BDE8F083188D01002D8D0100B9
:105D9000640E0020318D0100528D0100758D0100CF
:105DA0007F8D01003B8D010074940100941200204E
:105DB0007FB5FFF717FF6846054903F083FB054AE7
:105DC0000549684602F02AF907B05DF804FB00BFF8
:105DD000640E0020318D01002D8D01002DE9F0476A
:105DE000002504460E46A946A28C276AABB29A4209
:105DF0000FD907EBC3089A46D8F8041019B13368D5
:105E000030465B68984747F83A900135C8F80490E7
:105E1000EAE70023A384BC424FF6FF73238507D033
:105E2000336839465B683046984704232462E3842C
:105E3000BDE8F08730B5022303710A7903461C1AC6
:105E4000E5B2AA4204D90D682C5703F8014BF6E7D6
:105E50000023835430BD2DE9F3470E8D4FF6FF73B9
:105E60009E4205460C4617460CD0314604F12000F0
:105E7000FFF719FE038823852860AE80284602B00C
:105E8000BDE8F0878B8C53B16E463046FEF716FAAC
:105E9000009B23B196E8030085E80300EEE7A28C9F
:105EA000E38C934217D1B3F5007F3FD05B009EB2E5
:105EB000236A3968A3424FEAC6022FD10B683846DD
:105EC00011469847804688B3202221460FF017FDDF
:105ED000C4F82080E684B4F82480D4F820A008F127
:105EE00001039BB2B3F5007FA3843B680CBF7F2600
:105EF0008026F1001B68384698470AEBC80900283D
:105F000008BF00260023C9F8040021462AF838609B
:105F10002846A9F80230FEF7D1F9AFE7D1F808809A
:105F200038461946C04780460028D1D100232B604F
:105F30004FF6FF73AB80A1E737B50A6804460D46FC
:105F400068460C31FFF787FF009B43B901222360AD
:105F50004FF6FF732A71A380204603B030BDBDF811
:105F600004202360A280F7E72DE9F74F91F9003074
:105F70002B2B044632D02D2B31D10131012591F943
:105F80000020A2F13003DBB2092B01D92E2A28D13F
:105F9000DFF868B28846002000214FF0993A4FF0B0
:105FA0000A0EC4461CF9013BA3F13002D2B2092A01
:105FB0001DD88B4508BF824520D30EFB01F3A0FB03
:105FC0000E0119440023D2B2DF43D6438F4208BFEB
:105FD000864213D380185941E046E2E7013100259B
:105FE000CDE700232370204603B0BDE8F08F2BB926
:105FF000E5B1B1F1004F08BF01280FD3764F002360
:106000004FF0FF368F4208BF864203F1010910D2DC
:1060100000230A220FF024FA4B46F3E70223404202
:10602000237061EB4101C4E90201DCE70323237023
:10603000F9E7A3EB080707EB0806434618F901CB7D
:1060400032B2ACF13006F6B2092EF4D9BCF12E0F03
:1060500022D1C6460FF27819D9E900894FF00A0A11
:1060600073460EF1010E93F800C0ACF1300C5FFAEC
:106070008CFCBCF1090F0FD8894508BF8045EFD3D0
:10608000A0FB0A6716EB0C000AFB017702F1FF3652
:1060900047F1000132B2E3E793F9006026F02006F1
:1060A000452E66D193F901602D2E25D19F1C4FF00E
:1060B000010C00264FF00A083B4617F901EBAEF140
:1060C000300E5FFA8EF9B9F1090F26D808FB06E603
:1060D000B318B3F59A7FEFDDBCF1000F13D0DFEDFD
:1060E0003F7A9FED3F7A002D18BFF0EE477A0123EB
:1060F0002370C4ED027A76E72B2E14BF5F1C9F1C21
:106100004FF0000CD5E700222DB1364B0421217051
:10611000C4E9022367E7344BF8E7BCF1000F00D075
:10612000764293F90030002B7FF45BAF164406F102
:1061300026034C2B24D8002908BFB0F5000F1FD22E
:1061400007EE900A002EF8EEE77AD6BF27492849D5
:10615000764200237EB1F20742BFDAB201EB82023F
:1061600092ED007A4FEA660648BF67EE877A013300
:10617000F0E70026D5E7002DB9D0F1EE677AB6E753
:106180000EF0A0FD002ECABF1A4B1B4B0193804698
:106190008946DCBF01937642002786B1F3070BD511
:1061A000F9B201A8FEF725F94046494653EC102BF9
:1061B0000EF0BEFD8046894676100137EDE715B139
:1061C00009F10043994604232370C4E902890AE7D0
:1061D0009899999999990100FFFF0F00000000001C
:1061E000000000800000F0FF0000F07FE88C01005C
:1061F000008D010080880100388801009999991963
:1062000070B5006878B1C4884B689C42F9D10D68BC
:1062100000239C4207D9C218EE5692F908209642F4
:10622000EFD10133F5E770BD2DE9FF418268436886
:10623000032A04460D4603F1080319D81846002125
:10624000D7B2C61AF6B2BE4206D210F9016B002EC2
:1062500008BF41F00101F4E751B98DF80C10284650
:1062600001A9CDE90132FFF7E5FD04B0BDE8F081F9
:1062700000269E542768D4F808808DF80C6001A988
:1062800007F10800CDE90138FFF7BAFF68B94246C7
:1062900061683846FFF74FFC23689A68026098608F
:1062A000666005232B712860DFE7838801338380D4
:1062B000F7E72DE9F0418AB001AC84E80E00109DAB
:1062C0000F4671B907914FF6FF73ADF8203007986C
:1062D00020B107A82946FDF770FF07980AB0BDE86E
:1062E000F0810488DDF80880214605F12C00FFF7D5
:1062F000DAFBADF818400590C0B1C388ADF81A308C
:10630000012607AC0599D9B19EB12046FFF7F5FBF0
:10631000089A42450DD1079900239A4212D017F9E5
:1063200003C0C856844504D10133F6E74FF6FF7326
:10633000E4E7294605A886F00106FDF73EFFE1E700
:106340000791C0E705AB93E8030084E80300BEE7CC
:1063500030B5054689B00C46084609B110F0DFF8A3
:10636000CDE9024000248DF8104002AA95F83C3097
:1063700007CA202B08BF05F1380405AB83E80700E6
:106380004CB100950ECB2046FFF793FF003018BFAD
:10639000012009B030BD2046F8E7FFFFFFFFFFFFF7
:1063A00030B585B001466846FFF7DEFD9DF8003048
:1063B000013B032B48D8DFE803F00218242FDDED62
:1063C000027A9FED257AF4EEC77AF1EE10FA3BDB04
:1063D0009FED227AF4EEC77AF1EE10FA34D8FDEE92
:1063E000E77A17EE900A05B030BDDDE9020110F141
:1063F000004241F10003012B08BF002A28BF002002
:10640000F1E7DDE9020100238B426FF0004208BF93
:10641000824238BF0020E6E7DDE902450022104B4A
:10642000204629460EF00AFF0028DCD008A3D3E955
:106430000023204629460EF0F7FE0028D3D0204640
:1064400029460EF025FFCEE70020CCE7AFF3008011
:106450000000C0FFFFFFDF41000000CFFFFFFF4E45
:106460000000E0C1FFFFFFFF38B5057904460B4689
:10647000018815F0100003D003F12C00FFF713FB87
:10648000023D1C2D65D8DFE805F02E6432340F6420
:10649000646411641564376464646464646464648B
:1064A0006464176422644C00207838BD206820EAB8
:1064B000E070FAE72068F8E7D0E9000100238B429A
:1064C0006FF0004208BF824238BF0020EDE7D0E9FC
:1064D000000110F1004241F10003012B08BF002A26
:1064E00028BF0020E1E72046FFF75AFFDDE72068DC
:1064F000FAE720680830F7E7D4ED007A9FED187AC4
:10650000F4EEC77AF1EE10FA23DB9FED167AF4EE83
:10651000C77AF1EE10FA1CD8FDEEE77A17EE900A72
:10652000C3E7D0E9004500220F4B204629460EF074
:1065300085FE0028B9D008A3D3E9002320462946C8
:106540000EF072FE0028B0D0204629460EF0A0FEC4
:10655000ABE70020A9E700BF0000C0FFFFFFDF415D
:10656000000000CFFFFFFF4E0000E0C1437E6BB98B
:10657000D0E9043293423DBF5A1C02611B784FF0B0
:10658000FF3323EAE37303760123437690F918007F
:10659000704738B5044600252046FFF7E7FF0A2874
:1065A00006DC092808DA48B10123237300200AE039
:1065B0000D2801D02028F7D16576EDE7237B002B4D
:1065C00014BF0220012038BD70B505464C1E0026C0
:1065D00014F9010F50B12846FFF7C8FF28B194F90C
:1065E0000030834203D16E76F2E7022070BD0320B3
:1065F000FCE72DE9F04387B006460D46FFF7B6FFEE
:10660000002427462F28E3B20BDD39280BDC0134A8
:10661000402C24D033197776D8773046FFF7A6FF81
:10662000F0E72B28F3D0A0F12D02D2B2012AEED947
:1066300020F0200252B2452AE9D03344002283F8E8
:10664000202006F1200102A8FFF78EFC9DF80830FB
:10665000013B032B62D8DFE803F03924043E3F23DB
:10666000EBE7DDE90489B9F1010F08BFB8F1000FCC
:1066700007D20A232B71C5F80080002007B0BDE8BF
:10668000F083F1696846FFF757FC009B0BB90420C3
:10669000F4E71A222A71BDF804202A80C3E9008990
:1066A000EBE7DDE9048918F1004249F10003012B11
:1066B00008BF002A01D20C23DCE7F1696846FFF726
:1066C0003BFC009B002BE2D01C22E3E70E232B7146
:1066D000049B2B60D1E7DDE90489494640460EF072
:1066E0001FFE07460EF0CCFA02460B4640464946CE
:1066F0000EF086FD18B10E232B712F60BDE7F169F6
:106700006846FFF719FC009B002BC0D01E222A719F
:10671000BDF804202A80C3E90089AEE70320ADE775
:1067200070B550F8046B07C88CB003AB16F1380590
:1067300083E8070002D100200CB070BD93E8070089
:1067400096F83C30202B06AC09AB18BF002584E836
:10675000070083E80700002DEDD000960ECB2846F9
:10676000FFF7A7FDE8E770B50646FFF7D9FF054636
:1067700088B10479018814F0100003D030682C30FF
:10678000FFF791F90C2C29D006D8062C24D00A2C1E
:1067900024D07CB3012070BD1A2C24D00BD80E2C31
:1067A000F8D1D5ED007AF5EE407AF1EE10FA14BF8B
:1067B00001200020EFE71C2C15D01E2CEAD100226E
:1067C0000023D0E900014FF001040EF019FD08B1DB
:1067D0004FF00004E0B2DEE72878DCE728680030FC
:1067E00018BF0120D7E7D0E90023134314BF0120CD
:1067F0000020D0E72046CEE7F8B506460F46FFF763
:106800008FFF3368054668B10479018814F01000E1
:1068100003D003F12C00FFF746F90C2C1AD003D853
:106820000A2C12D038681CE01A2C1BD01C2CF9D171
:10683000D0E9002312F1004043F10001012908BF13
:10684000002834BF0123002302E02B68DB43DB0F69
:10685000002BE7D03046FFF763FF316808B1FFF740
:1068600003FEF8BDD0E90023002199426FF00040FB
:1068700008BF90422CBF01230023E9E738B5044646
:106880000D46FFF773FEA8424FF0000004BF60768C
:10689000012038BD7F2837B50C4605D841B22046C7
:1068A000FFF772F903B030BD00238DF8003000F01F
:1068B0003F03800982B263F07F031F2A8DF8013005
:1068C000C3B20DD863F03F038DF802300DF103051C
:1068D00015F9011D0029E5D02046FFF755F9F7E726
:1068E000C0F3891003F03F0363F07F030F288DF896
:1068F0000230C3B205DC63F01F038DF8033001AD35
:10690000E6E703F03F03801163F07F0360F00F00C0
:106910008DF803308DF804000DF10505D8E7FFFF71
:106920002DE9F0478046FFF721FE0024384E88F815
:106930001940074625464046FFF718FE87420146A4
:1069400088F819505CD010B90220BDE8F0875C28A7
:1069500052D14046FFF70AFE0028F5D075283CD1F9
:1069600088F819504FF004094FF0000A4046FFF72D
:10697000FDFD0028E8D04028CBBF20F020023038B1
:10698000373AC3B2C8BFD3B20F2B01D90320DCE71B
:1069900009F1FF3943EA0A1319F0FF091FFA83FAD4
:1069A00088F81950E2D10AF520539BB2B3F5806FF5
:1069B00002D2CAF30904BEE70AF510539BB2B3F53D
:1069C000806F3DBFCAF3090A4AEA842A0AF580307B
:1069D00050464146FFF75EFFADE700239A579919ED
:1069E000002AD3D0904203F10203F7D191F90110AC
:1069F0000029CBD088F819504046FFF7C5F89AE730
:106A0000D8F80430002B0CBF042000209DE700BF05
:106A10008789010070B50E4686B00446FDF759FE21
:106A2000B36832682568CDE9032300238DF814305C
:106A3000064648B12946FDF7F0FB009506AB13E981
:106A40000E003046FDF7E2FC206810B1007980F0BE
:106A5000010006B070BDF0B587B00F460546FDF7E2
:106A600038FE044638462E680FF059FD0023CDE964
:106A700003708DF8143054B131462046FDF7CDFB3C
:106A8000009606AB13E90E002046FDF7BFFC286810
:106A900010B1007980F0010007B0F0BD2F280EDDA5
:106AA000392803DD5E2803DD7A2803DC01207047E6
:106AB000402804DD5A28CCBF002001207047002068
:106AC000704770B50446FFF74FF82046FFF74EFDBC
:106AD00027281ED022281CD02046FFF747FD054658
:106AE000FFF7DCFF98B10026294620466676FFF7BF
:106AF0004BF82046FFF73AFD0546FFF7CFFF002889
:106B0000F2D16368002B0CBF0420002000E00320BA
:106B100070BD2046FFF704FFFAE72DE9F04F5FFA5A
:106B200083F98DB004460D46B9F1000F00F0858061
:106B300000234376FFF72DFDB8B97D212046FFF7EE
:106B40009DFE88B90DF124082046FFF7BAFF60B911
:106B50002046FFF71EFD064638B93A212046FFF7CA
:106B60008DFE28B9032000E000200DB0BDE8F08FB5
:106B7000D4E9013213448DF82C601E72D4E901323D
:106B80000833CDE90932E369009398E80E002846FE
:106B9000FFF78FFB074600284BD1D4F81CB005A89F
:106BA0005946FDF7A8FB059E0EB90420DDE75946BE
:106BB00007A8FDF7A0FB079F002FF6D0BDF820A087
:106BC000A6F806A06988BDF818304FF6FF7291420A
:106BD0002DD00BF12C000393FEF765FF039BC380C0
:106BE000A5F802A031462046FFF71EFB09F1FF334E
:106BF0004FF000023946204600F022F80028B4D1B8
:106C00002046FFF7C6FC0028AFD17D212046FFF7C4
:106C100035FE0028A8D12C212046FFF72FFE0028A2
:106C2000A0D02046FFF7B5FC00288DD09DE72B8033
:106C3000D6E7E169FDF7F1FAD8E7052095E7FFFF10
:106C4000F8B506460C461F46FFF7A3FC0546B8B943
:106C50003046FFF78BFC662842D013DC272803D090
:106C60005B2817D0222840D13046FEF77DFF304602
:106C7000FFF756FE054618B921463046FFF7D4FA0D
:106C80002846F8BD742822D07B2812D06E282CD13B
:106C9000184921E0402323714FF6FF73238063805E
:106CA0004FF000023B462146304600F029F80546E9
:106CB000E6E7202323714FF6FF73238063804FF0B4
:106CC00000023B4621463046FFF727FFEFE7062349
:106CD00023710949012323703046FFF775FCE6E76D
:106CE0000623237125700549F6E721463046FFF754
:106CF00080FCDCE782890100A1890100A6890100EE
:106D00002DE9F347DDB204460E46002D46D00023A0
:106D10004376FFF73EFCA8B95D212046FFF7AEFDA4
:106D200078B94FF6FF7A013DD4F81C906846494681
:106D3000FDF7E1FADDF80080B8F1000F05D104207D
:106D400000E0002002B0BDE8F0877188BDF8047053
:106D5000514521D009F12C00FEF7A5FEC7807780B0
:106D60002B464FF0000241462046FFF769FF0028FE
:106D7000E8D12046FFF70DFC0028E3D15D21204635
:106D8000FFF77CFD0028DCD12C212046FFF776FDA3
:106D90000028C9D10320D5E73780E0E70520D1E7F7
:106DA0002DE9F04104460E688D68016898B000F145
:106DB00038070C30FFF712F80023D4F80080237155
:106DC0003544A06828B10368A3604146FEF78FFEF2
:106DD000F7E784F83C00CDE9004002908DF80C0004
:106DE0008DF819004FF00A034FF00002394668464B
:106DF000CDE904650794FFF723FF054640B99DF9E7
:106E000018302BB194F83C3013F0080F18BF03254D
:106E1000019818B1009B1968FEF769FE284618B062
:106E2000BDE8F0812DE9F04FDFF870928DB0044697
:106E30000F46904601268A4802F084FA03284FD173
:106E4000254655F8080BFEF705FC40F6B8324946D2
:106E5000284602F015FD00285CD16568814909A823
:106E60000AF031FC2846032209A901F0A3FB09A876
:106E70000AF0DEFB032E05D12068FEF7E3FB4FF09E
:106E8000000A43E07849656806A80AF01CFC0A225B
:106E9000314603A80AF047FC03A906A80AF028FD1A
:106EA00072490AF031FD0A228246022109A80AF03D
:106EB0003AFC09A950460AF01BFD0022014628466B
:106EC00001F078FB09A80AF0B3FB03A80AF0B0FBB5
:106ED00006A80AF0ADFB2068FEF7CDFB0136AAE755
:106EE0006568634909A80AF0EEFB022209A9284651
:106EF00001F060FB09A80AF09BFB2068FEF7A2FBEB
:106F00002046FEF76FFE8246002899D150460DB00C
:106F1000BDE8F08F574903A80AF0D5FB414603A806
:106F20000AF0E6FC54490AF0EFFC54490AF0ECFC84
:106F30004946824606A80AF0C6FB06A950460AF052
:106F4000D7FC4F490AF0E0FC4E490AF0DDFC4E49FF
:106F50000AF0DAFC0A228246B96809A80AF0F5FBB1
:106F600009A950460AF0C4FC45490AF0CDFC47493E
:106F70000AF0CAFC39460AF0BBFC014668460AF032
:106F80003CFC09A80AF054FB06A80AF051FB03A830
:106F90000AF04EFB694628460AF07AFA0BF048FBE5
:106FA00042F20F7B82460BF043FBA0EB0A005845F0
:106FB0004CD8284602F0FCFC00284CD0294603A8F7
:106FC0000AF00AFB284602F077FE314906A80AF0CB
:106FD0007AFB06A903A80AF02AFD002830DC2D4917
:106FE00009A80AF070FB09A903A80AF020FD0028EF
:106FF00009A8D4BF4FF0000A4FF0010A0AF018FBAD
:1070000006A80AF015FBBAF1000F1CD022496568EA
:1070100009A80AF058FB414609A80AF069FC014694
:10702000284601F08FFA09A80AF002FB2068FEF753
:1070300001FB03A80AF0FCFA68460AF0F9FA65E7D2
:107040004FF0010ADCE703A80AF0F2FA284602F042
:1070500033FE68460CE70A200BF0A6FAA3E700BF50
:10706000640E0020C38F01007D8F01008C8F010012
:107070009F8F0100DF8F0100E58F0100F18F01007C
:107080003D900100F88F0100199001002A90010045
:10709000409001004790010053900100918F010042
:1070A0002DE9F04F00F108050446B3B00F469046B5
:1070B000B04940F6B832284602F0E2FB66688146E5
:1070C00080B9AD4912A80AF0FEFA3046032212A98F
:1070D00001F070FA12A80AF0ABFA4E46304633B00F
:1070E000BDE8F08FA549DFF8D892DFF8D8A212A842
:1070F0000AF0E9FA002212A9304601F05BFA12A860
:107100000AF096FA9E49666812A80AF0DCFA0A228A
:1071100041460EA80AF007FB0EA912A80AF0E8FBE8
:1071200098490AF0F1FB0146304601F00BFA0EA82F
:107130000AF07EFA12A80AF07BFA9349666812A850
:107140000AF0C1FA394612A80AF0D2FB01463046CD
:1071500001F0F8F912A80AF06BFA2068FEF7FCFBC0
:107160008A490EA80AF0AFFA39460EA80AF0C0FB09
:1071700087490AF0C9FB87490AF0C6FB7D490646E4
:1071800012A80AF0A0FA12A930460AF0B1FB82490F
:107190000AF0BAFB81490AF0B7FB014605A80AF0DC
:1071A0002CFB12A80AF044FA0EA80AF041FA05A92D
:1071B00028460AF06DF90BF03BFA42F20F770646CB
:1071C0000BF036FA801BB84207D8284602F0F0FBD5
:1071D000C0B90A200BF0E8F9F2E76468704912A818
:1071E0000AF071FA2046032212A901F0E3F912A86D
:1071F0000AF01EFA284602F05FFD002605A80AF0F4
:1072000017FA6BE70A2229460EA80AF0F9F949464F
:1072100012A8D4F804B00AF056FA0EA912A80AF07F
:1072200067FB0146584601F08DF912A80AF000FAF2
:1072300051460EA80AF097FB28B30EA80AF0F8F9F9
:107240006668584912A80AF03EFA002212A9304690
:1072500001F0B0F912A80AF0EBF9404600F018FF6F
:107260006768064698B9504912A80AF02CFA3846C1
:10727000032212A901F09EF912A80AF0D9F92846B2
:1072800002F01AFDBAE70EA80AF0D2F9A1E74749C1
:1072900012A80AF018FA002212A9384601F08AF959
:1072A00012A80AF0C5F90BF0C3F983460BF0C0F938
:1072B000002182462068FEF75BFA284602F078FB40
:1072C00080B966683A4912A80AF0FDF9022212A9AB
:1072D000304601F06FF912A80AF0AAF94FF47A705B
:1072E0000BF062F94FF0FF390027474580F2158116
:1072F0000BF09EF947F23053A0EB0B0098420FD9E8
:1073000064682C4912A80AF0DEF92046022212A96C
:1073100001F050F912A80AF08BF900F0E5FE69E7D8
:107320000BF086F942F21073A0EB0A00984202D9E2
:1073300064682149E6E7284602F03AFB002800F09D
:10734000B780802212A9284602F02BFC061E3BDCE7
:1073500066681A490EA80AF0B6F902220EA930464C
:1073600001F028F90EA80AF063F964200BF01CF96B
:10737000BBE700BF918F0100059201002A92010036
:1073800046920100549201005B9201006A92010052
:10739000E58F0100F18F01003D9001002A9001006E
:1073A0006F9201009B920100BB920100E3920100E9
:1073B00003930100239301004D9301007B9301008F
:1073C00090920100999201000BF032F93146824609
:1073D00012A800F069FE86422AD00190B149646883
:1073E0000BA80AF070F90A22314608A80AF09BF9A6
:1073F00008A90BA80AF07CFAAB490AF085FA019BB0
:107400000A22194606460EA80AF08DF90EA9304642
:107410000AF06EFA0146204601F094F80EA80AF030
:1074200007F908A80AF004F90BA80AF001F974E7B3
:107430003744642605237E4396FBF8F696FBF3F269
:1074400099FBF3F39A427FF750AF31462068FEF77D
:107450008FF96368954901930BA80AF034F90A2261
:10746000394608A80AF05FF908A90BA80AF040FA03
:107470008F490AF049FA0A22814631460EA80AF0DD
:1074800052F90EA948460AF033FA8A490AF03CFA42
:10749000019B0146184601F055F80EA80AF0C8F8FD
:1074A00008A80AF0C5F80BA80AF0C2F8B1461CE714
:1074B000284602F03DFC064668BB7F4964680EA87A
:1074C0000AF001F90A2239460BA80AF02CF90BA997
:1074D0000EA80AF00DFA79490AF016FA0A220746B0
:1074E000414612A80AF01FF912A938460AF000FA1C
:1074F00073490AF009FA0146204601F023F812A860
:107500000AF096F80BA80AF093F80EA80AF090F883
:1075100000F0EAFDB3E60A2028E7284602F0CCFB9B
:1075200012AD6668674928460AF0CDF80022294660
:10753000304601F03FF828460AF07AF800F0CCFD1A
:107540006768064660B9604928460AF0BCF83846C4
:107550000322294601F02EF828460AF069F84DE684
:107560005A4928460AF0AFF800222946384601F069
:1075700021F828460AF05CF86768554928460AF061
:10758000A2F800222946384601F014F828460AF0ED
:107590004FF864212068FEF7EBF84E4B129315ABC1
:1075A0001D934FF4802300271E930BA84FF6FF7303
:1075B000ADF87C30ADF886308DF84C7014978DF8AE
:1075C000847000F07FFF444B0F934FF001080823B5
:1075D0000BA90EA810938DF844800E95FFF71AFAA8
:1075E0000BA80AF025F83D4B0F933D498DF84480D8
:1075F0000F230EA810930E95FFF72DFA394B0F931A
:1076000039498DF8448009230EA810930E95FFF791
:1076100022FA364908A80AF056F820ABCDE903351E
:1076200003AB93E8030008AAFDF76CFBD4F80480D1
:107630002F490EA80AF047F83A460EA9404600F036
:10764000B9FF0EA809F0F4FF08A90BA80AF0D5F8B5
:1076500028490EA80AF037F80EAA0BA92046FFF712
:10766000E1FB0EA809F0E4FF0BA809F0E1FF40F6EA
:10767000B8300AF099FF64681F490EA80AF023F891
:107680003A460EA9204600F095FF0EA809F0D0FF5B
:1076900000F030FD08A809F0CBFF2846FCF757FDA5
:1076A000ACE500BF97930100BE930100C8930100B1
:1076B000D5930100DE930100E19301000F940100D6
:1076C000549201001194010023940100419401009F
:1076D00063940100B8030020D58801009D8A010051
:1076E000AD8A01007F8A0100898A01009989010021
:1076F00076940100B48A0100969401002DE9F041CE
:10770000A0B010AE0F464468B2490546304609F0B5
:10771000DAFF394630460AF0EBF80146204600F021
:1077200011FF304609F084FFAB4B109313AB1B9352
:107730004FF4802300241C9339464FF6FF733046E4
:107740008DF844401294ADF874308DF87C40ADF85B
:107750007E30FFF725FBC7B2FFB1A0496D680CA8CA
:1077600009F0B1FF9E4B09A853F8271009F0ABFFB1
:1077700009A90CA80AF0BCF80146284600F0E2FE70
:1077800009A809F055FF0CA809F052FF3046FCF794
:10779000DEFC204620B0BDE8F081924F30463946ED
:1077A000FEF7D6FD044658B96D688F490CA809F05C
:1077B0008AFF284602220CA900F0FCFE0CA83EE03D
:1077C000CDE90C670F2301270CA80E938DF83C70B0
:1077D000FEF7C9FF85F82800002835D1834B0D93AB
:1077E0000CA807230C960E938DF83C70FEF798FFBB
:1077F00040B303791A1FBA4201D9022B22D10CA837
:10780000FEF78EFF014618B109A8FEF776F909992F
:1078100009A809F058FF76496F680CA809F053FFD2
:1078200009A90CA80AF064F80146384600F08AFE5F
:107830000CA809F0FDFE2868FDF7FCFE09A809F078
:10784000F7FEA3E76B49E3E7DFF8DC81304641460A
:10785000FEF77EFD044610B96D686749A6E76749E3
:107860003046FEF775FD044610B96D6864499DE722
:107870000D230CA88DF83C70CDE90C680E93FEF733
:107880004FFF60490C9F044606A809F01CFF002C1E
:1078900000F09680214609A8FEF72FF909990029E2
:1078A00000F08E8006A809F0B8FF05F12C0406A9A7
:1078B000204609F0ACFF06A809F0BAFE52496F68ED
:1078C0000CA809F000FF21460CA80AF011F80022CC
:1078D0000146384600F06EFE0CA809F0A9FE4B499F
:1078E0006F680CA809F0EFFE494909A809F0EBFE02
:1078F00009A90CA809F0FCFF00220146384600F057
:1079000059FE09A809F094FE0CA809F091FE286818
:10791000FDF7C6FE3F4909A809F0D5FE06A800F00C
:10792000D1FD06A909A809F0E3FF3B4909F0ECFFE6
:10793000214609F0DDFF394909F0E6FF38490446E0
:107940000CA809F0C0FE0CA9204609F0D1FF0146A1
:1079500003A809F052FF0CA809F06AFE06A809F076
:1079600067FE09A809F064FE244B0D9304230E93CF
:107970000024012309A90CA80C968DF83C30099429
:10798000FEF73AFF071ED5F804804FDC25490CA806
:1079900009F099FE0A22394609A809F0C4FE09A98E
:1079A0000CA809F0A5FF02220146404600F002FEA5
:1079B00009A809F03DFE0CA809F03AFE03A83EE72D
:1079C000CDE9014701AB06AA93E80300FDF79AF958
:1079D0006BE700BF83900100B80300209D90010079
:1079E000C0030020B0900100C0900100F79001009A
:1079F000FF9001006E9001001D910100499101006E
:107A00004E91010099890100719101008B91010053
:107A1000AD8A0100A6910100C7910100D19101003A
:107A2000898A0100DD9101000F91010012490CA823
:107A300009F049FE0A22394609A809F074FE09A98D
:107A40000CA809F055FF0D4909F05EFF22460146DA
:107A5000404600F0AFFD09A809F0EAFD0CA809F0C6
:107A6000E7FD4FF4FA600AF09FFD3A4603A9284665
:107A7000FFF716FB0446A1E7F591010054920100BF
:107A80002DE9F04F4568B44997B0044613A809F0B2
:107A90001AFE002213A9284600F08CFD13A809F055
:107AA000C7FDAE49656813A809F00DFEAC4910A8E2
:107AB00009F009FE10A913A809F01AFF00220146D7
:107AC000284600F077FD10A809F0B2FD13A809F0D0
:107AD000AFFD2068FDF7BEFDA24801F033FC03288E
:107AE000064612D06568A04913A809F0ECFD0222F1
:107AF00013A9284600F05EFD13A809F099FD20683F
:107B0000FDF7A0FD17B0BDE8F08F98490DA809F06A
:107B1000DAFD0AA800F0D6FC0AA90DA809F0E8FED3
:107B2000934909F0F1FE8E49054610A809F0CBFDF6
:107B300010A9284609F0DCFE8E4909F0E5FE8E49C1
:107B4000054613A809F0BFFD13A9284609F0D0FE89
:107B5000014601A809F051FE13A809F069FD10A81B
:107B600009F066FD0AA809F063FD0DA809F060FDA3
:107B70008249656813A809F0A6FD01A913A809F0B8
:107B8000B7FE0146284600F0DDFC04F1080513A805
:107B900009F04EFD40F6B8327949284601F070FEF2
:107BA00098B96568774913A809F08DFD324613A985
:107BB000284600F0FFFC13A809F03AFD2068FDF705
:107BC00041FD01A809F034FD9CE76F49DFF8E4911D
:107BD000DFF8E4A1DFF8E4B110A809F074FD01A911
:107BE00010A809F085FE694909F08EFE684909F080
:107BF0008BFE6349064613A809F065FD13A93046BC
:107C000009F076FE634909F07FFE634909F07CFEC6
:107C1000014604A809F0F1FD13A809F009FD10A818
:107C200009F006FD04A9284609F032FC66685B49A4
:107C300013A809F048FD002213A9304600F0BAFC51
:107C400013A809F0F5FC564907A809F03CFD0AF015
:107C5000EFFC534980460AA809F035FD00273E464F
:107C60000AF0E6FC42F20F73A0EB0800984200F223
:107C7000E680284601F09CFE002800F0AA800A2237
:107C800029460DA809F0BCFC494613A809F01BFDC4
:107C900013A90DA809F091FE064613A809F0C8FC27
:107CA000002E40D03F49666813A809F00CFD0DA9CD
:107CB00013A809F01DFE0146304600F043FC13A84E
:107CC00009F0B6FC384913A809F0FDFC13A90DA86A
:107CD00009F0ADFE064613A809F0AAFC002E22DA30
:107CE0003249666813A809F0EEFC0DA913A809F043
:107CF000FFFD0146304600F025FC13A809F098FC72
:107D0000284601F0D9FF2068FDF79CFC0DA809F07A
:107D10008FFC0AA809F08CFC07A809F089FC04A8CC
:107D200009F086FC4DE751460DA809F01CFE0646F9
:107D3000002845D067681E4913A809F0C4FC00223A
:107D400013A9384600F036FC13A809F071FC0DA801
:107D500009F06EFC374683E7848D0100A58D010094
:107D6000AD8A0100640E0020B78D0100E18D010095
:107D7000FF8D0100D1910100898A0100108E010060
:107D8000918F0100238E01006A920100E58F0100AE
:107D9000F18F01003D9001002A900100468E010004
:107DA00099890100688E0100409001007A8E0100DF
:107DB0009B8E0100608E010099920100BA8E010035
:107DC0008FB10DA90AA809F072FD0DA809F030FCC9
:107DD0000126284601F0ACFF08B9002E2FD10A2059
:107DE0000AF0E2FB3CE7594610A809F06CFC10A928
:107DF0000DA809F0E2FD064658B95E4913A809F03E
:107E000062FC13A90DA809F0D8FD064613A809F0D5
:107E10000FFC10A809F00CFC002ED6D0564966685D
:107E200013A809F050FC0DA913A809F061FD014643
:107E3000304600F087FB13A809F0FAFBC5E7284697
:107E400001F03AFF6EB965684C4913A809F03BFC94
:107E50002846032213A900F0ADFB13A809F0E8FBA4
:107E60006BE06FB30C9B5BB30AA809F044FE7B2167
:107E70000AA809F0C7FD7D2105460AA809F0F1FD11
:107E8000002D5EDA65683E4913A809F01CFC022249
:107E900013A9284600F08EFB13A809F0C9FB394945
:107EA000656813A809F00FFC0AA913A809F020FDC2
:107EB0000146284600F046FB13A809F0B9FB56E03E
:107EC0006568314913A809F0FEFB022213A9284670
:107ED00000F070FB13A809F0ABFB2C49656813A8F0
:107EE00009F0F1FB0A22394610A809F01CFC10A980
:107EF00013A809F0FDFC0146284600F023FB10A85A
:107F000009F096FB13A809F093FB2149656813A8B3
:107F100009F0D9FB0A220C9910A809F016FC10A947
:107F200013A809F0E5FC0146284600F00BFB10A859
:107F300009F07EFB13A809F07BFB2068FDF782FBAC
:107F4000E7E600289EDB431C2A460AA913A809F08D
:107F50008DFD13A90AA809F05AFC13A809F068FBC3
:107F60000AA92046FFF7CAFB00287FF4D2AE656855
:107F700008496AE7C88E010090920100D88E01007E
:107F8000348F0100598F0100F98E0100168F010016
:107F9000268F0100698F010010B50A4C88B004F1EA
:107FA0003001684602F044F86946204603F03CFB85
:107FB000684601F019FC04F16001204603F07AF9EB
:107FC00008B010BD7007002010B5084C204603F023
:107FD000A9F804F130004FF47F4102F017F804F1E2
:107FE0006000BDE8104002F0EFB900BF700700204C
:107FF00010B5084C084B236304F1400001F0F4FB7A
:1080000004F10C0009F014FB2046BDE8104009F013
:108010000FBB00BF70070020389B0100F0B5031DA7
:1080200005460E4617460FCB8FB003AC84E80F0011
:10803000144B089394E80F0095F814C0124C8DF877
:1080400034C009AD85E80F00104B009332463B4623
:1080500008A9204603F07CF804F1300002F09AF8F9
:10806000FB23009300231A46E02108A809F09CF89E
:1080700041F2E94208A904F1600002F043FA0FB0AE
:10808000F0BD00BF84A2010070070020C4100020D2
:10809000014608B5034802F08FFF003018BF0120E9
:1080A00008BD00BFC41000202DE9F041094F05466E
:1080B00000EB010804464445A4EB050606D014F87D
:1080C000011B384602F0B2FF0128F4D03046BDE86B
:1080D000F08100BFC410002008B5024802F094FFF0
:1080E000012008BDC4100020014802F08DBF00BF70
:1080F000C4100020014802F0E3BF00BFC4100020FC
:1081000001607047FFFFFFFF70B50E2008F03EFED4
:108110000A25044602260E2008F038FE04440120F9
:108120000AF042FA94FBF6F4013DF4D120460CF03B
:1081300095FD05A3D3E900230CF0FAFD0DF0F0F84E
:1081400000EE100A70BD00BF006DA601D0662A3F88
:1081500007B5FFF7D9FFDFED0C7A20EE270A64237D
:10816000FDEEC07A00934FF42F7200234FF4FA71A2
:1081700017EE900A08F03AFF6428A8BF642020EAAE
:10818000E07003B05DF804FB00007A44DFED0C7A88
:1081900007B520EE270A6423FDEEC07A00934FF462
:1081A0002F7200234FF4FA7117EE900A08F01EFFA9
:1081B0006428A8BF642020EAE07003B05DF804FBE7
:1081C00000007A444FF4F0704143642091FBF0F0DA
:1081D000704708B5FFF7BCFF1328CCBF0020012073
:1081E00008BDFFFFF0B52DED028B91B00446FFF7FF
:1081F0008BFF2046B0EE408AFFF7C8FF354926685E
:10820000054604A809F05FFAB0EE480A022101A869
:1082100009F00DFB01A904A809F06AFB2E4909F039
:1082200073FBB2EE0A0A28EE000A0746012107A8EE
:1082300009F0FDFA07A9384609F05AFB274909F069
:1082400063FB0A22074629460AA809F06CFA0AA924
:10825000384609F04DFB224909F056FB07464FF41A
:10826000F0700A226843642190FBF1F10DA809F037
:108270005AFA0DA9384609F03BFB1A4909F044FBAC
:1082800000220146304600F095F90DA809F0D0F91A
:108290000AA809F0CDF907A809F0CAF901A809F060
:1082A000C7F904A809F0C4F92046FFF792FF60B1AE
:1082B00024680D490DA809F006FA204602220DA9EE
:1082C00000F078F90DA809F0B3F911B0BDEC028BFC
:1082D000F0BD00BFEF940100019501000D95010074
:1082E000119501001C9501002F95010010B5044661
:1082F0000E2008F01FFE0E2000210AF019F820467B
:10830000BDE81040FFF76EBF38B504460D460623A2
:108310001622022102F0BCFC6561204638BDFFFF39
:1083200070B52DED028B8AB045693C49044607A81B
:1083300009F0C9F9002207A9284600F03BF907A86F
:1083400009F076F93721204602F0A8FC4FF4FA60D4
:108350000AF02AF900221146204602F045FD0021CC
:108360002046F0EE408A02F0DBFDF4EE688AF1EE82
:1083700010FAB0EE408A656942D6B4EE400AF1EEDA
:1083800010FA3DD6264904A809F09DF9B0EE680A16
:10839000022101A809F04BFA01A904A809F0A8FAE2
:1083A000204909F0B1FAB0EE480A0646022107A8B2
:1083B00009F03DFA07A9304609F09AFA1A4909F07E
:1083C000A3FA00220146284600F0F4F807A809F0B5
:1083D0002FF901A809F02CF904A809F029F964691A
:1083E000124907A809F06FF9002207A9204600F0FA
:1083F000E1F807A809F01CF90AB0BDEC028B70BDCA
:108400000B4907A809F05FF92846022207A900F0E6
:10841000D1F807A809F00CF9E1E700BF3B9501008E
:10842000539501006A95010079950100B09501000E
:108430007B9501000022114602F0D6BC002102F01B
:108440006FBD01607047FFFFF0B587B001AD2946F1
:108450001248134F134E00F019FF1349114809F049
:10846000DCF900242B5D0F2B03D83946304609F088
:108470002FFA1022295D03A809F044F903A9304618
:1084800009F015FA013403A809F0D2F8062CE9D155
:10849000044809F024FB07B0F0BD00BF640E0020C3
:1084A0009F890100AC0D00209989010010B5044C92
:1084B00023781BB9FFF7C8FF0123237010BD00BF4D
:1084C000A80D0020064B1B7810B504460BB9FFF72A
:1084D000EDFF0449204609F090F9204610BD00BF89
:1084E000A80D0020AC0D00201FB50C4B1B780446D6
:1084F0000BB9FFF7DBFF0A49246801A809F0E3F88C
:10850000084901A809F0F4F900220146204600F0CC
:1085100051F801A809F08CF804B010BDA80D002096
:10852000C7950100AC0D00200149024809F0CBB805
:1085300099890100AC0D0020014809F079B800BF0D
:10854000AC0D00201FB50C4601A8084909F0BBF886
:10855000214601A809F0CCF90146054808F0ACFF16
:1085600001A809F065F804B010BD00BFFE95010038
:108570009412002010B50446032A0FD8DFE802F059
:1085800002080A0C0649204609F09DF8204610BD55
:108590000449F8E70449F6E70449F4E70449F2E737
:1085A000E3950100E8950100EE9501003D9601007C
:1085B000F69501002DE9F041032A90B098BF564B83
:1085C00007460E461446554998BF9D560DA888BFCC
:1085D0002D2509F078F8224639460AA8FFF7CAFF88
:1085E0000AA90DA809F084F94D4909F08DF9014651
:1085F00001A809F002F90AA809F01AF80DA809F073
:1086000017F848490DA809F05EF831460DA809F0A1
:108610006FF9444909F078F9014604A809F0EDF82A
:108620000DA809F005F8039B069E3F499E42B8BF7E
:108630001E46F31A07A8022793FBF7F7DC1B09F085
:1086400042F84FF00008B84506DA294607A809F0B5
:1086500044F908F10108F6E701A907A809F027F98C
:108660000027A74205DA294607A809F036F901379D
:10867000F7E72D490AA809F026F80024B44205DAE4
:1086800029460AA809F029F90134F7E727490DA876
:1086900009F019F807A90DA809F02AF9234909F0EA
:1086A00033F90146224808F007FF0DA808F0C0FF83
:1086B00020490DA809F007F804A90DA809F018F938
:1086C0001C4909F021F90146194808F0F5FE0DA8EA
:1086D00008F0AEFF15490DA808F0F5FF0AA90DA88E
:1086E00009F006F9114909F00FF90146104808F0A0
:1086F000E3FE0DA808F09CFF0AA808F099FF07A860
:1087000008F096FF04A808F093FF01A808F090FF76
:1087100010B0BDE8F08100BFDF95010001960100B7
:1087200003960100E8AE0100998901000596010059
:10873000941200200896010010B50648054C07F079
:1087400079FF204607F074FF18B90A2009F02CFFC2
:10875000F7E710BD9412002008B5074B1860074BCF
:108760001B681844064B1860064B02221A7009F069
:108770005FFF054B186008BDC40D0020D803002022
:10878000BC0D0020C00D0020B80D002038B5164DDE
:10879000164C09F04DFF2B68C01AB0F57A7F06D34E
:1087A000226803F57A73013222602B60F1E7104DE5
:1087B00023682A689A4208D80E4B1B682BB1984749
:1087C00050EA010304D0FFF7C7FF2068002138BD3D
:1087D000094A236812681344084A2B60137800334F
:1087E00018BF01231370F0E7B80D0020C40D00205E
:1087F000BC0D0020C80D0020D8030020C00D0020B3
:1088000008B50368002B02DA09480CF0CFF88B4258
:1088100008D949008B4205D20029B6BF6FF000434A
:10882000016003600068BDE8084001300CF08CB8BE
:108830001C97010010B50446406828B163781BB945
:1088400040F2AC410CF0AAF8204610BD08B4F3B5D4
:1088500007AB044600F10C0553F8042B019380216B
:1088600028460DF0FFFFD4F89000A8B194F894309A
:10887000012B11D90F4908F010FED4F8906033682D
:1088800028465F680DF04BFE294602463046B84741
:10889000D4F8900008F00AFE284664680DF03FFE08
:1088A00029460246204607F0DBFF02B0BDE8F04053
:1088B00001B070476C960100034653F8080B9842CC
:1088C00001D00CF061B87047F8B506464568084617
:1088D0000F460DF024FEA842024628BF2A46044651
:1088E00022B1394630680CF0FBFF00B9281BF8BDF7
:1088F000012A30B404D191F90030037030BC7047C4
:10890000002AFBD030BC0CF0FABFFFFF00F10803D7
:1089100073B5044603600D46D1B108460DF0FFFD66
:108920000F280646019006D9002101A8FFF768FF2D
:10893000019B2060A360324629462068FFF7D8FFDC
:10894000019B2268636000212046D15402B070BDB3
:1089500001480CF025F800BF349701002DE9F347DA
:10896000DDF82880164642689A46A8EB0603571A97
:1089700013440268019300F108039A420D4604462D
:1089800014BF81680F2101A8FFF73AFFBF1B814682
:108990001DB12A462168FFF7ABFFBAF1000F08D0DE
:1089A000B8F1000F05D04246514609EB0500FFF72C
:1089B0009FFF47B121682E4405EB08003A46314439
:1089C0004844FFF795FF2046FFF776FF019BC4F868
:1089D0000090A36002B0BDE8F087F7B50268466872
:1089E00000F108039A4218BF836806F1010508BF29
:1089F0000F239D4204460F4606D90123009300230E
:108A00001A463146FFF7AAFF23689F552368656021
:108A100000225A5503B0F0BD012A30B404D191F9B7
:108A20000030037030BC7047002AFBD030BC0CF023
:108A300071BFFFFF2DE9F74F8146144640680C9E39
:108A400002F10042013A121A9642984602D937487A
:108A50000BF0ACFF4A46A6EB040B52F8083B9342DE
:108A600018BFD9F808200BEB000A08BF0F225245A7
:108A700052D35F189845A0EB0101A1EB040522D366
:108A8000034498451FD876BB95B1B44210D02A460E
:108A90003919B819FFF7C0FFB44209D23C4408EBBA
:108AA00006039C4227D3324641463846FFF7B4FFBF
:108AB000D9F80030C9F804A00022484603F80A207B
:108AC00003B0BDE8F08F35B1B44204D02A4639195D
:108AD000B819FFF7A1FF002EEAD0324641463846CA
:108AE000FFF706FFE4E7B4421DD33246414638465D
:108AF000FFF792FFC8E7444503D8324608EB0B0165
:108B0000EDE7A4EB0804224641463846FFF784FF10
:108B1000321BB9193819E3E7009643462246484606
:108B2000FFF71CFFC4E7002DB8D0B0E703970100A2
:108B300037B5044608460D460DF0F1FC2B46009073
:108B4000626800212046FFF775FF03B030BDFFFFCC
:108B50002DE9F04F8FB00AAB029106460893984971
:108B60000298002309938DF828309246FFF7ACFE57
:108B7000031C0490D6F8900018BF0123069328B177
:108B800096F8943013B18F4908F087FC09F050FD36
:108B90004FF000080123DFF854B205904746CDF8A6
:108BA0000480CDF80C8099464446079309F040FDB7
:108BB000059BB268C01A904200F21A81079B5BB114
:108BC0007068026812699047079B0028EDD07068B2
:108BD00003685B69984745B2D6F8900038B196F8BB
:108BE000943023B10A2D24D1774908F056FCD6F8E9
:108BF000900060B196F89430022B08D9734908F0C0
:108C00004CFC0A222146D6F8900008F0ABFC631E0B
:108C1000072B29D8DFE813F03A005C007E008A00B9
:108C20008D00B7002B01A200092C00F0E380012386
:108C3000BBE70D2D01D16649D7E7202D01D165494C
:108C4000D3E71F2D0CDC644908F027FC29460A22D3
:108C5000D6F8900008F09FFC6049D6F89000C4E771
:108C6000294608F01EFCC2E72B2D05D1294608A88D
:108C7000FFF7B3FE0124DAE71BF90730AB4240F0FF
:108C80009C80DDF8188001370824D0E73A2D29466A
:108C900008A801D03D2D3AD1FFF79FFE049B8BB170
:108CA000029B099A5B689A4206D15AB1029B0898C6
:108CB00019680CF015FE28B1494908A8FFF738FFDC
:108CC0004FF0010846495046FFF732FF0224AEE755
:108CD0007C2D0ED1DAF800000CF049FD0023CAF813
:108CE0000430DAF8003003904FF000021A700324C9
:108CF0009DE70D2D00F0B2800A2D00F0B18096F8AE
:108D00008C3013B1202D00F0AD8029465046FFF77E
:108D100064FE8CE729465046FFF75FFE019B039AED
:108D200001330193934208BF052480E70A2D08BF51
:108D300005242C495046FFF7C7FD60B12A4950462B
:108D4000FFF7C2FD002804BF4FF0010909244F2D91
:108D50002AD1012798E781460924F8E71BF9072063
:108D60007B1C58460793AA4218BF07240DF0D7FB77
:108D7000079B984270D107464FF00009B8F1000FE9
:108D800019D1092436E01BF907207B1C58460793AC
:108D9000AA4218BF07240DF0C2FB079B98425BD183
:108DA00007464FF00109E9E7B8F1000F3FF43CAF87
:108DB000092C7FF43CAF4FF00008002437E700BFD8
:108DC000BD960100CA960100D0960100EB96010005
:108DD000D5960100DA960100DF960100D3960100D6
:108DE00099890100449001003D960100E19601003F
:108DF0004FF00309D6F89000B8B196F89430022BE2
:108E000013D91E4908F049FB0A222146D6F89000E2
:108E100008F0A6FB1A49D6F8900008F03EFB0A229B
:108E20004946D6F8900008F09DFBD6F89000012343
:108E300086F88C3048B196F8943033B1114908F077
:108E40002CFBD6F8900008F031FB08A8FFF734FDA2
:108E500048460FB0BDE8F08F1F46E8E60424E6E67A
:108E60000524E4E6B8F1000F7FF4E1AE9DE60023AF
:108E700098464FF002091C4697E600BFE6960100AF
:108E8000F3960100F996010030B504464068036886
:108E90008DB05B68984706AA1D496846FFF736FD06
:108EA00008AB069306AA00236946204607938DF86F
:108EB0002030FFF74DFE0546D4F8900088B194F8B5
:108EC0009430012B0DD9134908F0E7FA0699D4F82C
:108ED000900008F0FBFA7DB90F49D4F8900008F033
:108EE000F5FA06A8FFF7E8FC6846FFF7E5FCB5FAD7
:108EF00085F040090DB030BD012DD4F8900001D1AE
:108F00000649ECE7032D0CBF05490649E7E700BF1A
:108F1000BD9601000A9601002496010032960100D8
:108F2000439601005696010008B42DE9F343164616
:108F3000044609AB306853F8042B0193884604F1CA
:108F40000C05002171600170802128460DF08AFC1B
:108F5000D4F89000B0B108F0A9FA2449D4F89000F0
:108F600008F09BFAD4F890703B682846D3F8049038
:108F70000DF0D5FA294602463846C847D4F8900085
:108F800008F094FA284667680DF0C9FA29460246A7
:108F9000384607F065FC324641462046FFF7D8FDCB
:108FA0000546D4F8900068B1114908F076FA3168A6
:108FB000D4F8900008F08AFA65B90E49D4F8900008
:108FC00008F084FAB5FA85F0400902B0BDE8F04334
:108FD00001B07047012DD4F8900001D10649EFE7A8
:108FE000032D0CBF05490649EAE700BFA79601001B
:108FF000B1960100249601003296010043960100CB
:10900000569601002DE9F0430446406891B016469B
:10901000002834D02378002B31D10368194DDB6947
:10902000DFF86C90DFF86C80174F98470AAA174951
:1090300004A8FFF76BFC60680368DB6898474FF48F
:10904000FA72AA602378A3B9002E12DD03AA49465A
:109050000AA8FFF75BFC3B4604AA0AA9CDF80080EA
:109060000848FFF761FF20700AA8FFF725FC013EC2
:10907000E8E742F2107304A8AB60FFF71DFC11B0E3
:10908000BDE8F083CC0D00208FA901009989010073
:109090008496010094960100074B0848586000220E
:1090A000012142F210701A705970986083F88C1088
:1090B00083F89420704700BFCC0D0020EC1B0020EB
:1090C0000148FFF7B7BB00BFCC0D002008B503680F
:1090D000002B02DA09480BF069FC8B4208D94900E1
:1090E0008B4205D20029B6BF6FF0004301600360D8
:1090F0000068BDE8084001300BF026BC1C97010059
:1091000073B542F21073036000F5F8730025C0F8E0
:10911000E831012600F50273044680F8E451C0F8F6
:10912000EC5180F8F051C0F80032C0F8045280F8D9
:10913000085204230096A822C02100F5067008F00A
:1091400033F833460096A822C02104F50C7008F0CD
:109150002BF8FF2300951A46194604F5127008F003
:1091600023F8204602B070BD73B505460E4619B906
:1091700012B10D480BF014FC941B0F2C019406D96E
:10918000002101A8FFF7A2FF019B2860AB602246E7
:1091900031462868FFF7ACFB019B2A686B60002111
:1091A000D15402B070BD00BF349701002DE9F04FDB
:1091B00091F902303A2B89B04FD191F905303A2B11
:1091C0004BD191F908303A2B47D191F90B303A2B1A
:1091D00043D191F90E303A2B3FD10C46451E01F197
:1091E00012070DF110094FF0000AA21C214602A837
:1091F000CDF80890FFF7B8FF029E0CF0C1FAD0F846
:1092000000B00CF0BDFA1022C0F800A001A9304651
:109210000DF0D8FA019B9E42804602D110480BF017
:10922000C2FB0CF0ADFA0368222B02D10C480BF004
:10923000C0FB0CF0A5FA03681BB90CF0A1FAC0F84A
:1092400000B005F8018F02A80334FFF735FBA742F1
:10925000CBD1012009B0BDE8F08F0020FAE700BFB4
:109260005E97010038B500F10803044603600D461F
:1092700049B108460DF053F92A1820462946FFF750
:1092800073FF204638BD4FF0FF32F6E730B58FB0A0
:109290000C4602A82249FFF7E5FF03224FF4E13113
:1092A0002048FFF7AFFE204908A8FFF7DBFF1F4B60
:1092B000009302AA1E4B1B4808A9FFF735FE05467E
:1092C00008A8FFF7F9FACDB102980CF050FA01287E
:1092D0001AD1184908A8FFF7C5FF174B009302AA37
:1092E000134B104808A9FFF71FFE054608A8FFF713
:1092F000E3FA1DB102992046FFF758FF02A8FFF7D5
:10930000DBFA20460FB030BD02980CF030FA02288C
:10931000F4D10A4908A8FFF7A5FF094BDEE700BF13
:1093200099890100CC0D0020EE970100F99701000A
:109330008FA90100A4970100AD970100BA97010021
:10934000C697010010B503228CB04FF4E1311148EB
:10935000FFF758FE10496846FFF784FF0F4906A83B
:10936000FFF780FF0E4B0B486A4606A9FFF7DCFDAE
:10937000044606A8FFF7A0FA34B1012009F014F959
:1093800000980CF0F4F9C4B26846FFF795FA20464D
:109390000CB010BDCC0D0020998901005698010039
:1093A00062980100F0B591B004460E4604A8284921
:1093B000284D1746FFF756FF03224FF4E1312648A8
:1093C000FFF720FE25490AA8FFF74CFF0123019370
:1093D000234B00930AA9234B1F4804AAFFF7A4FDBF
:1093E0000AA8FFF769FA20490AA8F7B9FFF73AFF78
:1093F000CDE900561D4B184804AA0AA9FFF794FDB1
:1094000005460AA8FFF758FADDB109F011F905463B
:1094100009F00EF92368401B984212D22046FFF74C
:1094200091FF0328F4D104460CE0FFF71BFFCDE9C0
:10943000016700950E4B084804AA0AA9FFF774FDBE
:10944000DEE7042404A8FFF737FA204611B0F0BD88
:10945000998901003F980100CC0D0020EE97010092
:109460002798010020980100349801008E97010090
:109470004C98010010B58CB00E496846FFF7F2FE1B
:109480000D4906A8FFF7EEFE0C4B0D486A4606A9EB
:10949000FFF74AFD044606A8FFF70EFA1CB1009834
:1094A0000CF065F904466846FFF706FA20460CB052
:1094B00010BD00BF99890100D6970100E097010017
:1094C000CC0D002070B503228EB005464FF4E1317B
:1094D0002848FFF797FD0024274902A8FFF7C2FE9E
:1094E0002346224621460094284607F05DFE234984
:1094F00008A8FFF7B7FE224B009302AA214B1D4894
:1095000008A9FFF711FD064608A8FFF7D5F9D6B15F
:1095100002980CF02CF901281BD11B4908A8FFF771
:10952000A1FE1A4B00930194194B124802AA08A9F4
:10953000FFF7FAFC044608A8FFF7BEF91CB1029930
:10954000284607F053FF02A8FFF7B6F928460EB0E9
:1095500070BD02980CF00BF90228F4D10D4908A84F
:10956000FFF780FE0C4B034802AA08A9FFF7DCFCBA
:10957000E0E700BFCC0D002099890100EE970100C3
:10958000F99701008FA90100DD980100E59801001D
:1095900020980100C4980100CF98010010B5104C2C
:1095A00010498CB06846FFF75DFE032220464FF459
:1095B000E131FFF727FD0C4906A8FFF753FE0B4BDF
:1095C0006A4606A92046FFF7AFFC044606A8FFF747
:1095D00073F96846FFF770F920460CB010BD00BF64
:1095E000CC0D00209989010064970100719701005A
:1095F0000148FFF785BD00BF640E002010B5054C83
:1096000004F50070FFF758F904F5F470FFF754F90A
:1096100010BD00BF640E00200020704700690130BB
:1096200018BF0120704708B503685B6B984780F04E
:109630000100C0B208BD13B502AB026803F8011DFA
:10964000546819460122A04702B010BD07B503684F
:1096500001225B6A0DF10701984701280CBF9DF8B4
:1096600007004FF0FF3003B05DF804FB00690B69A1
:10967000C31A58425841704770470020704740F263
:109680000C41C0680BF08AB910B5102104460BF0EC
:1096900085F9204610BD08B5FFF7F6FF08BD7FB578
:1096A00003680446164601A81D6A07F0DFFD32462E
:1096B00001992046A847044601A807F0B9FF2046B3
:1096C00004B070BD036810B504469B689847A36852
:1096D000013BA3602BB923682046DB68BDE810403E
:1096E000184710BD00F1080370B5044603600E462C
:1096F000B1B108460CF013FF0F28054604D901301C
:109700000BF022F9A5602060012D20680BD196F99D
:10971000003003702368656000225A55204670BDF2
:1097200004480BF03DF9002DF4D02A4631460CF0E8
:10973000E6F8EFE734970100036813B962B6BFF3A8
:109740006F8F704713B5EFF31083009301230193DC
:1097500072B6019B5A1E019233B104686846FFF746
:10976000EBFF204602B010BD6846FFF7E5FFF8E7C3
:1097700013B50446EFF3108300930123019372B6EF
:10978000019B5A1E0192684633B1FFF7D5FF601C5A
:10979000C0F3090002B010BDFFF7CEFFFAE7FFFFEC
:1097A0000023C0E905334FF47A72C0E90132C36186
:1097B0000B6903618B698361CB69044A02601BB149
:1097C0005A6801325A60C361704700BF889A01002D
:1097D00010B50446006828B14368013B43600BB9EB
:1097E000FFF770FF204610BD10B5044B044640F84B
:1097F0001C3BFFF7EDFF204610BD00BF889A01001B
:1098000030B50369002B8FB0044607DB0368DB6AC1
:10981000984718B9236820469B6A98472369013303
:1098200021D1124902A8FFF75DFF03224FF4E13175
:109830000F48FFF7E7FB0F4908A8FFF753FF0E4B50
:10984000009302AA0D4B0A4808A9FFF76DFB0546D5
:1098500008A8FFF731F81DB102980BF088FF2061CE
:1098600002A8FFF729F80FB030BD00BF99890100A9
:10987000CC0D0020619A01006F9A01008FA90100B0
:1098800070B5044692B00D461646FFF7B9FF23693E
:10989000002B25DB1E4906A8FFF724FF03224FF407
:1098A000E1311C48FFF7AEFB6369DBB11A490CA834
:1098B000FFF718FF63690295CDE9036323690193FC
:1098C000164B009306AA164B12480CA9FFF72CFB67
:1098D00004460CA8FEF7F0FF06A8A4B9FEF7ECFFBB
:1098E000002013E00F490CA8FFF7FCFECDE902565B
:1098F000236901930C4B009306AA0C4B05480CA955
:10990000FFF712FBE4E7FEF7D7FF012012B070BDAE
:1099100099890100CC0D0020A0990100C099010097
:10992000B0990100D2990100F3990100E699010074
:1099300070B50369002B90B005460E4614462ADB2D
:10994000164904A8FFF7CEFE03224FF4E131144874
:10995000FFF758FB13490AA8FFF7C4FE02942B69CE
:109960000193114B009304AA104B0D480AA9FEF76E
:109970006DFF0AA8FEF7A0FF224631460848FFF710
:1099800083FA054604A825B1FEF796FF204610B0DD
:1099900070BDFEF791FF0024F8E700BF9989010030
:1099A000CC0D00207A99010091990100879901005E
:1099B00030B50369002B8FB0054635DB84695CB197
:1099C00004F58160FFF7BEFE002808DDA86900F5F8
:1099D0008160FFF7B7FE044620460FB030BD154941
:1099E00002A8FFF77FFE03224FF4E1311248FFF790
:1099F00009FB124908A8FFF775FE2B690193104B6C
:109A0000009302AA0F4B0C4808A9FFF78DFA0446F1
:109A100008A8FEF751FF4CB102980BF0A8FE041EF7
:109A200004DA02A8FEF748FF0024D5E702A8FEF7F3
:109A300043FFD1E799890100CC0D0020219A010054
:109A40002D9A0100209801002DE9F04F0369002BA9
:109A500093B00746C0F287808369002B00F08380B3
:109A6000424906A8FFF73EFEBA69EFF310830C9354
:109A700001230D9372B60D9B591E0D911BB1D2F8A7
:109A80000854C5F580653A4E0CA8FFF755FE002432
:109A9000032230464FF4E131FFF7B4FA013D86F876
:109AA0008C4034490CA8FFF71DFE02953B690193D9
:109AB000314B00933046314B06AA0CA9FFF734FA1C
:109AC00006460CA8FEF7F8FE002E41D0079B002B9F
:109AD00047D04FF00109CA46AC4239D2079B9C429D
