:10400000007F002041FE0000E9FC00003DFE0000B2
:104010003DFE00003DFE00003DFE00003DFE0000B4
:104020000000000000000000000000003DFE000055
:104030003DFE0000000000003DFE00003DFE0000CF
:104040000000000000000000000000000000000070
:104050000000000000000000000000000000000060
:104060000000000000000000000000000000000050
:104070000000000000000000000000000000000040
:104080000000000000000000000000000000000030
:104090000000000000000000000000000000000020
:1040A0000000000000000000000000000000000010
:1040B0000000000000000000000000000000000000
:1040C00010B5054C237833B9044B13B10448AFF352
:1040D00000800123237010BD58070020000000005D
:1040E00008BE010008B5034B1BB103490348AFF3F9
:1040F000008008BD000000005C07002008BE010031
:104100000846114613F08CB8084612F0C1BA0846AA
:1041100012F0B6BA4FF6FF7399421FBF0368CA097F
:1041200003EBC20301F07F011ABF586800EBC10026
:104130000020704770B5044616460D46084609B182
:1041400013F078F9C4E900502672204670BD2DE9BD
:10415000F84F05680446A16831B10B68A3602B686D
:1041600028465B689847F6E7266804F10C0B0D4675
:104170008946228EE76AABB29A420FD907EBC30891
:104180009A46D8F8041019B1336830465B689847EE
:1041900047F83A900135C8F80490EAE700232386EF
:1041A000BB454FF6FF73A38604D0336839465B687E
:1041B000304698472046BDE8F88F38B5C588044694
:1041C00001F12C002946FFF7A5FFA580206008B16A
:1041D000C388E38038BD38B5436A034400251D71A8
:1041E0000446011D00680EF03BFA00B16562606A8A
:1041F00038BD38B5436A01331F2B04460D4606D837
:10420000636A5A1C62621C440120257138BDFFF7A5
:10421000E2FF0028F4D00020F8E72DE9F047037909
:10422000DA0705460C4611D50168A36800226BB178
:10423000994233D18B882068013B9BB28B802BB98C
:104240000B684AB3136003685B6898472B79DB06F9
:1042500008D52E8804F12C003146FFF75BFFA38EB2
:104260000380A6862B7913F0600F1CD02E884FF6A2
:10427000FF7A04F12C09564513D031464846FFF722
:1042800049FF21460746B0F80680FFF7C6FFA38E18
:104290003B80A6864646EEE7A360D4E71A461B6835
:1042A000C5E72E806E8000232B71BDE8F087C0E942
:1042B0000012082282600122027370478B8C30B595
:1042C000013B0D6A9AB205EBC204616849B163888B
:1042D00035F832509D4204D95D1C11EBC301658055
:1042E00005D1002303604FF6FF73838030BD01606A
:1042F00003EBC213F9E72DE9F74F8D8E4FF6FF73ED
:104300009D4206460C460ED0294604F12C00FFF7CC
:1043100001FF0388A386002303714FF6FF73C38058
:104320003060B58061E00B8E0F6801F10C0843B17D
:1043300068464146FFF7C2FF009810B1BDF804502F
:10434000E9E7228E638E934218D1B3F5007F45D002
:104350005B009DB2E36A396898454FEAC50235D1E2
:104360000B683846114698478146002836D02022EF
:10437000414612F00CFAC4F82C906586B4F83090DF
:10438000D4F82CB009F101039BB2B3F5007F23866A
:104390003B680CBF7F258025E9001B68384698479D
:1043A0000BEBC90A002808BF00250023CAF8040047
:1043B00041462BF839506846AAF80230FFF77EFFD5
:1043C0000098BDF804500028A5D107E0D1F8089066
:1043D00038461946C84781460028CCD101232371AD
:1043E000002333604FF6FF73B380304603B0BDE85F
:1043F000F08F07B50368082203EBC101684612F08D
:10440000C6F99DED000B03B05DF804FB2DE9FF41FB
:10441000064604A800E90E00019DDDF82880002D65
:1044200067D09DF80C7037B104233371356038467E
:1044300004B0BDE8F081029C032C1BD82A463B4601
:10444000E0B2511BC9B2884206D912F9011B0029FA
:1044500008BF43F00103F4E763B902223271DAB214
:10446000904203D9EA56F2540133F8E7002333555A
:104470000127DCE7D8F80800B0B1C3889C420AD114
:1044800000239C4209D0C218E95692F908209142B3
:1044900001D10133F5E70068EEE7838801338380BB
:1044A000052333713060E3E7B4F5803F14D209216E
:1044B000611811D2D8F8000003681B68984758B1FA
:1044C00001238380C48000F1080200239C4207D0AE
:1044D000E956D1540133F9E7012388F80430A6E7FF
:1044E000044400232372D8F808300360C8F8080099
:1044F000D6E72F469BE7F8B5054616460C468F18BB
:10450000BC4205D014F8011B2846FFF772FEF7E7FE
:10451000AB6A3344AB62F8BD38B5054608460C4675
:1045200012F088FF214602462846FFF7E4FF38BD17
:104530002DE9F04186B00DF11604054616461F46DA
:10454000A046304639460A22002311F067FE303279
:1045500004F8012D0023304639460A2211F05EFE90
:1045600006460F4656EA0703EBD1A8EB04022146A4
:104570002846FFF7C0FF06B0BDE8F0812DE9F04FF7
:1045800091B003AC84E80E00074694E807000AAD3A
:104590001A9E85E80B00804620BB0D904FF6FF73F6
:1045A000ADF8383010AD55F80C3D43B131462846D2
:1045B000FFF703FEDDF83480B8F1000F0ED194E868
:1045C000070085E80700314606A8FFF794FEDDF8EE
:1045D0001890B9F1000F50D14FF00008404611B0CB
:1045E000BDE8F08F3D88DDF82CA0294606F12C00AF
:1045F000FFF790FDADF82450089010B3C388ADF8D4
:1046000026300125AB464FF00009089999B35DB3F8
:104610000B79042B18D0052B19D0022B1FD10022A7
:104620000DA8FFF787FD0E9A52451DD10D99002365
:104630009A4247D018F903C0C856844514D10133B3
:10464000F6E74FF6FF73DAE701220968E8E70B683F
:10465000DA888DF83C900833CDE90D32E3E7CDE9F7
:104660000D998DF83CB0DEE7314608A885F00105CC
:10467000FFF7A3FDC9E70D9190E7314608A8FFF7C2
:104680003AFEDDF82080B8F1000FA5D0009695E83D
:104690000E004846FFF7BAFE00289DD0BDF8244022
:1046A000A9F806407988BDF81C504FF6FF7399426F
:1046B00006D006F12C00FFF72DFDC5807C808DE72C
:1046C0003D80FBE708AA92E803000DAB83E80300F6
:1046D00068E770B5036813F1380686B002D1002090
:1046E00006B070BD021D07CA03AC84E8070002468D
:1046F0000028F4D093F83C1071B9202183F83C10C5
:104700004FF6FF71198759870392009394E80E00C2
:104710003046FFF733FFE3E72029F5D0DFE770B538
:104720000E4686B00446FFF7D4FFB36832682568AA
:10473000CDE9032300238DF81430064648B12946FD
:10474000FFF76BFD009506AB13E90E003046FFF74F
:104750005DFE206810B1007980F0010006B070BDE8
:1047600038B504460D46FFF7B4FF2168044628B16A
:10477000FFF753FD0C2323712560012038BD10B5D0
:104780002DED028B0446B0EE408AFFF7A2FF2168B0
:10479000044630B1FFF741FD0E23237184ED008AFA
:1047A0000120BDEC028B10BDF0B587B00F46054669
:1047B000FFF78FFF044638462E6812F03BFE0023B9
:1047C000CDE903708DF8143054B131462046FFF71F
:1047D00024FD009606AB13E90E002046FFF716FEF7
:1047E000286810B1007980F0010007B0F0BD10B565
:1047F0000446FFF7FEFCA36A1844A06210BDFFFF49
:104800002DE9F0410D46222116460446FFF7EFFF41
:10481000DFF850802E44B54215D015F9011B104B1E
:1048200013F9027CAFB1023313F9032C8A42F7D19A
:104830005C212046FFF7DBFFF9B20DE04146204640
:10484000FFF76AFEE7E722212046FFF7D0FFBDE829
:10485000F0810029F2D0C9B22046FFF7C8FFDAE79D
:10486000259701003297010070B5002A1D4675F1A9
:1048700000030646144605DA2D21FFF7B8FF64420F
:1048800065EB450522462B463046FFF751FE70BDCD
:104890002DE9F04F5BEC10AB8BB007460D4610EEE8
:1048A000102A5B4610EE100A594611F087FB30B90A
:1048B000AF493846FFF730FE0BB0BDE8F08F00225D
:1048C00000235046594611F079FB68B952465B46C1
:1048D0005046594610F054FF02460B465046594682
:1048E00011F06CFB0028E3D100220023504659460A
:1048F00011F06EFB30B12D213846FFF778FF0BF138
:1049000000439B46012301932C460A2324B1019ABC
:104910005A43013C0192F9E791A3D3E900235046A1
:10492000594611F069FB00286AD0DFF850924FF029
:1049300008084FF48076414604A8CDF81090FFF7A0
:1049400058FD52465B4651EC100B11F04BFB78B111
:10495000884B0493414604A8FFF74BFD5046594647
:1049600053EC102B11F0C2F8344482468B4624B22B
:1049700018F1FF384FEA6606DDD2CDF80C80002230
:1049800000235046594611F041FB00283DD076A344
:10499000D3E900235046594611F024FBA8B3002365
:1049A0000293DDE90223A3EB020919F0800F2CD159
:1049B0000DF128086F4B48F8183D49464046FFF76F
:1049C00018FD00226C4B51EC100B11F08FF8524681
:1049D0005B4611F01BFB78B1684B04934946404697
:1049E000FFF707FD5046594653EC102B11F07EF8A7
:1049F000A41B82468B4624B2029B76100133CFE77C
:104A000008234FF480760393B9E75046594611F0D6
:104A100045FB0A2206460346092B08D9B3FBF2F3ED
:104A2000013D0199B1FBF2F16DB20191F4E730461D
:104A300010F0E2FF02460B465046594610F09EFE2B
:104A400080460198894610F0D7FF02460B46404643
:104A5000494611F04BF88046894611F01FFB82460B
:104A600010F0CAFF02460B464046494610F086FE4B
:104A70000B46024610F084FE11F010FB019B0AEB7E
:104A80000008434508D8013694B1092E10D90134E5
:104A900024B24FF0000801260A22B8FBF2F302FB11
:104AA000138141B9002D06DD013D98466DB2F4E752
:104AB0004FF00008F0E70DF126010A22B6FBF2F3F1
:104AC00002FB1366303601F8016D1E46002BF5D14E
:104AD0000DF12606721A3846FFF70DFDEDB108AA52
:104AE0002B4611464FF00A0C013B5BB2581C09D013
:104AF000B8FBFCF00CFB108808F1300802F8018DBF
:104B00008046F1E7EDB2EB434D1B2E2205F8012C58
:104B100019445A423846FFF7EEFC002C3FF4CCAE65
:104B200065213846FFF763FE002CA5B205DA2D217A
:104B30003846FFF75CFE6D42ADB231460A22B5FB46
:104B4000F2F302FB1355303501F8015D9DB2002DE3
:104B5000F5D1721A3846FFF7CEFCADE6AFF3008010
:104B600000000000D0126341F168E388B5F8E43E2C
:104B70001A970100D095010000002440189601000A
:104B80002DE9FF41057906460C46018815F0100015
:104B900003D002F12C00FFF7BDFA0C2D00F0998034
:104BA00016D8042D00F0878006D8022D78D0032D6A
:104BB00000F08880504998E0062D00F093807DD366
:104BC0000A2DF7D1326800232046FFF7B1FC1DE023
:104BD0001C2D00F0848006D80E2D0ED01A2DE9D1A0
:104BE000D0E90023F0E7202D35D0402D12D01E2D26
:104BF000E0D1092190ED000B05E0306810F01EFFB8
:104C000041EC100B06212046FFF742FEA06A04B0DB
:104C1000BDE8F0815B212046FFF7E9FD35884FF6BE
:104C2000FF76B54212D0E76A294607F12C00FFF75C
:104C300071FA05463A462146FFF7A2FFED88B542D4
:104C4000EFD02C212046FFF7D2FDEAE75D21204678
:104C5000FFF7CDFDDAE77B212046FFF7C8FD4FF6D1
:104C6000FF7735880126BD4218D0D4F82C8029461C
:104C700008F12C00FFF74EFA054642462146FFF7A1
:104C80007FFFED88BD4206D0002E0CBF2C213A21BB
:104C90002046FFF7ACFD86F00106E4E77D21D6E76C
:104CA0000022314601A8FFF745FADDE9011220464E
:104CB000FFF7A6FDAAE701223168F3E73168CA8849
:104CC0000831F4E731682046CA880831FFF713FC41
:104CD0009CE73268D3172046FFF7C6FD96E7D0E978
:104CE0000023F8E7337823B104492046FFF714FC8A
:104CF0008CE70349F9E700BF1A97010039970100D3
:104D00003E9701002DE9F043B7B06B46002783E8DA
:104D1000030002AD3946104602920B970DF045FC98
:104D20000FCD0CAC0FC40FCD0FC495E8030084E881
:104D300003000CAE0FCE16ADDDE900890FC50FCE16
:104D40000FC594E8030085E8030016AE0FCE20AC33
:104D50000FC40FCE0FC495E8030020AE84E8030013
:104D60000FCE2AAD0FC50FCE0FC594E8030085E81E
:104D7000030020A83497FFF72EFA16A8CDF8D49098
:104D8000FFF729FAB8F1000F12D04A462AA9404687
:104D9000FFF7F6FE04462AA8FFF71DFA0CA8FFF756
:104DA0001AFA02A8FFF717FA204637B0BDE8F083D9
:104DB00002492AA8FFF7B0FB349CECE71A970100E0
:104DC0002DE9F0412DED048B9CB00CAC68492046D8
:104DD0000DF041FB21460022664803F009FD204604
:104DE0000DF0EEFA644B0FAAD3E9038793ED009A16
:104DF000D3ED018A93ED028A5E6917925F4B0C93A3
:104E00004FF480220023189205A84FF6FF728DF808
:104E100034300E938DF86C30ADF86420ADF86E2010
:104E200003F08CFC564A214608A8FFF740FA05A972
:104E300008A8FFF774FC05A80DF0C2FA514B0993BE
:104E400001250B23B0EE490A08A80A938DF82C50CF
:104E50000894FFF794FC4C4A214608A8FFF727FA6C
:104E6000B0EE680A08A8FFF78AFC484B0993B0EE39
:104E7000480A0E2308A80A938DF82C500894FFF7CF
:104E80007EFC434B09934146112308A80A938DF8F1
:104E90002C500894FFF764FC3E4B099339461423C9
:104EA00008A80A938DF82C500894FFF759FC3A4B48
:104EB000099308A809238DF82C5008940A93FFF74A
:104EC00008FC0899054620B1FFF7A7F90A232B71C2
:104ED0002E60324902A80DF0BEFA1AABCDE90034BB
:104EE0006B4693E8030002AAFFF70CFF2C4908A8C1
:104EF0000DF0B1FA02A908A80DF0C2FB002201468C
:104F00001C4803F075FC08A80DF05AFA02A905A880
:104F10000DF03BFB234908A80DF09DFA08AA05A94E
:104F2000214801F08BFF054608A80DF049FA05A8B5
:104F30000DF046FAB5B11D4908A80DF08CFA002213
:104F400008A90C4803F054FC08A80DF039FA02A88F
:104F50000DF036FA2046FFF7FAF81CB0BDEC048BD2
:104F6000BDE8F081124908A80DF075FA0322E7E7C1
:104F700060960100FC07002078070020B80300209D
:104F80006D96010076960100829601008B960100D5
:104F90009A960100AC960100C1960100319701007C
:104FA000CB960100D996010000080020EF96010081
:104FB000069701002DE9F0412DED048B674886B07E
:104FC00000F01AFE0EF00EFA0446654804F0D8FA16
:104FD000032811D0634800F041FB634903A80DF09A
:104FE0003AFA022203A9614803F002FC03A80DF07B
:104FF000E7F95A4800F002FE5D4E356842F20F7341
:10500000621B9A4226D842F2107215442D1BB5FB42
:10501000F2F302FB1353632B1CD8564903A80DF07F
:105020001AFA0A224FF47A716846B5FBF1F10DF0D5
:1050300078FA694603A80DF023FB4F490DF02CFBCD
:1050400001464A4803F09CFB68460DF0B9F903A8F5
:105050000DF0B6F9336842F20F72E31A93424FD95A
:105060004649346003A80DF0F6F9002203A93F4831
:1050700003F0BEFB03A80DF0A3F9414803F0E4F8E8
:105080003F48F0EE408A03F0E3F83E48B0EE408A35
:1050900003F0E6F83B48B0EE409A03F023F90146EE
:1050A0000746384803F03AF9F4EE688AF1EE10FA50
:1050B00080463BD6B4EE488AF1EE10FA36D6324E30
:1050C000356803F081FC314B182202FB0533C3ED38
:1050D000008A83ED018A83ED029AC3E9037858615F
:1050E00033680133002B336003DDFFF769FE0023D3
:1050F0003360244803F019F960B31A4800F0B6FA97
:10510000234A136842F20F71E31A8B4203D91D48F8
:10511000146003F013F91F4A1F491368E31A8B4206
:1051200013D90E48146002F0B7FC0EE01B4903A827
:105130000DF091F9032203A90C4803F059FB03A8D1
:105140000DF03EF9074800F089FA06B0BDEC048B7B
:10515000BDE8F081034800F079FAD1E700080020AB
:105160006C0F00209807002044970100FC070020E6
:1051700044080020679701009CB801007D9701005A
:105180004C080020740700209007002078070020BA
:1051900040080020480800207FEE36009497010068
:1051A0002DE9F041624D634E634F9CB00CAC284634
:1051B0004FF4165103F0DEFB604920460DF04BF929
:1051C00000222146284603F013FB20460DF0F8F894
:1051D0005B4920460DF03FF908A803F0AFFA08A993
:1051E00020460DF04DFA00220146284603F000FB50
:1051F00008A80DF0E5F820460DF0E2F8304600F082
:105200003DFA304600F032FA4E4920460DF023F9BF
:1052100000222146284603F0EBFA20460DF0D0F894
:10522000494802F087FF494920460DF014F921460C
:105230000022284603F0DCFA20460DF0C1F844486D
:1052400003F000F9384600F0BFFD424B0C930FAB62
:1052500017934FF480230026189305A84FF6FF7389
:10526000ADF86430ADF86E308DF834600E968DF880
:105270006C6003F063FA384A214608A8FFF717F874
:1052800005A908A8FFF74BFA05A80DF099F8334BCC
:1052900009934FF00108092331490A9308A808949B
:1052A0008DF82C80FFF780FA2E4B09932E49089435
:1052B0000F2308A80A938DF82C80FFF775FA2B4965
:1052C00002A80DF0C8F81AABCDE900346B4693E89C
:1052D000030002AAFFF716FD02A905A80DF055F973
:1052E000234908A80DF0B7F808AA05A9384601F027
:1052F000A5FD08A80DF064F805A80DF061F8384682
:1053000002F0CAFB1B4908A80DF0A5F8324608A90F
:10531000284603F06DFA08A80DF052F802A80DF027
:105320004FF82046FEF713FF1CB0BDE8F08100BF28
:10533000FC0700209807002000080020AA97010021
:10534000C8970100E99701004C080020FE97010072
:1053500074070020B80300206D9601001E9801001C
:10536000289801003C9801004C98010031970100F9
:10537000539801006898010070B50F4C0F4D104E06
:10538000204603F0FBF9284602F012FE304600F0FA
:105390004DF933462A4621460A4800F019FC2146B9
:1053A000094802F0BBFE2146084802F054FF0848B5
:1053B000BDE8704003F084B8FC0700203C080020E2
:1053C00098070020000800204C08002074070020E7
:1053D0009407002010B5074C04F130000CF0F0FFEA
:1053E00004F10C0004F01EFB0348BDE810400BF074
:1053F000D9B800BF00080020BC07002043084000C7
:1054000003F0553300F0AA3018438308800000F001
:10541000CC3003F03333034318091B0103F0F0339E
:1054200000F00F30184300BA7047FFFF30B585B069
:10543000044600210DF10F000AF038FF431C21D073
:1054400004F12405104BDFED110A9FED110A9DF8C0
:105450000F20019400930021C3B228460AF0CCFF2C
:1054600000220C21044628460BF0B8F804402846D8
:105470000BF01EF8E4B2044028460BF040F8204040
:1054800005B030BD0020FBE7F554000000004842A5
:1054900000401C4630B5016802690D0185B0044624
:1054A0005059FFF7ABFF2A4401905068FFF7A6FF61
:1054B00002909068FFF7A2FF0390D3686269A3612E
:1054C0000131B1FBF2F302FB1311216049B994F8E9
:1054D000203003B9A361236E03B19847012384F8F8
:1054E0005C300C2201A9024811F051F905B030BD21
:1054F000680800202C49F8B50D680A682B4C0B6829
:10550000D210A25C5C4204F0070403F0070358BF0A
:105510006342274C42FA03F3226822F4384222F015
:1055200018022260226C22F4415222F03002DB0782
:10553000226404F140041CD51E4B1F4F13F81520A4
:1055400003EB45031C325B7837F832201C3316120C
:10555000360156FA82F237F8333004F5F86405263E
:1055600044F822601A12120152FA83F3042244F81A
:1055700023200B686024013393FBF4F204FB123305
:105580000B6080B1046874B1A36963B10DF02AFFA8
:10559000E369C01AA369984205D92046FFF77AFF4C
:1055A0000DF020FFE061F8BD6408002068080020CD
:1055B00000000440C899010074AF010030B585B007
:1055C0000B6800934B6801938B68029300250123BD
:1055D0000560C0F810D0436104460395FFF75AFFF9
:1055E000A56105B030BDF8B50F46011D0E463D461C
:1055F0000024EB1BDBB29A420AD915F801CB013328
:105600004CEA0404DB0604BF346004366400F0E7AF
:10561000FFF7D4FFF8BD1FB5002301A9CDE9013381
:105620000393FFF7CBFF05B05DF804FB38B5002509
:1056300004460560C0E9065580F8205024300AF081
:1056400073FD84F85C50204638BDFFFF08B5024961
:10565000FFF7B4FF08BD00BFB899010008B50249C3
:10566000FFF7ACFF08BD00BF9899010008B50249DB
:10567000FFF7A4FF08BD00BFA899010010B50446BC
:10568000FFF7D4FE2046BDE81040FFF7EFBF38B566
:10569000054603242846FFF7E9FF4FF4FA700DF0A2
:1056A0005DFE2846FFF7B7FF4FF4FA700DF056FE87
:1056B000013CEFD138BDFFFF30B56025B1B00446E5
:1056C0002A463049684611F062F82A466946204663
:1056D000FFF789FF4FF47A700DF040FE2A46002153
:1056E0000DEB050011F077F801232A460DEB0501BB
:1056F00020468DF86E308DF875308DF87A308DF843
:1057000081308DF886308DF88D308DF892308DF89F
:1057100099308DF89E308DF8A5308DF8AB308DF82E
:10572000AC308DF8AD308DF8AE308DF8AF308DF8EF
:10573000B030FFF758FF4FF448700DF00FFE2A46C7
:1057400069462046FFF74FFF4FF42F700DF006FE1D
:105750002046FFF77BFF4FF42F700DF0FFFD2A4628
:1057600069462046FFF73FFF4FF42F700DF0F6FD1E
:105770002046FFF76BFF4FF42F700DF0EFFD31B0B7
:1057800030BD00BF779801002DE9F0410C1EB2B08A
:10579000054641DB632C40DD03260DF1C8080124DA
:1057A0001AAB1F4600229C5401320C2AFBD10C3349
:1057B0009845F7D1602239462846FFF714FFC820E4
:1057C0000DF0CCFD2846FFF741FF4FF4FA700DF0C5
:1057D000C5FD013EE4D160223146384610F0FBFFA2
:1057E0002846602239468DF87D408DF888408DF836
:1057F00093408DF89A408DF89E408DF8A7408DF823
:10580000A9408DF8B440FFF7EEFE4FF4FA600DF0BA
:10581000A5FD32B0BDE8F08100246022504902A805
:1058200010F0B5FF0A230093002319466422204696
:105830000CF0A4FA012608AB14A90122824202DC72
:105840009E540132FAE70C338B42F6D1602202A952
:105850002846FFF7C8FE0DF0C5FD424B1A6841F21D
:105860008831821A8A420AD8192194FBF1F201FB8D
:105870001242002ACDD13C4A1268A242C9D0186017
:10588000394B192C1C6036D1602200211AA810F067
:10589000A2FF012340F20112ADF876208DF8783096
:1058A000ADF87A20ADF87C208DF881308DF8893004
:1058B0008DF895308DF89C308DF8A0308DF8A7309C
:1058C0008DF8AB30ADF8B220ADF8B4208DF8B7301C
:1058D0008DF8B8308DF8B93060221AA92846FFF744
:1058E00082FE40F2DC500DF039FD602202A928460C
:1058F000FFF779FE8DE7322C05D160221B491AA8EB
:1059000010F045FFE8E74B2CEBD1602200211AA8EC
:1059100010F061FF012340F201128DF875308DF80F
:1059200076308DF877308DF87830ADF87A208DF8B4
:105930007C308DF884308DF889308DF890308DF87A
:1059400095308DF89B308DF8A0308DF8A6308DF80D
:10595000AB308DF8B130ADF8B6208DF8B830BBE77C
:10596000D798010074080020BC030020379901007B
:1059700070B5E0B0054660220021684610F02BFFAC
:10598000602201244FF0013600210DEB02008DF85A
:1059900027408DF82C408DF833408DF8384007961D
:1059A000109610F018FF6022002130A88DF8714089
:1059B0008DF872408DF87C408DF87F408DF88740DF
:1059C0008DF88C408DF893408DF898408DF8A0406C
:1059D0008DF8A3408DF8AD408DF8AE4010F0FBFE81
:1059E0006022002148A88DF8DB408DF8E0408DF85A
:1059F000E7408DF8EC408DF8F3408DF8F8408DF8D5
:105A0000FF408DF804413496439610F0E4FE602286
:105A100048A928468DF82E418DF831418DF8344142
:105A20008DF837418DF83A418DF83D418DF8404170
:105A30008DF843418DF846418DF849418DF84C4130
:105A40008DF84F418DF852418DF855418DF85841F0
:105A50008DF85B418DF85E418DF861418DF86441B0
:105A60008DF86A418DF86D418DF870418DF8734164
:105A7000FFF7B9FD4FF448700DF070FC032460226D
:105A800069462846FFF7AFFD4FF496700DF066FCAF
:105A900060220DEB02012846FFF7A5FD4FF496703A
:105AA0000DF05CFC602230A92846FFF79CFD4FF406
:105AB00096700DF053FC013CE1D160B070BD4FF623
:105AC000FF7399421FBF0368CA0903EBC20301F0C9
:105AD0007F011ABF586800EBC1000020704710B565
:105AE0000446B4F5803F08460BD20921611808D25C
:105AF00003681B68984700B910BD0123C4808380E8
:105B0000FAE70020F8E70A680B4652680146184693
:105B1000104710B50A79042A044608D0052A09D08E
:105B2000022A0FD10022FEF705FB204610BD0122FC
:105B30000968F8E70B68DA880833C0E90032002307
:105B40002372F2E70023C0E900330123F8E7B2F53E
:105B5000803FF8B506460F461546046807D223680D
:105B600009329B682046984708B1C580F8BD236874
:105B700020465B6839469847012333710020F5E7DA
:105B800038B5002383604368044643B905681F2085
:105B90002968FFF7A4FF08B901232B71606038BDA5
:105BA00038B50D464168044649B18268CB889A42AF
:105BB00005D1520001320068FFF7C9FF60606368D9
:105BC00023B1A2681344511CA1601D7238BDFFFFB0
:105BD00010B50446C0E9001283600C3004F0A8FA46
:105BE000002384F82C30034904F130000CF033FC1E
:105BF000204610BD3197010002F0DCB92DE9F043D9
:105C000091B00568664904460AA80CF024FC654971
:105C100007A80CF020FC07A90AA80CF031FD00220F
:105C20000146284602F0E4FD07A80CF0C9FB0AA8CB
:105C30000CF0C6FBA068FFF719FD5B4803F0A0FC61
:105C4000032806D1584803F0C7FD4FF47A700DF0D1
:105C500085FB564A53495448534DDFF86481DFF8B9
:105C6000649103F0BDFC0DF0BDFB074607262846F6
:105C700003F086FC03281DD00DF0B4FB44F61F632F
:105C8000C01B984216D8414648460CF0CEFA4FF455
:105C90007A700DF063FB013EE9D1284603F09CFDCC
:105CA0004FF4FA700DF05AFB404A3E49284603F083
:105CB00097FCDBE70DF096FB3B4E054644F61F676D
:105CC00031460AA803F01CFD00210AA80CF063FA73
:105CD0000378002B46D0344803F052FC03284BD104
:105CE00031490AA803F00CFD00210AA80CF053FA70
:105CF0000378002B40D02E49256804A80CF0ABFB9C
:105D000029490AA803F0FCFC0AA901A80CF076F9BD
:105D100001A904A80CF0B4FC26490CF0BDFC064611
:105D2000214803F0C5FC0A22014607A80CF0E7FB56
:105D300007A930460CF0A4FC1F490CF0ADFC002272
:105D40000146284602F054FD07A80CF039FB01A8D3
:105D50000CF036FB04A80CF033FBA068FFF776FCD0
:105D600001201AE00DF03EFB401BB842B3D84FF4BF
:105D7000FA700DF0F3FAA3E7256810490AA80CF0B1
:105D80006AFB03220AA9284602F032FD0AA80CF099
:105D900017FBA068FFF762FC002011B0BDE8F0839C
:105DA000B89A0100CD9A01006C0F0020D19A010031
:105DB000F29A0100159B01001F9B0100DB9A010074
:105DC0009BA301003C1400207FB5FFF717FF684636
:105DD000054903F095FC054A0549684602F02CF98F
:105DE00007B05DF804FB00BF6C0F0020D19A0100E2
:105DF000CD9A01002DE9F047002504460E46A9463C
:105E0000A28C276AABB29A420FD907EBC3089A4615
:105E1000D8F8041019B1336830465B68984747F8E2
:105E20003A900135C8F80490EAE70023A384BC4205
:105E30004FF6FF73238507D0336839465B683046D9
:105E4000984704232462E384BDE8F08730B5022339
:105E500003710A7903461C1AE5B2AA4204D90D68F7
:105E60002C5703F8014BF6E70023835430BD2DE98E
:105E7000F3470E8D4FF6FF739E4205460C461746BC
:105E80000CD0314604F12000FFF719FE038823856A
:105E90002860AE80284602B0BDE8F0878B8C53B1F5
:105EA0006E463046FEF70AFA009B23B196E80300DF
:105EB00085E80300EEE7A28CE38C934217D1B3F59B
:105EC000007F3FD05B009EB2236A3968A3424FEA4D
:105ED000C6022FD10B68384611469847804688B3D2
:105EE0002022214610F053FCC4F82080E684B4F848
:105EF0002480D4F820A008F101039BB2B3F5007F01
:105F0000A3843B680CBF7F268026F1001B683846BF
:105F100098470AEBC809002808BF00260023C9F8E3
:105F2000040021462AF838602846A9F80230FEF716
:105F3000C5F9AFE7D1F8088038461946C047804612
:105F40000028D1D100232B604FF6FF73AB80A1E76F
:105F500037B50A6804460D4668460C31FFF787FFDF
:105F6000009B43B9012223604FF6FF732A71A3807F
:105F7000204603B030BDBDF804202360A280F7E7BF
:105F80002DE9F74F91F900302B2B044632D02D2B01
:105F900031D10131012591F90020A2F13003DBB2AA
:105FA000092B01D92E2A28D1DFF868B288460020B3
:105FB00000214FF0993A4FF00A0EC4461CF9013BFC
:105FC000A3F13002D2B2092A1DD88B4508BF824501
:105FD00020D30EFB01F3A0FB0E0119440023D2B223
:105FE000DF43D6438F4208BF864213D380185941FE
:105FF000E046E2E701310025CDE70023237020468B
:1060000003B0BDE8F08F2BB9E5B1B1F1004F08BF87
:1060100001280FD3764F00234FF0FF368F4208BF81
:10602000864203F1010910D200230A2210F0F6F88B
:106030004B46F3E702234042237061EB4101C4E980
:106040000201DCE703232370F9E7A3EB080707EB62
:106050000806434618F901CB32B2ACF13006F6B26D
:10606000092EF4D9BCF12E0F22D1C6460FF27819B1
:10607000D9E900894FF00A0A73460EF1010E93F830
:1060800000C0ACF1300C5FFA8CFCBCF1090F0FD8EA
:10609000894508BF8045EFD3A0FB0A6716EB0C00CB
:1060A0000AFB017702F1FF3647F1000132B2E3E764
:1060B00093F9006026F02006452E66D193F9016021
:1060C0002D2E25D19F1C4FF0010C00264FF00A0801
:1060D0003B4617F901EBAEF1300E5FFA8EF9B9F1DC
:1060E000090F26D808FB06E6B318B3F59A7FEFDD53
:1060F000BCF1000F13D0DFED3F7A9FED3F7A002D0A
:1061000018BFF0EE477A01232370C4ED027A76E7D8
:106110002B2E14BF5F1C9F1C4FF0000CD5E70022F4
:106120002DB1364B04212170C4E9022367E7344BBB
:10613000F8E7BCF1000F00D0764293F90030002B55
:106140007FF45BAF164406F126034C2B24D80029BC
:1061500008BFB0F5000F1FD207EE900A002EF8EE30
:10616000E77AD6BF27492849764200237EB1F20755
:1061700042BFDAB201EB820292ED007A4FEA660684
:1061800048BF67EE877A0133F0E70026D5E7002D98
:10619000B9D0F1EE677AB6E70FF072FC002ECABFF5
:1061A0001A4B1B4B019380468946DCBF0193764214
:1061B000002786B1F3070BD5F9B201A8FEF719F94C
:1061C0004046494653EC102B0FF090FC8046894620
:1061D00076100137EDE715B109F100439946042324
:1061E0002370C4E902890AE798999999999901005D
:1061F000FFFF0F0000000000000000800000F0FF23
:106200000000F07F889A0100A09A01001896010012
:10621000D09501009999991970B5006878B1C48832
:106220004B689C42F9D10D6800239C4207D9C218E3
:10623000EE5692F908209642EFD10133F5E770BD92
:106240002DE9FF4182684368032A04460D4603F1A5
:10625000080319D818460021D7B2C61AF6B2BE42B2
:1062600006D210F9016B002E08BF41F00101F4E7DE
:1062700051B98DF80C10284601A9CDE90132FFF77C
:10628000E5FD04B0BDE8F08100269E542768D4F8EF
:1062900008808DF80C6001A907F10800CDE90138EC
:1062A000FFF7BAFF68B9424661683846FFF74FFC0E
:1062B00023689A6802609860666005232B712860E5
:1062C000DFE7838801338380F7E72DE9F0418AB067
:1062D00001AC84E80E00109D0F4671B907914FF68E
:1062E000FF73ADF82030079820B107A82946FDF7C5
:1062F00064FF07980AB0BDE8F0810488DDF80880E3
:10630000214605F12C00FFF7DAFBADF818400590A7
:10631000C0B1C388ADF81A30012607AC0599D9B1D0
:106320009EB12046FFF7F5FB089A42450DD107992B
:1063300000239A4212D017F903C0C856844504D1ED
:106340000133F6E74FF6FF73E4E7294605A886F028
:106350000106FDF732FFE1E70791C0E705AB93E8DF
:10636000030084E80300BEE730B5054689B00C465B
:10637000084609B111F05EF8CDE9024000248DF81D
:10638000104002AA95F83C3007CA202B08BF05F13F
:10639000380405AB83E807004CB100950ECB2046CE
:1063A000FFF793FF003018BF012009B030BD204631
:1063B000F8E7FFFFFFFFFFFF30B585B001466846F5
:1063C000FFF7DEFD9DF80030013B032B48D8DFE8E6
:1063D00003F00218242FDDED027A9FED257AF4EE0A
:1063E000C77AF1EE10FA3BDB9FED227AF4EEC77A22
:1063F000F1EE10FA34D8FDEEE77A17EE900A05B008
:1064000030BDDDE9020110F1004241F10003012B32
:1064100008BF002A28BF0020F1E7DDE902010023C0
:106420008B426FF0004208BF824238BF0020E6E78F
:10643000DDE902450022104B204629460FF0DCFD25
:106440000028DCD008A3D3E90023204629460FF01A
:10645000C9FD0028D3D0204629460FF0F7FDCEE72E
:106460000020CCE7AFF300800000C0FFFFFFDF415A
:10647000000000CFFFFFFF4E0000E0C1FFFFFFFF65
:1064800038B5057904460B46018815F0100003D095
:1064900003F12C00FFF713FB023D1C2D65D8DFE84C
:1064A00005F02E6432340F6464641164156437643B
:1064B00064646464646464646464176422644C00A7
:1064C000207838BD206820EAE070FAE72068F8E715
:1064D000D0E9000100238B426FF0004208BF8242E6
:1064E00038BF0020EDE7D0E9000110F1004241F192
:1064F0000003012B08BF002A28BF0020E1E7204647
:10650000FFF75AFFDDE72068FAE720680830F7E771
:10651000D4ED007A9FED187AF4EEC77AF1EE10FA16
:1065200023DB9FED167AF4EEC77AF1EE10FA1CD851
:10653000FDEEE77A17EE900AC3E7D0E900450022A6
:106540000F4B204629460FF057FD0028B9D008A36D
:10655000D3E90023204629460FF044FD0028B0D09F
:10656000204629460FF072FDABE70020A9E700BFE7
:106570000000C0FFFFFFDF41000000CFFFFFFF4E24
:106580000000E0C1437E6BB9D0E9043293423DBFC5
:106590005A1C02611B784FF0FF3323EAE373037642
:1065A0000123437690F91800704738B5044600255A
:1065B0002046FFF7E7FF0A2806DC092808DA48B179
:1065C0000123237300200AE00D2801D02028F7D1F1
:1065D0006576EDE7237B002B14BF0220012038BD38
:1065E00070B505464C1E002614F9010F50B128461F
:1065F000FFF7C8FF28B194F90030834203D16E76CB
:10660000F2E7022070BD0320FCE72DE9F04387B0DC
:1066100006460D46FFF7B6FF002427462F28E3B2B3
:106620000BDD39280BDC0134402C24D0331977766C
:10663000D8773046FFF7A6FFF0E72B28F3D0A0F17C
:106640002D02D2B2012AEED920F0200252B2452A00
:10665000E9D03344002283F8202006F1200102A86B
:10666000FFF78EFC9DF80830013B032B62D8DFE872
:1066700003F03924043E3F23EBE7DDE90489B9F157
:10668000010F08BFB8F1000F07D20A232B71C5F81C
:106690000080002007B0BDE8F083F1696846FFF78D
:1066A00057FC009B0BB90420F4E71A222A71BDF8AD
:1066B00004202A80C3E90089EBE7DDE9048918F1A9
:1066C000004249F10003012B08BF002A01D20C232C
:1066D000DCE7F1696846FFF73BFC009B002BE2D04A
:1066E0001C22E3E70E232B71049B2B60D1E7DDE92D
:1066F0000489494640460FF0F1FC07460FF09EF929
:1067000002460B46404649460FF058FC18B10E238E
:106710002B712F60BDE7F1696846FFF719FC009BFC
:10672000002BC0D01E222A71BDF804202A80C3E9A4
:106730000089AEE70320ADE770B550F8046B07C8D9
:106740008CB003AB16F1380583E8070002D10020B6
:106750000CB070BD93E8070096F83C30202B06ACD7
:1067600009AB18BF002584E8070083E80700002D67
:10677000EDD000960ECB2846FFF7A7FDE8E770B5F1
:106780000646FFF7D9FF054688B10479018814F061
:10679000100003D030682C30FFF791F90C2C29D071
:1067A00006D8062C24D00A2C24D07CB3012070BD3E
:1067B0001A2C24D00BD80E2CF8D1D5ED007AF5EE9A
:1067C000407AF1EE10FA14BF01200020EFE71C2CF4
:1067D00015D01E2CEAD100220023D0E900014FF091
:1067E00001040FF0EBFB08B14FF00004E0B2DEE76C
:1067F0002878DCE72868003018BF0120D7E7D0E907
:106800000023134314BF01200020D0E72046CEE729
:10681000F8B506460F46FFF78FFF3368054668B1A7
:106820000479018814F0100003D003F12C00FFF765
:1068300046F90C2C1AD003D80A2C12D038681CE068
:106840001A2C1BD01C2CF9D1D0E9002312F10040E6
:1068500043F10001012908BF002834BF01230023B0
:1068600002E02B68DB43DB0F002BE7D03046FFF75D
:1068700063FF316808B1FFF703FEF8BDD0E90023DC
:10688000002199426FF0004008BF90422CBF0123C5
:106890000023E9E738B504460D46FFF773FEA8422A
:1068A0004FF0000004BF6076012038BD7F2837B567
:1068B0000C4605D841B22046FFF772F903B030BD4F
:1068C00000238DF8003000F03F03800982B263F0AE
:1068D0007F031F2A8DF80130C3B20DD863F03F0348
:1068E0008DF802300DF1030515F9011D0029E5D0E1
:1068F0002046FFF755F9F7E7C0F3891003F03F038F
:1069000063F07F030F288DF80230C3B205DC63F01B
:106910001F038DF8033001ADE6E703F03F0380115C
:1069200063F07F0360F00F008DF803308DF80400F2
:106930000DF10505D8E7FFFF2DE9F0478046FFF789
:1069400021FE0024384E88F8194007462546404667
:10695000FFF718FE8742014688F819505CD010B93D
:106960000220BDE8F0875C2852D14046FFF70AFEBE
:106970000028F5D075283CD188F819504FF004094B
:106980004FF0000A4046FFF7FDFD0028E8D0402800
:10699000CBBF20F020023038373AC3B2C8BFD3B2E1
:1069A0000F2B01D90320DCE709F1FF3943EA0A1371
:1069B00019F0FF091FFA83FA88F81950E2D10AF595
:1069C00020539BB2B3F5806F02D2CAF30904BEE72D
:1069D0000AF510539BB2B3F5806F3DBFCAF3090AA5
:1069E0004AEA842A0AF5803050464146FFF75EFFA6
:1069F000ADE700239A579919002AD3D0904203F1AA
:106A00000203F7D191F901100029CBD088F8195071
:106A10004046FFF7C5F89AE7D8F80430002B0CBFC2
:106A2000042000209DE700BF1F97010070B50E46AF
:106A300086B00446FDF74DFEB36832682568CDE99F
:106A4000032300238DF81430064648B12946FDF78C
:106A5000E4FB009506AB13E90E003046FDF7D6FCCB
:106A6000206810B1007980F0010006B070BDF0B56B
:106A700087B00F460546FDF72CFE044638462E68C3
:106A800010F0D8FC0023CDE903708DF8143054B118
:106A900031462046FDF7C1FB009606AB13E90E0018
:106AA0002046FDF7B3FC286810B1007980F00100A2
:106AB00007B0F0BD2F280EDD392803DD5E2803DD89
:106AC0007A2803DC01207047402804DD5A28CCBF17
:106AD0000020012070470020704770B50446FFF782
:106AE0004FF82046FFF74EFD27281ED022281CD045
:106AF0002046FFF747FD0546FFF7DCFF98B100266B
:106B0000294620466676FFF74BF82046FFF73AFD08
:106B10000546FFF7CFFF0028F2D16368002B0CBFBA
:106B20000420002000E0032070BD2046FFF704FF92
:106B3000FAE72DE9F04F5FFA83F98DB004460D4670
:106B4000B9F1000F00F0858000234376FFF72DFD9B
:106B5000B8B97D212046FFF79DFE88B90DF12408C4
:106B60002046FFF7BAFF60B92046FFF71EFD064634
:106B700038B93A212046FFF78DFE28B9032000E0FE
:106B800000200DB0BDE8F08FD4E9013213448DF838
:106B90002C601E72D4E901320833CDE90932E36971
:106BA000009398E80E002846FFF78FFB0746002861
:106BB0004BD1D4F81CB005A85946FDF79CFB059EA7
:106BC0000EB90420DDE7594607A8FDF794FB079F9F
:106BD000002FF6D0BDF820A0A6F806A06988BDF861
:106BE00018304FF6FF7291422DD00BF12C00039319
:106BF000FEF765FF039BC380A5F802A0314620463F
:106C0000FFF71EFB09F1FF334FF000023946204623
:106C100000F022F80028B4D12046FFF7C6FC002877
:106C2000AFD17D212046FFF735FE0028A8D12C21C9
:106C30002046FFF72FFE0028A0D02046FFF7B5FC26
:106C400000288DD09DE72B80D6E7E169FDF7E5FAB6
:106C5000D8E7052095E7FFFFF8B506460C461F4626
:106C6000FFF7A3FC0546B8B93046FFF78BFC662852
:106C700042D013DC272803D05B2817D0222840D12C
:106C80003046FEF77DFF3046FFF756FE054618B941
:106C900021463046FFF7D4FA2846F8BD742822D0A2
:106CA0007B2812D06E282CD1184921E04023237173
:106CB0004FF6FF73238063804FF000023B4621466E
:106CC000304600F029F80546E6E7202323714FF609
:106CD000FF73238063804FF000023B46214630461D
:106CE000FFF727FFEFE706232371094901232370EC
:106CF0003046FFF775FCE6E706232371257005494A
:106D0000F6E721463046FFF780FCDCE71A970100E2
:106D1000399701003E9701002DE9F347DDB20446A3
:106D20000E46002D46D000234376FFF73EFCA8B95F
:106D30005D212046FFF7AEFD78B94FF6FF7A013DA1
:106D4000D4F81C9068464946FDF7D5FADDF8008076
:106D5000B8F1000F05D1042000E0002002B0BDE82A
:106D6000F0877188BDF80470514521D009F12C00DD
:106D7000FEF7A5FEC78077802B464FF00002414604
:106D80002046FFF769FF0028E8D12046FFF70DFCF9
:106D90000028E3D15D212046FFF77CFD0028DCD1EF
:106DA0002C212046FFF776FD0028C9D10320D5E726
:106DB0003780E0E70520D1E72DE9F04104460E6871
:106DC0008D68016898B000F138070C30FFF712F8B1
:106DD0000023D4F8008023713544A06828B10368EB
:106DE000A3604146FEF78FFEF7E784F83C00CDE94B
:106DF000004002908DF80C008DF819004FF00A0346
:106E00004FF0000239466846CDE904650794FFF764
:106E100023FF054640B99DF918302BB194F83C305A
:106E200013F0080F18BF0325019818B1009B1968CB
:106E3000FEF769FE284618B0BDE8F0812DE9F04F55
:106E4000DFF870928DB004460F46904601268A48BE
:106E500002F096FB03284FD1A06804F10C05FEF761
:106E600005FC40F6B8324946284602F027FE0028C5
:106E70005CD12568814909A80BF0EDFA2846032268
:106E800009A901F0B5FC09A80BF09AFA032E05D167
:106E9000A068FEF7E3FB4FF0000A43E0784925685D
:106EA00006A80BF0D8FA0A22314603A80BF003FB20
:106EB00003A906A80BF0E4FB72490BF0EDFB0A22D4
:106EC0008246022109A80BF0F6FA09A950460BF0F8
:106ED000D7FB00220146284601F08AFC09A80BF0E6
:106EE0006FFA03A80BF06CFA06A80BF069FAA06819
:106EF000FEF7CDFB0136AAE72568634909A80BF028
:106F0000AAFA022209A9284601F072FC09A80BF08E
:106F100057FAA068FEF7A2FB2046FEF76FFE8246F6
:106F2000002899D150460DB0BDE8F08F574903A80D
:106F30000BF091FA414603A80BF0A2FB54490BF069
:106F4000ABFB54490BF0A8FB4946824606A80BF060
:106F500082FA06A950460BF093FB4F490BF09CFBBD
:106F60004E490BF099FB4E490BF096FB0A228246E4
:106F7000B96809A80BF0B1FA09A950460BF080FBDB
:106F800045490BF089FB47490BF086FB39460BF06E
:106F900077FB014668460BF0F8FA09A80BF010FAE7
:106FA00006A80BF00DFA03A80BF00AFA694628466A
:106FB0000BF036F90CF016FA42F20F7B82460CF019
:106FC00011FAA0EB0A0058454CD8284602F00EFEF4
:106FD00000284CD0294603A80BF0C6F9284602F039
:106FE00089FF314906A80BF036FA06A903A80BF071
:106FF000FEFB002830DC2D4909A80BF02CFA09A96A
:1070000003A80BF0F4FB002809A8D4BF4FF0000A36
:107010004FF0010A0BF0D4F906A80BF0D1F9BAF140
:10702000000F1CD02249256809A80BF014FA41462C
:1070300009A80BF025FB0146284601F0A1FB09A891
:107040000BF0BEF9A068FEF701FB03A80BF0B8F93E
:1070500068460BF0B5F965E74FF0010ADCE703A8D5
:107060000BF0AEF9284602F045FF68460CE70A200F
:107070000CF074F9A3E700BF6C0F0020639D0100C2
:107080001D9D01002C9D01003F9D01007F9D010081
:10709000859D0100919D0100DD9D0100989D0100ED
:1070A000B99D0100CA9D0100E09D0100E79D01001E
:1070B000F39D0100319D01002DE9F04F00F10C0519
:1070C0000446B3B00F469046B04940F6B832284661
:1070D00002F0F4FC2668814680B9AD4912A80BF095
:1070E000BAF93046032212A901F082FB12A80BF074
:1070F00067F94E46304633B0BDE8F08FA549DFF85A
:10710000D892DFF8D8A212A80BF0A5F9002212A994
:10711000304601F06DFB12A80BF052F99E4926682B
:1071200012A80BF098F90A2241460EA80BF0C3F9F9
:107130000EA912A80BF0A4FA98490BF0ADFA01467B
:10714000304601F01DFB0EA80BF03AF912A80BF027
:1071500037F99349266812A80BF07DF9394612A831
:107160000BF08EFA0146304601F00AFB12A80BF034
:1071700027F9A068FEF7FCFB8A490EA80BF06BF913
:1071800039460EA80BF07CFA87490BF085FA87493F
:107190000BF082FA7D49064612A80BF05CF912A9A1
:1071A00030460BF06DFA82490BF076FA81490BF00C
:1071B00073FA014605A80BF0E8F912A80BF000F9E4
:1071C0000EA80BF0FDF805A928460BF029F80CF0E5
:1071D00009F942F20F7706460CF004F9801BB84219
:1071E00007D8284602F002FDC0B90A200CF0B6F814
:1071F000F2E72468704912A80BF02DF9204603220B
:1072000012A901F0F5FA12A80BF0DAF8284602F0FC
:1072100071FE002605A80BF0D3F86BE70A22294679
:107220000EA80BF0B5F8494612A8D4F800B00BF040
:1072300012F90EA912A80BF023FA0146584601F0E4
:107240009FFA12A80BF0BCF851460EA80BF053FAA7
:1072500028B30EA80BF0B4F82668584912A80BF012
:10726000FAF8002212A9304601F0C2FA12A80BF077
:10727000A7F8404600F01AFF2768064698B950491B
:1072800012A80BF0E8F83846032212A901F0B0FA70
:1072900012A80BF095F8284602F02CFEBAE70EA8CB
:1072A0000BF08EF8A1E7474912A80BF0D4F80022A2
:1072B00012A9384601F09CFA12A80BF081F80CF0E4
:1072C00091F883460CF08EF800218246A068FEF704
:1072D0005BFA284602F08AFC80B926683A4912A86F
:1072E0000BF0B9F8022212A9304601F081FA12A877
:1072F0000BF066F84FF47A700CF030F84FF0FF396D
:107300000027474580F215810CF06CF847F23053A6
:10731000A0EB0B0098420FD924682C4912A80BF05F
:107320009AF82046022212A901F062FA12A80BF084
:1073300047F800F0E7FE69E70CF054F842F21073EA
:10734000A0EB0A00984202D924682149E6E72846C2
:1073500002F04CFC002800F0B780802212A92846D9
:1073600002F03DFD061E3BDC26681A490EA80BF014
:1073700072F802220EA9304601F03AFA0EA80BF07C
:107380001FF864200BF0EAFFBBE700BF319D01004E
:10739000A59F0100CA9F0100E69F0100F49F010024
:1073A000FB9F01000AA00100859D0100919D010045
:1073B000DD9D0100CA9D01000FA001003BA001005E
:1073C0005BA0010083A00100A3A00100C3A00100F5
:1073D000EDA001001BA1010030A0010039A00100B7
:1073E0000CF000F83146824612A800F06BFE86428F
:1073F0002AD00190B14924680BA80BF02CF80A227E
:10740000314608A80BF057F808A90BA80BF038F97B
:10741000AB490BF041F9019B0A22194606460EA81A
:107420000BF049F80EA930460BF02AF90146204628
:1074300001F0A6F90EA80AF0C3FF08A80AF0C0FFE1
:107440000BA80AF0BDFF74E73744642605237E438A
:1074500096FBF8F696FBF3F299FBF3F39A427FF76B
:1074600050AF3146A068FEF78FF923689549019324
:107470000BA80AF0F0FF0A22394608A80BF01BF807
:1074800008A90BA80BF0FCF88F490BF005F90A22AC
:10749000814631460EA80BF00EF80EA948460BF0B7
:1074A000EFF88A490BF0F8F8019B0146184601F005
:1074B00067F90EA80AF084FF08A80AF081FF0BA85C
:1074C0000AF07EFFB1461CE7284602F04FFD064653
:1074D00068BB7F4924680EA80AF0BDFF0A2239461E
:1074E0000BA80AF0E8FF0BA90EA80BF0C9F8794920
:1074F0000BF0D2F80A220746414612A80AF0DBFF39
:1075000012A938460BF0BCF873490BF0C5F80146D8
:10751000204601F035F912A80AF052FF0BA80AF034
:107520004FFF0EA80AF04CFF00F0ECFDB3E60A2076
:1075300028E7284602F0DEFC12AD26686749284697
:107540000AF089FF00222946304601F051F9284609
:107550000AF036FF00F0CEFD2768064660B96049A4
:1075600028460AF078FF38460322294601F040F900
:1075700028460AF025FF4DE65A4928460AF06BFFD7
:1075800000222946384601F033F928460AF018FF50
:107590002768554928460AF05EFF002229463846EA
:1075A00001F026F928460AF00BFF6421A068FEF7D7
:1075B000EBF84E4B129315AB1D934FF4802300272D
:1075C0001E930BA84FF6FF73ADF87C30ADF88630F4
:1075D0008DF84C7014978DF8847001F0AFF8444B1F
:1075E0000F934FF0010808230BA90EA810938DF8F4
:1075F00044800E95FFF71AFA0BA80AF0E1FE3D4B06
:107600000F933D498DF844800F230EA810930E95DB
:10761000FFF72DFA394B0F9339498DF84480092330
:107620000EA810930E95FFF722FA364908A80AF023
:1076300012FF20ABCDE9033503AB93E8030008AAA2
:10764000FDF760FBD4F800802F490EA80AF003FF75
:107650003A460EA9404601F0CBF80EA80AF0B0FE5B
:1076600008A90BA80AF091FF28490EA80AF0F3FE1A
:107670000EAA0BA92046FFF7E1FB0EA80AF0A0FE18
:107680000BA80AF09DFE40F6B8300BF067FE2468A8
:107690001F490EA80AF0DFFE3A460EA9204601F067
:1076A000A7F80EA80AF08CFE00F032FD08A80AF038
:1076B00087FE2846FCF74BFDACE500BF37A1010073
:1076C0005EA1010068A1010075A101007EA1010079
:1076D00081A10100AFA10100F49F0100B1A101004F
:1076E000C3A10100E1A1010003A20100B803002031
:1076F0006D9601003C9801004C9801001E98010015
:10770000289801003197010016A20100539801004A
:1077100036A201002DE9F041A0B010AE0F4604687A
:10772000B249054630460AF096FE394630460AF020
:10773000A7FF0146204601F023F830460AF040FE3C
:10774000AB4B109313AB1B934FF4802300241C937B
:1077500039464FF6FF7330468DF844401294ADF829
:1077600074308DF87C40ADF87E30FFF725FBC7B252
:10777000FFB1A0492D680CA80AF06DFE9E4B09A828
:1077800053F827100AF067FE09A90CA80AF078FF41
:107790000146284600F0F4FF09A80AF011FE0CA8E3
:1077A0000AF00EFE3046FCF7D2FC204620B0BDE8C1
:1077B000F081924F30463946FEF7D6FD044658B95F
:1077C0002D688F490CA80AF046FE284602220CA913
:1077D00001F00EF80CA83EE0CDE90C670F2301275D
:1077E0000CA80E938DF83C70FEF7C9FF85F82C00AD
:1077F000002835D1834B0D930CA807230C960E93CC
:107800008DF83C70FEF798FF40B303791A1FBA4217
:1078100001D9022B22D10CA8FEF78EFF014618B128
:1078200009A8FEF776F9099909A80AF014FE764925
:107830002F680CA80AF00FFE09A90CA80AF020FF77
:107840000146384600F09CFF0CA80AF0B9FDA86874
:10785000FDF7FCFE09A80AF0B3FDA3E76B49E3E7D7
:10786000DFF8DC8130464146FEF77EFD044610B964
:107870002D686749A6E767493046FEF775FD04465F
:1078800010B92D6864499DE70D230CA88DF83C7054
:10789000CDE90C680E93FEF74FFF60490C9F04463C
:1078A00006A80AF0D8FD002C00F09680214609A811
:1078B000FEF72FF90999002900F08E8006A80AF03A
:1078C00074FE05F1300406A920460AF068FE06A8F9
:1078D0000AF076FD52492F680CA80AF0BCFD21463B
:1078E0000CA80AF0CDFE00220146384600F080FFC9
:1078F0000CA80AF065FD4B492F680CA80AF0ABFDF7
:10790000494909A80AF0A7FD09A90CA80AF0B8FE80
:1079100000220146384600F06BFF09A80AF050FD2E
:107920000CA80AF04DFDA868FDF7C6FE3F4909A85E
:107930000AF091FD06A800F001FF06A909A80AF0C7
:107940009FFE3B490AF0A8FE21460AF099FE3949FC
:107950000AF0A2FE384904460CA80AF07CFD0CA9E6
:1079600020460AF08DFE014603A80AF00EFE0CA880
:107970000AF026FD06A80AF023FD09A80AF020FD5A
:10798000244B0D9304230E930024012309A90CA872
:107990000C968DF83C300994FEF73AFF071ED5F897
:1079A00000804FDC25490CA80AF055FD0A22394613
:1079B00009A80AF080FD09A90CA80AF061FE0222BC
:1079C0000146404600F014FF09A80AF0F9FC0CA893
:1079D0000AF0F6FC03A83EE7CDE9014701AB06AA91
:1079E00093E80300FDF78EF96BE700BF239E0100CB
:1079F000B80300203D9E0100C0030020509E0100FE
:107A0000609E0100979E01009F9E01000E9E010056
:107A1000BD9E0100E99E0100EE9E0100319701002C
:107A2000119F01002B9F01004C980100469F01000F
:107A3000679F0100719F0100289801007D9F010050
:107A4000AF9E010012490CA80AF005FD0A22394632
:107A500009A80AF030FD09A90CA80AF011FE0D4989
:107A60000AF01AFE22460146404600F0C1FE09A86F
:107A70000AF0A6FC0CA80AF0A3FC4FF4FA600BF085
:107A80006DFC3A4603A92846FFF716FB0446A1E71A
:107A9000959F0100F49F01002DE9F04F0568B4495E
:107AA00097B0044613A80AF0D6FC002213A9284672
:107AB00000F09EFE13A80AF083FCAE49256813A8C7
:107AC0000AF0C9FCAC4910A80AF0C5FC10A913A81B
:107AD0000AF0D6FD00220146284600F089FE10A8D3
:107AE0000AF06EFC13A80AF06BFCA068FDF7BEFD5F
:107AF000A24801F045FD0328064612D02568A0499A
:107B000013A80AF0A8FC022213A9284600F070FE70
:107B100013A80AF055FCA068FDF7A0FD17B0BDE85A
:107B2000F08F98490DA80AF096FC0AA800F006FE0E
:107B30000AA90DA80AF0A4FD93490AF0ADFD8E49EB
:107B4000054610A80AF087FC10A928460AF098FDFF
:107B50008E490AF0A1FD8E49054613A80AF07BFC68
:107B600013A928460AF08CFD014601A80AF00DFD74
:107B700013A80AF025FC10A80AF022FC0AA80AF0B3
:107B80001FFC25460DA80AF01BFC824955F80C7B0A
:107B900013A80AF060FC01A913A80AF071FD0146C0
:107BA000384600F0EDFD13A80AF00AFC40F6B832A2
:107BB0007949284601F082FF98B92568774913A8CA
:107BC0000AF049FC324613A9284600F011FE13A81A
:107BD0000AF0F6FBA068FDF741FD01A80AF0F0FBF2
:107BE0009CE76F49DFF8E491DFF8E4A1DFF8E4B146
:107BF00010A80AF030FC01A910A80AF041FD69495B
:107C00000AF04AFD68490AF047FD6349064613A891
:107C10000AF021FC13A930460AF032FD63490AF04C
:107C20003BFD63490AF038FD014604A80AF0ADFCAB
:107C300013A80AF0C5FB10A80AF0C2FB04A9284645
:107C40000AF0EEFA26685B4913A80AF004FC002249
:107C500013A9304600F0CCFD13A80AF0B1FB564939
:107C600007A80AF0F8FB0BF0BDFB534980460AA8B1
:107C70000AF0F1FB00273E460BF0B4FB42F20F7313
:107C8000A0EB0800984200F2E680284601F0AEFF23
:107C9000002800F0AA800A2229460DA80AF078FBE5
:107CA000494613A80AF0D7FB13A90DA80AF04DFD09
:107CB000064613A80AF084FB002E40D03F492668F0
:107CC00013A80AF0C8FB0DA913A80AF0D9FC0146B5
:107CD000304600F055FD13A80AF072FB384913A88E
:107CE0000AF0B9FB13A90DA80AF081FD064613A8F6
:107CF0000AF066FB002E22DA3249266813A80AF041
:107D0000AAFB0DA913A80AF0BBFC0146304600F0FF
:107D100037FD13A80AF054FB284602F0EBF8A068E0
:107D2000FDF79CFC0DA80AF04BFB0AA80AF048FBE3
:107D300007A80AF045FB04A80AF042FB4DE75146AC
:107D40000DA80AF0D8FC0646002845D027681E4931
:107D500013A80AF080FB002213A9384600F048FD62
:107D600013A80AF02DFB0DA80AF02AFB374683E77B
:107D7000249B0100459B01004C9801006C0F0020E2
:107D8000579B0100819B01009F9B0100719F010097
:107D900028980100B09B0100319D0100C39B0100A8
:107DA0000AA00100859D0100919D0100DD9D01005B
:107DB000CA9D0100E69B010031970100089C01006B
:107DC000E09D01001A9C01003B9C0100009C010009
:107DD00039A001005A9C01008FB10DA90AA80AF030
:107DE0002EFC0DA80AF0ECFA0126284602F0BEF897
:107DF00008B9002E2FD10A200BF0B0FA3CE7594603
:107E000010A80AF028FB10A90DA80AF09EFC06464F
:107E100058B95E4913A80AF01EFB13A90DA80AF071
:107E200094FC064613A80AF0CBFA10A80AF0C8FA88
:107E3000002ED6D05649266813A80AF00CFB0DA9CF
:107E400013A80AF01DFC0146304600F099FC13A867
:107E50000AF0B6FAC5E7284602F04CF86EB9256874
:107E60004C4913A80AF0F7FA2846032213A900F098
:107E7000BFFC13A80AF0A4FA6BE06FB30C9B5BB3D2
:107E80000AA80AF018FD7B210AA80AF09BFC7D21B4
:107E900005460AA80AF0C5FC002D5EDA25683E49B1
:107EA00013A80AF0D8FA022213A9284600F0A0FC71
:107EB00013A80AF085FA3949256813A80AF0CBFA05
:107EC0000AA913A80AF0DCFB0146284600F058FC7A
:107ED00013A80AF075FA56E02568314913A80AF08C
:107EE000BAFA022213A9284600F082FC13A80AF06D
:107EF00067FA2C49256813A80AF0ADFA0A22394618
:107F000010A80AF0D8FA10A913A80AF0B9FB014684
:107F1000284600F035FC10A80AF052FA13A80AF01F
:107F20004FFA2149256813A80AF095FA0A220C99FC
:107F300010A80AF0D2FA10A913A80AF0A1FB014672
:107F4000284600F01DFC10A80AF03AFA13A80AF01F
:107F500037FAA068FDF782FBE7E600289EDB431CAA
:107F60002A460AA913A80AF061FC13A90AA80AF074
:107F700016FB13A80AF024FA0AA92046FFF7CAFB49
:107F800000287FF4D2AE256808496AE7689C0100A2
:107F900030A00100789C0100D49C0100F99C0100F4
:107FA000999C0100B69C0100C69C0100099D01003E
:107FB0007047FFFF10B50A4C88B004F130016846E5
:107FC00002F054F96946204603F03EFF684601F08E
:107FD00029FD04F16001204603F07CFD08B010BDCE
:107FE0007808002010B5084C204603F0ABFC04F1E3
:107FF00030004FF47F4102F027F904F16000BDE842
:10800000104002F0FFBA00BF7808002010B5084CFD
:10801000084B236304F1400001F004FD04F10C005F
:108020000AF0CEF92046BDE810400AF0C9B900BFF9
:108030007808002084A90100F0B5031D05460E460E
:1080400017460FCB8FB003AC84E80F00144B089396
:1080500094E80F0095F814C0124C8DF834C009ADA7
:1080600085E80F00104B009332463B4608A9204696
:1080700003F07EFC04F1300002F0AAF9FB23009328
:1080800000231A46E02108A809F056FF41F2E94210
:1080900008A904F1600002F053FB0FB0F0BD00BF6F
:1080A00090B101007808002068120020014608B550
:1080B000034803F091FB003018BF012008BD00BF4A
:1080C000681200202DE9F041094F054600EB010838
:1080D00004464445A4EB050606D014F8011B3846B7
:1080E00003F0B4FB0128F4D03046BDE8F08100BFB6
:1080F0006812002008B5024803F096FB012008BD75
:1081000068120020014803F08FBB00BF68120020F6
:10811000014803F0E5BB00BF6812002038B50446F3
:108120000D4606231622022102F0D0FE656120468C
:1081300038BDFFFF70B52DED028B8AB045693C4913
:10814000044607A80AF087F9002207A9284600F08C
:108150004FFB07A80AF034F93721204602F0BCFE95
:108160004FF4FA600BF0FAF800221146204602F0B4
:1081700057FF00212046F0EE408A02F0EDFFF4EEBA
:10818000688AF1EE10FAB0EE408A656942D6B4EE24
:10819000400AF1EE10FA3DD6264904A80AF05BF930
:1081A000B0EE680A022101A80AF009FA01A904A8A0
:1081B0000AF066FA20490AF06FFAB0EE480A06465D
:1081C000022107A80AF0FBF907A930460AF058FA7D
:1081D0001A490AF061FA00220146284600F008FB1D
:1081E00007A80AF0EDF801A80AF0EAF804A80AF0D6
:1081F000E7F86469124907A80AF02DF9002207A9D7
:10820000204600F0F5FA07A80AF0DAF80AB0BDEC4B
:10821000028B70BD0B4907A80AF01DF928460222FF
:1082200007A900F0E5FA07A80AF0CAF8E1E700BFDD
:108230008FA20100A7A20100BEA20100CDA20100F1
:1082400004A30100CFA201000022114602F0E8BE03
:10825000002102F081BF01607047FFFFFFFFFFFFB9
:1082600070B50E2009F05CFC0A25044602260E209B
:1082700009F056FC044401200BF070F894FBF6F46E
:10828000013DF4D120460DF0C7FB05A3D3E900233F
:108290000DF02CFC0DF022FF00EE100A70BD00BFA7
:1082A000006DA601D0662A3F07B5FFF7D9FFDFEDC5
:1082B0000C7A20EE270A6423FDEEC07A00934FF477
:1082C0002F7200234FF4FA7117EE900A09F056FD51
:1082D0006428A8BF642020EAE07003B05DF804FBC6
:1082E00000007A44DFED0C7A07B520EE270A6423FC
:1082F000FDEEC07A00934FF42F7200234FF4FA7111
:1083000017EE900A09F03AFD6428A8BF642020EA1D
:10831000E07003B05DF804FB00007A444FF4F070A5
:108320004143642091FBF0F0704708B5FFF7BCFFB4
:108330001328CCBF0020012008BDFFFFF0B52DEDB4
:10834000028B91B00446FFF78BFF2046B0EE408AC7
:10835000FFF7C8FF35492668054604A80AF07BF8F0
:10836000B0EE480A022101A80AF029F901A904A8DF
:108370000AF086F92E490AF08FF9B2EE0A0A28EEC1
:10838000000A0746012107A80AF019F907A938468B
:108390000AF076F927490AF07FF90A2207462946AA
:1083A0000AA80AF088F80AA938460AF069F92249A9
:1083B0000AF072F907464FF4F0700A22684364210C
:1083C00090FBF1F10DA80AF076F80DA938460AF0F5
:1083D00057F91A490AF060F900220146304600F0C8
:1083E00007FA0DA809F0ECFF0AA809F0E9FF07A8B1
:1083F00009F0E6FF01A809F0E3FF04A809F0E0FF97
:108400002046FFF792FF60B124680D490DA80AF0DD
:1084100022F8204602220DA900F0EAF90DA809F081
:10842000CFFF11B0BDEC028BF0BD00BF1BA301005C
:108430002DA3010039A301003DA3010048A30100C1
:108440005BA3010010B504460E2009F03BFC0E2092
:1084500000210AF04DFE2046BDE81040FFF76EBF38
:1084600010B5044603F0F4F82168BDE8104003F0AD
:1084700017B973B50D460446FFF7F2FF854215D0D4
:1084800002AE002346F8043D03F0E2F832462168CC
:1084900003F071F901280CD103F0DAF822682946BB
:1084A00003F012F903F0D4F803F02DF9204602B0DE
:1084B00070BD03F0CDF82268294603F005F9F5E711
:1084C0007047FFFFF0B587B001AD29461248134F42
:1084D000134E00F0F9FF134911480AF066F8002422
:1084E0002B5D0F2B03D8394630460AF0B9F810221D
:1084F000295D03A809F0CEFF03A930460AF09FF8D2
:10850000013403A809F05CFF062CE9D104480AF005
:10851000C6F907B0F0BD00BF6C0F002051980100F4
:10852000B40E0020319701002DE9F04F3D4C8FB083
:1085300020460023202206A90AF01BF90025A66880
:1085400001964FF0040802950DEB080403F080F843
:1085500002AA294603F00FF901281CD1029F4745C2
:1085600028BF474604EB0709A5EB040A4C4504EB7A
:108570000A0306D014F8011B039303A8FFF779FF41
:10858000F4E7A8EB07083D4403F062F803F0BBF8FA
:10859000B8F1000FDAD10027BE4230DD06ABDC199E
:1085A000002307F1040902934FF0010803F050F88B
:1085B00002AA494603F0DFF801281ED1029D454575
:1085C00028BF454604EB050AA9EB040BA24504EBC2
:1085D0000B0308D014F8011B039303A8FFF749FF0E
:1085E000F4E75446E2E7A8EB0508A94403F030F8A5
:1085F00003F089F8B8F1000FF3D10137CCE70A494D
:1086000003A809F028FF074903A80AF039F8014632
:10861000064809F019FE03A809F0D2FE0FB0BDE824
:10862000F08F00BFB40E0020C8A301003C1400204E
:1086300070B58CB0002404AE30460494FFF710FFF0
:108640000DF804000134042CF6D1009C631E1E2B8F
:1086500009D91A491A4809F0A8FF1A491A4809F015
:10866000FDFD0CB070BD00252B1D01A80193FFF787
:10867000F7FE70550135AC42F6D10CAB1C443146C7
:10868000002301A804F8203C09F0E5FE01A90C48EC
:1086900009F085FF01A809F093FE0C4901A809F033
:1086A000DAFE074901A809F0EBFF0146064809F088
:1086B000CBFD01A809F084FED3E700BF319701008C
:1086C000B40E0020E4A301003C14002007A4010024
:1086D0001FB5FFF7ADFF13488368E3B9124913488C
:1086E00009F0BCFDFFF7EEFEFFF71EFF104B11492E
:1086F000012201A81A7009F0AEFE0A4901A809F08A
:10870000BFFF0146094809F09FFD01A809F058FE86
:1087100005B05DF804FB084909F0EDFF0028DDD144
:10872000E4E700BFB40E002067A301003C14002062
:10873000B00E00209DA3010031970100064B1B786D
:1087400010B504460BB9FFF7C3FF0449204609F0F2
:108750001CFF204610BD00BFB00E0020B40E00204C
:108760000149024809F077BE31970100B40E00209C
:10877000014809F025BE00BFB40E00207047FFFF7E
:108780001FB50C4601A8084909F065FE214601A85D
:1087900009F076FF0146054809F056FD01A809F0E9
:1087A0000FFE04B010BD00BF48A401003C1400201F
:1087B00010B50446032A0FD8DFE802F002080A0CBD
:1087C0000649204609F047FE204610BD0449F8E757
:1087D0000449F6E70449F4E70449F2E72DA401004F
:1087E00032A4010038A4010087A4010040A40100C4
:1087F0002DE9F041032A90B098BF564B07460E462C
:108800001446554998BF9D560DA888BF2D2509F0DF
:1088100022FE224639460AA8FFF7CAFF0AA90DA878
:1088200009F02EFF4D4909F037FF014601A809F074
:10883000ACFE0AA809F0C4FD0DA809F0C1FD484925
:108840000DA809F008FE31460DA809F019FF4449AA
:1088500009F022FF014604A809F097FE0DA809F0CF
:10886000AFFD039B069E3F499E42B8BF1E46F31ACA
:1088700007A8022793FBF7F7DC1B09F0ECFD4FF08C
:108880000008B84506DA294607A809F0EEFE08F107
:108890000108F6E701A907A809F0D1FE0027A742C1
:1088A00005DA294607A809F0E0FE0137F7E72D4968
:1088B0000AA809F0D0FD0024B44205DA29460AA826
:1088C00009F0D3FE0134F7E727490DA809F0C3FDED
:1088D00007A90DA809F0D4FE234909F0DDFE0146E1
:1088E000224809F0B1FC0DA809F06AFD20490DA845
:1088F00009F0B1FD04A90DA809F0C2FE1C4909F058
:10890000CBFE0146194809F09FFC0DA809F058FD5F
:1089100015490DA809F09FFD0AA90DA809F0B0FEA0
:10892000114909F0B9FE0146104809F08DFC0DA867
:1089300009F046FD0AA809F043FD07A809F040FD2B
:1089400004A809F03DFD01A809F03AFD10B0BDE80A
:10895000F08100BF29A401004BA401004DA4010037
:10896000F8BD0100319701004FA401003C14002024
:1089700052A4010010B50648054C08F035FD20460C
:1089800008F030FD18B90A200AF0E8FCF7E710BD3E
:108990003C14002008B5074B1860074B1B681844AF
:1089A000064B1860064B02221A700AF01BFD054B9D
:1089B000186008BDCC0E0020D8030020C40E002093
:1089C000C80E0020C00E002038B5164D164C0AF017
:1089D00009FD2B68C01AB0F57A7F06D3226803F52B
:1089E0007A73013222602B60F1E7104D23682A6808
:1089F0009A4208D80E4B1B682BB1984750EA0103E6
:108A000004D0FFF7C7FF2068002138BD094A23685A
:108A100012681344084A2B601378003318BF0123EF
:108A20001370F0E7C00E0020CC0E0020C40E002012
:108A3000D00E0020D8030020C80E002008B503681F
:108A4000002B02DA09480CF08FFE8B4208D949004E
:108A50008B4205D20029B6BF6FF00043016003606E
:108A60000068BDE8084001300CF048BE66A5010072
:108A700010B50446406828B163781BB940F2AC4198
:108A80000CF068FE204610BD08B4F3B507AB0446F1
:108A900000F10C0553F8042B0193802128460EF0B9
:108AA00081FED4F89000A8B194F89430012B11D92C
:108AB0000F4909F0BAFBD4F89060336828465F6824
:108AC0000EF0B8FC294602463046B847D4F890006C
:108AD00009F0B4FB284664680EF0ACFC2946024657
:108AE000204608F097FD02B0BDE8F04001B07047A5
:108AF000B6A40100034653F8080B984201D00CF0CD
:108B00001DBE7047F8B50646456808460F460EF08C
:108B100091FCA842024628BF2A46044622B13946A3
:108B200030680DF025FE00B9281BF8BD012A30B4CD
:108B300004D191F90030037030BC7047002AFBD09B
:108B400030BC0DF024BEFFFF00F1080373B50446EE
:108B500003600D46D1B108460EF06CFC0F280646A6
:108B6000019006D9002101A8FFF768FF019B206052
:108B7000A360324629462068FFF7D8FF019B226890
:108B8000636000212046D15402B070BD01480CF052
:108B9000E5FD00BF7EA501002DE9F347DDF8288043
:108BA000164642689A46A8EB0603571A1344026811
:108BB000019300F108039A420D46044614BF8168F0
:108BC0000F2101A8FFF73AFFBF1B81461DB12A46BE
:108BD0002168FFF7ABFFBAF1000F08D0B8F1000F22
:108BE00005D04246514609EB0500FFF79FFF47B10C
:108BF00021682E4405EB08003A4631444844FFF70B
:108C000095FF2046FFF776FF019BC4F80090A36014
:108C100002B0BDE8F087F7B50268466800F10803C6
:108C20009A4218BF836806F1010508BF0F239D42D1
:108C300004460F4606D90123009300231A46314605
:108C4000FFF7AAFF23689F552368656000225A55E5
:108C500003B0F0BD012A30B404D191F900300370A3
:108C600030BC7047002AFBD030BC0DF09BBDFFFF2D
:108C70002DE9F74F8146144640680C9E02F10042F0
:108C8000013A121A9642984602D937480CF06CFD08
:108C90004A46A6EB040B52F8083B934218BFD9F89A
:108CA00008200BEB000A08BF0F22524552D35F1871
:108CB0009845A0EB0101A1EB040522D3034498459C
:108CC0001FD876BB95B1B44210D02A463919B819CD
:108CD000FFF7C0FFB44209D23C4408EB06039C42B4
:108CE00027D3324641463846FFF7B4FFD9F8003063
:108CF000C9F804A00022484603F80A2003B0BDE8E2
:108D0000F08F35B1B44204D02A463919B819FFF7AB
:108D1000A1FF002EEAD0324641463846FFF706FF53
:108D2000E4E7B4421DD3324641463846FFF792FF8E
:108D3000C8E7444503D8324608EB0B01EDE7A4EB46
:108D40000804224641463846FFF784FF321BB91912
:108D50003819E3E70096434622464846FFF71CFFD2
:108D6000C4E7002DB8D0B0E74DA5010037B50446E3
:108D700008460D460EF05EFB2B460090626800210F
:108D80002046FFF775FF03B030BDFFFF2DE9F04F20
:108D90008FB00AAB029106460893984902980023C7
:108DA00009938DF828309246FFF7ACFE031C04901F
:108DB000D6F8900018BF0123069328B196F8943096
:108DC00013B18F4909F031FA0AF00CFB4FF000089B
:108DD0000123DFF854B205904746CDF80480CDF862
:108DE0000C809946444607930AF0FCFA059BB2684A
:108DF000C01A904200F21A81079B5BB1706802684A
:108E000012699047079B0028EDD0706803685B6982
:108E1000984745B2D6F8900038B196F8943023B10F
:108E20000A2D24D1774909F000FAD6F8900060B1F4
:108E300096F89430022B08D9734909F0F6F90A2202
:108E40002146D6F8900009F055FA631E072B29D861
:108E5000DFE813F03A005C007E008A008D00B70066
:108E60002B01A200092C00F0E3800123BBE70D2DAC
:108E700001D16649D7E7202D01D16549D3E71F2DE0
:108E80000CDC644909F0D1F929460A22D6F8900091
:108E900009F049FA6049D6F89000C4E7294609F07C
:108EA000C8F9C2E72B2D05D1294608A8FFF7B3FE64
:108EB0000124DAE71BF90730AB4240F09C80DDF873
:108EC000188001370824D0E73A2D294608A801D098
:108ED0003D2D3AD1FFF79FFE049B8BB1029B099A6F
:108EE0005B689A4206D15AB1029B089819680DF046
:108EF0003FFC28B1494908A8FFF738FF4FF00108A7
:108F000046495046FFF732FF0224AEE77C2D0ED1D2
:108F1000DAF800000DF009FB0023CAF80430DAF893
:108F2000003003904FF000021A7003249DE70D2DCE
:108F300000F0B2800A2D00F0B18096F88C3013B1A9
:108F4000202D00F0AD8029465046FFF764FE8CE7E7
:108F500029465046FFF75FFE019B039A01330193B8
:108F6000934208BF052480E70A2D08BF05242C4939
:108F70005046FFF7C7FD60B12A495046FFF7C2FDD2
:108F8000002804BF4FF0010909244F2D2AD10127E1
:108F900098E781460924F8E71BF907207B1C58460F
:108FA0000793AA4218BF07240EF044FA079B984281
:108FB00070D107464FF00009B8F1000F19D109240C
:108FC00036E01BF907207B1C58460793AA4218BFBE
:108FD00007240EF02FFA079B98425BD107464FF00B
:108FE0000109E9E7B8F1000F3FF43CAF092C7FF429
:108FF0003CAF4FF00008002437E700BF07A5010091
:1090000014A501001AA5010035A501001FA5010046
:1090100024A5010029A501001DA50100319701002B
:10902000E49D010087A401002BA501004FF0030976
:10903000D6F89000B8B196F89430022B13D91E4997
:1090400009F0F3F80A222146D6F8900009F050F909
:109050001A49D6F8900009F0E8F80A224946D6F8ED
:10906000900009F047F9D6F89000012386F88C307B
:1090700048B196F8943033B1114909F0D6F8D6F8D2
:10908000900009F0DBF808A8FFF734FD48460FB060
:10909000BDE8F08F1F46E8E60424E6E60524E4E692
:1090A000B8F1000F7FF4E1AE9DE6002398464FF043
:1090B00002091C4697E600BF30A501003DA501004E
:1090C00043A5010030B50446406803688DB05B6875
:1090D000984706AA1D496846FFF736FD08AB069378
:1090E00006AA00236946204607938DF82030FFF733
:1090F0004DFE0546D4F8900088B194F89430012BC9
:109100000DD9134909F091F80699D4F8900009F0A7
:10911000A5F87DB90F49D4F8900009F09FF806A88A
:10912000FFF7E8FC6846FFF7E5FCB5FA85F0400973
:109130000DB030BD012DD4F8900001D10649ECE707
:10914000032D0CBF05490649E7E700BF07A501004D
:1091500054A401006EA401007CA401008DA40100B0
:10916000A0A4010008B42DE9F3431646044609AB58
:10917000306853F8042B0193884604F10C05002154
:1091800071600170802128460EF00CFBD4F890002D
:10919000B0B109F053F82449D4F8900009F045F82B
:1091A000D4F890703B682846D3F804900EF042F94A
:1091B000294602463846C847D4F8900009F03EF8E0
:1091C000284667680EF036F929460246384608F008
:1091D00021FA324641462046FFF7D8FD0546D4F82D
:1091E000900068B1114909F020F83168D4F8900076
:1091F00009F034F865B90E49D4F8900009F02EF85A
:10920000B5FA85F0400902B0BDE8F04301B07047FF
:10921000012DD4F8900001D10649EFE7032D0CBFD2
:1092200005490649EAE700BFF1A40100FBA40100DB
:109230006EA401007CA401008DA40100A0A4010083
:109240002DE9F0430446406891B01646002834D01A
:109250002378002B31D10368194DDB69DFF86C905E
:10926000DFF86C80174F98470AAA174904A8FFF740
:109270006BFC60680368DB6898474FF4FA72AA6079
:109280002378A3B9002E12DD03AA49460AA8FFF7E6
:109290005BFC3B4604AA0AA9CDF800800848FFF70A
:1092A00061FF20700AA8FFF725FC013EE8E742F2C3
:1092B000107304A8AB60FFF71DFC11B0BDE8F0838C
:1092C000D40E00209BB8010031970100CEA401000C
:1092D000DEA40100074B084858600022012142F239
:1092E00010701A705970986083F88C1083F894206D
:1092F000704700BFD40E0020941D00200148FFF7E6
:10930000B7BB00BFD40E002008B50368002B02DAFB
:1093100009480CF029FA8B4208D949008B4205D242
:109320000029B6BF6FF00043016003600068BDE82C
:10933000084001300CF0E2B966A5010073B542F2B5
:109340001073036000F5F8730025C0F8E8310126BA
:1093500000F50273044680F8E451C0F8EC5180F83F
:10936000F051C0F80032C0F8045280F808520423CB
:109370000096A822C02100F5067008F0DDFD3346F6
:109380000096A822C02104F50C7008F0D5FDFF233B
:1093900000951A46194604F5127008F0CDFD2046D6
:1093A00002B070BD73B505460E4619B912B10D482D
:1093B0000CF0D4F9941B0F2C019406D9002101A8BC
:1093C000FFF7A2FF019B2860AB6022463146286868
:1093D000FFF7ACFB019B2A686B600021D15402B0FF
:1093E00070BD00BF7EA501002DE9F04F91F902305C
:1093F0003A2B89B04FD191F905303A2B4BD191F9E5
:1094000008303A2B47D191F90B303A2B43D191F9DF
:109410000E303A2B3FD10C46451E01F112070DF1DB
:1094200010094FF0000AA21C214602A8CDF80890AE
:10943000FFF7B8FF029E0DF081F8D0F800B00DF0F4
:109440007DF81022C0F800A001A930460EF05AF9AC
:10945000019B9E42804602D110480CF082F90DF02B
:109460006DF80368222B02D10C480CF080F90DF046
:1094700065F803681BB90DF061F8C0F800B005F895
:10948000018F02A80334FFF735FBA742CBD101209F
:1094900009B0BDE8F08F0020FAE700BFA8A50100E1
:1094A00038B500F10803044603600D4649B108468B
:1094B0000DF0C0FF2A1820462946FFF773FF20460B
:1094C00038BD4FF0FF32F6E730B58FB00C4602A83A
:1094D0002249FFF7E5FF03224FF4E1312048FFF76F
:1094E000AFFE204908A8FFF7DBFF1F4B009302AA3D
:1094F0001E4B1B4808A9FFF735FE054608A8FFF7D5
:10950000F9FACDB102980DF010F801281AD11849D6
:1095100008A8FFF7C5FF174B009302AA134B10488A
:1095200008A9FFF71FFE054608A8FFF7E3FA1DB1DB
:1095300002992046FFF758FF02A8FFF7DBFA204602
:109540000FB030BD02980CF0F0FF0228F4D10A49A8
:1095500008A8FFF7A5FF094BDEE700BF3197010020
:10956000D40E002038A6010043A601009BB80100DC
:10957000EEA50100F7A5010004A6010010A6010058
:1095800010B503228CB04FF4E1311148FFF758FEBB
:1095900010496846FFF784FF0F4906A8FFF780FFD0
:1095A0000E4B0B486A4606A9FFF7DCFD044606A8E9
:1095B000FFF7A0FA34B1012009F0D0FE00980CF0BA
:1095C000B4FFC4B26846FFF795FA20460CB010BD50
:1095D000D40E002031970100A0A60100ACA6010026
:1095E000F0B591B004460E4604A82849284D174608
:1095F000FFF756FF03224FF4E1312648FFF720FE24
:1096000025490AA8FFF74CFF01230193234B009340
:109610000AA9234B1F4804AAFFF7A4FD0AA8FFF7D5
:1096200069FA20490AA8F7B9FFF73AFFCDE90056D1
:109630001D4B184804AA0AA9FFF794FD05460AA87D
:10964000FFF758FADDB109F0CDFE054609F0CAFE74
:109650002368401B984212D22046FFF791FF03284F
:10966000F4D104460CE0FFF71BFFCDE9016700953C
:109670000E4B084804AA0AA9FFF774FDDEE704248C
:1096800004A8FFF737FA204611B0F0BD319701006A
:1096900089A60100D40E002038A6010071A60100A1
:1096A0006AA601007EA60100D8A5010096A60100C9
:1096B00010B58CB00E496846FFF7F2FE0D4906A8BA
:1096C000FFF7EEFE0C4B0D486A4606A9FFF74AFD70
:1096D000044606A8FFF70EFA1CB100980CF025FF0F
:1096E00004466846FFF706FA20460CB010BD00BFDE
:1096F0003197010020A601002AA60100D40E002007
:1097000070B503228EB005464FF4E1312848FFF7CB
:1097100097FD0024274902A8FFF7C2FE23462246F0
:1097200021460094284608F007FC234908A8FFF7C3
:10973000B7FE224B009302AA214B1D4808A9FFF750
:1097400011FD064608A8FFF7D5F9D6B102980CF02E
:10975000ECFE01281BD11B4908A8FFF7A1FE1A4BFC
:1097600000930194194B124802AA08A9FFF7FAFCCA
:10977000044608A8FFF7BEF91CB10299284608F074
:10978000FDFC02A8FFF7B6F928460EB070BD02989E
:109790000CF0CBFE0228F4D10D4908A8FFF780FE9B
:1097A0000C4B034802AA08A9FFF7DCFCE0E700BF66
:1097B000D40E00203197010038A6010043A6010015
:1097C0009BB8010027A701002FA701006AA601008E
:1097D0000EA7010019A7010010B5104C10498CB05C
:1097E0006846FFF75DFE032220464FF4E131FFF7A4
:1097F00027FD0C4906A8FFF753FE0B4B6A4606A946
:109800002046FFF7AFFC044606A8FFF773F9684649
:10981000FFF770F920460CB010BD00BFD40E002039
:1098200031970100AEA50100BBA501000148FFF77B
:1098300085BD00BF6C0F002010B5054C04F500700D
:10984000FFF758F904F5F470FFF754F910BD00BFA5
:109850006C0F0020002070470069013018BF012004
:10986000704708B503685B6B984780F00100C0B291
:1098700008BD13B502AB026803F8011D5468194610
:109880000122A04702B010BD07B5036801225B6A40
:109890000DF10701984701280CBF9DF807004FF014
:1098A000FF3003B05DF804FB00690B69C31A58422E
:1098B0005841704770470020704740F20C41C06823
:1098C0000BF048BF10B5102104460BF043FF2046B3
:1098D00010BD08B5FFF7F6FF08BD7FB50368044665
:1098E000164601A81D6A08F089FB324601992046F8
:1098F000A847044601A808F063FD204604B070BDE7
:10990000036810B504469B689847A368013BA360B1
:109910002BB923682046DB68BDE81040184710BD0E
:1099200000F1080370B5044603600E46B1B1084665
:109930000DF080FD0F28054604D901300BF0DEFE46
:10994000A5602060012D20680BD196F900300370CE
:109950002368656000225A55204670BD04480BF00C
:10996000FDFE002DF4D02A4631460CF010FFEFE743
:109970007EA50100036813B962B6BFF36F8F70470D
:1099800013B5EFF3108300930123019372B6019B8B
:109990005A1E019233B104686846FFF7EBFF204678
:1099A00002B010BD6846FFF7E5FFF8E713B50446BF
:1099B000EFF3108300930123019372B6019B5A1EAB
:1099C0000192684633B1FFF7D5FF601CC0F3090070
:1099D00002B010BDFFF7CEFFFAE7FFFF0023C0E99A
:1099E00005334FF47A72C0E90132C3610B69036138
:1099F0008B698361CB69044A02601BB15A680132EA
:109A00005A60C361704700BFD4A8010010B5044676
:109A1000006828B14368013B43600BB9FFF770FF52
:109A2000204610BD10B5044B044640F81C3BFFF720
:109A3000EDFF204610BD00BFD4A8010030B503697A
:109A4000002B8FB0044607DB0368DB6A984718B920
:109A5000236820469B6A98472369013321D1124924
:109A600002A8FFF75DFF03224FF4E1310F48FFF733
:109A7000E7FB0F4908A8FFF753FF0E4B009302AA1C
:109A80000D4B0A4808A9FFF76DFB054608A8FFF72C
:109A900031F81DB102980CF048FD206102A8FFF7D3
:109AA00029F80FB030BD00BF31970100D40E00205F
:109AB000ADA80100BBA801009BB8010070B5044629
:109AC00092B00D461646FFF7B9FF2369002B25DB40
:109AD0001E4906A8FFF724FF03224FF4E1311C487A
