:10400000007F0020FDEA0000A5E90000F9EA0000B9
:10401000F9EA0000F9EA0000F9EA0000F9EA000014
:10402000000000000000000000000000F9EA0000AD
:10403000F9EA000000000000F9EA0000F9EA0000D7
:104040000000000000000000000000000000000070
:104050000000000000000000000000000000000060
:104060000000000000000000000000000000000050
:104070000000000000000000000000000000000040
:104080000000000000000000000000000000000030
:104090000000000000000000000000000000000020
:1040A0000000000000000000000000000000000010
:1040B0000000000000000000000000000000000000
:1040C00010B5054C237833B9044B13B10448AFF352
:1040D00000800123237010BD700600200000000046
:1040E00020A7010008B5034B1BB103490348AFF3F8
:1040F000008008BD000000007406002020A7010019
:104100000846114611F034BE084611F06FB8084653
:1041100011F064B84FF6FF7399421FBF0368CA09D4
:1041200003EBC20301F07F011ABF586800EBC10026
:10413000002070472DE9F84F05680446A16831B1A9
:104140000B68A3602B6828465B689847F6E72668EB
:1041500004F10C0B0D468946228EE76AABB29A42F7
:104160000FD907EBC3089A46D8F8041019B1336881
:1041700030465B68984747F83A900135C8F8049094
:10418000EAE700232386BB454FF6FF73A38604D0DE
:10419000336839465B68304698472046BDE8F88F5B
:1041A00038B5C588044601F12C002946FFF7B2FF57
:1041B000A580206008B1C388E38038BD38B5436A64
:1041C000034400251D710446011D00680DF083F8AD
:1041D00000B16562606A38BD38B5436A01331F2B90
:1041E00004460D4606D8636A5A1C62621C440120CC
:1041F000257138BDFFF7E2FF0028F4D00020F8E772
:104200000379DA072DE9F04705460C4611D5016818
:10421000A36800226BB1994232D18B882068013BA0
:104220009BB28B802BB90B6842B3136003685B6849
:1042300098472E79F30608D52F8804F12C003946CB
:10424000FFF768FFA38E0380A78616F0600F1CD0CF
:104250002E884FF6FF7A04F12C09564513D03146CB
:104260004846FFF757FF21460746B0F80680FFF79C
:10427000C7FFA38E3B80A6864646EEE7A360D5E740
:104280001A461B68C6E72E806E8000232B71BDE89E
:10429000F087C0E900120822826001220273704791
:1042A0008B8C30B5013B0D6A9AB205EBC204616894
:1042B00049B1638835F832509D4204D95D1C11EB39
:1042C000C301658005D1002303604FF6FF7383802F
:1042D00030BD016003EBC213F9E72DE9F74F8D8E76
:1042E0004FF6FF739D4206460C460ED0294604F158
:1042F0002C00FFF70FFF0388A386002303714FF6FE
:10430000FF73C3803060B58061E00B8E0F6801F1F0
:104310000C0843B168464146FFF7C2FF009810B150
:10432000BDF80450E9E7228E638E934218D1B3F5AD
:10433000007F45D05B009DB2E36A396898454FEA3B
:10434000C50235D10B68384611469847814600288A
:1043500036D02022414610F0C2FFC4F82C9065866A
:10436000B4F83090D4F82CB009F101039BB2B3F546
:10437000007F23863B680CBF7F258025E9001B68F2
:10438000384698470BEBC90A002808BF00250023D0
:10439000CAF8040041462BF839506846AAF80230A2
:1043A000FFF77EFF0098BDF804500028A5D107E074
:1043B000D1F8089038461946C84781460028CCD124
:1043C00001232371002333604FF6FF73B38030461F
:1043D00003B0BDE8F08F07B50368082203EBC10105
:1043E000684610F07CFF9DED000B03B05DF804FB08
:1043F000F0B585B0064604A800E90E00DDE90175B8
:104400000A983468B4B1E188A9420BD100239942DB
:104410000AD0E21817F903C092F90820944501D197
:104420000133F4E72468EDE7A3880133A380204635
:1044300005B0F0BDB5F5803FF9D209216918F6D273
:1044400003681B6898470028F1D001238380C5804A
:1044500000F10803AC4203D03A571A550134F9E78A
:104460000444002323723368036004463060DEE7AF
:10447000F8B5054616460C468F18BC4205D014F810
:10448000011B2846FFF7A8FEF7E7AB6A3344AB628F
:10449000F8BD38B5054608460C4611F030FD2146FA
:1044A00002462846FFF7E4FF38BD2DE9F04186B00B
:1044B0000DF11604054616461F46A04630463946FD
:1044C0000A22002310F0BCFC303204F8012D002336
:1044D000304639460A2210F0B3FC06460F4656EA2B
:1044E0000703EBD1A8EB040221462846FFF7C0FFE3
:1044F00006B0BDE8F0812DE9F04796B003AD85E840
:104500000E00814695E807000AAE1E9C86E80B0067
:104510008046F0B910904FF6FF73ADF84430109B11
:104520002BB1214610A8FFF73BFE109E6EB995E80F
:1045300007000DF1340888E80700214606A8FFF7B8
:10454000CCFE069D002D49D10026304616B0BDE8B0
:10455000F087B9F800600B9F314604F12C00FFF79B
:10456000D9FDADF850601390B0B1C388ADF85230AA
:104570004FF0010A139B7BB3BAF1000F25D01A79D3
:10458000042A0CD0052A1BD0FFB913AA92E8030015
:1045900010AB83E80300C2E74FF6FF73E6E71E683F
:1045A00030460EB111F0ABFC87420ED10023BB4266
:1045B000EBD018F90310F256914206D10133F6E719
:1045C0001B6803F10806D888EEE7214613A88AF095
:1045D000010AFFF7E5FDCDE710939CE7214608A807
:1045E000FFF77BFE089E002EAED098E807000D9BDB
:1045F00010AF87E80700002BA6D09DF83C20B2B191
:1046000004222A712B60BDF82470EF80B9F80210E3
:10461000BDF81C804FF6FF73994218D004F12C00AE
:10462000FFF778FDA0F80680A9F802708DE797E8FB
:10463000070013AB83E80700226800920ECB04F159
:104640000800FFF7D5FE28B9012323717CE7A9F8FC
:104650000080E9E705232B712860D4E770B5036873
:1046600013F1380686B002D1002006B070BD021DDD
:1046700007CA03AC84E8070002460028F4D093F888
:104680003C1071B9202183F83C104FF6FF71198757
:1046900059870392009394E80E003046FFF72BFFF2
:1046A000E3E72029F5D0DFE72DE9F0418CB0804623
:1046B0000D46FFF7D3FFD8F80070064628460DB127
:1046C00011F01DFC0023CDE903508DF81430BEB16C
:1046D00039463046FFF794FD03AB93E8070006AC7C
:1046E00084E8070065B109AB83E807003A680092E7
:1046F0000ECB07F10800FFF77BFE50B901233B7199
:10470000D8F8000010B1007980F001000CB0BDE8CD
:10471000F081052333713060F2E710B52DED028B87
:104720000446B0EE408AFFF799FF2168044630B195
:10473000FFF766FD0E23237184ED008A0120BDEC96
:10474000028B10BD10B50446FFF746FDA36A18445E
:10475000A06210BD2DE9F0410D4622211646044607
:10476000FFF7F0FFDFF850802E44B54215D015F961
:10477000011B104B13F9027CAFB1023313F9032C68
:104780008A42F7D15C212046FFF7DCFFF9B20DE049
:1047900041462046FFF77DFEE7E722212046FFF74E
:1047A000D1FFBDE8F0810029F2D0C9B22046FFF761
:1047B000C9FFDAE7EB810100F881010070B5002A3A
:1047C0001D4675F100030646144605DA2D21FFF754
:1047D000B9FF644265EB450522462B463046FFF79C
:1047E00064FE70BDFFFFFFFF2DE9F04F5BEC10ABE7
:1047F0008BB007460D4610EE102A5B4610EE100AED
:10480000594610F0EDF930B9AF493846FFF741FE8F
:104810000BB0BDE8F08F002200235046594610F03F
:10482000DFF968B952465B46504659460FF0BAFD6B
:1048300002460B465046594610F0D2F90028E3D103
:10484000002200235046594610F0D4F930B12D21F2
:104850003846FFF777FF0BF100439B460123019396
:104860002C460A2324B1019A5A43013C0192F9E7EC
:1048700091A3D3E900235046594610F0CFF9002800
:104880006AD0DFF850924FF008084FF48076414626
:1048900004A8CDF81090FFF79EFD52465B4651EC00
:1048A000100B10F0B1F978B1884B0493414604A87D
:1048B000FFF791FD5046594653EC102B0FF028FF9F
:1048C000344482468B4624B218F1FF384FEA66061C
:1048D000DDD2CDF80C80002200235046594610F05E
:1048E000A7F900283DD076A3D3E9002350465946C6
:1048F00010F08AF9A8B300230293DDE90223A3EBA9
:10490000020919F0800F2CD10DF128086F4B48F8DF
:10491000183D49464046FFF75EFD00226C4B51ECC6
:10492000100B0FF0F5FE52465B4610F081F978B19E
:10493000684B049349464046FFF74DFD50465946A3
:1049400053EC102B0FF0E4FEA41B82468B4624B2DE
:10495000029B76100133CFE708234FF48076039350
:10496000B9E75046594610F0ABF90A22064603460D
:10497000092B08D9B3FBF2F3013D0199B1FBF2F128
:104980006DB20191F4E730460FF048FE02460B4647
:10499000504659460FF004FD8046019889460FF0B5
:1049A0003DFE02460B46404649460FF0B1FE8046AA
:1049B000894610F085F982460FF030FE02460B461C
:1049C000404649460FF0ECFC0B4602460FF0EAFC6D
:1049D00010F076F9019B0AEB0008434508D8013630
:1049E00094B1092E10D9013424B24FF000080126E9
:1049F0000A22B8FBF2F302FB138141B9002D06DD58
:104A0000013D98466DB2F4E74FF00008F0E70DF174
:104A100026010A22B6FBF2F302FB1366303601F8D8
:104A2000016D1E46002BF5D10DF12606721A38468F
:104A3000FFF71EFDEDB108AA2B4611464FF00A0CF8
:104A4000013B5BB2581C09D0B8FBFCF00CFB108892
:104A500008F1300802F8018D8046F1E7EDB2EB4332
:104A60004D1B2E2205F8012C19445A423846FFF7F7
:104A7000FFFC002C3FF4CCAE65213846FFF762FE08
:104A8000002CA5B205DA2D213846FFF75BFE6D42FA
:104A9000ADB231460A22B5FBF2F302FB13553035B5
:104AA00001F8015D9DB2002DF5D1721A3846FFF76D
:104AB000DFFCADE6AFF3008000000000D0126341E0
:104AC000F168E388B5F8E43EE0810100F880010078
:104AD00000002440408101002DE9F041057906469F
:104AE0000C46018815F0100003D002F12C00FFF7EE
:104AF00011FB0C2D00F0968015D8052D00F0878055
:104B000006D8032D00F08780042D73D04E4995E020
:104B1000062D00F090800A2DF8D13268002320463F
:104B2000FFF7C3FC1DE01C2D00F0828006D80E2D7F
:104B30000ED01A2DEAD1D0E90023F0E7202D34D091
:104B4000402D11D01E2DE1D1092190ED000B05E083
:104B500030680FF085FD41EC100B06212046FFF771
:104B600043FEA06ABDE8F0815B212046FFF7EAFD25
:104B700035884FF6FF76B54212D0E76A294607F12D
:104B80002C00FFF7C7FA05463A462146FFF7A4FF77
:104B9000ED88B542EFD02C212046FFF7D3FDEAE7A0
:104BA0005D212046FFF7CEFDDBE77B212046FFF7A6
:104BB000C9FD4FF6FF7735880126BD4218D0D4F8DD
:104BC0002C80294608F12C00FFF7A4FA054642463E
:104BD0002146FFF781FFED88BD4206D0002E0CBFB5
:104BE0002C213A212046FFF7ADFD86F00106E4E7CF
:104BF0007D21D6E7356845B1284611F080F9024697
:104C000029462046FFF7A6FDABE72A46F8E73168BC
:104C1000CA880831F5E731682046CA880831FFF7AD
:104C200027FC9EE73268D3172046FFF7C7FD98E7B9
:104C3000D0E90023F8E7337823B104492046FFF791
:104C400028FC8EE70249F9E7E0810100FF810100BD
:104C5000048201002DE9F043B7B06B46002783E8DA
:104C6000030002AD3946104602920B970CF0D8FAB9
:104C70000FCD0CAC0FC40FCD0FC495E8030084E832
:104C800003000CAE0FCE16ADDDE900890FC50FCEC7
:104C90000FC594E8030085E8030016AE0FCE20ACE4
:104CA0000FC40FCE0FC495E8030020AE84E80300C4
:104CB0000FCE2AAD0FC50FCE0FC594E8030085E8CF
:104CC000030020A83497FFF779FA16A8CDF8D490FE
:104CD000FFF774FAB8F1000F12D04A462AA94046ED
:104CE000FFF7FAFE04462AA8FFF768FA0CA8FFF7B8
:104CF00065FA02A8FFF762FA204637B0BDE8F083F4
:104D000002492AA8FFF7C5FB349CECE7E0810100CB
:104D1000F0B5574D574F584E9DB00CAC28464FF448
:104D2000165103F015FB554920460CF0F2F92146C7
:104D3000284603F0C1FA20460CF0A0F9504920465D
:104D40000CF0E7F9396808A80CF0E3F908A9204647
:104D50000CF0D1FA0146284603F0AEFA08A80CF090
:104D60008DF920460CF08AF9304600F0C3FB30463E
:104D700000F0B8FB4349444E20460CF0CAF92146E6
:104D8000284603F099FA20460CF078F93F4803F0E2
:104D9000E9F9304601F0DAFF0FAA17924FF48022AA
:104DA00018923B4B0C934FF6FF720023ADF8642032
:104DB000ADF86E202146374A8DF8343008A80E939E
:104DC0008DF86C30FFF765FA396808A8FFF76CFCBE
:104DD000314B099309230A93304B08940127196832
:104DE0008DF82C7008A8FFF75FFC2D4B09930F235B
:104DF0000A932C4B089419688DF82C7008A8FFF7BB
:104E000053FC294902A80CF084F91AABCDE900340F
:104E10006B4602AA93E80300FFF71CFF02A905A84E
:104E20000CF0EEF9214B08A819680CF072F908AAE9
:104E300005A9304601F0C4FF08A80CF01FF905A829
:104E40000CF01CF9304602F03DFE194908A80CF0A0
:104E500060F908A9284603F02FFA08A80CF00EF90B
:104E600002A80CF00BF92046FFF764F91DB0F0BD65
:104E700000070020C40300209C0600208982010056
:104E8000A3820100AF820100040700204407002034
:104E9000B8030020C4820100CD820100CC030020B1
:104EA000D7820100C8030020F7810100C003002061
:104EB000E782010070B52DED028B9CB04A4B0FAA22
:104EC00017924FF480220CACD3ED008A93ED018A47
:104ED0009E681892454B0C934FF6FF720023ADF875
:104EE0006420ADF86E202146414A8DF8343008A880
:104EF0000E938DF86C30FFF7CCF93E4B08A819687B
:104F0000FFF7D2FB3C4B099301250B23B0EE680A57
:104F100008A80A938DF82C500894FFF7FEFB214651
:104F2000364A08A8FFF7B5F9B0EE480A08A8FFF717
:104F3000F4FB334B099308A809238DF82C500894EF
:104F40000A93FFF78BFB0899054620B1FFF758F944
:104F50000A232B712E602B4902A80CF0DAF81AAB49
:104F6000CDE900346B4602AA93E80300FFF772FE16
:104F7000254908A80CF0CDF802A908A80CF0BBF947
:104F80000146224803F07CF908A80CF077F802A942
:104F900005A80CF035F91E4B08A819680CF0B9F8F3
:104FA00008AA05A91B4801F00BFF054608A80CF04C
:104FB00065F805A80CF062F8A5B1174908A80CF02F
:104FC000A8F808A9114803F077F908A80CF056F8DA
:104FD00002A80CF053F82046FFF7ACF81CB0BDEC6B
:104FE000028B70BD0D49E9E78C060020B803002054
:104FF000C4820100C4030020888101009481010063
:105000009D810100F7810100A781010000070020B8
:10501000BC03002004070020B5810100CC81010001
:10502000F0B52DED028B68488BB000F031FD0CF02F
:10503000F5FF0546654803F0E5FE032810D06448F7
:1050400000F048FA634907A80CF063F807A9624822
:1050500003F032F907A80CF011F85B4800F01AFDD4
:105060005E4E5F4B34681F682B1BBB4226D23C440C
:10507000641B42F21072B4FBF2F302FB1343632B86
:105080001CD8584907A80CF044F80A224FF47A714A
:1050900004A8B4FBF1F10CF07FF804A907A80CF008
:1050A0002AF951490CF033F901464B4803F0E8F86E
:1050B00004A80BF0E3FF07A80BF0E0FF3368EB1A3E
:1050C0009F4264D84949356007A80CF022F807A927
:1050D000414803F0F1F807A80BF0D0FF444803F073
:1050E000C7F84348F0EE408A03F0C6F8F4EE688A49
:1050F000F1EE10FAB0EE408A54D6B4EE400AF1EE6A
:1051000010FA4FD63B493C4E04A80CF002F8B0EE22
:10511000680A012101A80CF08DF801A904A80CF07F
:10512000EAF836490CF0F3F8B0EE480A04460121DB
:1051300007A80CF07FF807A920460CF0DCF83049EE
:105140000CF0E5F80146244803F0B6F807A80BF088
:1051500095FF01A80BF092FF04A80BF08FFF3468B5
:1051600003F016F9274B0C2202FB0433C3ED008A2F
:1051700083ED018A986033680133002B336003DDCF
:10518000FFF798FE00233360114800F09BF91E4A98
:105190001E491368EB1A8B4212D90B48156002F0B6
:1051A00091FC0DE01A4907A80BF0B3FF07A90A48C4
:1051B00003F082F807A80BF061FF054800F08AF9B8
:1051C0000BB0BDEC028BF0BD040700202C140020B6
:1051D0009C0600200A820100000700203C070020F6
:1051E000008301002D820100B0A101004382010073
:1051F000440700205A8201009806002061820100C5
:10520000718201008C060020400700207FEE3600EE
:105210007382010038B5094C094D204603F02FF880
:10522000284600F03FF929462246064800F01CFCBB
:1052300021460548BDE8384002F086BF000700203F
:105240009C060020040700204407002010B5074CEE
:1052500004F12C000BF012FF04F1080003F0FCFF36
:105260000348BDE8104009F0FBBF00BF0407002061
:10527000C00600204308400003F0553300F0AA3078
:1052800018438308800000F0CC3003F0333303432D
:1052900018091B0103F0F03300F00F30184300BA77
:1052A0007047FFFF30B585B0044600210DF10F00B7
:1052B00009F05AFE431C21D004F12405104BDFED08
:1052C000110A9FED110A9DF80F200194009300210F
:1052D000C3B2284609F0EEFE00220C2104462846FF
:1052E00009F0DAFF0440284609F040FFE4B2044028
:1052F000284609F062FF204005B030BD0020FBE7E2
:105300006D5300000000484200401C4630B5016863
:1053100002690D0185B004465059FFF7ABFF2A44DE
:1053200001905068FFF7A6FF02909068FFF7A2FF78
:105330000390D3686269A3610131B1FBF2F302FB10
:105340001311216049B994F8203003B9A361236E89
:1053500003B19847012384F85C300C2201A902486C
:105360000FF0BDFF05B030BD600700202C49F8B537
:105370000D680A682B4C0B68D210A25C5C4204F0EA
:10538000070403F0070358BF6342274C42FA03F3B4
:10539000226822F4384222F018022260226C22F4A1
:1053A000415222F03002DB07226404F140041CD594
:1053B0001E4B1F4F13F8152003EB45031C325B787F
:1053C00037F832201C331612360156FA82F237F8BB
:1053D000333004F5F864052644F822601A121201ED
:1053E00052FA83F3042244F823200B68602401332B
:1053F00093FBF4F204FB12330B6080B1046874B1C8
:10540000A36963B10CF00AFEE369C01AA36998426C
:1054100005D92046FFF77AFF0CF000FEE061F8BDE9
:105420005C0700206007002000000440DC840100CD
:105430008898010030B585B00B6800934B680193E4
:105440008B680293002501230560C0F810D04361EA
:1054500004460395FFF75AFFA56105B030BDF8B5C6
:105460000F46011D0E463D460024EB1BDBB29A425F
:105470000AD915F801CB01334CEA0404DB0604BF5A
:10548000346004366400F0E7FFF7D4FFF8BD1FB5C1
:10549000002301A9CDE901330393FFF7CBFF05B04A
:1054A0005DF804FB38B5002504460560C0E90655E3
:1054B00080F82050243009F095FC84F85C50204698
:1054C00038BDFFFF08B50249FFF7B4FF08BD00BFB4
:1054D000CC84010008B50249FFF7ACFF08BD00BF4E
:1054E000AC84010008B50249FFF7A4FF08BD00BF66
:1054F000BC84010010B50446FFF7D4FE2046BDE889
:105500001040FFF7EFBFFFFFF7B50D4B0D4F1B68C6
:105510000D4E019305460024019BA3420DDD284654
:10552000FFF7E0FF38680CF035FD2846FFF7AFFFC6
:1055300030680CF02FFD0134EEE703B0F0BD00BF82
:1055400008830100108301000C83010030B5602541
:10555000B1B004462A46304968460FF0C0FE2A46DC
:1055600069462046FFF77BFF4FF47A700CF012FD7E
:105570002A4600210DEB05000FF0D5FE01232A4637
:105580000DEB050120468DF86E308DF875308DF8E5
:105590007A308DF881308DF886308DF88D308DF829
:1055A00092308DF899308DF89E308DF8A5308DF8B9
:1055B000AB308DF8AC308DF8AD308DF8AE308DF865
:1055C000AF308DF8B030FFF74AFF4FF448700CF061
:1055D000E1FC2A4669462046FFF741FF4FF42F7051
:1055E0000CF0D8FC2046FFF76DFF4FF42F700CF045
:1055F000D1FC2A4669462046FFF731FF4FF42F7051
:105600000CF0C8FC2046FFF75DFF4FF42F700CF044
:10561000C1FC31B030BD00BF8B8301002DE9F041EA
:105620000C1EB2B0054641DB632C40DD03260DF1B4
:10563000C80801241AAB1F4600229C5401320C2AD0
:10564000FBD10C339845F7D1602239462846FFF745
:1056500006FFC8200CF09EFC2846FFF733FF4FF4EE
:10566000FA700CF097FC013EE4D1602231463846D6
:105670000FF059FE2846602239468DF87D408DF89E
:1056800088408DF893408DF89A408DF89E408DF8B3
:10569000A7408DF8A9408DF8B440FFF7E0FE4FF425
:1056A000FA600CF077FC32B0BDE8F0810024602293
:1056B000504902A80FF013FE0A2300930023194655
:1056C000642220460BF0B8F9012608AB14A9012288
:1056D000824202DC9E540132FAE70C338B42F6D14F
:1056E000602202A92846FFF7BAFE0CF097FC424B55
:1056F0001A6841F28831821A8A420AD8192194FB29
:10570000F1F201FB1242002ACDD13C4A1268A242BA
:10571000C9D01860394B192C1C6036D16022002189
:105720001AA80FF000FE012340F20112ADF8762016
:105730008DF87830ADF87A20ADF87C208DF8813086
:105740008DF889308DF895308DF89C308DF8A0302B
:105750008DF8A7308DF8AB30ADF8B220ADF8B4209D
:105760008DF8B7308DF8B8308DF8B93060221AA9AD
:105770002846FFF774FE40F2DC500CF00BFC602270
:1057800002A92846FFF76BFE8DE7322C05D1602277
:105790001B491AA80FF0A3FDE8E74B2CEBD16022C0
:1057A00000211AA80FF0BFFD012340F201128DF86D
:1057B00075308DF876308DF877308DF87830ADF81B
:1057C0007A208DF87C308DF884308DF889308DF812
:1057D00090308DF895308DF89B308DF8A0308DF895
:1057E000A6308DF8AB308DF8B130ADF8B6208DF81D
:1057F000B830BBE7EB8301006C070020DC0300201E
:105800004B84010070B5E0B0054660220021684677
:105810000FF089FD602201244FF0013600210DEBCD
:1058200002008DF827408DF82C408DF833408DF81C
:105830003840079610960FF076FD6022002130A8C0
:105840008DF871408DF872408DF87C408DF87F4066
:105850008DF887408DF88C408DF893408DF89840F6
:105860008DF8A0408DF8A3408DF8AD408DF8AE4086
:105870000FF059FD6022002148A88DF8DB408DF81B
:10588000E0408DF8E7408DF8EC408DF8F3408DF85E
:10589000F8408DF8FF408DF80441349643960FF0A0
:1058A00042FD602248A928468DF82E418DF83141ED
:1058B0008DF834418DF837418DF83A418DF83D41EE
:1058C0008DF840418DF843418DF846418DF84941AE
:1058D0008DF84C418DF84F418DF852418DF855416E
:1058E0008DF858418DF85B418DF85E418DF861412E
:1058F0008DF864418DF86A418DF86D418DF87041E5
:105900008DF87341FFF7ABFD4FF448700CF042FB8C
:105910000324602269462846FFF7A1FD4FF49670E4
:105920000CF038FB60220DEB02012846FFF797FDD3
:105930004FF496700CF02EFB602230A92846FFF73A
:105940008EFD4FF496700CF025FB013CE1D160B068
:1059500070BD4FF6FF7399421FBF0368CA0903EB7E
:10596000C20301F07F011ABF586800EBC10000209C
:10597000704710B50446B4F5803F08460BD20921A4
:10598000611808D203681B68984700B910BD01234D
:10599000C4808380FAE70020F8E7B1F5803F70B556
:1059A00006460D46144609D2136801F109029B68A8
:1059B00001462046984708B1C58070BD236820463F
:1059C0005B68314698470020F7E70A680B46526843
:1059D00001461846104738B50B79042B044605D00C
:1059E000052B0CD00023C0E9003306E00D682846E3
:1059F0000DB110F084FAC4E90050012305E00B68F2
:105A0000DA880833C0E9003200232372204638BD0B
:105A100038B5002383604368044643B905681F20F6
:105A20002968FFF7A6FF08B901232B71606038BD14
:105A300070B5044640680D4668B1A168C3889942B4
:105A400009D12668490032680131FFF7A6FF08B97D
:105A5000012333716060636823B1A2681344511C51
:105A6000A1601D7270BDFFFF10B50446C0E90012B1
:105A7000083003F077FF002384F82830034904F14D
:105A80002C000BF046FB204610BD00BFF781010043
:105A900002F0A6BA2DE9F04F5C4D46685C498DB026
:105AA000044606A80BF035FB296803A80BF031FB70
:105AB00003A906A80BF01FFC0146304602F0FCFBD0
:105AC00003A80BF0DBFA06A80BF0D8FA2068FFF762
:105AD00009FD504803F096F9032806D14D4803F01C
:105AE00095FA4FF47A700CF055FA4B4F29683A68E2
:105AF0004848484EDFF828A103F0B4F90CF08EFABC
:105B00008146DFF828B14FF00708304603F07AF9F4
:105B100003281FD00CF082FADAF80030A0EB09005D
:105B2000984217D259463D480BF0DDF94FF47A7090
:105B30000CF030FAB8F10108E7D1304603F066FA0C
:105B40004FF4FA700CF026FA3A682968304603F0F0
:105B500089F9D6E70CF062FA2E4E314F05463146F0
:105B600006A803F0E7F9002106A80BF072F9037804
:105B700073B3284803F046F9032834D1254906A811
:105B800003F0D8F9002106A80BF063F9037853B3AA
:105B90002449656803A80BF0BCFA1E4906A803F067
:105BA000C9F906A968460BF087F8694603A80BF007
:105BB000A2FB0146284602F07FFB68460BF05EFA26
:105BC00003A80BF05BFA2068FFF77CFC01201AE0C9
:105BD0000CF024FA3B68401B9842CAD24FF4FA708A
:105BE0000CF0D8F9BBE765680F4906A80BF091FAED
:105BF00006A9284602F060FB06A80BF03FFA2068D1
:105C0000FFF768FC00200DB0BDE8F08FD80300203E
:105C1000D88501002C140020D40300205C1800203B
:105C20001883010004860100ED8501000D8D01003F
:105C30002DE9F047002504460E46A946A28C276AA6
:105C4000ABB29A420FD907EBC3089A46D8F80410B2
:105C500019B1336830465B68984747F83A90013588
:105C6000C8F80490EAE70023A384BC424FF6FF7310
:105C7000238507D0336839465B683046984704234C
:105C80002462E384BDE8F0872DE9F3470E8D4FF6DB
:105C9000FF739E4205460C4617460CD0314604F170
:105CA0002000FFF756FE038823852860AE80284633
:105CB00002B0BDE8F0878B8C53B16E463046FEF7DC
:105CC000EFFA009B23B196E8030085E80300EEE7B6
:105CD000A28CE38C934217D1B3F5007F3FD05B00D9
:105CE0009EB2236A3968A3424FEAC6022FD10B68DD
:105CF000384611469847804688B3202221460FF047
:105D0000EEFAC4F82080E684B4F82480D4F820A009
:105D100008F101039BB2B3F5007FA3843B680CBF7D
:105D20007F268026F1001B68384698470AEBC80991
:105D3000002808BF00260023C9F8040021462AF8DD
:105D400038602846A9F80230FEF7AAFAAFE7D1F882
:105D5000088038461946C04780460028D1D1002324
:105D60002B604FF6FF73AB80A1E737B50A68044696
:105D70000D4668460C31FFF787FF009B43B90122AF
:105D800023604FF6FF732A71A380204603B030BD15
:105D9000BDF804202360A280F7E7FFFFFFFFFFFFAD
:105DA0002DE9F74F91F900302B2B044632D02D2BE3
:105DB00031D10131012591F90020A2F13003DBB28C
:105DC000092B01D92E2A28D1DFF868B28846002095
:105DD00000214FF0993A4FF00A0EC4461CF9013BDE
:105DE000A3F13002D2B2092A1DD88B4508BF8245E3
:105DF00020D30EFB01F3A0FB0E0119440023D2B205
:105E0000DF43D6438F4208BF864213D380185941DF
:105E1000E046E2E701310025CDE70023237020466C
:105E200003B0BDE8F08F2BB9E5B1B1F1004F08BF69
:105E300001280FD3764F00234FF0FF368F4208BF63
:105E4000864203F1010910D200230A220EF0F8FF66
:105E50004B46F3E702234042237061EB4101C4E962
:105E60000201DCE703232370F9E7A3EB080707EB44
:105E70000806434618F901CB32B2ACF13006F6B24F
:105E8000092EF4D9BCF12E0F22D1C6460FF2781993
:105E9000D9E900894FF00A0A73460EF1010E93F812
:105EA00000C0ACF1300C5FFA8CFCBCF1090F0FD8CC
:105EB000894508BF8045EFD3A0FB0A6716EB0C00AD
:105EC0000AFB017702F1FF3647F1000132B2E3E746
:105ED00093F9006026F02006452E66D193F9016003
:105EE0002D2E25D19F1C4FF0010C00264FF00A08E3
:105EF0003B4617F901EBAEF1300E5FFA8EF9B9F1BE
:105F0000090F26D808FB06E6B318B3F59A7FEFDD34
:105F1000BCF1000F13D0DFED3F7A9FED3F7A002DEB
:105F200018BFF0EE477A01232370C4ED027A76E7BA
:105F30002B2E14BF5F1C9F1C4FF0000CD5E70022D6
:105F40002DB1364B04212170C4E9022367E7344B9D
:105F5000F8E7BCF1000F00D0764293F90030002B37
:105F60007FF45BAF164406F126034C2B24D800299E
:105F700008BFB0F5000F1FD207EE900A002EF8EE12
:105F8000E77AD6BF27492849764200237EB1F20737
:105F900042BFDAB201EB820292ED007A4FEA660666
:105FA00048BF67EE877A0133F0E70026D5E7002D7A
:105FB000B9D0F1EE677AB6E70EF074FB002ECABFD7
:105FC0001A4B1B4B019380468946DCBF01937642F6
:105FD000002786B1F3070BD5F9B201A8FEF7FBF94C
:105FE0004046494653EC102B0EF092FB8046894602
:105FF00076100137EDE715B109F100439946042306
:106000002370C4E902890AE798999999999901003E
:10601000FFFF0F0000000000000000800000F0FF04
:106020000000F07F9C850100B485010040810100E3
:10603000F88001009999991970B5006878B1C48801
:106040004B689C42F9D10D6800239C4207D9C218C5
:10605000EE5692F908209642EFD10133F5E770BD74
:10606000D0E90132F0B5134400221A72D0E900568B
:1060700085B087688DF80C20044606F1080301A955
:1060800005F10800CDE90137FFF7D6FF78B92A6896
:1060900039463046FFF781FC08B901232B7123688C
:1060A0009A68026098600023636005B0F0BD838841
:1060B00001338380F9E72DE9F0418AB001AC84E82F
:1060C0000E00109D0F4671B907914FF6FF73ADF8A2
:1060D0002030079820B107A82946FEF761F80798F5
:1060E0000AB0BDE8F0810488DDF80880214605F19A
:1060F0002C00FFF72EFCADF818400590C0B1C38806
:10610000ADF81A30012607AC0599D9B19EB12046E9
:10611000FFF761FC089A42450DD1079900239A4286
:1061200012D017F903C0C856844504D10133F6E7ED
:106130004FF6FF73E4E7294605A886F00106FEF74F
:106140002FF8E1E70791C0E705AB93E8030084E887
:106150000300BEE730B5054689B00C46084609B1D4
:106160000FF0CDFECDE9024000248DF8104002AAC8
:1061700095F83C3007CA202B08BF05F1380405AB61
:1061800083E807004CB100950ECB2046FFF793FF44
:10619000003018BF012009B030BD2046F8E72DE9D6
:1061A000F04188B001AC054684E80E00084679B19C
:1061B00094E807002F4605AE57F8088B86E80B00D9
:1061C00031463846FFF738FF28B183880133838092
:1061D00008B0BDE8F081069C41462046FFF7C9FBA8
:1061E00010B901232B71F3E7059E00F1080200238B
:1061F0009C4203D0F156D1540133F9E70444002303
:106200002372AB680360A860E2E72DE9F0470468F9
:1062100014F1380694B00746884629D100263C6818
:106220004046B8F1000F01D00FF069FE0023CDE920
:106230000E808DF840309EB121463046FDF7E0FFDC
:106240000EAA07CA11AB83E80700B8F1000F07D008
:106250000ECB2046FFF7A3FF10B10523337130604A
:10626000386810B1007980F0010014B0BDE8F08703
:10627000021D07CA02AB83E8070081460028CDD083
:1062800094F83C20002A4AD1202284F83C204FF682
:10629000FF7222876287CDF8089093E8070005AD6A
:1062A00085E807000094304695E80E00FFF703FFED
:1062B00006460028B3D195E807000DF1200A8AE8C8
:1062C000070021460EA8FEF708F80E9D002DA5D068
:1062D000214611A8FEF701F8119E002E9ED09AE8E3
:1062E00007000BAB83E807009DF82820D2B10423F8
:1062F0002B71C5F80090BDF84890A5F80690618F05
:10630000BDF83CA04FF6FF73994216D004F12C0063
:10631000FFF71FFBA0F806A0A4F83A907FE7202A19
:10632000B9D07BE70ECB2046FFF739FF00283FF4BA
:1063300075AF05232B712860DDE7A4F838A0EBE7E3
:1063400030B585B001466846FFF72AFD9DF800305C
:10635000013B032B48D8DFE803F00218242FDDEDC2
:10636000027A9FED257AF4EEC77AF1EE10FA3BDB64
:106370009FED227AF4EEC77AF1EE10FA34D8FDEEF2
:10638000E77A17EE900A05B030BDDDE9020110F1A1
:10639000004241F10003012B08BF002A28BF002062
:1063A000F1E7DDE9020100238B426FF0004208BFF4
:1063B000824238BF0020E6E7DDE902450022104BAB
:1063C000204629460EF02AFC0028DCD008A3D3E999
:1063D0000023204629460EF017FC0028D3D0204683
:1063E00029460EF045FCCEE70020CCE7AFF3008055
:1063F0000000C0FFFFFFDF41000000CFFFFFFF4EA6
:106400000000E0C1FFFFFFFF38B5057904460B46E9
:10641000018815F0100003D003F12C00FFF799FA62
:10642000043D1A2D62D8DFE805F02D310E6161615F
:106430001061146134616161616161616161616117
:10644000166121614900207838BD206820EAE0709B
:10645000FAE72068F8E7D0E9000100238B426FF0EB
:10646000004208BF824238BF0020EDE7D0E90001BA
:1064700010F1004241F10003012B08BF002A28BFA0
:106480000020E1E72068FFF75BFFDDE720680830C8
:10649000F9E7D4ED007A9FED187AF4EEC77AF1EEC1
:1064A00010FA23DB9FED157AF4EEC77AF1EE10FABD
:1064B0001CD8FDEEE77A17EE900AC5E7D0E9004553
:1064C00000220F4B204629460EF0A8FB0028BBD027
:1064D00007A3D3E90023204629460EF095FB0028A8
:1064E000B2D0204629460EF0C3FBADE70020ABE753
:1064F0000000C0FFFFFFDF41000000CFFFFFFF4EA5
:106500000000E0C1437E6BB9D0E9043293423DBF45
:106510005A1C02611B784FF0FF3323EAE3730376C2
:106520000123437690F91800704738B504460025DA
:106530002046FFF7E7FF0A2806DC092808DA48B1F9
:106540000123237300200AE00D2801D02028F7D171
:106550006576EDE7237B002B14BF0220012038BDB8
:1065600070B505464C1E002614F9010F50B128469F
:10657000FFF7C8FF28B194F90030834203D16E764B
:10658000F2E7022070BD0320FCE72DE9F04387B05D
:1065900006460D46FFF7B6FF002427462F28E3B234
:1065A0000BDD39280BDC0134402C24D033197776ED
:1065B000D8773046FFF7A6FFF0E72B28F3D0A0F1FD
:1065C0002D02D2B2012AEED920F0200252B2452A81
:1065D000E9D03344002283F8202006F1200102A8EC
:1065E000FFF7DEFB9DF80830013B032B62D8DFE8A4
:1065F00003F03924043E3F23EBE7DDE90489B9F1D8
:10660000010F08BFB8F1000F07D20A232B71C5F89C
:106610000080002007B0BDE8F083F1696846FFF70D
:10662000A4FB009B0BB90420F4E71A222A71BDF8E1
:1066300004202A80C3E90089EBE7DDE9048918F129
:10664000004249F10003012B08BF002A01D20C23AC
:10665000DCE7F1696846FFF788FB009B002BE2D07E
:106660001C22E3E70E232B71049B2B60D1E7DDE9AD
:106670000489494640460EF043FB07460DF0F0FF03
:1066800002460B46404649460EF0AAFA18B10E23C0
:106690002B712F60BDE7F1696846FFF766FB009B31
:1066A000002BC0D01E222A71BDF804202A80C3E925
:1066B0000089AEE70320ADE770B550F8046B07C85A
:1066C0008CB003AB16F1380583E8070002D1002037
:1066D0000CB070BD93E8070096F83C30202B06AC58
:1066E00009AB18BF002584E8070083E80700002DE8
:1066F000EDD000960ECB2846FFF7DDFCE8E770B53D
:106700000646FFF7D9FF054688B10479018814F0E1
:10671000100003D030682C30FFF71BF90C2C29D067
:1067200006D8062C24D00A2C24D07CB3012070BDBE
:106730001A2C24D00BD80E2CF8D1D5ED007AF5EE1A
:10674000407AF1EE10FA14BF01200020EFE71C2C74
:1067500015D01E2CEAD100220023D0E900014FF011
:1067600001040EF03DFA08B14FF00004E0B2DEE79C
:106770002878DCE72868003018BF0120D7E7D0E987
:106780000023134314BF01200020D0E72046CEE7AA
:10679000F8B506460F46FFF78FFF3368054668B128
:1067A0000479018814F0100003D003F12C00FFF7E6
:1067B000D0F80C2C1AD003D80A2C12D038681CE060
:1067C0001A2C1BD01C2CF9D1D0E9002312F1004067
:1067D00043F10001012908BF002834BF0123002331
:1067E00002E02B68DB43DB0F002BE7D03046FFF7DE
:1067F00063FF316808B1FFF707FEF8BDD0E9002359
:10680000002199426FF0004008BF90422CBF012345
:106810000023E9E738B504460D46FFF773FEA842AA
:106820004FF0000004BF6076012038BD7F2837B5E7
:106830000C4605D841B22046FFF7FAF803B030BD48
:1068400000238DF8003000F03F03800982B263F02E
:106850007F031F2A8DF80130C3B20DD863F03F03C8
:106860008DF802300DF1030515F9011D0029E5D061
:106870002046FFF7DDF8F7E7C0F3891003F03F0388
:1068800063F07F030F288DF80230C3B205DC63F09C
:106890001F038DF8033001ADE6E703F03F038011DD
:1068A00063F07F0360F00F008DF803308DF8040073
:1068B0000DF10505D8E7FFFF2DE9F0478046FFF70A
:1068C00021FE0024384E88F81940074625464046E8
:1068D000FFF718FE8742014688F819505CD010B9BE
:1068E0000220BDE8F0875C2852D14046FFF70AFE3F
:1068F0000028F5D075283CD188F819504FF00409CC
:106900004FF0000A4046FFF7FDFD0028E8D0402880
:10691000CBBF20F020023038373AC3B2C8BFD3B261
:106920000F2B01D90320DCE709F1FF3943EA0A13F1
:1069300019F0FF091FFA83FA88F81950E2D10AF515
:1069400020539BB2B3F5806F02D2CAF30904BEE7AD
:106950000AF510539BB2B3F5806F3DBFCAF3090A25
:106960004AEA842A0AF5803050464146FFF75EFF26
:10697000ADE700239A579919002AD3D0904203F12A
:106980000203F7D191F901100029CBD088F81950F2
:106990004046FFF74DF89AE7D8F80430002B0CBFBB
:1069A000042000209DE700BFE58101002F280EDDB7
:1069B000392803DD5E2803DD7A2803DC01207047D7
:1069C000402804DD5A28CCBF002001207047002059
:1069D000704770B50446FFF71BF82046FFF792FD9D
:1069E00027281ED022281CD02046FFF78BFD054605
:1069F000FFF7DCFF98B10026294620466676FFF7B0
:106A000017F82046FFF77EFD0546FFF7CFFF002869
:106A1000F2D16368002B0CBF0420002000E00320AB
:106A200070BD2046FFF748FFFAE72DE9F04F5FFA07
:106A300083F98DB004460D46B9F1000F00F08A804D
:106A400000234376FFF771FDB0B97D212046FFF7A3
:106A5000E1FE80B909AF2046FFF7BBFF60B92046D1
:106A6000FFF763FD064638B93A212046FFF7D2FE0C
:106A700028B9032000E000200DB0BDE8F08FD4E974
:106A8000013213448DF82C601E72D4E901320833B0
:106A9000CDE90932E369009397E80E002846FFF735
:106AA0000AFB8046002851D12046FFF7D9FAD4F8D6
:106AB0001CB08246594605A8FDF70FFC059E0EB98D
:106AC0000420D9E7594607A8FDF707FCDDF81C802C
:106AD000B8F1000FF4D0C6F800A0BDF820A0A6F8C9
:106AE00006A069884FF6FF72052391423371BDF805
:106AF000183029D00BF12C000393FEF72AFF039BDB
:106B0000C380A5F802A009F1FF334FF0000241460F
:106B1000204600F021F80028AED12046FFF705FD01
:106B20000028A9D17D212046FFF774FE0028A2D1BC
:106B30002C212046FFF76EFE00289AD02046FFF752
:106B4000F4FC002887D097E72B80DAE7E169FDF7AE
:106B500057FBD8E705208FE7F8B506460C461F46D9
:106B6000FFF7E3FC0546C8B93046FFF7CBFC6628C3
:106B700044D015DC272803D05B2819D0222842D125
:106B80003046FEF745FF3046FFF796FE054628B92A
:106B90003046FFF765FA0523237120602846F8BDCB
:106BA000742822D07B2812D06E282CD1184921E0DD
:106BB000402323714FF6FF73238063804FF0000260
:106BC0003B462146304600F029F80546E6E72023FB
:106BD00023714FF6FF73238063804FF000023B4622
:106BE00021463046FFF721FFEFE7062323710949CD
:106BF000012323703046FFF7B3FCE6E70623237139
:106C000025700549F6E721463046FFF7BEFCDCE774
:106C1000E0810100FF810100048201002DE9F347BA
:106C2000DDB204460E46002D46D000234376FFF722
:106C30007CFCA8B95D212046FFF7ECFD78B94FF642
:106C4000FF7A013DD4F81C9068464946FDF745FBA4
:106C5000DDF80080B8F1000F05D1042000E000202D
:106C600002B0BDE8F0877188BDF80470514521D0AD
:106C700009F12C00FEF76DFEC78077802B464FF0A0
:106C8000000241462046FFF767FF0028E8D1204672
:106C9000FFF74BFC0028E3D15D212046FFF7BAFD4A
:106CA0000028DCD12C212046FFF7B4FD0028C9D1F3
:106CB0000320D5E73780E0E70520D1E72DE9F04153
:106CC00004460E688D68016898B000F138070C30F2
:106CD000FEF7AEFF0023D4F8008023713544A0688E
:106CE00028B10368A3604146FEF76FFEF7E784F81A
:106CF0003C00CDE9004002908DF80C008DF81900A1
:106D00004FF00A034FF0000239466846CDE90465AA
:106D10000794FFF721FF054640B99DF918302BB1C4
:106D200094F83C3013F0080F18BF0325019818B1F0
:106D3000009B1968FEF749FE284618B0BDE8F081AF
:106D4000014803F079B800BF7007002010B541F288
:106D50007D6186B00446134803F08AF82046FEF7AA
:106D600099FE114801F056FB01F04CFB64680228C3
:106D70000CBF0E490E4968460AF0CBF96946204619
:106D800001F07EFA68460AF079F96846094902F08E
:106D9000D1F8094B1A68094B6846196801F062F985
:106DA00006B010BD70070020597000004C8D010026
:106DB0005E8D01002C140020D4030020D803002095
:106DC0002DE9F04F914B8FB01B68019304460F469D
:106DD0009046002603F1FF39019BB34240F30F8137
:106DE00056B38B49656808A80AF093F90A22314620
:106DF00005A80AF0ADF905A908A80AF07CFA8549AA
:106E00000AF085FA0A22824649460BA80AF0A0F940
:106E10000BA950460AF06FFA0146284601F030FAF5
:106E20000BA80AF02BF905A80AF028F908A80AF01F
:106E300025F92068FEF768FB774801F0E3FF032897
:106E40001CD12546DFF808A255F8080BFEF74AFBCF
:106E5000724BDAF800101A88284602F049FA30BB63
:106E600065686F490BA80AF054F928460BA901F090
:106E700007FA0BA80AF002F90136ADE7656869491F
:106E80000BA80AF046F90BA9284601F0F9F90BA85E
:106E90000AF0F4F82068FEF71DFB2046FEF7FAFD25
:106EA00082460028CDD150460FB0BDE8F08F5E4934
:106EB00005A80AF02EF9414605A80AF01CFA5B491C
:106EC0000AF025FA5A490AF022FADAF80010834645
:106ED00008A80AF01EF908A958460AF00CFA554904
:106EE000DFF870B10AF013FA53490AF010FA534967
:106EF0000AF00DFA0A228246B9680BA80AF03AF99C
:106F00000BA950460AF0F7F94A490AF000FA4C4931
:106F10000AF0FDF939460AF0EEF9014602A80AF036
:106F20006FF90BA80AF0AAF808A80AF0A7F805A8B4
:106F30000AF0A4F802A9284609F0D0FF0BF06EF879
:106F400082460BF06BF8DBF80030A0EB0A009842A9
:106F50004CD2284602F064FA00284CD0294605A8F5
:106F60000AF060F8284602F0DFFB364908A80AF06C
:106F7000D0F808A905A80AF05DFA002830DC3249EB
:106F80000BA80AF0C6F80BA905A80AF053FA0028C6
:106F90000BA8D4BF4FF0000A4FF0010A0AF06EF8B8
:106FA00008A80AF06BF8BAF1000F1CD027496568F1
:106FB0000BA80AF0AEF841460BA80AF09CF901466E
:106FC000284601F05DF90BA80AF058F82068FEF792
:106FD00079FA05A80AF052F802A80AF04FF862E719
:106FE0004FF0010ADCE705A80AF048F8284602F04D
:106FF0009BFB02A83EE70A200AF0CCFFA1E720682D
:10700000FEF768FA4FF0000A4DE700BF0483010065
:1070100012880100218801002C1400201483010033
:107020004A88010026880100668801006C880100FA
:1070300078880100C48801007F880100A0880100D1
:10704000B1880100C7880100CE880100DA880100FC
:10705000D0030020F88201002DE9F04190B03022E9
:10706000002104A80EF05FF91D4B04931D4B1E4E2A
:1070700093E8070001AD85E8070000247B2255F85E
:107080002410304603F034F8302204A9304603F0CF
:10709000DBF8304603F0A0F80AF0C0FF41F2873871
:1070A00007460AF0BBFFC01B404514D8304603F02A
:1070B0000BF960B1302204A90B4802F080FE0E9B50
:1070C0000A481BBA1844002110B0BDE8F0810A201C
:1070D0000AF060FFE5E70134032CCFD10020F2E78E
:1070E000E30006ECCC850100700700208081557C10
:1070F0002DE9F04FB24BB34F00F108050446B3B091
:107100008946904639681A88284602F0F1F8666880
:10711000824678B9AC4912A809F0FBFF304612A9A3
:1071200001F0CAF812A809F0A9FF5646304633B05C
:10713000BDE8F08FA549DFF8D8A2DFF8D8B212A8D1
:1071400009F0E7FF12A9304601F0B6F812A809F0DD
:1071500095FF9F49666812A809F0DBFF0A224146A5
:107160000EA809F0F5FF0EA912A80AF0C4F8994973
:107170000AF0CDF80146304601F082F80EA809F079
:107180007DFF12A809F07AFF9349666812A809F0FA
:10719000C0FF494612A80AF0AEF80146304601F099
:1071A0006FF812A809F06AFF2068FEF72BFB8B49E5
:1071B0000EA809F0AEFF49460EA80AF09CF88849CF
:1071C000DFF854920AF0A3F886490AF0A0F839686B
:1071D000064612A809F09DFF12A930460AF08BF866
:1071E00081490AF094F881490AF091F8014605A80E
:1071F0000AF006F812A809F041FF0EA809F03EFFB8
:1072000005A9284609F06AFE0AF008FF06460AF0BA
:1072100005FFD9F80070801BB84207D2284602F05B
:10722000FFF8B8B90A200AF0B5FEF0E764687049C3
:1072300012A809F06EFF204612A901F03DF812A82D
:1072400009F01CFF284602F06FFA002605A809F095
:1072500015FF6BE70A2229460EA809F0F7FE6368BE
:107260000093514612A809F054FF0EA912A80AF083
:1072700042F8009B0146184601F002F812A809F0F6
:10728000FDFE59460EA80AF071F820B30EA809F0C9
:10729000F5FE6668574912A809F03BFF12A930466F
:1072A00000F0EEFF12A809F0E9FE404600F014FFDE
:1072B000D4F80490064690B94F4912A809F029FF66
:1072C000484612A900F0F8FF12A809F0D7FE284698
:1072D00002F02AFABAE70EA809F0D0FEA2E7474961
:1072E00012A809F016FF12A9484600F0C9FF12A81B
:1072F00009F0C4FE0AF092FE83460AF08FFE0021D8
:1073000082462068FEF78AF9284602F089F878B9A3
:1073100066683B4912A809F0FCFE12A9304600F04D
:10732000AFFF12A809F0AAFE4FF47A700AF032FEFD
:1073300007EB470300934FF0FF390027474580F2E2
:1073400016810AF06BFE009BA0EB0B0098420ED951
:1073500064682C4912A809F0DCFE204612A900F04E
:10736000ABFF12A809F08AFE00F0E2FE6AE70AF01D
:1073700055FE42F21073A0EB0A00984202D96468ED
:107380002149E7E7284602F04BF8002800F0BA80D0
:10739000802212A9284602F03CF9061E3EDC6668EF
:1073A0001A490EA809F0B5FE0EA9304600F068FF94
:1073B0000EA809F063FE64200AF0ECFDBEE700BFF2
:1073C00014830100D00300208C8A0100B18A0100DF
:1073D000CD8A0100DB8A0100E28A0100F18A010006
:1073E0006C88010078880100C4880100B188010020
:1073F000F68A0100228B0100428B01006A8B01009A
:107400008A8B0100B38B0100DD8B01000B8C010026
:10741000178B0100208B0100F88201000AF0FEFDAD
:107420003146824612A800F063FE86422AD00090C0
:10743000AB4964680BA809F06CFE0A22314608A823
:1074400009F086FE08A90BA809F055FFA54909F027
:107450005EFF009B0A22194606460EA809F078FE38
:107460000EA9304609F047FF0146204600F024FFF0
:107470000EA809F003FE08A809F000FE0BA809F009
:10748000FDFD71E73744642605237E4396FBF8F63D
:1074900096FBF3F299FBF3F39A427FF74FAF314635
:1074A0002068FEF7BBF863688F4901930BA809F0C9
:1074B00030FE0A22394608A809F04AFE08A90BA89E
:1074C00009F019FF894909F022FF0A228146314655
:1074D0000EA809F03DFE0EA9484609F00CFF8449AC
:1074E00009F015FF019B0146184600F0C9FE0EA8E1
:1074F00009F0C4FD08A809F0C1FD0BA809F0BEFD04
:10750000B1461BE7284602F04BF9064668BB7949AD
:1075100064680EA809F0FDFD0A2239460BA809F09F
:1075200017FE0BA90EA809F0E6FE734909F0EFFE5D
:107530000A220746414612A809F00AFE12A9384657
:1075400009F0D9FE6D4909F0E2FE0146204600F03F
:10755000B3FE12A809F092FD0BA809F08FFD0EA84A
:1075600009F08CFD00F0E4FDB1E60A2024E728468E
:1075700002F0DAF812AD66686149284609F0C9FDE3
:107580002946304600F07CFE284609F077FD00F0E1
:10759000C7FD6768064658B95A49284609F0B9FD3B
:1075A0003846294600F088FE284609F067FD4DE67A
:1075B0005549284609F0ADFD2946384600F07CFEC5
:1075C000284609F05BFD67685049284609F0A1FD8F
:1075D0002946384600F054FE284609F04FFD206841
:1075E0006421FEF71BF84A4B129300238DF84C30B0
:1075F00014938DF88430474B0F93082315AA1093EA
:10760000454B1D924FF4802201271E9219688DF878
:1076100044704FF6FF720EA8ADF87C20ADF88620BE
:107620000E95FEF7F2FD3D4B0F930F2310933C4B4D
:107630008DF8447019680E950EA8FEF7E6FD394BDB
:107640000F9309231093384B8DF8447019680E95E9
:107650000EA8FEF7DAFD354908A809F05AFD20AB5F
:10766000CDE9033503AB93E8030008AAFDF7F2FA6E
:1076700067682F490EA809F04CFD0EA9384600F0A6
:10768000FFFD0EA809F0FAFC08A90BA809F0B8FD47
:1076900028490EA809F03DFD0EAA0BA92046FFF7C8
:1076A0008FFB0EA809F0EAFC0BA809F0E7FC40F6F6
:1076B000B8300AF06FFC64681F490EA809F029FD74
:1076C0000EA9204600F0F8FD0EA809F0D7FC00F046
:1076D00035FD08A809F0D2FC2846FCF72BFDB5E5DE
:1076E000308C0100578C0100618C01006E8C010010
:1076F000778C01007A8C0100A88C0100DB8A0100E4
:10770000AA8C0100BC8C0100DA8C0100FC8C010009
:10771000B8030020C4820100C4030020D782010006
:10772000C8030020CD820100CC030020F7810100B6
:107730000F8D01005A8301002F8D01002DE9F041CA
:10774000A0B010AE0F464468B2490546304609F075
:10775000E0FC3946304609F0CEFD0146204600F0F7
:107760008FFD304609F08AFCAB4B109313AB1B9393
:107770004FF4802300241C9339464FF6FF733046A4
:107780008DF844401294ADF874308DF87C40ADF81B
:107790007E30FFF793FAC7B2FFB1A0496D680CA81D
:1077A00009F0B7FC9E4B09A853F8271009F0B1FC6B
:1077B00009A90CA809F09FFD0146284600F07CFDB0
:1077C00009A809F05BFC0CA809F058FC3046FCF74E
:1077D000B1FC204620B0BDE8F081924F30463946DA
:1077E000FEF7B8FC044650B96D688F490CA809F043
:1077F00090FC28460CA900F05FFD0CA83CE0CDE908
:107800000C670F2301270CA80E938DF83C70FEF730
:1078100076FF85F82800002833D1844B0D930CA8FF
:1078200007230C960E938DF83C70FEF745FF30B39E
:107830000379043BBB4222D80CA8FEF73DFF01466A
:1078400018B109A8FEF7C7F8099909A809F061FC61
:1078500077496F680CA809F05CFC09A90CA809F02D
:107860004AFD0146384600F027FD0CA809F006FC49
:107870002868FDF727FE09A809F000FCA6E76D4976
:10788000E3E7DFF8E88130464146FEF763FC044653
:1078900010B96D686849A9E768493046FEF75AFC97
:1078A000044610B96D686649A0E70D230CA88DF851
:1078B0003C70CDE90C680E93FEF7FEFE61490C9F0B
:1078C000044606A809F025FC002C00F0998021460A
:1078D00009A8FEF780F80999002900F0918006A810
:1078E00009F09EFC05F12C0406A9204609F092FC43
:1078F00006A809F0C3FB54496F680CA809F009FCFD
:1079000021460CA809F0F7FC0146384600F0B8FC07
:107910000CA809F0B3FB4D496F680CA809F0F9FBFE
:107920004B4B09A8196809F0F4FB09A90CA809F048
:10793000E2FC0146384600F0A3FC09A809F09EFBD2
:107940000CA809F09BFB2868FDF700FE414909A837
:1079500009F0DFFB404B06A8196809F0DAFB06A91D
:1079600009A809F0C8FC3D4909F0D1FC214609F0FD
:10797000C2FC3B4909F0CBFC3A4B044619680CA801
:1079800009F0C7FB0CA9204609F0B5FC014603A885
:1079900009F036FC0CA809F071FB06A809F06EFB93
:1079A00009A809F06BFB254B0D9304230E934FF0B0
:1079B0000008012309A90CA80C968DF83C30CDF8DD
:1079C0002480FEF7E5FE071E6C6851DC26490CA8F2
:1079D00009F09FFB0A22394609A809F0B9FB09A959
:1079E0000CA809F088FC0146204600F065FC09A8B7
:1079F00009F044FB0CA809F041FB444603A83BE70F
:107A0000CDE9014701AB06AA93E80300FDF722F98F
:107A100068E700BF0A890100B8030020248901003B
:107A2000E003002037890100478901007E890100B9
:107A300086890100F5880100A4890100D089010030
:107A4000D5890100F7810100F8890100128A01003F
:107A5000C80300202D8A0100C40300204E8A0100C3
:107A6000588A0100CC030020648A01009689010035
:107A700012490CA809F04DFB0A22394609A809F061
:107A800067FB09A90CA809F036FC0D4909F03FFC79
:107A90000146204600F0F4FB09A809F0EFFA0CA813
:107AA00009F0ECFA4FF4FA600AF074FA3A4603A9C6
:107AB0002846FFF71DFB0446A0E700BF7C8A0100B3
:107AC000DB8A01002DE9F04F4568B34997B00446C1
:107AD00013A809F01EFB13A9284600F0EDFBAF4DDB
:107AE00013A809F0CBFAAE49666813A809F011FB98
:107AF000296810A809F00DFB10A913A809F0FBFBD9
:107B00000146304600F0BCFB10A809F0B7FA13A8F4
:107B100009F0B4FA2068FDF7E5FCA24801F072F91B
:107B2000032811D06568A04913A809F0F2FA13A937
:107B3000284600F0C1FB13A809F0A0FA2068FDF761
:107B4000C9FC17B0BDE8F08F98490DA809F0E1FA1B
:107B5000974B0AA8196809F0DCFA0AA90DA809F0E0
:107B6000CAFB944909F0D3FB2968064610A809F01E
:107B7000D0FA10A9304609F0BEFB8F498F4E09F0AC
:107B8000C6FB8F4B0546196813A809F0C2FA13A962
:107B9000284609F0B0FB014601A809F031FB13A803
:107BA00009F06CFA10A809F069FA0AA809F066FA57
:107BB0000DA809F063FA8349656813A809F0A9FACA
:107BC00001A913A809F097FB0146284600F058FBCD
:107BD00013A809F053FA7C4B31681A8804F10805A0
:107BE000284601F085FB90B96568784913A809F02B
:107BF00090FA13A9284600F05FFB13A809F03EFA9B
:107C00002068FDF767FC01A809F038FA99E7704988
:107C1000DFF8E891DFF8E8A1DFF8E8B110A809F093
:107C200078FA01A910A809F066FB6A4909F06FFB10
:107C3000694909F06CFB3168074613A809F069FA35
:107C400013A9384609F057FB644909F060FB644901
:107C500009F05DFB014604A809F0D2FA13A809F067
:107C60000DFA10A809F00AFA04A9284609F036F915
:107C700066685C4913A809F04CFA13A9304600F075
:107C8000FFFA13A809F0FAF9574907A809F041FAD1
:107C90000AF0C4F9544980460AA809F03AFA0027C4
:107CA0003E460AF0BBF9D9F80030A0EB0800984234
:107CB00080F0E980284601F0B3FB002800F0AD8099
:107CC0000A2229460DA809F0C1F9514613A809F066
:107CD00020FA13A90DA809F073FB064613A809F0B2
:107CE000CDF9002E40D04149666813A809F011FA79
:107CF0000DA913A809F0FFFA0146304600F0C0FABA
:107D000013A809F0BBF93A4913A809F002FA13A91C
:107D10000DA809F08FFB064613A809F0AFF9002E55
:107D200022DA3449666813A809F0F3F90DA913A8FB
:107D300009F0E1FA0146304600F0BEFA13A809F056
:107D40009DF9284601F0F0FC2068FDF7C3FB0DA863
:107D500009F094F90AA809F091F907A809F08EF939
:107D600004A809F08BF94EE759460DA809F0FEFA70
:107D70000646002848D067681F4913A809F0C9F9CA
:107D800013A9384600F07CFA13A809F077F90DA87A
:107D900009F074F9374684E719860100C80300200A
:107DA0003A8601002C1400204C86010076860100E2
:107DB000C403002094860100588A0100D0030020EB
:107DC000CC030020A586010014830100B8860100C1
:107DD000F18A01006C88010078880100C4880100E4
:107DE000B1880100DB860100F7810100FD860100FA
:107DF000C78801000F87010030870100F882010069
:107E0000F5860100208B01008FB10DA90AA809F0A9
:107E100051FA0DA809F032F90126284601F0C0FCFC
:107E200008B9002E2FD10A200AF0B4F839E76249C8
:107E300010A809F06EF910A90DA809F0C1FA0646BC
:107E400058B95E4913A809F064F913A90DA809F0FF
:107E5000B7FA064613A809F011F910A809F00EF9AF
:107E6000002ED6D05649666813A809F052F90DA91C
:107E700013A809F040FA0146304600F001FA13A8B1
:107E800009F0FCF8C5E7284601F04EFC66B96568C4
:107E90004C4913A809F03DF9284613A900F00CFA43
:107EA00013A809F0EBF869E067B30C9B53B30AA879
:107EB00009F017FB7B210AA809F0A7FA7D210546E6
:107EC0000AA809F0D1FA002D5CDA65683E4913A8CA
:107ED00009F01FF913A9284600F0EEF913A809F0DC
:107EE000CDF83A49656813A809F013F90AA913A84F
:107EF00009F001FA0146284600F0C2F913A809F07A
:107F0000BDF855E06568324913A809F002F913A9D4
:107F1000284600F0D1F913A809F0B0F82D4965689A
:107F200013A809F0F6F80A22394610A809F010F94A
:107F300010A913A809F0DFF90146284600F0A0F9BE
:107F400010A809F09BF813A809F098F82249656871
:107F500013A809F0DEF80A220C9910A809F00AF912
:107F600010A913A809F0C7F90146284600F088F9BE
:107F700010A809F083F813A809F080F82068FDF72D
:107F8000A9FAE7E60028A0DB431C2A460AA913A8A1
:107F900009F06EFA13A90AA809F03CF913A809F030
:107FA0006DF80AA92046FFF7C9FB00287FF4D2AE7E
:107FB00065680A496DE700BF4F8701005D870100D2
:107FC000178B01006D870100C9870100EE87010052
:107FD0008E870100AB870100BB870100FE8701008F
:107FE00010B50A4C88B004F13001684601F058FD24
:107FF0006946204603F050F8684601F02DF904F177
:108000006001204602F08EFE08B010BD480D002031
:1080100010B5084C204602F0BDFD04F130004FF4CD
:108020007F4101F02BFD04F16000BDE8104001F03C
:1080300003BF00BF480D002010B5084C084B236358
:1080400004F1400001F008F904F10C0009F016F801
:108050002046BDE8104009F011B800BF480D0020CF
:1080600058930100F0B5031D05460E4617460FCB89
:108070008FB003AC84E80F00144B089394E80F0012
:1080800095F814C0124C8DF834C009AD85E80F0086
:10809000104B009332463B4608A9204602F090FD63
:1080A00004F1300001F0AEFDFB23009300231A46DB
:1080B000E02108A808F09EFD41F2E94208A904F178
:1080C000600001F057FF0FB0F0BD00BFA49A01009F
:1080D000480D00208C160020014608B5034802F028
:1080E000A3FC003018BF012008BD00BF8C16002083
:1080F0002DE9F041094F054600EB010804464445CF
:10810000A4EB050606D014F8011B384602F0C6FCA5
:108110000128F4D03046BDE8F08100BF8C16002065
:1081200008B5024802F0A8FC012008BD8C1600200A
:10813000014802F0A1BC00BF8C160020014802F0EB
:10814000F7BC00BF8C16002038B50D460449044624
:1081500006231622097802F0D3FA6561204638BD5D
:10816000FC82010070B52DED028B8AB045693A4959
:10817000044607A808F0CDFF07A9284600F09CF8A0
:1081800007A808F07BFF3721204602F0BFFA4FF422
:10819000FA6009F0FFFE00221146204602F05CFB67
:1081A00000212046F0EE408A02F0F2FBF4EE688AED
:1081B000F1EE10FAB0EE408A656940D6B4EE400A9E
:1081C000F1EE10FA3BD6254904A808F0A2FFB0EE64
:1081D000680A022101A809F02DF801A904A809F0F4
:1081E0008AF81F4909F093F8B0EE480A06460221C2
:1081F00007A809F01FF807A9304609F07CF81949CB
:1082000009F085F80146284600F03AF807A808F07A
:1082100035FF01A808F032FF04A808F02FFF6469B9
:10822000114907A808F075FF07A9204600F044F897
:1082300007A808F023FF0AB0BDEC028B70BD0B4904
:1082400007A808F066FF284607A900F035F807A838
:1082500008F014FFE3E700BFE08D0100F88D010096
:108260000F8E0100718201005C8E01001E8E0100E4
:108270000022114602F0F0BA002102F089BB7047DB
:10828000014808F03FBE00BF5C180020F8B508495F
:10829000084E0546174608F03CFF0024BC4205DAAC
:1082A0003146284609F017F80134F7E72846F8BDAB
:1082B000F78101007D970100F0B5224C8A68224DBC
:1082C000224E87B00F4601466846FFF7DFFF214682
:1082D00003A808F01EFF694603A809F00CF8214620
:1082E00009F015F80146284608F00CFE03A808F02E
:1082F000C5FE314603A808F00CFF394603A808F074
:10830000FAFF314609F003F80146284608F0FAFD65
:1083100003A808F0B3FE214603A808F0FAFE694658
:1083200003A808F0E8FF214608F0F1FF01462846BF
:1083300008F0E8FD03A808F0A1FE684608F09EFEDC
:1083400007B0F0BD738E01005C180020768E01002E
:10835000014807F0A7BE00BF5C18002008B5074B16
:108360001860074B1B681844064B1860064B022226
:108370001A7009F053FE054B186008BD8C130020DD
:10838000F8030020841300208813002080130020AD
:1083900038B5164D164C09F041FE2B68C01AB0F5E1
:1083A0007A7F06D3226803F57A73013222602B604C
:1083B000F1E7104D23682A689A4208D80E4B1B68D3
:1083C0002BB1984750EA010304D0FFF7C7FF20689C
:1083D000002138BD094A236812681344084A2B60FB
:1083E0001378003318BF01231370F0E780130020C7
:1083F0008C1300208413002090130020F803002029
:108400008813002008B5FFF7C3FF014B187808BD9B
:1084100088130020034B1860034B1A68034B1A6043
:10842000FFF7B6BF901300208C13002084130020A8
:1084300008B50368002B02DA09480BF0A2FF8B4253
:1084400008D949008B4205D20029B6BF6FF000431E
:10845000016003600068BDE8084001300BF07DBF9B
:108460008A8F010010B50446406828B163781BB9B3
:1084700040F2AC410BF060FF204610BD08B4F3B5EC
:1084800007AB044600F10C0553F8042B019380213F
:1084900028460DF047FED4F89000A8B194F8943027
:1084A000012B11D90F4908F01EFDD4F890603368F4
:1084B00028465F680DF023FD294602463046B8473E
:1084C000D4F8900008F018FD284664680DF017FDF8
:1084D00029460246204607F0FBFE02B0BDE8F04008
:1084E00001B07047DA8E0100034653F8080B98423A
:1084F00001D00BF01FBF7047F8B506464568084627
:108500000F460DF0FCFCA842024628BF2A4604464E
:1085100022B1394630680CF0D3FE00B9281BF8BDF3
:10852000012A30B404D191F90030037030BC704797
:10853000002AFBD030BC0CF0D2BEFFFF00F10803D4
:1085400073B5044603600D46D1B108460DF0D7FC63
:108550000F280646019006D9002101A8FFF768FF01
:10856000019B2060A360324629462068FFF7D8FFB0
:10857000019B2268636000212046D15402B070BD87
:1085800001480BF0FBFE00BFA28F01002DE9F3476D
:10859000DDF82880164642689A46A8EB0603571A6B
:1085A00013440268019300F108039A420D46044601
:1085B00014BF81680F2101A8FFF73AFFBF1B814656
:1085C0001DB12A462168FFF7ABFFBAF1000F08D0B2
:1085D000B8F1000F05D04246514609EB0500FFF700
:1085E0009FFF47B121682E4405EB08003A4631440D
:1085F0004844FFF795FF2046FFF776FF019BC4F83C
:108600000090A36002B0BDE8F087F7B50268466845
:1086100000F108039A4218BF836806F1010508BFFC
:108620000F239D4204460F4606D9012300930023E1
:108630001A463146FFF7AAFF23689F5523686560F5
:1086400000225A5503B0F0BD012A30B404D191F98B
:108650000030037030BC7047002AFBD030BC0CF0F7
:1086600049BEFFFF2DE9F74F8146144640680C9E36
:1086700002F10042013A121A9642984602D937484E
:108680000BF07FFE4A46A6EB040B52F8083B9342E0
:1086900018BFD9F808200BEB000A08BF0F2252457B
:1086A00052D35F189845A0EB0101A1EB040522D33A
:1086B000034498451FD876BB95B1B44210D02A46E2
:1086C0003919B819FFF7C0FFB44209D23C4408EB8E
:1086D00006039C4227D3324641463846FFF7B4FF93
:1086E000D9F80030C9F804A00022484603F80A204F
:1086F00003B0BDE8F08F35B1B44204D02A46391931
:10870000B819FFF7A1FF002EEAD03246414638469D
:10871000FFF706FFE4E7B4421DD332464146384630
:10872000FFF792FFC8E7444503D8324608EB0B0138
:10873000EDE7A4EB0804224641463846FFF784FFE4
:10874000321BB9193819E3E70096434622464846DA
:10875000FFF71CFFC4E7002DB8D0B0E7718F010010
:1087600037B5044608460D460DF0C9FB2B46009070
:10877000626800212046FFF775FF03B030BDFFFFA0
:108780002DE9F04F8FB00AAB029106460893984945
:108790000298002309938DF828309246FFF7ACFE2B
:1087A000031C0490D6F8900018BF0123069328B14B
:1087B00096F8943013B18F4908F095FB09F02EFC20
:1087C0004FF000080123DFF854B205904746CDF87A
:1087D0000480CDF80C8099464446079309F01EFCAE
:1087E000059BB268C01A904200F21A81079B5BB1E8
:1087F0007068026812699047079B0028EDD0706886
:1088000003685B69984745B2D6F8900038B196F88E
:10881000943023B10A2D24D1774908F064FBD6F8AF
:10882000900060B196F89430022B08D9734908F093
:108830005AFB0A222146D6F8900008F0B9FB631EC5
:10884000072B29D8DFE813F03A005C007E008A008D
:108850008D00B7002B01A200092C00F0E38001235A
:10886000BBE70D2D01D16649D7E7202D01D1654920
:10887000D3E71F2D0CDC644908F035FB29460A229A
:10888000D6F8900008F0ADFB6049D6F89000C4E738
:10889000294608F02CFBC2E72B2D05D1294608A854
:1088A000FFF7B3FE0124DAE71BF90730AB4240F0D3
:1088B0009C80DDF8188001370824D0E73A2D29463E
:1088C00008A801D03D2D3AD1FFF79FFE049B8BB144
:1088D000029B099A5B689A4206D15AB1029B08989A
:1088E00019680CF0EDFC28B1494908A8FFF738FFDA
:1088F0004FF0010846495046FFF732FF0224AEE729
:108900007C2D0ED1DAF800000CF021FC0023CAF80F
:108910000430DAF8003003904FF000021A7003249C
:108920009DE70D2D00F0B2800A2D00F0B18096F881
:108930008C3013B1202D00F0AD8029465046FFF752
:1089400064FE8CE729465046FFF75FFE019B039AC1
:1089500001330193934208BF052480E70A2D08BF25
:1089600005242C495046FFF7C7FD60B12A495046FF
:10897000FFF7C2FD002804BF4FF0010909244F2D65
:108980002AD1012798E781460924F8E71BF9072037
:108990007B1C58460793AA4218BF07240DF0AFFA74
:1089A000079B984270D107464FF00009B8F1000FBD
:1089B00019D1092436E01BF907207B1C5846079380
:1089C000AA4218BF07240DF09AFA079B98425BD180
:1089D00007464FF00109E9E7B8F1000F3FF43CAF5B
:1089E000092C7FF43CAF4FF00008002437E700BFAC
:1089F0002B8F0100388F01003E8F0100598F01003D
:108A0000438F0100488F01004D8F0100418F01000D
:108A1000F7810100CB880100AB8E01004F8F010070
:108A20004FF00309D6F89000B8B196F89430022BB5
:108A300013D91E4908F057FA0A222146D6F89000A9
:108A400008F0B4FA1A49D6F8900008F04CFA0A2255
:108A50004946D6F8900008F0ABFAD6F8900001230A
:108A600086F88C3048B196F8943033B1114908F04B
:108A70003AFAD6F8900008F03FFA08A8FFF734FD5C
:108A800048460FB0BDE8F08F1F46E8E60424E6E64E
:108A90000524E4E6B8F1000F7FF4E1AE9DE6002383
:108AA00098464FF002091C4697E600BF548F01001C
:108AB000618F0100678F010030B50446406803688C
:108AC0008DB05B68984706AA1D496846FFF736FDDA
:108AD00008AB069306AA00236946204607938DF843
:108AE0002030FFF74DFE0546D4F8900088B194F889
:108AF0009430012B0DD9134908F0F5F90699D4F8F3
:108B0000900008F009FA7DB90F49D4F8900008F0F8
:108B100003FA06A8FFF7E8FC6846FFF7E5FCB5FA9C
:108B200085F040090DB030BD012DD4F8900001D181
:108B30000649ECE7032D0CBF05490649E7E700BFEE
:108B40002B8F0100788E0100928E0100A08E010013
:108B5000B18E0100C48E010008B42DE9F34316461E
:108B6000044609AB306853F8042B0193884604F19E
:108B70000C05002171600170802128460DF0D2FAA9
:108B8000D4F89000B0B108F0B7F92449D4F89000B7
:108B900008F0A9F9D4F890703B682846D3F80490FF
:108BA0000DF0ADF9294602463846C847D4F8900082
:108BB00008F0A2F9284667680DF0A1F92946024697
:108BC000384607F085FB324641462046FFF7D8FD80
:108BD0000546D4F8900068B1114908F084F931686D
:108BE000D4F8900008F098F965B90E49D4F89000CF
:108BF00008F092F9B5FA85F0400902B0BDE8F043FB
:108C000001B07047012DD4F8900001D10649EFE77B
:108C1000032D0CBF05490649EAE700BF158F010087
:108C20001F8F0100928E0100A08E0100B18E010005
:108C3000C48E01002DE9F0430446406891B0164609
:108C4000002834D02378002B31D10368194DDB691B
:108C5000DFF86C90DFF86C80174F98470AAA174925
:108C600004A8FFF76BFC60680368DB6898474FF463
:108C7000FA72AA602378A3B9002E12DD03AA49462E
:108C80000AA8FFF75BFC3B4604AA0AA9CDF80080BE
:108C90000848FFF761FF20700AA8FFF725FC013E96
:108CA000E8E742F2107304A8AB60FFF71DFC11B0B7
:108CB000BDE8F08394130020AFA10100F78101000B
:108CC000F28E0100028F0100074B08485860002215
:108CD000012142F210701A705970986083F88C105C
:108CE00083F89420704700BF94130020B421002023
:108CF0000148FFF7B7BB00BF9413002008B5036815
:108D0000002B02DA09480BF03CFB8B4208D94900E2
:108D10008B4205D20029B6BF6FF0004301600360AB
:108D20000068BDE8084001300BF017BB8A8F0100D6
:108D300073B542F21073036000F5F8730025C0F8B4
:108D4000E831012600F50273044680F8E451C0F8CA
:108D5000EC5180F8F051C0F80032C0F8045280F8AD
:108D6000085204230096A822C02100F5067007F0DF
:108D700041FF33460096A822C02104F50C7007F08D
:108D800039FFFF2300951A46194604F5127007F0C3
:108D900031FF204602B070BD73B505460E4619B9C5
:108DA00012B10D480BF0EAFA941B0F2C019406D96E
:108DB000002101A8FFF7A2FF019B2860AB602246BB
:108DC00031462868FFF7ACFB019B2A686B600021E5
:108DD000D15402B070BD00BFA28F010038B500F1C0
:108DE0000803044603600D4649B108460DF087F8B4
:108DF0002A1820462946FFF7CFFF204638BD4FF0FE
:108E0000FF32F6E710B503228CB04FF4E131114880
:108E1000FFF710FF10496846FFF7E0FF0F4906A86B
:108E2000FFF7DCFF0E4B0B486A4606A9FFF794FEDE
:108E3000044606A8FFF758FB34B1012009F0AAF850
:108E400000980CF084F9C4B26846FFF74DFB204649
:108E50000CB010BD94130020F78101007490010044
:108E600080900100F0B591B004460E4604A8284950
:108E7000284D1746FFF7B2FF03224FF4E131264891
:108E8000FFF7D8FE25490AA8FFF7A8FF01230193A1
:108E9000234B00930AA9234B1F4804AAFFF75CFE4B
:108EA0000AA8FFF721FB20490AA8F7B9FFF796FFA8
:108EB000CDE900561D4B184804AA0AA9FFF74CFE3D
:108EC00005460AA8FFF710FBDDB109F0A7F8054633
:108ED00009F0A4F82368401B984212D22046FFF7FD
:108EE00091FF0328F4D104460CE0FFF777FFCDE9AA
:108EF000016700950E4B084804AA0AA9FFF72CFE4B
:108F0000DEE7042404A8FFF7EFFA204611B0F0BD15
:108F1000F78101005D900100941300200C90010086
:108F2000459001003E90010052900100F68F010033
:108F30006A90010070B503228EB005464FF4E1310E
:108F40002848FFF777FE0024274902A8FFF746FFCD
:108F50002346224621460094284607F04BFE23492B
:108F600008A8FFF73BFF224B009302AA214B1D48A4
:108F700008A9FFF7F1FD064608A8FFF7B5FAD6B134
:108F800002980CF0E4F801281BD11B4908A8FFF750
:108F900025FF1A4B00930194194B124802AA08A905
:108FA000FFF7DAFD044608A8FFF79EFA1CB1029904
:108FB000284607F041FF02A8FFF796FA28460EB0B0
:108FC00070BD02980CF0C3F80228F4D10D4908A82E
:108FD000FFF704FF0C4B034802AA08A9FFF7BCFDEA
:108FE000E0E700BF94130020F78101000C9001001E
:108FF00017900100AFA10100FB9001000391010057
:109000003E900100E2900100ED90010010B5104C7F
:1090100010498CB06846FFF7E1FE032220464FF46A
:10902000E131FFF707FE0C4906A8FFF7D7FE0B4B0F
:109030006A4606A92046FFF78FFD044606A8FFF7FB
:1090400053FA6846FFF750FA20460CB010BD00BF37
:1090500094130020F7810100CC8F0100D98F01000B
:109060000148FFF765BE00BF2C14002010B5054C69
:1090700004F50070FFF738FA04F5F470FFF734FADE
:1090800010BD00BF2C140020002070470069013083
:1090900018BF0120704708B503685B6B984780F0E4
:1090A0000100C0B208BD13B502AB026803F8011D90
:1090B000546819460122A04702B010BD07B50368E5
:1090C00001225B6A0DF10701984701280CBF9DF84A
:1090D00007004FF0FF3003B05DF804FB00690B6937
:1090E000C31A58425841704770470020704740F2F9
:1090F0000C41C0680BF020B910B5102104460BF0EC
:109100001BF9204610BD08B5FFF7F6FF08BD7FB577
:1091100003680446164601A81D6A07F0CDFD3246D5
:1091200001992046A847044601A807F0A7FF20465A
:1091300004B070BD036810B504469B689847A368E7
:10914000013BA3602BB923682046DB68BDE81040D3
:10915000184710BD00F1080370B5044603600E46C1
:10916000B1B108460CF0CBFE0F28054604D90130FA
:109170000BF0F3F8A5602060012D20680BD196F963
:10918000003003702368656000225A55204670BD88
:1091900004480BF0F3F8002DF4D02A4631460CF0C9
:1091A0009EF8EFE7A28F0100036813B962B6BFF320
:1091B0006F8F704713B5EFF3108300930123019372
:1091C00072B6019B5A1E019233B104686846FFF7DC
:1091D000EBFF204602B010BD6846FFF7E5FFF8E759
:1091E00013B50446EFF3108300930123019372B685
:1091F000019B5A1E0192684633B1FFF7D5FF601CF0
:10920000C0F3090002B010BDFFF7CEFFFAE7FFFF81
:109210000023C0E905334FF47A72C0E90132C3611B
:109220000B6903618B698361CB69044A02601BB1DE
:109230005A6801325A60C361704700BFA8920100AA
:1092400010B50446006828B14368013B43600BB980
:10925000FFF770FF204610BD10B5044B044640F8E0
:109260001C3BFFF7EDFF204610BD00BFA892010098
:1092700030B50369002B8FB0044607DB0368DB6A57
:10928000984718B9236820469B6A98472369013399
:1092900021D1124902A8FFF75DFF03224FF4E1310B
:1092A0000F48FFF7C7FC0F4908A8FFF753FF0E4B05
:1092B000009302AA0D4B0A4808A9FFF74DFC05468A
:1092C00008A8FFF711F91DB102980BF040FF2061CB
:1092D00002A8FFF709F90FB030BD00BFF781010008
:1092E00094130020819201008F920100AFA1010030
:1092F00070B5044692B00D461646FFF7B9FF2369D4
:10930000002B25DB1E4906A8FFF724FF03224FF49C
:10931000E1311C48FFF78EFC6369DBB11A490CA8E8
:10932000FFF718FF63690295CDE903632369019391
:10933000164B009306AA164B12480CA9FFF70CFC1B
:1093400004460CA8FFF7D0F806A8A4B9FFF7CCF89C
:10935000002013E00F490CA8FFF7FCFECDE90256F0
:10936000236901930C4B009306AA0C4B05480CA9EA
:10937000FFF7F2FBE4E7FFF7B7F8012012B070BD8A
:10938000F781010094130020C0910100E0910100D9
:10939000D0910100F29101001392010006920100A8
:1093A00070B50369002B90B005460E4614462ADBC3
:1093B000164904A8FFF7CEFE03224FF4E13114480A
:1093C000FFF738FC13490AA8FFF7C4FE02942B6983
:1093D0000193114B009304AA104B0D480AA9FFF703
:1093E0004DF80AA8FFF780F8224631460848FFF7F3
:1093F00063FB054604A825B1FFF776F8204610B0B8
:1094000070BDFFF771F80024F8E700BFF781010095
:10941000941300209A910100B1910100A7910100DD
:1094200030B50369002B8FB0054635DB84695CB12C
:1094300004F58160FFF7BEFE002808DDA86900F58D
:109440008160FFF7B7FE044620460FB030BD1549D6
:1094500002A8FFF77FFE03224FF4E1311248FFF725
:10946000E9FB124908A8FFF775FE2B690193104B21
:10947000009302AA0F4B0C4808A9FFF76DFB0446A6
:1094800008A8FFF731F84CB102980BF060FE041EFB
:1094900004DA02A8FFF728F80024D5E702A8FFF7AE
:1094A00023F8D1E7F78101009413002041920100D5
:1094B0004D9201003E9001002DE9F04F0369002B11
:1094C00093B00746C0F287808369002B00F0838049
:1094D000424906A8FFF73EFEBA69EFF310830C93EA
:1094E00001230D9372B60D9B591E0D911BB1D2F83D
:1094F0000854C5F580653A4E0CA8FFF755FE0024C8
:10950000032230464FF4E131FFF794FB013D86F82A
:109510008C4034490CA8FFF71DFE02953B6901936E
:10952000314B00933046314B06AA0CA9FFF714FBD0
:1095300006460CA8FEF7D8FF002E41D0079B002B53
:1095400047D04FF00109CA46AC4239D2079B9C4232
:1095500036D2069BBE6913F804B0EFF31083CDE951
:10956000043972B6059B5A1E059223B3EFF310839C
:10957000CDE90C3A72B60D9B5A1E0D923BB1D6F84E
:109580000834A3F58063D3F1000848EB03080CA866
:10959000FFF70AFEB8F1000FE4D1D6F8000406F890
:1095A00000B0FFF71DFED6F80834C6F800040133FA
:1095B000C6F80834D6E704A8FFF7F6FD0134C3E780
:1095C0004FF0FF3406A8FEF78FFF204613B0BDE82A
:1095D000F08F1C46F6E74FF0FF34F6E7F781010005
:1095E000941300206691010076910100A79101007B
:1095F00038B5044680690D4650B100F58160FFF72B
:10960000D9FDA84204D22046BDE83840FFF754BF38
:1096100038BD2DE9F74F07468A4611461646FFF733
:10962000E7FF3B69002B33DBBC6994B34FF0010BC0
:1096300056440024D946B2452BD0BBF1000F28D0A8
:10964000BD69D5F808344BB995F800809B460AF8F7
:10965000018BBBF1000FEED00134ECE7EFF3108388
:10966000CDE9003972B6019B5A1E019263B1D5F85B
:10967000040415F80080FFF7B3FDD5F80834C5F8E9
:109680000404013BC5F808346846FFF78DFDDEE7AA
:109690000024204603B0BDE8F08F10B50446012138
:1096A000FFF7A6FF2369002B0ADBA36943B1D3F8B8
:1096B00008241AB1D3F80424985C10BDFF20FCE7FD
:1096C0004FF0FF30F9E7FFFF10B50369002B8EB0B4
:1096D00004461DDB0F4902A8FFF73CFD03224FF4AF
:1096E000E1310D48FFF7A6FA0C4908A8FFF732FD53
:1096F000236901930A4B009302AA0A4B064808A962
:10970000FFF72AFA08A8FEF7EFFE02A8FEF7ECFE24
:109710000EB010BDF7810100941300208891010064
:10972000909101003E90010010B50369002B8EB0AE
:10973000044620DB154902A8FFF70CFD03224FF475
:10974000E1311348FFF776FA124908A8FFF702FD46
:1097500023690193104B009302AA104B0C4808A9EF
:10976000FFF7FAF908A8FEF7BFFE4FF0FF332361B9
:1097700002A8FEF7B9FEA3690022C3F80024C3F8CB
:109780000424C3F808240EB010BD00BFF781010007
:109790009413002048910100569101003E90010071
:1097A00010B503688EB01B6904469847002829DC71
:1097B0002369002B28DB154902A8FFF7CBFC032205
:1097C0004FF4E1311248FFF735FA124908A8FFF7C4
:1097D000C1FC23690193104B009302AA0F4B0C4864
:1097E00008A9FFF7B9F9044608A8FEF77DFE1CB1E9
:1097F00002980BF0ACFCC4B202A8FEF775FE20463E
:109800000EB010BD0124FAE70024F8E7F78101004B
:10981000941300205B9201006D9201003E900100C4
:1098200030B50C4695B0054602A807F0DBF9236970
:10983000002B34DB1E4908A8FFF78CFC03224FF4F1
:10984000E1311C48FFF7F6F91B490EA8FFF782FC2F
:1098500023690193194B009308AA194B15480EA9C7
:10986000FFF77AF904460EA8FEF73EFEA4B1089968
:109870002C4602A807F0E0FA124B44F8043B03AB75
:109880000FCB84E80F009DF81C302B7508A8FEF75D
:109890002BFE284615B030BD08A8FEF725FE002394
:1098A00000931A461946284607F0A4F9F1E700BFCD
:1098B000F7810100941300202992010034920100E5
:1098C0003E900100A49A010010B50369002B8EB0F0
:1098D000044626DB144902A8FFF73CFC03224FF4A0
:1098E000E1311248FFF7A6F9114908A8FFF732FC49
:1098F000236901930F4B009302AA0F4B0B4808A951
:10990000FFF72AF9044608A8FEF7EEFD1CB10298FD
:109910000BF01DFC84B202A8FEF7E6FD20460EB057
:1099200010BD0024FAE700BFF78101009413002066
:109930002C910100399101003E90010013B50023E4
:109940000446D1E90002C1E900332368206002A87F
:109950000093636840F8043D6260FFF771FC2046A5
:1099600002B010BD73B54FF47A730025C0E90153FE
:10997000174B03604FF0FF33C0E904350446C0E9DC
:10998000065540F20C400AF0E8FC4FF480620646AF
:1099900029460BF0C8FC1020C6F80054C6F8045441
:1099A000C6F80854CDE900650AF0D7FC0123C0E9E8
:1099B0000133084B0360C6600190694604F118004A
:1099C000FFF7BCFF01A8FFF73BFC204602B070BDCB
:1099D000A89201001891010073B54FF47A73002525
:1099E000C0E90153164B03600446C0E90415C0E901
:1099F000065540F20C400AF0B0FC4FF48062064677
:109A000029460BF090FC1020C6F80054C6F8045408
:109A1000C6F80854CDE900650AF09FFC0123C0E9AF
:109A20000133084B0360C6600190694604F11800D9
:109A3000FFF784FF01A8FFF703FC204602B070BDCA
:109A4000A892010018910100704708B503685B698E
:109A5000984780F00100C0B208BD13B502AB0268A0
:109A600003F8011D546819460122A04702B010BD39
:109A700080688B68C31A58425841704710B500235C
:109A80004360064B03604FF0FF330446C0E90231E8
:109A90001030FFF767FF204610BD00BF589301004C
:109AA0002DE9F0418B68013392B007460C4663D034
:109AB0000AAA334904A8FEF741FD03224FF4E1311D
:109AC0003048FFF7B7F803AA2F490AA8FEF736FD7A
:109AD000A36801932D4B009304AA2D4B29480AA992
