:10400000007F0020ADE3000055E20000A9E30000BE
:10401000A9E30000A9E30000A9E30000A9E3000070
:10402000000000000000000000000000A9E3000004
:10403000A9E3000000000000A9E30000A9E30000DC
:104040000000000000000000000000000000000070
:104050000000000000000000000000000000000060
:104060000000000000000000000000000000000050
:104070000000000000000000000000000000000040
:104080000000000000000000000000000000000030
:104090000000000000000000000000000000000020
:1040A0000000000000000000000000000000000010
:1040B0000000000000000000000000000000000000
:1040C00010B5054C237833B9044B13B10448AFF352
:1040D00000800123237010BD700600200000000046
:1040E000489C010008B5034B1BB103490348AFF3DB
:1040F000008008BD0000000074060020489C0100FC
:104100000846114611F08CBA084610F0C3BC0846A8
:1041100010F0B8BC4FF6FF7399421FBF0368CA097D
:1041200003EBC20301F07F011ABF586800EBC10026
:10413000002070472DE9F84F05680446A16831B1A9
:104140000B68A3602B6828465B689847F6E72668EB
:1041500004F10C0B0D468946228EE76AABB29A42F7
:104160000FD907EBC3089A46D8F8041019B1336881
:1041700030465B68984747F83A900135C8F8049094
:10418000EAE700232386BB454FF6FF73A38604D0DE
:10419000336839465B68304698472046BDE8F88F5B
:1041A00038B5C588044601F12C002946FFF7B2FF57
:1041B000A580206008B1C388E38038BD38B5436A64
:1041C000034400251D710446011D00680CF0D7FC56
:1041D00000B16562606A38BD38B5436A01331F2B90
:1041E00004460D4606D8636A5A1C62621C440120CC
:1041F000257138BDFFF7E2FF0028F4D00020F8E772
:104200000379DA072DE9F04705460C4611D5016818
:10421000A36800226BB1994232D18B882068013BA0
:104220009BB28B802BB90B6842B3136003685B6849
:1042300098472E79F30608D52F8804F12C003946CB
:10424000FFF768FFA38E0380A78616F0600F1CD0CF
:104250002E884FF6FF7A04F12C09564513D03146CB
:104260004846FFF757FF21460746B0F80680FFF79C
:10427000C7FFA38E3B80A6864646EEE7A360D5E740
:104280001A461B68C6E72E806E8000232B71BDE89E
:10429000F087C0E900120822826001220273704791
:1042A0008B8C30B5013B0D6A9AB205EBC204616894
:1042B00049B1638835F832509D4204D95D1C11EB39
:1042C000C301658005D1002303604FF6FF7383802F
:1042D00030BD016003EBC213F9E72DE9F74F8D8E76
:1042E0004FF6FF739D4206460C460ED0294604F158
:1042F0002C00FFF70FFF0388A386002303714FF6FE
:10430000FF73C3803060B58061E00B8E0F6801F1F0
:104310000C0843B168464146FFF7C2FF009810B150
:10432000BDF80450E9E7228E638E934218D1B3F5AD
:10433000007F45D05B009DB2E36A396898454FEA3B
:10434000C50235D10B68384611469847814600288A
:1043500036D02022414610F01AFCC4F82C90658615
:10436000B4F83090D4F82CB009F101039BB2B3F546
:10437000007F23863B680CBF7F258025E9001B68F2
:10438000384698470BEBC90A002808BF00250023D0
:10439000CAF8040041462BF839506846AAF80230A2
:1043A000FFF77EFF0098BDF804500028A5D107E074
:1043B000D1F8089038461946C84781460028CCD124
:1043C00001232371002333604FF6FF73B38030461F
:1043D00003B0BDE8F08F07B50368082203EBC10105
:1043E000684610F0D4FB9DED000B03B05DF804FBB4
:1043F000F0B585B0064604A800E90E00DDE90175B8
:104400000A983468B4B1E188A9420BD100239942DB
:104410000AD0E21817F903C092F90820944501D197
:104420000133F4E72468EDE7A3880133A380204635
:1044300005B0F0BDB5F5803FF9D209216918F6D273
:1044400003681B6898470028F1D001238380C5804A
:1044500000F10803AC4203D03A571A550134F9E78A
:104460000444002323723368036004463060DEE7AF
:10447000F8B5054616460C468F18BC4205D014F810
:10448000011B2846FFF7A8FEF7E7AB6A3344AB628F
:10449000F8BD38B5054608460C4611F088F92146A6
:1044A00002462846FFF7E4FF38BD2DE9F04186B00B
:1044B0000DF11604054616461F46A04630463946FD
:1044C0000A22002310F010F9303204F8012D0023E5
:1044D000304639460A2210F007F906460F4656EADA
:1044E0000703EBD1A8EB040221462846FFF7C0FFE3
:1044F00006B0BDE8F0812DE9F04796B003AD85E840
:104500000E00814695E807000AAE1E9C86E80B0067
:104510008046F0B910904FF6FF73ADF84430109B11
:104520002BB1214610A8FFF73BFE109E6EB995E80F
:1045300007000DF1340888E80700214606A8FFF7B8
:10454000CCFE069D002D49D10026304616B0BDE8B0
:10455000F087B9F800600B9F314604F12C00FFF79B
:10456000D9FDADF850601390B0B1C388ADF85230AA
:104570004FF0010A139B7BB3BAF1000F25D01A79D3
:10458000042A0CD0052A1BD0FFB913AA92E8030015
:1045900010AB83E80300C2E74FF6FF73E6E71E683F
:1045A00030460EB111F003F987420ED10023BB4211
:1045B000EBD018F90310F256914206D10133F6E719
:1045C0001B6803F10806D888EEE7214613A88AF095
:1045D000010AFFF7E5FDCDE710939CE7214608A807
:1045E000FFF77BFE089E002EAED098E807000D9BDB
:1045F00010AF87E80700002BA6D09DF83C20B2B191
:1046000004222A712B60BDF82470EF80B9F80210E3
:10461000BDF81C804FF6FF73994218D004F12C00AE
:10462000FFF778FDA0F80680A9F802708DE797E8FB
:10463000070013AB83E80700226800920ECB04F159
:104640000800FFF7D5FE28B9012323717CE7A9F8FC
:104650000080E9E705232B712860D4E770B5036873
:1046600013F1380686B002D1002006B070BD021DDD
:1046700007CA03AC84E8070002460028F4D093F888
:104680003C1071B9202183F83C104FF6FF71198757
:1046900059870392009394E80E003046FFF72BFFF2
:1046A000E3E72029F5D0DFE72DE9F0418CB0804623
:1046B0000D46FFF7D3FFD8F80070064628460DB127
:1046C00011F075F80023CDE903508DF81430BEB118
:1046D00039463046FFF794FD03AB93E8070006AC7C
:1046E00084E8070065B109AB83E807003A680092E7
:1046F0000ECB07F10800FFF77BFE50B901233B7199
:10470000D8F8000010B1007980F001000CB0BDE8CD
:10471000F081052333713060F2E710B52DED028B87
:104720000446B0EE408AFFF799FF2168044630B195
:10473000FFF766FD0E23237184ED008A0120BDEC96
:10474000028B10BD10B50446FFF746FDA36A18445E
:10475000A06210BD2DE9F0410D4622211646044607
:10476000FFF7F0FFDFF850802E44B54215D015F961
:10477000011B104B13F9027CAFB1023313F9032C68
:104780008A42F7D15C212046FFF7DCFFF9B20DE049
:1047900041462046FFF77DFEE7E722212046FFF74E
:1047A000D1FFBDE8F0810029F2D0C9B22046FFF761
:1047B000C9FFDAE79B7A0100A87A010070B5002AE8
:1047C0001D4675F100030646144605DA2D21FFF754
:1047D000B9FF644265EB450522462B463046FFF79C
:1047E00064FE70BDFFFFFFFF2DE9F04F5BEC10ABE7
:1047F0008BB007460D4610EE102A5B4610EE100AED
:1048000059460FF041FE30B9AF493846FFF741FE37
:104810000BB0BDE8F08F00220023504659460FF040
:1048200033FE68B952465B46504659460FF00EFAC1
:1048300002460B46504659460FF026FE0028E3D1AB
:1048400000220023504659460FF028FE30B12D219A
:104850003846FFF777FF0BF100439B460123019396
:104860002C460A2324B1019A5A43013C0192F9E7EC
:1048700091A3D3E90023504659460FF023FE0028A8
:104880006AD0DFF850924FF008084FF48076414626
:1048900004A8CDF81090FFF79EFD52465B4651EC00
:1048A000100B0FF005FE78B1884B0493414604A825
:1048B000FFF791FD5046594653EC102B0FF07CFB4F
:1048C000344482468B4624B218F1FF384FEA66061C
:1048D000DDD2CDF80C8000220023504659460FF05F
:1048E000FBFD00283DD076A3D3E90023504659466E
:1048F0000FF0DEFDA8B300230293DDE90223A3EB52
:10490000020919F0800F2CD10DF128086F4B48F8DF
:10491000183D49464046FFF75EFD00226C4B51ECC6
:10492000100B0FF049FB52465B460FF0D5FD78B1F6
:10493000684B049349464046FFF74DFD50465946A3
:1049400053EC102B0FF038FBA41B82468B4624B28D
:10495000029B76100133CFE708234FF48076039350
:10496000B9E7504659460FF0FFFD0A2206460346B6
:10497000092B08D9B3FBF2F3013D0199B1FBF2F128
:104980006DB20191F4E730460FF09CFA02460B46F7
:10499000504659460FF058F98046019889460FF065
:1049A00091FA02460B46404649460FF005FB804609
:1049B00089460FF0D9FD82460FF084FA02460B4675
:1049C000404649460FF040F90B4602460FF03EF9CB
:1049D0000FF0CAFD019B0AEB0008434508D80136D9
:1049E00094B1092E10D9013424B24FF000080126E9
:1049F0000A22B8FBF2F302FB138141B9002D06DD58
:104A0000013D98466DB2F4E74FF00008F0E70DF174
:104A100026010A22B6FBF2F302FB1366303601F8D8
:104A2000016D1E46002BF5D10DF12606721A38468F
:104A3000FFF71EFDEDB108AA2B4611464FF00A0CF8
:104A4000013B5BB2581C09D0B8FBFCF00CFB108892
:104A500008F1300802F8018D8046F1E7EDB2EB4332
:104A60004D1B2E2205F8012C19445A423846FFF7F7
:104A7000FFFC002C3FF4CCAE65213846FFF762FE08
:104A8000002CA5B205DA2D213846FFF75BFE6D42FA
:104A9000ADB231460A22B5FBF2F302FB13553035B5
:104AA00001F8015D9DB2002DF5D1721A3846FFF76D
:104AB000DFFCADE6AFF3008000000000D0126341E0
:104AC000F168E388B5F8E43E907A0100A879010026
:104AD00000002440F07901002DE9F04105790646F7
:104AE0000C46018815F0100003D002F12C00FFF7EE
:104AF00011FB0C2D00F0968015D8052D00F0878055
:104B000006D8032D00F08780042D73D04E4995E020
:104B1000062D00F090800A2DF8D13268002320463F
:104B2000FFF7C3FC1DE01C2D00F0828006D80E2D7F
:104B30000ED01A2DEAD1D0E90023F0E7202D34D091
:104B4000402D11D01E2DE1D1092190ED000B05E083
:104B500030680FF0D9F941EC100B06212046FFF721
:104B600043FEA06ABDE8F0815B212046FFF7EAFD25
:104B700035884FF6FF76B54212D0E76A294607F12D
:104B80002C00FFF7C7FA05463A462146FFF7A4FF77
:104B9000ED88B542EFD02C212046FFF7D3FDEAE7A0
:104BA0005D212046FFF7CEFDDBE77B212046FFF7A6
:104BB000C9FD4FF6FF7735880126BD4218D0D4F8DD
:104BC0002C80294608F12C00FFF7A4FA054642463E
:104BD0002146FFF781FFED88BD4206D0002E0CBFB5
:104BE0002C213A212046FFF7ADFD86F00106E4E7CF
:104BF0007D21D6E7356845B1284610F0D8FD02463C
:104C000029462046FFF7A6FDABE72A46F8E73168BC
:104C1000CA880831F5E731682046CA880831FFF7AD
:104C200027FC9EE73268D3172046FFF7C7FD98E7B9
:104C3000D0E90023F8E7337823B104492046FFF791
:104C400028FC8EE70249F9E7907A0100AF7A01006B
:104C5000B47A01002DE9F043B7B06B46002783E832
:104C6000030002AD3946104602920B970BF030FF5D
:104C70000FCD0CAC0FC40FCD0FC495E8030084E832
:104C800003000CAE0FCE16ADDDE900890FC50FCEC7
:104C90000FC594E8030085E8030016AE0FCE20ACE4
:104CA0000FC40FCE0FC495E8030020AE84E80300C4
:104CB0000FCE2AAD0FC50FCE0FC594E8030085E8CF
:104CC000030020A83497FFF779FA16A8CDF8D490FE
:104CD000FFF774FAB8F1000F12D04A462AA94046ED
:104CE000FFF7FAFE04462AA8FFF768FA0CA8FFF7B8
:104CF00065FA02A8FFF762FA204637B0BDE8F083F4
:104D000002492AA8FFF7C5FB349CECE7907A010022
:104D1000F0B5574D574F584E9DB00CAC28464FF448
:104D2000165102F06FFF554920460BF04AFE21460E
:104D3000284602F01BFF20460BF0F8FD50492046A4
:104D40000BF03FFE396808A80BF03BFE08A920468F
:104D50000BF025FF0146284602F008FF08A80BF0DB
:104D6000E5FD20460BF0E2FD304600F0C3FB304687
:104D700000F0B8FB4349444E20460BF022FE21468A
:104D8000284602F0F3FE20460BF0D0FD3F4802F02B
:104D900043FE304601F0B4FE0FAA17924FF4802272
:104DA00018923B4B0C934FF6FF720023ADF8642032
:104DB000ADF86E202146374A8DF8343008A80E939E
:104DC0008DF86C30FFF765FA396808A8FFF76CFCBE
:104DD000314B099309230A93304B08940127196832
:104DE0008DF82C7008A8FFF75FFC2D4B09930F235B
:104DF0000A932C4B089419688DF82C7008A8FFF7BB
:104E000053FC294902A80BF0DCFD1AABCDE90034B4
:104E10006B4602AA93E80300FFF71CFF02A905A84E
:104E20000BF046FE214B08A819680BF0CAFD08AA32
:104E300005A9304601F09EFE08A80BF077FD05A8F5
:104E40000BF074FD304602F0AFFB194908A80BF0D7
:104E5000B8FD08A9284602F089FE08A80BF066FDF7
:104E600002A80BF063FD2046FFF764F91DB0F0BD0A
:104E700000070020C40300209C060020397B0100AD
:104E8000537B01005F7B01000407002044070020E2
:104E9000B8030020747B01007D7B0100CC0300205F
:104EA000877B0100C8030020A77A0100C00300200F
:104EB000977B010070B52DED028B9CB04A4B0FAA79
:104EC00017924FF480220CACD3ED008A93ED018A47
:104ED0009E681892454B0C934FF6FF720023ADF875
:104EE0006420ADF86E202146414A8DF8343008A880
:104EF0000E938DF86C30FFF7CCF93E4B08A819687B
:104F0000FFF7D2FB3C4B099301250B23B0EE680A57
:104F100008A80A938DF82C500894FFF7FEFB214651
:104F2000364A08A8FFF7B5F9B0EE480A08A8FFF717
:104F3000F4FB334B099308A809238DF82C500894EF
:104F40000A93FFF78BFB0899054620B1FFF758F944
:104F50000A232B712E602B4902A80BF032FD1AABED
:104F6000CDE900346B4602AA93E80300FFF772FE16
:104F7000254908A80BF025FD02A908A80BF00FFE93
:104F80000146224802F0D6FD08A80BF0CFFC02A98A
:104F900005A80BF08DFD1E4B08A819680BF011FD3C
:104FA00008AA05A91B4801F0E5FD054608A80BF075
:104FB000BDFC05A80BF0BAFCA5B1174908A80BF079
:104FC00000FD08A9114802F0D1FD08A80BF0AEFCC5
:104FD00002A80BF0ABFC2046FFF7ACF81CB0BDEC10
:104FE000028B70BD0D49E9E78C060020B803002054
:104FF000747B0100C4030020387A0100447A010068
:105000004D7A0100A77A0100577A010000070020BD
:10501000BC03002004070020657A01007C7A0100AF
:10502000F0B52DED028B68488BB000F0C9FC0CF098
:1050300049FC0546654803F03FFB032810D064484F
:1050400000F048FA634907A80BF0BBFC07A96248C7
:1050500002F08CFD07A80BF069FC5B4800F0B2FC85
:105060005E4E5F4B34681F682B1BBB4226D23C440C
:10507000641B42F21072B4FBF2F302FB1343632B86
:105080001CD8584907A80BF09CFC0A224FF47A71EF
:1050900004A8B4FBF1F10BF0D7FC04A907A80BF0AE
:1050A0007EFD51490BF087FD01464B4802F042FD61
:1050B00004A80BF03BFC07A80BF038FC3368EB1A94
:1050C0009F4264D84949356007A80BF07AFC07A9CC
:1050D000414802F04BFD07A80BF028FC444802F0C1
:1050E00021FD4348F0EE408A02F020FDF4EE688A8C
:1050F000F1EE10FAB0EE408A54D6B4EE400AF1EE6A
:1051000010FA4FD63B493C4E04A80BF05AFCB0EEC7
:10511000680A012101A80BF0E5FC01A904A80BF025
:105120003EFD36490BF047FDB0EE480A044601212A
:1051300007A80BF0D7FC07A920460BF030FD30493B
:105140000BF039FD0146244802F010FD07A80BF0D2
:10515000EDFB01A80BF0EAFB04A80BF0E7FB3468B9
:1051600002F070FD274B0C2202FB0433C3ED008AD2
:1051700083ED018A986033680133002B336003DDCF
:10518000FFF798FE00233360114800F09BF91E4A98
:105190001E491368EB1A8B4212D90B48156002F0B6
:1051A00003FA0DE01A4907A80BF00BFC07A90A48FF
:1051B00002F0DCFC07A80BF0B9FB054800F08AF907
:1051C0000BB0BDEC028BF0BD040700202C140020B6
:1051D0009C060020BA7A0100000700203C0700204E
:1051E000B07B0100DD7A0100D8960100F37A01005E
:1051F000440700200A7B010098060020117B010073
:10520000217B01008C060020400700207FEE360045
:10521000237B010038B5094C094D204602F089FC7A
:10522000284600F03FF929462246064800F0B4FB24
:1052300021460548BDE8384002F0E0BB00070020E9
:105240009C060020040700204407002010B5074CEE
:1052500004F12C000BF06AFB04F1080003F056FC8B
:105260000348BDE8104009F053BC00BF040700200C
:10527000C00600204308400003F0553300F0AA3078
:1052800018438308800000F0CC3003F0333303432D
:1052900018091B0103F0F03300F00F30184300BA77
:1052A0007047FFFF30B585B0044600210DF10F00B7
:1052B00009F0B2FA431C21D004F12405104BDFEDB4
:1052C000110A9FED110A9DF80F200194009300210F
:1052D000C3B2284609F046FB00220C2104462846AA
:1052E00009F032FC0440284609F098FBE4B204407F
:1052F000284609F0BAFB204005B030BD0020FBE78E
:105300006D5300000000484200401C4630B5016863
:1053100002690D0185B004465059FFF7ABFF2A44DE
:1053200001905068FFF7A6FF02909068FFF7A2FF78
:105330000390D3686269A3610131B1FBF2F302FB10
:105340001311216049B994F8203003B9A361236E89
:1053500003B19847012384F85C300C2201A902486C
:105360000FF015FC05B030BD600700202C49F8B5E2
:105370000D680A682B4C0B68D210A25C5C4204F0EA
:10538000070403F0070358BF6342274C42FA03F3B4
:10539000226822F4384222F018022260226C22F4A1
:1053A000415222F03002DB07226404F140041CD594
:1053B0001E4B1F4F13F8152003EB45031C325B787F
:1053C00037F832201C331612360156FA82F237F8BB
:1053D000333004F5F864052644F822601A121201ED
:1053E00052FA83F3042244F823200B68602401332B
:1053F00093FBF4F204FB12330B6080B1046874B1C8
:10540000A36963B10CF05EFAE369C01AA36998421C
:1054100005D92046FFF77AFF0CF054FAE061F8BD99
:105420005C0700206007002000000440907D010020
:10543000B08D010030B585B00B6800934B680193C7
:105440008B680293002501230560C0F810D04361EA
:1054500004460395FFF75AFFA56105B030BDF8B5C6
:105460000F46011D0E463D460024EB1BDBB29A425F
:105470000AD915F801CB01334CEA0404DB0604BF5A
:10548000346004366400F0E7FFF7D4FFF8BD1FB5C1
:10549000002301A9CDE901330393FFF7CBFF05B04A
:1054A0005DF804FB38B5002504460560C0E90655E3
:1054B00080F82050243009F0EDF884F85C50204644
:1054C00038BDFFFF08B50249FFF7B4FF08BD00BFB4
:1054D000807D010008B50249FFF7ACFF08BD00BFA1
:1054E000607D010008B50249FFF7A4FF08BD00BFB9
:1054F000707D010010B50446FFF7D4FE2046BDE8DC
:105500001040FFF7EFBFFFFFF7B50D4B0D4F1B68C6
:105510000D4E019305460024019BA3420DDD284654
:10552000FFF7E0FF38680CF089F92846FFF7AFFF76
:1055300030680CF083F90134EEE703B0F0BD00BF32
:10554000B87B0100C07B0100BC7B01002DE9F0416C
:105550000C1EB2B0054641DB632C40DD03260DF185
:10556000C80801241AAB1F4600229C5401320C2AA1
:10557000FBD10C339845F7D1602239462846FFF716
:105580006EFFC8200CF05AF92846FFF79BFF4FF436
:10559000FA700CF053F9013EE4D1602231463846EE
:1055A0000FF019FB2846602239468DF87D408DF8B2
:1055B00088408DF893408DF89A408DF89E408DF884
:1055C000A7408DF8A9408DF8B440FFF748FF4FF48D
:1055D000FA600CF033F932B0BDE8F08100246022AB
:1055E000504902A80FF0D3FA0A230093002319466A
:1055F000642220460AF078FE012608AB14A9012295
:10560000824202DC9E540132FAE70C338B42F6D11F
:10561000602202A92846FFF722FF0CF053F9424B03
:105620001A6841F28831821A8A420AD8192194FBF9
:10563000F1F201FB1242002ACDD13C4A1268A2428B
:10564000C9D01860394B192C1C6036D1602200215A
:105650001AA80FF0C0FA012340F20112ADF876202B
:105660008DF87830ADF87A20ADF87C208DF8813057
:105670008DF889308DF895308DF89C308DF8A030FC
:105680008DF8A7308DF8AB30ADF8B220ADF8B4206E
:105690008DF8B7308DF8B8308DF8B93060221AA97E
:1056A0002846FFF7DCFE40F2DC500CF0C7F8602221
:1056B00002A92846FFF7D3FE8DE7322C05D16022E0
:1056C0001B491AA80FF063FAE8E74B2CEBD16022D4
:1056D00000211AA80FF07FFA012340F201128DF881
:1056E00075308DF876308DF877308DF87830ADF8EC
:1056F0007A208DF87C308DF884308DF889308DF8E3
:1057000090308DF895308DF89B308DF8A0308DF865
:10571000A6308DF8AB308DF8B130ADF8B6208DF8ED
:10572000B830BBE79F7C01006C070020DC03002041
:10573000FF7C010070B5E0B005466022002168469C
:105740000FF049FA602201244FF0013600210DEBE1
:1057500002008DF827408DF82C408DF833408DF8ED
:105760003840079610960FF036FA6022002130A8D4
:105770008DF871408DF872408DF87C408DF87F4037
:105780008DF887408DF88C408DF893408DF89840C7
:105790008DF8A0408DF8A3408DF8AD408DF8AE4057
:1057A0000FF019FA6022002148A88DF8DB408DF82F
:1057B000E0408DF8E7408DF8EC408DF8F3408DF82F
:1057C000F8408DF8FF408DF80441349643960FF071
:1057D00002FA602248A928468DF82E418DF8314101
:1057E0008DF834418DF837418DF83A418DF83D41BF
:1057F0008DF840418DF843418DF846418DF849417F
:105800008DF84C418DF84F418DF852418DF855413E
:105810008DF858418DF85B418DF85E418DF86141FE
:105820008DF864418DF86A418DF86D418DF87041B5
:105830008DF87341FFF713FE4FF448700BF0FEFF35
:105840000324602269462846FFF709FE4FF496704C
:105850000BF0F4FF60220DEB02012846FFF7FFFD7D
:105860004FF496700BF0EAFF602230A92846FFF74C
:10587000F6FD4FF496700BF0E1FF013CE1D160B012
:1058800070BD4FF6FF7399421FBF0368CA0903EB4F
:10589000C20301F07F011ABF586800EBC10000206D
:1058A000704710B50446B4F5803F08460BD2092175
:1058B000611808D203681B68984700B910BD01231E
:1058C000C4808380FAE70020F8E7B1F5803F70B527
:1058D00006460D46144609D2136801F109029B6879
:1058E00001462046984708B1C58070BD2368204610
:1058F0005B68314698470020F7E70A680B46526814
:1059000001461846104738B50B79042B044605D0DC
:10591000052B0CD00023C0E9003306E00D682846B3
:105920000DB10FF044FFC4E90050012305E00B68FE
:10593000DA880833C0E9003200232372204638BDDC
:1059400038B5002383604368044643B905681F20C7
:105950002968FFF7A6FF08B901232B71606038BDE5
:1059600070B5044640680D4668B1A168C388994285
:1059700009D12668490032680131FFF7A6FF08B94E
:10598000012333716060636823B1A2681344511C22
:10599000A1601D7270BDFFFF10B50446C0E9001282
:1059A000083003F039FC002384F82830034904F15F
:1059B0002C000BF006F8204610BD00BFA77A0100AE
:1059C00001F068BF2DE9F04F5C4D46685C498DB031
:1059D000044606A80AF0F5FF296803A80AF0F1FFBB
:1059E00003A906A80BF0DBF80146304602F0BEF82A
:1059F00003A80AF09BFF06A80AF098FF2068FFF7AB
:105A000071FD504802F058FE032806D14D4802F0BF
:105A100057FF4FF47A700BF011FF4B4F29683A682B
:105A20004848484EDFF828A102F076FE0BF04AFF06
:105A30008146DFF828B14FF00708304602F03CFEFF
:105A400003281FD00BF03EFFDAF80030A0EB09006E
:105A5000984217D259463D480AF09DFE4FF47A709D
:105A60000BF0ECFEB8F10108E7D1304602F028FF58
:105A70004FF4FA700BF0E2FE3A682968304602F003
:105A80004BFED6E70BF01EFF2E4E314F054631463A
:105A900006A802F0A9FE002106A80AF032FE03784B
:105AA00073B3284802F008FE032834D1254906A81C
:105AB00002F09AFE002106A80AF023FE037853B3F1
:105AC0002449656803A80AF07CFF1E4906A802F075
:105AD0008BFE06A968460AF047FD694603A80BF04D
:105AE0005EF80146284602F041F868460AF01EFFBB
:105AF00003A80AF01BFF2068FFF7E4FC01201AE06E
:105B00000BF0E0FE3B68401B9842CAD24FF4FA709B
:105B10000BF094FEBBE765680F4906A80AF051FF39
:105B200006A9284602F022F806A80AF0FFFE20681F
:105B3000FFF7D0FC00200DB0BDE8F08FD8030020A7
:105B40008C7E01002C140020D40300205C1800205F
:105B5000C87B0100B87E0100A17E01002482010003
:105B60002DE9F047002504460E46A946A28C276A77
:105B7000ABB29A420FD907EBC3089A46D8F8041083
:105B800019B1336830465B68984747F83A90013559
:105B9000C8F80490EAE70023A384BC424FF6FF73E1
:105BA000238507D0336839465B683046984704231D
:105BB0002462E384BDE8F0872DE9F3470E8D4FF6AC
:105BC000FF739E4205460C4617460CD0314604F141
:105BD0002000FFF756FE038823852860AE80284604
:105BE00002B0BDE8F0878B8C53B16E463046FEF7AD
:105BF00057FB009B23B196E8030085E80300EEE71E
:105C0000A28CE38C934217D1B3F5007F3FD05B00A9
:105C10009EB2236A3968A3424FEAC6022FD10B68AD
:105C2000384611469847804688B3202221460EF018
:105C3000AEFFC4F82080E684B4F82480D4F820A015
:105C400008F101039BB2B3F5007FA3843B680CBF4E
:105C50007F268026F1001B68384698470AEBC80962
:105C6000002808BF00260023C9F8040021462AF8AE
:105C700038602846A9F80230FEF712FBAFE7D1F8EA
:105C8000088038461946C04780460028D1D10023F5
:105C90002B604FF6FF73AB80A1E737B50A68044667
:105CA0000D4668460C31FFF787FF009B43B9012280
:105CB00023604FF6FF732A71A380204603B030BDE6
:105CC000BDF804202360A280F7E7FFFFFFFFFFFF7E
:105CD0002DE9F74F91F900302B2B044632D02D2BB4
:105CE00031D10131012591F90020A2F13003DBB25D
:105CF000092B01D92E2A28D1DFF868B28846002066
:105D000000214FF0993A4FF00A0EC4461CF9013BAE
:105D1000A3F13002D2B2092A1DD88B4508BF8245B3
:105D200020D30EFB01F3A0FB0E0119440023D2B2D5
:105D3000DF43D6438F4208BF864213D380185941B0
:105D4000E046E2E701310025CDE70023237020463D
:105D500003B0BDE8F08F2BB9E5B1B1F1004F08BF3A
:105D600001280FD3764F00234FF0FF368F4208BF34
:105D7000864203F1010910D200230A220EF0B4FC7E
:105D80004B46F3E702234042237061EB4101C4E933
:105D90000201DCE703232370F9E7A3EB080707EB15
:105DA0000806434618F901CB32B2ACF13006F6B220
:105DB000092EF4D9BCF12E0F22D1C6460FF2781964
:105DC000D9E900894FF00A0A73460EF1010E93F8E3
:105DD00000C0ACF1300C5FFA8CFCBCF1090F0FD89D
:105DE000894508BF8045EFD3A0FB0A6716EB0C007E
:105DF0000AFB017702F1FF3647F1000132B2E3E717
:105E000093F9006026F02006452E66D193F90160D3
:105E10002D2E25D19F1C4FF0010C00264FF00A08B3
:105E20003B4617F901EBAEF1300E5FFA8EF9B9F18E
:105E3000090F26D808FB06E6B318B3F59A7FEFDD05
:105E4000BCF1000F13D0DFED3F7A9FED3F7A002DBC
:105E500018BFF0EE477A01232370C4ED027A76E78B
:105E60002B2E14BF5F1C9F1C4FF0000CD5E70022A7
:105E70002DB1364B04212170C4E9022367E7344B6E
:105E8000F8E7BCF1000F00D0764293F90030002B08
:105E90007FF45BAF164406F126034C2B24D800296F
:105EA00008BFB0F5000F1FD207EE900A002EF8EEE3
:105EB000E77AD6BF27492849764200237EB1F20708
:105EC00042BFDAB201EB820292ED007A4FEA660637
:105ED00048BF67EE877A0133F0E70026D5E7002D4B
:105EE000B9D0F1EE677AB6E70EF030F8002ECABFEF
:105EF0001A4B1B4B019380468946DCBF01937642C7
:105F0000002786B1F3070BD5F9B201A8FEF763FAB3
:105F10004046494653EC102B0EF04EF88046894619
:105F200076100137EDE715B109F1004399460423D6
:105F30002370C4E902890AE798999999999901000F
:105F4000FFFF0F0000000000000000800000F0FFD5
:105F50000000F07F507E0100687E0100F0790100B2
:105F6000A87901009999991970B5006878B1C48829
:105F70004B689C42F9D10D6800239C4207D9C21896
:105F8000EE5692F908209642EFD10133F5E770BD45
:105F9000D0E90132F0B5134400221A72D0E900565C
:105FA00085B087688DF80C20044606F1080301A926
:105FB00005F10800CDE90137FFF7D6FF78B92A6867
:105FC00039463046FFF781FC08B901232B7123685D
:105FD0009A68026098600023636005B0F0BD838812
:105FE00001338380F9E72DE9F0418AB001AC84E800
:105FF0000E00109D0F4671B907914FF6FF73ADF873
:106000002030079820B107A82946FEF7C9F807985D
:106010000AB0BDE8F0810488DDF80880214605F16A
:106020002C00FFF72EFCADF818400590C0B1C388D6
:10603000ADF81A30012607AC0599D9B19EB12046BA
:10604000FFF761FC089A42450DD1079900239A4257
:1060500012D017F903C0C856844504D10133F6E7BE
:106060004FF6FF73E4E7294605A886F00106FEF720
:1060700097F8E1E70791C0E705AB93E8030084E8F0
:106080000300BEE72DE9F04188B001AC054684E885
:106090000E00084679B194E807002F4605AE57F880
:1060A000088B86E80B0031463846FFF75DFF28B1C4
:1060B00083880133838008B0BDE8F081069C4146A7
:1060C0002046FFF7EEFB10B901232B71F3E7059E85
:1060D00000F1080200239C4203D0F156D154013351
:1060E000F9E7044400232372AB680360A860E2E789
:1060F00030B589B001AC84E80E00054678B10C9942
:10610000FEF77EF894E8070005AB83E80700019AE4
:106110002AB19DF80C1021B104232B712A6009B01B
:1061200030BD0ECB0C98FFF7ADFF0028F7D005234C
:106130002B712860F3E7FFFF30B585B00146684654
:10614000FFF7C6FD9DF80030013B032B48D8DFE880
:1061500003F00218242FDDED027A9FED257AF4EE8C
:10616000C77AF1EE10FA3BDB9FED227AF4EEC77AA4
:10617000F1EE10FA34D8FDEEE77A17EE900A05B08A
:1061800030BDDDE9020110F1004241F10003012BB5
:1061900008BF002A28BF0020F1E7DDE90201002343
:1061A0008B426FF0004208BF824238BF0020E6E712
:1061B000DDE902450022104B204629460EF082F907
:1061C0000028DCD008A3D3E90023204629460EF09E
:1061D0006FF90028D3D0204629460EF09DF9CEE76E
:1061E0000020CCE7AFF300800000C0FFFFFFDF41DD
:1061F000000000CFFFFFFF4E0000E0C1FFFFFFFFE8
:1062000038B5057904460B46018815F0100003D017
:1062100003F12C00FFF735FB043D1A2D62D8DFE8AF
:1062200005F02D310E6161611061146134616161AD
:10623000616161616161616116612161490020787C
:1062400038BD206820EAE070FAE72068F8E7D0E976
:10625000000100238B426FF0004208BF824238BF2A
:106260000020EDE7D0E9000110F1004241F1000308
:10627000012B08BF002A28BF0020E1E72068FFF7B4
:106280005BFFDDE720680830F9E7D4ED007A9FED89
:10629000187AF4EEC77AF1EE10FA23DB9FED157A47
:1062A000F4EEC77AF1EE10FA1CD8FDEEE77A17EE9D
:1062B000900AC5E7D0E9004500220F4B2046294649
:1062C0000EF000F90028BBD007A3D3E90023204635
:1062D00029460EF0EDF80028B2D0204629460EF0EF
:1062E0001BF9ADE70020ABE70000C0FFFFFFDF4177
:1062F000000000CFFFFFFF4E0000E0C1437E6BB9FE
:10630000D0E9043293423DBF5A1C02611B784FF022
:10631000FF3323EAE37303760123437690F91800F1
:10632000704738B5044600252046FFF7E7FF0A28E6
:1063300006DC092808DA48B10123237300200AE0AB
:106340000D2801D02028F7D16576EDE7237B002BBF
:1063500014BF0220012038BD70B505464C1E002632
:1063600014F9010F50B12846FFF7C8FF28B194F97E
:106370000030834203D16E76F2E7022070BD032025
:10638000FCE72DE9F04387B006460D46FFF7B6FF60
:10639000002427462F28E3B20BDD39280BDC01341B
:1063A000402C24D033197776D8773046FFF7A6FFF4
:1063B000F0E72B28F3D0A0F12D02D2B2012AEED9BA
:1063C00020F0200252B2452AE9D03344002283F85B
:1063D000202006F1200102A8FFF77AFC9DF8083082
:1063E000013B032B62D8DFE803F03924043E3F234E
:1063F000EBE7DDE90489B9F1010F08BFB8F1000F3F
:1064000007D20A232B71C5F80080002007B0BDE831
:10641000F083F1696846FFF740FC009B0BB904204C
:10642000F4E71A222A71BDF804202A80C3E9008902
:10643000EBE7DDE9048918F1004249F10003012B83
:1064400008BF002A01D20C23DCE7F1696846FFF798
:1064500024FC009B002BE2D01C22E3E70E232B71CF
:10646000049B2B60D1E7DDE90489494640460EF0E4
:106470009BF807460DF048FD02460B46404649464C
:106480000EF002F818B10E232B712F60BDE7F169F1
:106490006846FFF702FC009B002BC0D01E222A7129
:1064A000BDF804202A80C3E90089AEE70320ADE7E8
:1064B00070B550F8046B07C88CB003AB16F1380503
:1064C00083E8070002D100200CB070BD93E80700FC
:1064D00096F83C30202B06AC09AB18BF002584E8A9
:1064E000070083E80700002DEDD000960ECB28466C
:1064F000FFF779FDE8E770B50646FFF7D9FF0546D7
:1065000088B10479018814F0100003D030682C3071
:10651000FFF7B7F90C2C29D006D8062C24D00A2C6A
:1065200024D07CB3012070BD1A2C24D00BD80E2CA3
:10653000F8D1D5ED007AF5EE407AF1EE10FA14BFFD
:1065400001200020EFE71C2C15D01E2CEAD10022E0
:106550000023D0E900014FF001040DF095FF08B1D0
:106560004FF00004E0B2DEE72878DCE7286800306E
:1065700018BF0120D7E7D0E90023134314BF01203F
:106580000020D0E72046CEE7F8B506460F46FFF7D5
:106590008FFF3368054668B10479018814F0100054
:1065A00003D003F12C00FFF76CF90C2C1AD003D8A0
:1065B0000A2C12D038681CE01A2C1BD01C2CF9D1E4
:1065C000D0E9002312F1004043F10001012908BF86
:1065D000002834BF0123002302E02B68DB43DB0FDC
:1065E000002BE7D03046FFF763FF316808B1FFF7B3
:1065F00007FEF8BDD0E90023002199426FF000406A
:1066000008BF90422CBF01230023E9E738B50446B8
:106610000D46FFF773FEA8424FF0000004BF6076FE
:10662000012038BD7F2837B50C4605D841B2204639
:10663000FFF796F903B030BD00238DF8003000F06D
:106640003F03800982B263F07F031F2A8DF8013077
:10665000C3B20DD863F03F038DF802300DF103058E
:1066600015F9011D0029E5D02046FFF779F9F7E774
:10667000C0F3891003F03F0363F07F030F288DF808
:106680000230C3B205DC63F01F038DF8033001ADA7
:10669000E6E703F03F03801163F07F0360F00F0033
:1066A0008DF803308DF804000DF10505D8E7FFFFE4
:1066B0002DE9F0478046FFF721FE0024384E88F888
:1066C0001940074625464046FFF718FE8742014617
:1066D00088F819505CD010B90220BDE8F0875C281A
:1066E00052D14046FFF70AFE0028F5D075283CD16C
:1066F00088F819504FF004094FF0000A4046FFF7A0
:10670000FDFD0028E8D04028CBBF20F02002303823
:10671000373AC3B2C8BFD3B20F2B01D90320DCE78D
:1067200009F1FF3943EA0A1319F0FF091FFA83FA46
:1067300088F81950E2D10AF520539BB2B3F5806F67
:1067400002D2CAF30904BEE70AF510539BB2B3F5AF
:10675000806F3DBFCAF3090A4AEA842A0AF58030ED
:1067600050464146FFF75EFFADE700239A5799195F
:10677000002AD3D0904203F10203F7D191F901101E
:106780000029CBD088F819504046FFF7E9F89AE77E
:10679000D8F80430002B0CBF042000209DE700BF78
:1067A000957A0100F0B587B005460C46FDF756FF17
:1067B0002F68064620460CB10EF0F9FFCDE90340E4
:1067C00000238DF81430009706AB304613E90E0015
:1067D000FFF78EFC286810B1007980F0010007B047
:1067E000F0BD2F280EDD392803DD5E2803DD7A2871
:1067F00003DC01207047402804DD5A28CCBF00206C
:10680000012070470020704770B50446FFF798F8E4
:106810002046FFF773FD27281ED022281CD02046D3
:10682000FFF76CFD0546FFF7DCFF98B1002629460F
:1068300020466676FFF794F82046FFF75FFD054691
:10684000FFF7CFFF0028F2D16368002B0CBF0420B4
:10685000002000E0032070BD2046FFF729FFFAE783
:106860002DE9F04F5FFA83F98DB004460D46B9F17A
:10687000000F00F08A8000234376FFF752FDB0B985
:106880007D212046FFF7C2FE80B909AF2046FFF701
:10689000BBFF60B92046FFF744FD064638B93A21F0
:1068A0002046FFF7B3FE28B9032000E000200DB01A
:1068B000BDE8F08FD4E9013213448DF82C601E72CC
:1068C000D4E901320833CDE90932E369009397E84E
:1068D0000E002846FFF787FB8046002851D120464E
:1068E000FFF756FBD4F81CB08246594605A8FDF7C1
:1068F000F4FC059E0EB90420D9E7594607A8FDF718
:10690000ECFCDDF81C80B8F1000FF4D0C6F800A054
:10691000BDF820A0A6F806A069884FF6FF720523EF
:1069200091423371BDF8183029D00BF12C0003933C
:10693000FEF7A7FF039BC380A5F802A009F1FF3370
:106940004FF000024146204600F022F80028AED168
:106950002046FFF7E6FC0028A9D17D212046FFF75D
:1069600055FE0028A2D12C212046FFF74FFE00281B
:106970009AD02046FFF7D5FC002887D097E72B80D8
:10698000DAE7E169FDF73CFCD8E705208FE7FFFF78
:10699000F8B506460C461F46FFF7C3FC0546C8B9C6
:1069A0003046FFF7ABFC662844D015DC272803D01F
:1069B0005B2819D0222842D13046FEF7C1FF30466D
:1069C000FFF776FE054628B93046FFF7E1FA0523C2
:1069D000237120602846F8BD742822D07B2812D06D
:1069E0006E282CD1184921E0402323714FF6FF7304
:1069F000238063804FF000023B462146304600F082
:106A000029F80546E6E7202323714FF6FF7323801C
:106A100063804FF000023B4621463046FFF720FFDF
:106A2000EFE7062323710949012323703046FFF75E
:106A300093FCE6E70623237125700549F6E7214616
:106A40003046FFF79EFCDCE7907A0100AF7A010048
:106A5000B47A01002DE9F347DDB204460E46002D5D
:106A600046D000234376FFF75CFCA8B95D212046A1
:106A7000FFF7CCFD78B94FF6FF7A013DD4F81C90B2
:106A800068464946FDF729FCDDF80080B8F1000FA3
:106A900005D1042000E0002002B0BDE8F087718835
:106AA000BDF80470514521D009F12C00FEF7E9FE34
:106AB000C78077802B464FF0000241462046FFF703
:106AC00067FF0028E8D12046FFF72BFC0028E3D120
:106AD0005D212046FFF79AFD0028DCD12C212046BD
:106AE000FFF794FD0028C9D10320D5E73780E0E700
:106AF0000520D1E7014802F0F9BD00BF7007002072
:106B000010B541F27D6186B00446134802F00AFEDA
:106B10002046FEF757FF114801F0D6F801F0CCF8F7
:106B2000646802280CBF0E490E49684609F049FF07
:106B30006946204600F0FEFF684609F0F7FE684609
:106B4000094901F051FE094B1A68094B684619685A
:106B500000F0E2FE06B010BD700700200D6E0000D0
:106B600077820100898201002C140020D4030020C8
:106B7000D80300202DE9F04F914B8FB01B68019393
:106B800004460F469046002603F1FF39019BB342AD
:106B900040F30F8156B38B49656808A809F011FFCF
:106BA0000A22314605A809F02BFF05A908A809F01B
:106BB000F6FF854909F0FFFF0A22824649460BA8E5
:106BC00009F01EFF0BA9504609F0E9FF01462846CF
:106BD00000F0B0FF0BA809F0A9FE05A809F0A6FE79
:106BE00008A809F0A3FE2068FEF78EFC774801F0A4
:106BF00063FD03281CD12546DFF808A255F8080BD1
:106C0000FEF770FC724BDAF800101A88284601F083
:106C1000C9FF30BB65686F490BA809F0D2FE284652
:106C20000BA900F087FF0BA809F080FE0136ADE745
:106C3000656869490BA809F0C4FE0BA9284600F055
:106C400079FF0BA809F072FE2068FEF743FC20468E
:106C5000FEF7B8FE82460028CDD150460FB0BDE801
:106C6000F08F5E4905A809F0ACFE414605A809F081
:106C700096FF5B4909F09FFF5A4909F09CFFDAF83B
:106C80000010834608A809F09CFE08A9584609F0A0
:106C900086FF5549DFF870B109F08DFF534909F0BF
:106CA0008AFF534909F087FF0A228246B9680BA878
:106CB00009F0B8FE0BA9504609F071FF4A4909F0E6
:106CC0007AFF4C4909F077FF394609F068FF014621
:106CD00002A809F0EDFE0BA809F028FE08A809F0AB
:106CE00025FE05A809F022FE02A9284609F04EFD5E
:106CF0000AF0E8FD82460AF0E5FDDBF80030A0EB83
:106D00000A0098424CD2284601F0E4FF00284CD0FB
:106D1000294605A809F0DEFD284602F05FF936494C
:106D200008A809F04EFE08A905A809F0D7FF002819
:106D300030DC32490BA809F044FE0BA905A809F084
:106D4000CDFF00280BA8D4BF4FF0000A4FF0010A76
:106D500009F0ECFD08A809F0E9FDBAF1000F1CD01C
:106D6000274965680BA809F02CFE41460BA809F0DD
:106D700016FF0146284600F0DDFE0BA809F0D6FDFF
:106D80002068FEF79FFB05A809F0D0FD02A809F0D6
:106D9000CDFD62E74FF0010ADCE705A809F0C6FD6A
:106DA000284602F01BF902A83EE70A200AF046FD39
:106DB000A1E72068FEF78EFB4FF0000A4DE700BF09
:106DC000B47B0100B17F0100C07F01002C140020C2
:106DD000C47B0100E97F0100C57F0100058001003F
:106DE0000B80010017800100638001001E800100FC
:106DF0003F80010050800100668001006D8001002D
:106E000079800100D0030020A87B01002DE9F0412A
:106E100090B03022002104A80DF0DDFE1D4B04933C
:106E20001D4B1E4E93E8070001AD85E807000024C6
:106E30007B2255F82410304602F0B4FD302204A91C
:106E4000304602F05BFE304602F020FE0AF03AFDCA
:106E500041F2873807460AF035FDC01B404514D87B
:106E6000304602F08BFE60B1302204A90B4802F0DC
:106E700000FC0E9B0A481BBA1844002110B0BDE864
:106E8000F0810A200AF0DAFCE5E70134032CCFD1C7
:106E90000020F2E7E30006EC807E0100700700208E
:106EA0008081557C2DE9F04F684B694F00F1080651
:106EB000C1B005468B46914639681A88304601F0C4
:106EC00071FE20AC8246D5F8048078B9614920462D
:106ED00009F077FD2146404600F02CFE204609F0DF
:106EE00025FD5746384641B0BDE8F08F5A49204647
:106EF00009F067FD2146404600F038FE204609F0C3
:106F000015FD5649D5F80480204609F05AFD0A229D
:106F100049461CA809F074FD1CA9204609F03FFE53
:106F20004F4909F048FE0146404600F003FE1CA808
:106F300009F0FCFC204609F0F9FC2868FEF7FAFB92
:106F400048491CA809F03DFD59461CA809F027FE38
:106F5000454909F030FE454909F02DFE3968444F96
:106F60008046204609F02DFD2146404609F017FED7
:106F7000404909F020FE404909F01DFE014607A8DE
:106F800009F096FD204609F0D1FC1CA809F0CEFCC2
:106F900007A9304609F0FAFB304601F09BFE80B1AC
:106FA000314620460A2209F0A9FC3946204609F05C
:106FB00031FE18B9204609F0B9FCEDE7204609F08A
:106FC000B5FC484600F0E2FC002800F064816F68E0
:106FD0002A49DFF8B0B0204609F0F3FC21463846D4
:106FE00000F0A8FD204609F0A1FC00212868FEF76A
:106FF000ADFA4FF0FF3A4FF00008304601F06AFE5C
:10700000002841D0C8453FDA80222146304601F0B1
:107010005AFF071EF1DD3946204600F0C3FC8742C7
:1070200000F0F8806C6816491CA809F0CAFC1CA97D
:10703000204600F07FFD1CA809F078FC00F0D2FC8F
:10704000304601F0CBFF0027E0E000BFC47B010029
:10705000D00300203F810100648101008081010094
:107060008E810100958101000B80010017800100D5
:107070009A81010063800100508001009C81010021
:10708000BC810100D8810100C84540F0048100F0B6
:10709000A1FC0746002800F0FE806E688749DFF8F3
:1070A0005492204609F08DFC2146304600F05EFDEA
:1070B000204609F03BFC6E688149204609F081FCBE
:1070C0002146304600F036FD204609F02FFC6421B1
:1070D0002868FEF73BFA7B4B209323AB2B934FF4AE
:1070E00080232C934FF6FF7301264FF00008D9F848
:1070F0000010ADF8B430ADF8BE304FF0080B724B55
:107100001D931CA84FF00E0A8DF88480CDF888805E
:107110008DF8BC801C94CDF878B08DF87C60FFF7BA
:1071200041FB6A4B1D931CA81C94CDF878A08DF8E8
:107130007C60FDF793FA664B8DF86060CDE9163BF5
:107140001C9B009316AB0ECBFEF7D2FF614B1C9439
:10715000CDE91D3A604B8DF87C6019681CA8FFF7DB
:1071600021FB5E4B1D931CA80D231E931C948DF8D0
:107170007C60FDF773FAEA6A6B6B8DF86C80CDE981
:1071800019231C9B009319AB0ECBFEF7B1FF54499A
:107190000AA809F016FC2EABCDE9053405AB93E83F
:1071A00003000AAAFDF756FD0AA913A809F080FCFE
:1071B0004C4910A809F005FCD9F800100DA809F0F9
:1071C00000FC0DA910A809F0EAFC01461CA809F072
:1071D0006FFC1CAA13A92846FFF7CCFC1CA809F0D9
:1071E000A5FB0DA809F0A2FB10A809F09FFB13A8AE
:1071F00009F09CFB40F6B8300AF020FB00F0F8FBE9
:107200000AA809F093FB2046FCF794FF07A809F0B1
:107210008DFB67E6B8446427052307FB08F797FB57
:10722000F9F797FBF3F29AFBF3F39A427FF7E5AE97
:1072300039462868FEF78AF96B680393594619A8FE
:1072400009F0BFFB0A22414616A809F0D9FB16A98E
:1072500019A809F0A4FC244909F0ADFC0A228246D1
:1072600039461CA809F0CCFB1CA9504609F097FC34
:107270001E4909F0A0FC039B0146184600F05AFC89
:107280001CA809F053FB16A809F050FB19A809F037
:107290004DFBBA46B1E6304601F0A0FE6E681449D7
:1072A000204609F08EFB2146304600F043FC204684
:1072B00009F03CFB2868FEF70DF9C4E6F1810100F6
:1072C00013820100B8030020747B010026820100B4
:1072D000358201003E820100C80300204D8201007A
:1072E000A77A01005B820100E5810100EE810100C7
:1072F00069820100C40300202DE9F0419A4BD1F8C6
:1073000000808F68B4B04FF48022002418920646A3
:107310004FF6FF720FA819468DF834400E948DF881
:107320006C400C931790ADF86420ADF86E20FEF71A
:1073300017FC8DF834400C9C47440E9828B1036824
:107340000E932146FEF7D9FAF7E70CAD8DF86C00E5
:10735000CDE91C501E908DF87C008DF889004FF00F
:107360000A034FF000021AA91CA8CDE92087239533
:10737000FFF70EFB044640B99DF988302BB19DF80C
:107380006C3013F0080F18BF03241D9818B11C9B14
:107390001968FEF7B2FA04B3744976681CA809F0BC
:1073A00010FB734B09A853F8241009F00AFB09A934
:1073B0001CA809F0F4FB0146304600F0BBFB09A80D
:1073C00009F0B4FA1CA809F0B1FA00242846FCF729
:1073D000B1FE204634B0BDE8F081664B1D93012715
:1073E0000F231CA81C951E938DF87C70FFF783F863
:1073F00086F828001C95002835D15F4B1D931CA8EA
:1074000007231E938DF87C70FFF752F848B3037979
:10741000043BBB4225D81CA8FFF74AF80146F0B14F
:1074200009A8FEF770FA099909A809F0CAFA5349A0
:1074300074681CA809F0C5FA09A91CA809F0AFFBDB
:107440000146204600F076FB1CA809F06FFA306870
:10745000FEF738F809A809F069FA0124B6E72146D1
:10746000E2E74749E0E7474B1D931CA80D238DF841
:107470007C701E93FFF71CF843491C9F044606A826
:1074800009F09FFA002C5FD0214609A8FEF73BFACD
:107490000999002958D006A809F01AFB06F12C0416
:1074A00006A9204609F00EFB06A809F03FFA374965
:1074B00009A809F086FA364B06A8196809F081FA7E
:1074C00006A909A809F06BFB324909F074FB2146B3
:1074D00009F065FB304909F06EFB304B0446196832
:1074E0001CA809F06EFA1CA9204609F058FB0146B9
:1074F00003A809F0DDFA1CA809F018FA06A809F09B
:1075000015FA09A809F012FA254B1D9304231E93BE
:107510000024012309A91CA81C958DF87C3009942E
:10752000FFF732F8021E18DC76681E491CA809F025
:1075300048FA30461CA900F0FDFA1CA809F0F6F93B
:1075400003A809F0F3F941E7CDE9014701AB06AA29
:1075500093E80300FDF77EFBA0E703A93046FFF7A1
:10756000A1FC0446ECE700BFB8030020A98001009D
:10757000E0030020BC800100CC800100D480010029
:1075800094800100E4800100A77A0100F2800100EC
:10759000C4030020138101001D810100CC030020E1
:1075A0003A810100298101002DE9F0414568A24995
:1075B00090B004460DA809F004FA0DA9284600F081
:1075C000D5FA9E4D0DA809F0B1F99D4966680DA840
:1075D00009F0F7F929680AA809F0F3F90AA90DA832
:1075E00009F0DDFA0146304600F0A4FA0AA809F0D5
:1075F0009DF90DA809F09AF92068FDF773FF9148ED
:1076000001F05AF8032811D065688F490DA809F0D8
:10761000D8F90DA9284600F08DFA0DA809F086F9D1
:107620002068FDF757FF10B0BDE8F081874907A833
:1076300009F0C7F9864B04A8196809F0C2F904A932
:1076400007A809F0ACFA834909F0B5FA296806469B
:107650000AA809F0B6F90AA9304609F0A0FA7E494D
:107660007E4E09F0A8FA7E4B054619680DA809F070
:10767000A8F90DA9284609F092FA014601A809F0D7
:1076800017FA0DA809F052F90AA809F04FF904A851
:1076900009F04CF907A809F049F9724B31681A88CA
:1076A00004F10805284601F07DFA90B965686E4935
:1076B0000DA809F086F90DA9284600F03BFA0DA89F
:1076C00009F034F92068FDF705FF01A809F02EF94B
:1076D000A9E76649DFF8B8810AA809F072F901A99B
:1076E0000AA809F05CFA624909F065FA614909F0F3
:1076F00062FA316807460DA809F063F90DA938460A
:1077000009F04DFA5C4909F056FA5C4909F053FA60
:10771000014604A809F0CCF90DA809F007F90AA858
:1077200009F004F904A9284609F030F8544907A8DB
:1077300009F047F90AF0C6F8002607460AF0C2F831
:10774000D8F80030C01B98421AD2284601F0C2FA7D
:1077500038B1284601F00CF941B207A809F014FA33
:107760000126284601F076FC18B101200AF066F8DF
:10777000E4E7284601F0AEFA0028F6D1002EF4D056
:10778000284601F02BFC7EB965683E490DA809F03A
:1077900018F90DA9284600F0CDF90DA809F0C6F892
:1077A0002068FDF797FE3FE037490DA809F009F979
:1077B0000DA907A809F092FA05460DA809F0B6F838
:1077C000002D16DB2A1D099B07A90AA809F0A4FAB7
:1077D0000AA809F0DAFA7B210AA809F06AFA7D21E1
:1077E00005460AA809F094FA002D05DA0AA809F05E
:1077F0009DF865682549C9E70028F7DB431C2A4640
:107800000AA90DA809F088FA0DA90AA809F05AF9E1
:107810000DA809F08BF80AA92046FFF76DFD002896
:10782000E4D00AA809F082F807A809F07FF804A8B4
:1078300009F07CF849E700BFCD7E0100C8030020B5
:10784000EE7E01002C140020007F01002A7F010041
:10785000C4030020487F01001D810100D0030020E7
:10786000CC030020C47B0100597F010095810100F9
:107870000B8001001780010063800100508001002F
:10788000A77A01007C7F0100618001009D7F0100DB
:10789000A87B010010B50A4C88B004F1300168469D
:1078A00001F058FD6946204603F04EF8684601F0A5
:1078B0002DF904F16001204602F08CFE08B010BDE5
:1078C000480D002010B5084C204602F0BBFD04F125
:1078D00030004FF47F4101F02BFD04F16000BDE862
:1078E000104001F003BF00BF480D002010B5084C48
:1078F000084B236304F1400001F008F904F10C0087
:1079000009F014F82046BDE8104009F00FB800BF98
:10791000480D002080880100F0B5031D05460E4685
:1079200017460FCB8FB003AC84E80F00144B0893BD
:1079300094E80F0095F814C0124C8DF834C009ADCE
:1079400085E80F00104B009332463B4608A92046BD
:1079500002F08EFD04F1300001F0AEFDFB23009338
:1079600000231A46E02108A808F09CFD41F2E942F4
:1079700008A904F1600001F057FF0FB0F0BD00BF8F
:10798000CC8F0100480D00208C160020014608B560
:10799000034802F0A1FC003018BF012008BD00BF61
:1079A0008C1600202DE9F041094F054600EB010837
:1079B00004464445A4EB050606D014F8011B3846DE
:1079C00002F0C4FC0128F4D03046BDE8F08100BFCD
:1079D0008C16002008B5024802F0A6FC012008BD64
:1079E0008C160020014802F09FBC00BF8C160020BE
:1079F000014802F0F5BC00BF8C16002038B50D46DA
:107A00000449044606231622097802F0D3FA656178
:107A1000204638BDAC7B010070B52DED028B8AB0DD
:107A200045693A49044607A808F0CBFF07A928464C
:107A300000F09CF807A808F079FF3721204602F0F3
:107A4000BFFA4FF4FA6009F0F9FE00221146204611
:107A500002F05AFB00212046F0EE408A02F0F0FBD3
:107A6000F4EE688AF1EE10FAB0EE408A656940D60D
:107A7000B4EE400AF1EE10FA3BD6254904A808F00E
:107A8000A0FFB0EE680A022101A809F02BF801A9B5
:107A900004A809F084F81F4909F08DF8B0EE480AEF
:107AA0000646022107A809F01DF807A9304609F08B
:107AB00076F8194909F07FF80146284600F03AF8AF
:107AC00007A808F033FF01A808F030FF04A808F069
:107AD0002DFF6469114907A808F073FF07A9204624
:107AE00000F044F807A808F021FF0AB0BDEC028BB3
:107AF00070BD0B4907A808F064FF284607A900F0ED
:107B000035F807A808F012FFE3E700BF0B83010078
:107B1000238301003A830100217B01008783010058
:107B2000498301000022114602F0EEBA002102F062
:107B300087BB7047014808F03DBE00BF5C180020BD
:107B4000F8B50849084E0546174608F03AFF0024E4
:107B5000BC4205DA3146284609F011F80134F7E74E
:107B60002846F8BDA77A0100A58C0100F0B5224C8B
:107B70008A68224D224E87B00F4601466846FFF7BD
:107B8000DFFF214603A808F01CFF694603A809F09F
:107B900006F8214609F00FF80146284608F00AFECB
:107BA00003A808F0C3FE314603A808F00AFF3946CF
:107BB00003A808F0F4FF314608F0FDFF014628460F
:107BC00008F0F8FD03A808F0B1FE214603A808F06C
:107BD000F8FE694603A808F0E2FF214608F0EBFF33
:107BE0000146284608F0E6FD03A808F09FFE684617
:107BF00008F09CFE07B0F0BD9E8301005C180020D9
:107C0000A1830100014807F0A5BE00BF5C18002059
:107C100008B5074B1860074B1B681844064B1860E3
:107C2000064B02221A7009F04DFE054B186008BD84
:107C30008C130020F80300208413002088130020F8
:107C40008013002038B5164D164C09F03BFE2B680A
:107C5000C01AB0F57A7F06D3226803F57A73013231
:107C600022602B60F1E7104D23682A689A4208D8F9
:107C70000E4B1B682BB1984750EA010304D0FFF765
:107C8000C7FF2068002138BD094A236812681344E1
:107C9000084A2B601378003318BF01231370F0E7F4
:107CA000801300208C1300208413002090130020E8
:107CB000F80300208813002008B5FFF7C3FF014B2D
:107CC000187808BD88130020034B1860034B1A680E
:107CD000034B1A60FFF7B6BF901300208C130020EF
:107CE0008413002008B50368002B02DA09480BF062
:107CF0009CFF8B4208D949008B4205D20029B6BFB0
:107D00006FF00043016003600068BDE80840013087
:107D10000BF077BFB584010010B50446406828B168
:107D200063781BB940F2AC410BF05AFF204610BDFE
:107D300008B4F3B507AB044600F10C0553F8042B67
:107D40000193802128460DF045FED4F89000A8B19B
:107D500094F89430012B11D90F4908F01CFDD4F888
:107D60009060336828465F680DF021FD2946024681
:107D70003046B847D4F8900008F016FD28466468ED
:107D80000DF015FD29460246204607F0F9FE02B027
:107D9000BDE8F04001B0704705840100034653F888
:107DA000080B984201D00BF019BF7047F8B5064692
:107DB000456808460F460DF0FAFCA842024628BF67
:107DC0002A46044622B1394630680CF0D1FE00B98B
:107DD000281BF8BD012A30B404D191F9003003709A
:107DE00030BC7047002AFBD030BC0CF0D0BEFFFF87
:107DF00000F1080373B5044603600D46D1B108468F
:107E00000DF0D5FC0F280646019006D9002101A8E7
:107E1000FFF768FF019B2060A36032462946206877
:107E2000FFF7D8FF019B2268636000212046D154F0
:107E300002B070BD01480BF0F5FE00BFCD8401001B
:107E40002DE9F347DDF82880164642689A46A8EBEC
:107E50000603571A13440268019300F108039A427B
:107E60000D46044614BF81680F2101A8FFF73AFFB1
:107E7000BF1B81461DB12A462168FFF7ABFFBAF14F
:107E8000000F08D0B8F1000F05D04246514609EB6B
:107E90000500FFF79FFF47B121682E4405EB08005E
:107EA0003A4631444844FFF795FF2046FFF776FFF6
:107EB000019BC4F80090A36002B0BDE8F087F7B55D
:107EC0000268466800F108039A4218BF836806F109
:107ED000010508BF0F239D4204460F4606D9012322
:107EE000009300231A463146FFF7AAFF23689F55E7
:107EF0002368656000225A5503B0F0BD012A30B4F2
:107F000004D191F90030037030BC7047002AFBD0D7
:107F100030BC0CF047BEFFFF2DE9F74F81461446F9
:107F200040680C9E02F10042013A121A96429846AD
:107F300002D937480BF079FE4A46A6EB040B52F8FB
:107F4000083B934218BFD9F808200BEB000A08BF82
:107F50000F22524552D35F189845A0EB0101A1EBC7
:107F6000040522D3034498451FD876BB95B1B4428B
:107F700010D02A463919B819FFF7C0FFB44209D208
:107F80003C4408EB06039C4227D332464146384620
:107F9000FFF7B4FFD9F80030C9F804A00022484622
:107FA00003F80A2003B0BDE8F08F35B1B44204D025
:107FB0002A463919B819FFF7A1FF002EEAD0324638
:107FC00041463846FFF706FFE4E7B4421DD3324688
:107FD00041463846FFF792FFC8E7444503D832468A
:107FE00008EB0B01EDE7A4EB0804224641463846B6
:107FF000FFF784FF321BB9193819E3E700964346AF
:1080000022464846FFF71CFFC4E7002DB8D0B0E772
:108010009C84010037B5044608460D460DF0C7FBA9
:108020002B460090626800212046FFF775FF03B0E1
:1080300030BDFFFF2DE9F04F8FB00AAB029106462D
:10804000089398490298002309938DF828309246A6
:10805000FFF7ACFE031C0490D6F8900018BF012374
:10806000069328B196F8943013B18F4908F093FB2A
:1080700009F028FC4FF000080123DFF854B2059006
:108080004746CDF80480CDF80C80994644460793C6
:1080900009F018FC059BB268C01A904200F21A81E0
:1080A000079B5BB17068026812699047079B0028C4
:1080B000EDD0706803685B69984745B2D6F89000C8
:1080C00038B196F8943023B10A2D24D1774908F0BD
:1080D00062FBD6F8900060B196F89430022B08D974
:1080E000734908F058FB0A222146D6F8900008F0A0
:1080F000B7FB631E072B29D8DFE813F03A005C00BA
:108100007E008A008D00B7002B01A200092C00F030
:10811000E3800123BBE70D2D01D16649D7E7202D70
:1081200001D16549D3E71F2D0CDC644908F033FB0E
:1081300029460A22D6F8900008F0ABFB6049D6F831
:108140009000C4E7294608F02AFBC2E72B2D05D191
:10815000294608A8FFF7B3FE0124DAE71BF9073028
:10816000AB4240F09C80DDF8188001370824D0E74E
:108170003A2D294608A801D03D2D3AD1FFF79FFEA0
:10818000049B8BB1029B099A5B689A4206D15AB153
:10819000029B089819680CF0EBFC28B1494908A823
:1081A000FFF738FF4FF0010846495046FFF732FF0E
:1081B0000224AEE77C2D0ED1DAF800000CF01BFC97
:1081C0000023CAF80430DAF8003003904FF00002C0
:1081D0001A7003249DE70D2D00F0B2800A2D00F0E7
:1081E000B18096F88C3013B1202D00F0AD80294677
:1081F0005046FFF764FE8CE729465046FFF75FFEC6
:10820000019B039A01330193934208BF052480E741
:108210000A2D08BF05242C495046FFF7C7FD60B161
:108220002A495046FFF7C2FD002804BF4FF001095C
:1082300009244F2D2AD1012798E781460924F8E720
:108240001BF907207B1C58460793AA4218BF072436
:108250000DF0ADFA079B984270D107464FF0000928
:10826000B8F1000F19D1092436E01BF907207B1C57
:1082700058460793AA4218BF07240DF098FA079BA7
:1082800098425BD107464FF00109E9E7B8F1000FCA
:108290003FF43CAF092C7FF43CAF4FF000080024C2
:1082A00037E700BF56840100638401006984010040
:1082B000848401006E8401007384010078840100CD
:1082C0006C840100A77A01006A800100D683010056
:1082D0007A8401004FF00309D6F89000B8B196F8FF
:1082E0009430022B13D91E4908F055FA0A22214670
:1082F000D6F8900008F0B2FA1A49D6F8900008F0C3
:108300004AFA0A224946D6F8900008F0A9FAD6F8A7
:108310009000012386F88C3048B196F8943033B140
:10832000114908F038FAD6F8900008F03DFA08A88C
:10833000FFF734FD48460FB0BDE8F08F1F46E8E672
:108340000424E6E60524E4E6B8F1000F7FF4E1AE8C
:108350009DE6002398464FF002091C4697E600BFB1
:108360007F8401008C8401009284010030B50446B2
:10837000406803688DB05B68984706AA1D49684647
:10838000FFF736FD08AB069306AA00236946204690
:1083900007938DF82030FFF74DFE0546D4F8900086
:1083A00088B194F89430012B0DD9134908F0F3F9F2
:1083B0000699D4F8900008F007FA7DB90F49D4F86F
:1083C000900008F001FA06A8FFF7E8FC6846FFF7FE
:1083D000E5FCB5FA85F040090DB030BD012DD4F8AB
:1083E000900001D10649ECE7032D0CBF0549064971
:1083F000E7E700BF56840100A3830100BD830100AD
:10840000CB830100DC830100EF83010008B42DE978
:10841000F3431646044609AB306853F8042B019326
:10842000884604F10C050021716001708021284606
:108430000DF0D0FAD4F89000B0B108F0B5F92449A5
:10844000D4F8900008F0A7F9D4F890703B6828465B
:10845000D3F804900DF0ABF9294602463846C847D8
:10846000D4F8900008F0A0F9284667680DF09FF94D
:1084700029460246384607F083FB324641462046ED
:10848000FFF7D8FD0546D4F8900068B1114908F00F
:1084900082F93168D4F8900008F096F965B90E4970
:1084A000D4F8900008F090F9B5FA85F0400902B0D0
:1084B000BDE8F04301B07047012DD4F8900001D120
:1084C0000649EFE7032D0CBF05490649EAE700BF5F
:1084D000408401004A840100BD830100CB83010078
:1084E000DC830100EF8301002DE9F043044640687E
:1084F00091B01646002834D02378002B31D1036880
:10850000194DDB69DFF86C90DFF86C80174F9847E6
:108510000AAA174904A8FFF76BFC60680368DB68C8
:1085200098474FF4FA72AA602378A3B9002E12DD9F
:1085300003AA49460AA8FFF75BFC3B4604AA0AA91E
:10854000CDF800800848FFF761FF20700AA8FFF708
:1085500025FC013EE8E742F2107304A8AB60FFF788
:108560001DFC11B0BDE8F08394130020D7960100E4
:10857000A77A01001D8401002D840100074B0848E3
:1085800058600022012142F210701A7059709860F0
:1085900083F88C1083F89420704700BF9413002058
:1085A000B42100200148FFF7B7BB00BF941300209F
:1085B00008B50368002B02DA09480BF036FB8B4242
:1085C00008D949008B4205D20029B6BF6FF000439D
:1085D000016003600068BDE8084001300BF011BB8A
:1085E000B584010073B542F21073036000F5F873AF
:1085F0000025C0F8E831012600F50273044680F832
:10860000E451C0F8EC5180F8F051C0F80032C0F8E5
:10861000045280F8085204230096A822C02100F5D5
:10862000067007F03FFF33460096A822C02104F5EC
:108630000C7007F037FFFF2300951A46194604F522
:10864000127007F02FFF204602B070BD73B50546CB
:108650000E4619B912B10D480BF0E4FA941B0F2C19
:10866000019406D9002101A8FFF7A2FF019B286011
:10867000AB60224631462868FFF7ACFB019B2A68B5
:108680006B600021D15402B070BD00BFCD840100E9
:1086900038B500F10803044603600D4649B10846A9
:1086A0000DF085F82A1820462946FFF7CFFF20460F
:1086B00038BD4FF0FF32F6E710B503228CB04FF40F
:1086C000E1311148FFF710FF10496846FFF7E0FF5E
:1086D0000F4906A8FFF7DCFF0E4B0B486A4606A9B8
:1086E000FFF794FE044606A8FFF758FB34B10120BB
:1086F00009F0A4F800980CF07EF9C4B26846FFF7C0
:108700004DFB20460CB010BD94130020A77A010049
:108710009F850100AB850100F0B591B004460E467F
:1087200004A82849284D1746FFF7B2FF03224FF44B
:10873000E1312648FFF7D8FE25490AA8FFF7A8FF30
:1087400001230193234B00930AA9234B1F4804AA3A
:10875000FFF75CFE0AA8FFF721FB20490AA8F7B93A
:10876000FFF796FFCDE900561D4B184804AA0AA949
:10877000FFF74CFE05460AA8FFF710FBDDB109F034
:10878000A1F8054609F09EF82368401B984212D2D2
:108790002046FFF791FF0328F4D104460CE0FFF7D1
:1087A00077FFCDE9016700950E4B084804AA0AA996
:1087B000FFF72CFEDEE7042404A8FFF7EFFA2046BB
:1087C00011B0F0BDA77A0100888501009413002044
:1087D0003785010070850100698501007D850100F4
:1087E000218501009585010070B503228EB00546F4
:1087F0004FF4E1312848FFF777FE0024274902A80B
:10880000FFF746FF2346224621460094284607F0FC
:1088100049FE234908A8FFF73BFF224B009302AA19
:10882000214B1D4808A9FFF7F1FD064608A8FFF7F0
:10883000B5FAD6B102980CF0DEF801281BD11B491D
:1088400008A8FFF725FF1A4B00930194194B124813
:1088500002AA08A9FFF7DAFD044608A8FFF79EFA66
:108860001CB10299284607F03FFF02A8FFF796FACD
:1088700028460EB070BD02980CF0BDF80228F4D165
:108880000D4908A8FFF704FF0C4B034802AA08A9EA
:10889000FFF7BCFDE0E700BF94130020A77A0100BA
:1088A0003785010042850100D79601002686010028
:1088B0002E860100698501000D86010018860100E1
:1088C00010B5104C10498CB06846FFF7E1FE03224A
:1088D00020464FF4E131FFF707FE0C4906A8FFF7E9
:1088E000D7FE0B4B6A4606A92046FFF78FFD0446CC
:1088F00006A8FFF753FA6846FFF750FA20460CB077
:1089000010BD00BF94130020A77A0100F784010076
:10891000048501000148FFF765BE00BF2C1400204C
:1089200010B5054C04F50070FFF738FA04F5F47043
:10893000FFF734FA10BD00BF2C1400200020704750
:108940000069013018BF0120704708B503685B6BF0
:10895000984780F00100C0B208BD13B502AB0268B1
:1089600003F8011D546819460122A04702B010BD4A
:1089700007B5036801225B6A0DF1070198470128DA
:108980000CBF9DF807004FF0FF3003B05DF804FB0B
:1089900000690B69C31A584258417047704700205C
:1089A000704740F20C41C0680BF01AB910B51021A5
:1089B00004460BF015F9204610BD08B5FFF7F6FF89
:1089C00008BD7FB503680446164601A81D6A07F076
:1089D000CBFD324601992046A847044601A807F07E
:1089E000A5FF204604B070BD036810B504469B681F
:1089F0009847A368013BA3602BB923682046DB6836
:108A0000BDE81040184710BD00F1080370B50446DA
:108A100003600E46B1B108460CF0C9FE0F280546AA
:108A200004D901300BF0EDF8A5602060012D20681D
:108A30000BD196F9003003702368656000225A5507
:108A4000204670BD04480BF0EDF8002DF4D02A4606
:108A500031460CF09CF8EFE7CD840100036813B9B0
:108A600062B6BFF36F8F704713B5EFF310830093B7
:108A70000123019372B6019B5A1E019233B104681F
:108A80006846FFF7EBFF204602B010BD6846FFF7CF
:108A9000E5FFF8E713B50446EFF3108300930123D5
:108AA000019372B6019B5A1E0192684633B1FFF7DB
:108AB000D5FF601CC0F3090002B010BDFFF7CEFF68
:108AC000FAE7FFFF0023C0E905334FF47A72C0E9EB
:108AD0000132C3610B6903618B698361CB69044A0D
:108AE00002601BB15A6801325A60C361704700BF0F
:108AF000D087010010B50446006828B14368013BE7
:108B000043600BB9FFF770FF204610BD10B5044B52
:108B1000044640F81C3BFFF7EDFF204610BD00BFA8
:108B2000D087010030B50369002B8FB0044607DB06
:108B30000368DB6A984718B9236820469B6A984700
:108B40002369013321D1124902A8FFF75DFF0322F7
:108B50004FF4E1310F48FFF7C7FC0F4908A8FFF7B2
:108B600053FF0E4B009302AA0D4B0A4808A9FFF7CA
:108B70004DFC054608A8FFF711F91DB102980BF04E
:108B80003AFF206102A8FFF709F90FB030BD00BF1E
:108B9000A77A010094130020A9870100B78701007C
:108BA000D796010070B5044692B00D461646FFF701
:108BB000B9FF2369002B25DB1E4906A8FFF724FF18
:108BC00003224FF4E1311C48FFF78EFC6369DBB1EF
:108BD0001A490CA8FFF718FF63690295CDE90363F2
:108BE00023690193164B009306AA164B12480CA951
:108BF000FFF70CFC04460CA8FFF7D0F806A8A4B9B0
:108C0000FFF7CCF8002013E00F490CA8FFF7FCFE9B
:108C1000CDE90256236901930C4B009306AA0C4B35
:108C200005480CA9FFF7F2FBE4E7FFF7B7F80120CE
:108C300012B070BDA77A010094130020E8860100ED
:108C400008870100F88601001A8701003B870100B0
:108C50002E87010070B50369002B90B005460E46C3
:108C600014462ADB164904A8FFF7CEFE03224FF470
:108C7000E1311448FFF738FC13490AA8FFF7C4FE96
:108C800002942B690193114B009304AA104B0D48D9
:108C90000AA9FFF74DF80AA8FFF780F822463146E7
:108CA0000848FFF763FB054604A825B1FFF776F8EF
:108CB000204610B070BDFFF771F80024F8E700BF40
:108CC000A77A010094130020C2860100D986010012
:108CD000CF86010030B50369002B8FB0054635DB28
:108CE00084695CB104F58160FFF7BEFE002808DDF1
:108CF000A86900F58160FFF7B7FE044620460FB073
:108D000030BD154902A8FFF77FFE03224FF4E13181
:108D10001248FFF7E9FB124908A8FFF775FE2B6917
:108D20000193104B009302AA0F4B0C4808A9FFF7C0
:108D30006DFB044608A8FFF731F84CB102980BF020
:108D40005AFE041E04DA02A8FFF728F80024D5E72B
:108D500002A8FFF723F8D1E7A77A010094130020B7
:108D60006987010075870100698501002DE9F04FD1
:108D70000369002B93B00746C0F287808369002BFC
:108D800000F08380424906A8FFF73EFEBA69EFF380
:108D900010830C9301230D9372B60D9B591E0D91F8
:108DA0001BB1D2F80854C5F580653A4E0CA8FFF700
:108DB00055FE0024032230464FF4E131FFF794FBC7
:108DC000013D86F88C4034490CA8FFF71DFE029542
:108DD0003B690193314B00933046314B06AA0CA9F5
:108DE000FFF714FB06460CA8FEF7D8FF002E41D073
:108DF000079B002B47D04FF00109CA46AC4239D23D
:108E0000079B9C4236D2069BBE6913F804B0EFF371
:108E10001083CDE9043972B6059B5A1E059223B31F
:108E2000EFF31083CDE90C3A72B60D9B5A1E0D92EA
:108E30003BB1D6F80834A3F58063D3F1000848EBC2
:108E400003080CA8FFF70AFEB8F1000FE4D1D6F82A
:108E5000000406F800B0FFF71DFED6F80834C6F887
:108E600000040133C6F80834D6E704A8FFF7F6FD7E
:108E70000134C3E74FF0FF3406A8FEF78FFF20460A
:108E800013B0BDE8F08F1C46F6E74FF0FF34F6E76D
:108E9000A77A0100941300208E8601009E860100AF
:108EA000CF86010038B5044680690D4650B100F503
:108EB0008160FFF7D9FDA84204D22046BDE83840C2
:108EC000FFF754BF38BD2DE9F74F07468A461146D4
:108ED0001646FFF7E7FF3B69002B33DBBC6994B311
:108EE0004FF0010B56440024D946B2452BD0BBF1BC
:108EF000000F28D0BD69D5F808344BB995F800802B
:108F00009B460AF8018BBBF1000FEED00134ECE771
:108F1000EFF31083CDE9003972B6019B5A1E01921E
:108F200063B1D5F8040415F80080FFF7B3FDD5F858
:108F30000834C5F80404013BC5F808346846FFF757
:108F40008DFDDEE70024204603B0BDE8F08F10B5AC
:108F500004460121FFF7A6FF2369002B0ADBA36962
:108F600043B1D3F808241AB1D3F80424985C10BD97
:108F7000FF20FCE74FF0FF30F9E7FFFF10B5036972
:108F8000002B8EB004461DDB0F4902A8FFF73CFD05
:108F900003224FF4E1310D48FFF7A6FA0C4908A867
:108FA000FFF732FD236901930A4B009302AA0A4B93
:108FB000064808A9FFF72AFA08A8FEF7EFFE02A85C
:108FC000FEF7ECFE0EB010BDA77A0100941300204E
:108FD000B0860100B88601006985010010B50369FB
:108FE000002B8EB0044620DB154902A8FFF70CFDCC
:108FF00003224FF4E1311348FFF776FA124908A82B
:10900000FFF702FD23690193104B009302AA104B56
:109010000C4808A9FFF7FAF908A8FEF7BFFE4FF0C1
:10902000FF33236102A8FEF7B9FEA3690022C3F84B
:109030000024C3F80424C3F808240EB010BD00BFF8
:10904000A77A010094130020708601007E8601003B
:109050006985010010B503688EB01B690446984706
:10906000002829DC2369002B28DB154902A8FFF71B
:10907000CBFC03224FF4E1311248FFF735FA1249D5
:1090800008A8FFF7C1FC23690193104B009302AAC3
:109090000F4B0C4808A9FFF7B9F9044608A8FEF7DA
:1090A0007DFE1CB102980BF0A6FCC4B202A8FEF72C
:1090B00075FE20460EB010BD0124FAE70024F8E743
:1090C000A77A01009413002083870100958701008F
:1090D0006985010030B50C4695B0054602A807F039
:1090E000D9F92369002B34DB1E4908A8FFF78CFC53
:1090F00003224FF4E1311C48FFF7F6F91B490EA893
:10910000FFF782FC23690193194B009308AA194BBE
:1091100015480EA9FFF77AF904460EA8FEF73EFEA1
:10912000A4B108992C4602A807F0DEFA124B44F8C5
:10913000043B03AB0FCB84E80F009DF81C302B756C
:1091400008A8FEF72BFE284615B030BD08A8FEF78C
:1091500025FE002300931A461946284607F0A2F977
:10916000F1E700BFA77A01009413002051870100A6
:109170005C87010069850100CC8F010010B503698F
:10918000002B8EB0044626DB144902A8FFF73CFCF6
:1091900003224FF4E1311248FFF7A6F9114908A85C
:1091A000FFF732FC236901930F4B009302AA0F4B88
:1091B0000B4808A9FFF72AF9044608A8FEF7EEFDB8
:1091C0001CB102980BF017FC84B202A8FEF7E6FD72
:1091D00020460EB010BD0024FAE700BFA77A0100B8
:1091E0009413002054860100618601006985010006
:1091F00013B500230446D1E90002C1E90033236816
:10920000206002A80093636840F8043D6260FFF7A5
:1092100071FC204602B010BD73B54FF47A7300257F
:10922000C0E90153174B03604FF0FF33C0E9043529
:109230000446C0E9065540F20C400AF0E2FC4FF447
:109240008062064629460BF0C6FC1020C6F8005482
:10925000C6F80454C6F80854CDE900650AF0D1FCFC
:109260000123C0E90133084B0360C66001906946E1
:1092700004F11800FFF7BCFF01A8FFF73BFC2046F4
:1092800002B070BDD08701004086010073B54FF475
:109290007A730025C0E90153164B03600446C0E908
:1092A0000415C0E9065540F20C400AF0AAFC4FF440
:1092B0008062064629460BF08EFC1020C6F800544A
:1092C000C6F80454C6F80854CDE900650AF099FCC4
:1092D0000123C0E90133084B0360C6600190694671
:1092E00004F11800FFF784FF01A8FFF703FC2046F4
:1092F00002B070BDD087010040860100704708B5FC
:1093000003685B69984780F00100C0B208BD13B5DF
:1093100002AB026803F8011D546819460122A047F8
:1093200002B010BD80688B68C31A5842584170471C
:1093300010B500234360064B03604FF0FF33044633
:10934000C0E902311030FFF767FF204610BD00BFB3
:10935000808801002DE9F0418B68013392B0074607
:109360000C4663D00AAA334904A8FEF741FD032244
:109370004FF4E1313048FFF7B7F803AA2F490AA8A4
:10938000FEF736FDA36801932D4B009304AA2D4BE5
:1093900029480AA9FFF73AF805460AA8FEF7FEFC95
:1093A000002D40D004980BF026FB236A834201462F
:1093B00004F110080AD141463846FFF783FB04A8A0
:1093C000FEF7ECFC384612B0BDE8F0810AA8FFF7C2
:1093D0005DFF0B9B63610C9BA3610D9BE361119E81
:1093E0000E9BE56A23620F9B6362AE42109BA362F1
:1093F00015D016B17368013373607DB16B68013BA2
:109400006B605BB92B6828469B689847AB68013B4B
:10941000AB601BB92B682846DB689847E6620AA850
:10942000FFF774FBC7E704A8FEF7B8FC3846FFF760
:10943000F3FEC7E7A77A01009413002050880100CB
:10944000628801006985010030B58368013391B0FD
:1094500004460D4624D10AAA124904A8FEF7C8FC06
:1094600003224FF4E1311048FFF73EF803AA0F49F9
:109470000AA8FEF7BDFC0E4B0195009304AA0D4B04
:1094800009480AA9FEF7C2FF05460AA8FEF786FCAE
:109490001DB104980BF0AFFAA06004A8FEF77EFCA3
:1094A00011B030BDA77A0100941300201488010088
:1094B0002288010069850100C168FFF7C5BFFFFF71
:1094C00070B58368002B92B005460E4614462CDB1F
:1094D0000CAA174906A8FEF78BFC03224FF4E131D2
:1094E0001448FFF701F805AA13490CA8FEF780FC01
:1094F0000294AB680193114B009306AA104B0D48E0
:109500000CA9FEF715FC0CA8FEF748FC22463146D4
:109510000848FEF72BFF054606A825B1FEF73EFCDE
:10952000204612B070BDFEF739FC0024F8E700BFFA
:10953000A77A0100941300203288010040880100BE
:10954000CF86010003689B6B184708B503689B6DC5
:10955000984780F00100C0B208BD13B502AB0268A5
:1095600003F8011D546819460122A04702B010BD3E
:1095700007B5036801229B6B0DF10701984701288D
:109580000CBF9DF807004FF0FF3003B05DF804FBFF
:1095900000690B69C31A58425841704700F108032B
:1095A00070B5044603600E46B1B108460CF0FFF8F2
:1095B0000F28054604D901300AF023FBA56020607E
:1095C000012D20680BD196F9003003702368656087
:1095D00000225A55204670BD04480AF023FB002D96
:1095E000F4D02A4631460BF0D2FAEFE7CD840100E1
:1095F00013B5EFF3108300930123019372B6019B1F
:109600005A1E019233B104686846FFF727FA2046D4
:1096100002B010BD6846FFF721FAF8E770B50446BE
:1096200000F2D4500D46FFF7E3FFA84205D22368AD
:1096300020469B6CBDE87040184770BD13B50446CA
:10964000EFF3108300930123019372B6019B5A1E1E
:109650000192684653B1FFF701FA631C40F2B5521C
:10966000B3FBF2F002FB103002B010BDFFF7F6F9C9
:10967000FAE72DE9F34703680D46DB6C1146174600
:109680000446984701262F444FF00008B246BD42D9
:1096900028D03EB3D4F8D4354BB994F814901E4674
:1096A00005F8019B002EF2D008F10108EFE7EFF377
:1096B0001083CDE9003A72B6019B5A1E01926BB13C
:1096C000D4F8D005231893F81490FFF7B7FFD4F817
:1096D000D435C4F8D005013BC4F8D4356846FFF74B
:1096E000BDF9DDE7404602B0BDE8F08738B500259A
:1096F0004FF47A73C0E90153094B036004464FF0FD
:10970000FF33036140F2B552294614300BF063FA7F
:10971000C4F8CC55C4F8D055C4F8D455204638BD4B
:109720007C8A010030B5036901338FB005460C46D1
:1097300028D1154902A8FFF731FF03224FF4E13188
:109740001248FEF7D1FE124908A8FFF727FF114B78
:109750000194009302AA104B0C4808A9FEF756FE8C
:10976000044608A8FEF71AFB4CB102980BF043F927
:10977000286102A8FEF712FB01200FB030BD02A83D
:10978000FEF70CFB0020F8E7A77A010094130020F5
:10979000CB890100D68901006985010070B5036994
:1097A000013394B005460E46144631D1194908A834
:1097B000FFF7F4FE03224FF4E1311748FEF794FE61
:1097C00016490EA8FFF7EAFE314605A806F0CCFEC2
:1097D000059B1148CDE90143114B009308AA114B99
:1097E0000EA9FEF713FE044605A807F09FF80EA881
:1097F000FEF7D4FA4CB108980BF0FDF8286108A8E0
:10980000FEF7CCFA012014B070BD08A8FEF7C6FA26
:109810000020F8E7A77A010094130020CB8901000B
:10982000D6890100C189010070B50369013394B084
:1098300005460E46144631D1194908A8FFF7AEFE79
:1098400003224FF4E1311748FEF74EFE16490EA8E9
:10985000FFF7A4FE314605A806F086FE059B1148D9
:10986000CDE90143114B009308AA114B0EA9FEF755
:10987000CDFD044605A807F059F80EA8FEF78EFAAC
:109880004CB108980BF0B7F8286108A8FEF786FAE3
:10989000012014B070BD08A8FEF780FA0020F8E798
:1098A000A77A010094130020358901004589010041
:1098B000C189010010B50369002B8EB0044620DB7E
:1098C000114902A8FFF76AFE03224FF4E1310F4865
:1098D000FEF70AFE0E4908A8FFF760FE2369019310
:1098E0000C4B009302AA0C4B084808A9FEF78EFD0A
:1098F00008A8FEF753FA4FF0FF33236102A8FEF7E2
:109900004DFA0EB010BD00BFA77A010094130020DD
:10991000958901009F8901006985010070B503697F
:10992000002B94B004460E4615462EDB184908A8B5
:10993000FFF734FE03224FF4E1311648FEF7D4FD61
:1099400015490EA8FFF72AFE314605A8246906F03E
:109950000BFE059B0194CDE90253104B009308AA1E
:109960000F4B0C480EA9FEF751FD044605A806F062
:10997000DDFF0EA8FEF712FA08A824B1FEF70EFAD2
:10998000012014B070BDFEF709FA0020F9E700BF0E
:10999000A77A010094130020BE880100DE88010030
:1099A000D188010070B50369002B90B004460E46C3
:1099B000154626DB144904A8FFF7F0FD03224FF4F7
:1099C000E1311248FEF790FD11490AA8FFF7E6FDC4
:1099D000CDE90256236901930E4B009304AA0E4B66
:1099E0000A480AA9FEF712FD04460AA8FEF7D6F9AE
:1099F00004A824B1FEF7D2F9012010B070BDFEF723
:109A0000CDF90020F9E700BFA77A010094130020E8
:109A1000F388010007890100D188010010B50369AE
:109A2000002B8EB0044624DB134902A8FFF7B6FDD5
:109A300003224FF4E1311148FEF756FD104908A802
:109A4000FFF7ACFD236901930E4B009302AA0E4B66
:109A50000A4808A9FEF7DAFC044608A8FEF79EF9B2
:109A600002A824B1FEF79AF901200EB010BDFEF74E
:109A700095F90020F9E700BFA77A010094130020B0
:109A8000578901006A8901006985010010B50369E1
:109A9000002B8EB0044624DB134902A8FFF77EFD9D
:109AA00003224FF4E1311148FEF71EFD104908A8CA
:109AB000FFF774FD236901930E4B009302AA0E4B2E
:109AC0000A4808A9FEF7A2FC044608A8FEF766F9B2
:109AD00002A824B1FEF762F901200EB010BDFEF716
