:10400000007F0020BDF4000065F30000B9F400005B
:10401000B9F40000B9F40000B9F40000B9F40000EC
:10402000000000000000000000000000B9F40000E3
:10403000B9F4000000000000B9F40000B9F4000079
:104040000000000000000000000000000000000070
:104050000000000000000000000000000000000060
:104060000000000000000000000000000000000050
:104070000000000000000000000000000000000040
:104080000000000000000000000000000000000030
:104090000000000000000000000000000000000020
:1040A0000000000000000000000000000000000010
:1040B0000000000000000000000000000000000000
:1040C00010B5054C237833B9044B13B10448AFF352
:1040D00000800123237010BD78060020000000003E
:1040E00038B4010008B5034B1BB103490348AFF3D3
:1040F000008008BD000000007C06002038B40100EC
:104100000846114612F03CBB084611F073BD084644
:1041100011F068BD4FF6FF7399421FBF0368CA09CB
:1041200003EBC20301F07F011ABF586800EBC10026
:104130000020704770B5044616460D46084609B182
:1041400012F0E5FBC4E900502672204670BD2DE94F
:10415000F84F05680446A16831B10B68A3602B686D
:1041600028465B689847F6E7266804F10C0B0D4675
:104170008946228EE76AABB29A420FD907EBC30891
:104180009A46D8F8041019B1336830465B689847EE
:1041900047F83A900135C8F80490EAE700232386EF
:1041A000BB454FF6FF73A38604D0336839465B687E
:1041B000304698472046BDE8F88F38B5C588044694
:1041C00001F12C002946FFF7A5FFA580206008B16A
:1041D000C388E38038BD38B5436A034400251D71A8
:1041E0000446011D00680DF067FD00B16562606A5C
:1041F00038BD38B5436A01331F2B04460D4606D837
:10420000636A5A1C62621C440120257138BDFFF7A5
:10421000E2FF0028F4D00020F8E72DE9F047037909
:10422000DA0705460C4611D50168A36800226BB178
:10423000994233D18B882068013B9BB28B802BB98C
:104240000B684AB3136003685B6898472B79DB06F9
:1042500008D52E8804F12C003146FFF75BFFA38EB2
:104260000380A6862B7913F0600F1CD02E884FF6A2
:10427000FF7A04F12C09564513D031464846FFF722
:1042800049FF21460746B0F80680FFF7C6FFA38E18
:104290003B80A6864646EEE7A360D4E71A461B6835
:1042A000C5E72E806E8000232B71BDE8F087C0E942
:1042B0000012082282600122027370478B8C30B595
:1042C000013B0D6A9AB205EBC204616849B163888B
:1042D00035F832509D4204D95D1C11EBC301658055
:1042E00005D1002303604FF6FF73838030BD01606A
:1042F00003EBC213F9E72DE9F74F8D8E4FF6FF73ED
:104300009D4206460C460ED0294604F12C00FFF7CC
:1043100001FF0388A386002303714FF6FF73C38058
:104320003060B58061E00B8E0F6801F10C0843B17D
:1043300068464146FFF7C2FF009810B1BDF804502F
:10434000E9E7228E638E934218D1B3F5007F45D002
:104350005B009DB2E36A396898454FEAC50235D1E2
:104360000B683846114698478146002836D02022EF
:10437000414611F0BCFCC4F82C906586B4F830902E
:10438000D4F82CB009F101039BB2B3F5007F23866A
:104390003B680CBF7F258025E9001B68384698479D
:1043A0000BEBC90A002808BF00250023CAF8040047
:1043B00041462BF839506846AAF80230FFF77EFFD5
:1043C0000098BDF804500028A5D107E0D1F8089066
:1043D00038461946C84781460028CCD101232371AD
:1043E000002333604FF6FF73B380304603B0BDE85F
:1043F000F08F07B50368082203EBC101684611F08E
:1044000076FC9DED000B03B05DF804FB2DE9FF4148
:10441000064604A800E90E00019DDDF82880002D65
:1044200067D09DF80C7037B104233371356038467E
:1044300004B0BDE8F081029C032C1BD82A463B4601
:10444000E0B2511BC9B2884206D912F9011B0029FA
:1044500008BF43F00103F4E763B902223271DAB214
:10446000904203D9EA56F2540133F8E7002333555A
:104470000127DCE7D8F80800B0B1C3889C420AD114
:1044800000239C4209D0C218E95692F908209142B3
:1044900001D10133F5E70068EEE7838801338380BB
:1044A000052333713060E3E7B4F5803F14D209216E
:1044B000611811D2D8F8000003681B68984758B1FA
:1044C00001238380C48000F1080200239C4207D0AE
:1044D000E956D1540133F9E7012388F80430A6E7FF
:1044E000044400232372D8F808300360C8F8080099
:1044F000D6E72F469BE7F8B5054616460C468F18BB
:10450000BC4205D014F8011B2846FFF772FEF7E7FE
:10451000AB6A3344AB62F8BD38B5054608460C4675
:1045200012F0F5F9214602462846FFF7E4FF38BDB0
:104530002DE9F04186B00DF11604054616461F46DA
:10454000A046304639460A22002311F07DF9303268
:1045500004F8012D0023304639460A2211F074F97F
:1045600006460F4656EA0703EBD1A8EB04022146A4
:104570002846FFF7C0FF06B0BDE8F0812DE9F04FF7
:1045800091B003AC84E80E00074694E807000AAD3A
:104590001A9E85E80B00804620BB0D904FF6FF73F6
:1045A000ADF8383010AD55F80C3D43B131462846D2
:1045B000FFF703FEDDF83480B8F1000F0ED194E868
:1045C000070085E80700314606A8FFF794FEDDF8EE
:1045D0001890B9F1000F50D14FF00008404611B0CB
:1045E000BDE8F08F3D88DDF82CA0294606F12C00AF
:1045F000FFF790FDADF82450089010B3C388ADF8D4
:1046000026300125AB464FF00009089999B35DB3F8
:104610000B79042B18D0052B19D0022B1FD10022A7
:104620000DA8FFF787FD0E9A52451DD10D99002365
:104630009A4247D018F903C0C856844514D10133B3
:10464000F6E74FF6FF73DAE701220968E8E70B683F
:10465000DA888DF83C900833CDE90D32E3E7CDE9F7
:104660000D998DF83CB0DEE7314608A885F00105CC
:10467000FFF7A3FDC9E70D9190E7314608A8FFF7C2
:104680003AFEDDF82080B8F1000FA5D0009695E83D
:104690000E004846FFF7BAFE00289DD0BDF8244022
:1046A000A9F806407988BDF81C504FF6FF7399426F
:1046B00006D006F12C00FFF72DFDC5807C808DE72C
:1046C0003D80FBE708AA92E803000DAB83E80300F6
:1046D00068E770B5036813F1380686B002D1002090
:1046E00006B070BD021D07CA03AC84E8070002468D
:1046F0000028F4D093F83C1071B9202183F83C10C5
:104700004FF6FF71198759870392009394E80E00C2
:104710003046FFF733FFE3E72029F5D0DFE770B538
:104720000E4686B00446FFF7D4FFB36832682568AA
:10473000CDE9032300238DF81430064648B12946FD
:10474000FFF76BFD009506AB13E90E003046FFF74F
:104750005DFE206810B1007980F0010006B070BDE8
:1047600010B52DED028B0446B0EE408AFFF7B1FF85
:104770002168044630B1FFF750FD0E23237184ED0C
:10478000008A0120BDEC028B10BD38B504460D46F1
:10479000FFF79FFF2168044628B1FFF73EFD0C2379
:1047A00023712560012038BDF0B587B006460C4660
:1047B000FFF78FFF3768054620460CB112F0A7F8C7
:1047C0000023CDE903408DF8143055B13946284611
:1047D000FFF723FD009706AB13E90E002846FFF70D
:1047E00015FE306810B1007980F0010007B0F0BD0F
:1047F00010B50446FFF7FDFCA36A1844A06210BD83
:104800002DE9F0410D46222116460446FFF7F0FF40
:10481000DFF850802E44B54215D015F9011B104B1E
:1048200013F9027CAFB1023313F9032C8A42F7D19A
:104830005C212046FFF7DCFFF9B20DE0414620463F
:10484000FFF76AFEE7E722212046FFF7D1FFBDE828
:10485000F0810029F2D0C9B22046FFF7C9FFDAE79C
:10486000A88D0100B58D010070B5002A1D4675F1B7
:1048700000030646144605DA2D21FFF7B9FF64420E
:1048800065EB450522462B463046FFF751FE70BDCD
:104890002DE9F04F5BEC10AB8BB007460D4610EEE8
:1048A000102A5B4610EE100A594610F09DFE30B9F2
:1048B000AF493846FFF730FE0BB0BDE8F08F00225D
:1048C00000235046594610F08FFE68B952465B46A9
:1048D0005046594610F06AFA02460B465046594671
:1048E00010F082FE0028E3D10022002350465946F2
:1048F00010F084FE30B12D213846FFF779FF0BF11F
:1049000000439B46012301932C460A2324B1019ABC
:104910005A43013C0192F9E791A3D3E900235046A1
:10492000594610F07FFE00286AD0DFF850924FF011
:1049300008084FF48076414604A8CDF81090FFF7A0
:1049400058FD52465B4651EC100B10F061FE78B1F9
:10495000884B0493414604A8FFF74BFD5046594647
:1049600053EC102B10F0D8FB344482468B4624B213
:1049700018F1FF384FEA6606DDD2CDF80C80002230
:1049800000235046594610F057FE00283DD076A32C
:10499000D3E900235046594610F03AFEA8B300234D
:1049A0000293DDE90223A3EB020919F0800F2CD159
:1049B0000DF128086F4B48F8183D49464046FFF76F
:1049C00018FD00226C4B51EC100B10F0A5FB524669
:1049D0005B4610F031FE78B1684B0493494640467F
:1049E000FFF707FD5046594653EC102B10F094FB8F
:1049F000A41B82468B4624B2029B76100133CFE77C
:104A000008234FF480760393B9E75046594610F0D7
:104A10005BFE0A2206460346092B08D9B3FBF2F3D4
:104A2000013D0199B1FBF2F16DB20191F4E730461D
:104A300010F0F8FA02460B465046594610F0B4F909
:104A400080460198894610F0EDFA02460B46404632
:104A5000494610F061FB8046894610F035FE8246DB
:104A600010F0E0FA02460B464046494610F09CF929
:104A70000B46024610F09AF910F026FE019B0AEB55
:104A80000008434508D8013694B1092E10D90134E5
:104A900024B24FF0000801260A22B8FBF2F302FB11
:104AA000138141B9002D06DD013D98466DB2F4E752
:104AB0004FF00008F0E70DF126010A22B6FBF2F3F1
:104AC00002FB1366303601F8016D1E46002BF5D14E
:104AD0000DF12606721A3846FFF70DFDEDB108AA52
:104AE0002B4611464FF00A0C013B5BB2581C09D013
:104AF000B8FBFCF00CFB108808F1300802F8018DBF
:104B00008046F1E7EDB2EB434D1B2E2205F8012C58
:104B100019445A423846FFF7EEFC002C3FF4CCAE65
:104B200065213846FFF764FE002CA5B205DA2D2179
:104B30003846FFF75DFE6D42ADB231460A22B5FB45
:104B4000F2F302FB1355303501F8015D9DB2002DE3
:104B5000F5D1721A3846FFF7CEFCADE6AFF3008010
:104B600000000000D0126341F168E388B5F8E43E2C
:104B70009D8D0100288C010000002440708C0100F4
:104B80002DE9FF41057906460C46018815F0100015
:104B900003D002F12C00FFF7BDFA0C2D00F0998034
:104BA00016D8042D00F0878006D8022D78D0032D6A
:104BB00000F08880504998E0062D00F093807DD366
:104BC0000A2DF7D1326800232046FFF7B1FC1DE023
:104BD0001C2D00F0848006D80E2D0ED01A2DE9D1A0
:104BE000D0E90023F0E7202D35D0402D12D01E2D26
:104BF000E0D1092190ED000B05E0306810F034FAA7
:104C000041EC100B06212046FFF742FEA06A04B0DB
:104C1000BDE8F0815B212046FFF7EAFD35884FF6BD
:104C2000FF76B54212D0E76A294607F12C00FFF75C
:104C300071FA05463A462146FFF7A2FFED88B542D4
:104C4000EFD02C212046FFF7D3FDEAE75D21204677
:104C5000FFF7CEFDDAE77B212046FFF7C9FD4FF6CF
:104C6000FF7735880126BD4218D0D4F82C8029461C
:104C700008F12C00FFF74EFA054642462146FFF7A1
:104C80007FFFED88BD4206D0002E0CBF2C213A21BB
:104C90002046FFF7ADFD86F00106E4E77D21D6E76B
:104CA0000022314601A8FFF745FADDE9011220464E
:104CB000FFF7A6FDAAE701223168F3E73168CA8849
:104CC0000831F4E731682046CA880831FFF713FC41
:104CD0009CE73268D3172046FFF7C6FD96E7D0E978
:104CE0000023F8E7337823B104492046FFF714FC8A
:104CF0008CE70349F9E700BF9D8D0100BC8D0100E1
:104D0000C18D01002DE9F043B7B06B46002783E861
:104D1000030002AD3946104602920B970CF071FF6A
:104D20000FCD0CAC0FC40FCD0FC495E8030084E881
:104D300003000CAE0FCE16ADDDE900890FC50FCE16
:104D40000FC594E8030085E8030016AE0FCE20AC33
:104D50000FC40FCE0FC495E8030020AE84E8030013
:104D60000FCE2AAD0FC50FCE0FC594E8030085E81E
:104D7000030020A83497FFF72EFA16A8CDF8D49098
:104D8000FFF729FAB8F1000F12D04A462AA9404687
:104D9000FFF7F6FE04462AA8FFF71DFA0CA8FFF756
:104DA0001AFA02A8FFF717FA204637B0BDE8F083D9
:104DB00002492AA8FFF7B0FB349CECE79D8D010067
:104DC0002DE9F0412DED048B824B834993ED028A4E
:104DD00093ED009AD3ED018AD3F814809CB005A816
:104DE000D3E903760CF075FEB0EE480A032102A861
:104DF0000CF011FF02A905A80CF06EFF77490CF02A
:104E000077FF0A220446394608A80CF092FE08A94A
:104E100020460CF061FF72490CF06AFF0CAC0A22CC
:104E20000546314620460CF084FE214628460CF00B
:104E300053FF6C490CF05CFF01466B4803F0D0FD5A
:104E400020460CF0FBFD08A80CF0F8FD02A80CF0C1
:104E5000F5FD05A80CF0F2FD0FAA644B17924FF474
:104E600080220C93189200234FF6FF7205A88DF84C
:104E700034300E938DF86C30ADF86420ADF86E20B0
:104E800003F038FD5A4A214608A8FFF710FA05A991
:104E900008A8FFF744FC05A80CF0D0FD554B09937A
:104EA00001250B23B0EE490A08A80A938DF82C506F
:104EB0000894FFF755FC504A214608A8FFF7F7F978
:104EC000B0EE680A08A8FFF74BFC4C4B0993B0EE14
:104ED000480A0E2308A80A938DF82C500894FFF76F
:104EE0003FFC474B09933946112308A80A938DF8D4
:104EF0002C500894FFF749FC424B09933146142388
:104F000008A80A938DF82C500894FFF73EFC3E4BFE
:104F1000099308A809238DF82C5008940A93FFF7E9
:104F2000D8FB0899054628B1FFF777F90A232B71BA
:104F3000C5F80080354902A80CF0CBFD1AABCDE9CD
:104F400000346B4602AA93E80300FFF7DBFE30490A
:104F500008A80CF0BEFD02A908A80CF0BDFE014691
:104F6000214803F03DFD08A80CF068FD02A905A842
:104F70000CF037FE274B08A819680CF0AAFD08AA08
:104F800005A9254801F0CEFF054608A80CF056FDFE
:104F900005A80CF053FDB5B1204908A80CF099FD07
:104FA000002208A9104803F03BFD08A80CF046FDBC
:104FB00002A80CF043FD2046FFF7C9F81CB0BDEC79
:104FC000048BBDE8F081164908A80CF082FD02228E
:104FD000E7E700BFB8060020B88C0100D98C0100BB
:104FE000E98C0100FD8C010038070020B803002087
:104FF000068D01000F8D01001B8D0100248D010025
:10500000338D0100458D01005A8D0100B48D0100E2
:10501000648D0100BC0300203C070020728D01005C
:10502000898D01002DE9F0412DED048B7C488AB07B
:1050300000F052FE0DF0F0FC04467A4804F0C4FB88
:10504000032811D0784800F06BFB784907A80CF0D2
:1050500040FD012207A9764803F0E2FC07A80CF006
:10506000EDFC6F4800F03AFE724E734B35681F68D6
:10507000631BBB4226D23D442D1B42F21072B5FB8E
:10508000F2F302FB1353632B1CD86C4907A80CF0F6
:1050900020FD0A224FF47A7104A8B5FBF1F10CF05F
:1050A0006CFD04A907A80CF017FE65490CF020FE62
:1050B00001465F4803F094FC04A80CF0BFFC07A86D
:1050C0000CF0BCFC3368E31A9F427AD85D49346027
:1050D00007A80CF0FEFC002207A9554803F0A0FC2D
:1050E00007A80CF0ABFC584803F0BEFB5648F0EEA6
:1050F000408A03F0BDFB5548B0EE408A03F00CF93E
:105100005248B0EE409A03F07FF980464F4803F0D2
:10511000A5F9F4EE688AF1EE10FA074667D6B4EE08
:10512000488AF1EE10FA62D649494A4E04A80CF0BA
:10513000D0FCB0EE680A012101A80CF06CFD01A9B9
:1051400004A80CF0C9FD44490CF0D2FDB0EE480AA9
:105150000546012107A80CF05EFD07A928460CF0C2
:10516000BBFD3E490CF0C4FD0146314803F038FC5C
:1051700007A80CF063FC01A80CF060FC04A80CF07C
:105180005DFC356803F02EFD354B182202FB05331C
:10519000C3ED008A83ED018A83ED029AC3E9038798
:1051A000586133680133002B336003DDFFF708FEDD
:1051B00000233360254803F05BF960B31A4800F020
:1051C000B7FA284A136842F20F71E31A8B4203D9E7
:1051D0001E48146003F0E0F9234A24491368E31AD7
:1051E0008B4213D90E48146002F032FD0EE02049C4
:1051F00007A80CF06EFC022207A90D4803F010FC72
:1052000007A80CF01BFC084800F08AFA0AB0BDECB5
:10521000048BBDE8F081044800F07AFAD1E700BFC2
:105220003C0700207C140020D4060020C78D01001C
:105230003807002078070020D48E0100EA8D010095
:10524000D0AE0100008E01008007002094060020EF
:10525000178E0100D00600201E8E01002E8E010048
:10526000B8060020740700207C0700207FEE36007F
:10527000308E01002DE9F041654D664E664F9CB0C1
:105280000CAC28464FF4165103F08CFC63492046C1
:105290000CF01FFC00222146284603F0C1FB2046EB
:1052A0000CF0CCFB03F01AFB03F036FB5C49204604
:1052B0000CF00FFC08A803F01DFB08A920460CF019
:1052C0000BFD00220146284603F0AAFB08A80CF0BB
:1052D000B5FB20460CF0B2FB304600F031FA304608
:1052E00000F026FA4F4920460CF0F3FB002221463D
:1052F000284603F095FB20460CF0A0FB4A4803F03B
:1053000029FA4A4920460CF0E4FB214600222846AF
:1053100003F086FB20460CF091FB454803F0B2F801
:10532000384601F0C5FD434B0C930FAB17934FF478
:1053300080230026189305A84FF6FF73ADF864305C
:10534000ADF86E308DF834600E968DF86C6003F019
:10535000D1FA394A214608A8FEF7A9FF05A908A8ED
:10536000FFF7DDF905A80CF069FB344B099309231D
:105370000A93334B08944FF0010819688DF82C807C
:1053800008A8FFF711FA2F4B09930F230A932E4B0E
:10539000089419688DF82C8008A8FFF705FA2B49A6
:1053A00002A80CF096FB1AABCDE900346B4602AABA
:1053B00093E80300FFF7A6FC02A905A80CF011FC76
:1053C000234B08A819680CF084FB08AA05A93846E5
:1053D00001F0A8FD08A80CF031FB05A80CF02EFB8D
:1053E000384602F035FC1B4908A80CF072FB324627
:1053F00008A9284603F014FB08A80CF01FFB02A81C
:105400000CF01CFB2046FEF7A2FE1CB0BDE8F081AC
:1054100038070020D40600203C070020468E0100FB
:10542000608E01006C8E010080070020818E0100DB
:1054300094060020B8030020068D0100A18E010013
:10544000C8030020AB8E0100C4030020B48D01000E
:10545000C0030020BB8E010038B50A4D0A4C284617
:1054600000F046F922462946084800F021FC214672
:10547000074803F061F921460648BDE8384002F0CC
:105480002DBF00BFD4060020380700203C070020B5
:10549000800700209406002010B5074C04F12C0072
:1054A0000CF0CCFA04F1080004F0B8FB0348BDE8A6
:1054B00010400AF0B5BB00BF3C070020F8060020F2
:1054C0004308400003F0553300F0AA301843830826
:1054D000800000F0CC3003F03333034318091B0184
:1054E00003F0F03300F00F30184300BA7047FFFFAD
:1054F00030B585B0044600210DF10F000AF014FA12
:10550000431C21D004F12405104BDFED110A9FED5F
:10551000110A9DF80F20019400930021C3B2284680
:105520000AF0A8FA00220C21044628460AF094FB4F
:10553000044028460AF0FAFAE4B2044028460AF089
:105540001CFB204005B030BD0020FBE7B955000032
:105550000000484200401C4630B5016802690D0158
:1055600085B004465059FFF7ABFF2A4401905068BC
:10557000FFF7A6FF02909068FFF7A2FF0390D368A1
:105580006269A3610131B1FBF2F302FB13112160E7
:1055900049B994F8203003B9A361236E03B1984749
:1055A000012384F85C300C2201A9024810F09FFB13
:1055B00005B030BDA00700202C49F8B50D680A6879
:1055C0002B4C0B68D210A25C5C4204F0070403F081
:1055D000070358BF6342274C42FA03F3226822F4C0
:1055E000384222F018022260226C22F4415222F04A
:1055F0003002DB07226404F140041CD51E4B1F4F10
:1056000013F8152003EB45031C325B7837F8322082
:105610001C331612360156FA82F237F8333004F58D
:10562000F864052644F822601A12120152FA83F334
:10563000042244F823200B686024013393FBF4F226
:1056400004FB12330B6080B1046874B1A36963B1C9
:105650000DF0E2F9E369C01AA369984205D9204622
:10566000FFF77AFF0DF0D8F9E061F8BD9807002048
:10567000A007002000000440A4900100A8A501009C
:1056800030B585B00B6800934B6801938B6802932B
:10569000002501230560C0F810D04361044603953E
:1056A000FFF75AFFA56105B030BDF8B50F46011DE3
:1056B0000E463D460024EB1BDBB29A420AD915F890
:1056C00001CB01334CEA0404DB0604BF346004362A
:1056D0006400F0E7FFF7D4FFF8BD1FB5002301A970
:1056E000CDE901330393FFF7CBFF05B05DF804FB71
:1056F00038B5002504460560C0E9065580F82050FD
:1057000024300AF04FF884F85C50204638BDFFFF83
:1057100008B50249FFF7B4FF08BD00BF949001002F
:1057200008B50249FFF7ACFF08BD00BF7490010047
:1057300008B50249FFF7A4FF08BD00BF849001002F
:1057400010B50446FFF7D4FE2046BDE81040FFF731
:10575000EFBFFFFFF7B50D4B0D4F1B680D4E0193CB
:1057600005460024019BA3420DDD2846FFF7E0FF1C
:1057700038680DF00DF92846FFF7AFFF30680DF0DF
:1057800007F90134EEE703B0F0BD00BFDC8E010085
:10579000E48E0100E08E010030B56025B1B0044612
:1057A0002A463049684610F0A2FA2A466946204641
:1057B000FFF77BFF4FF47A700DF0EAF82A460021DC
:1057C0000DEB050010F0B7FA01232A460DEB050199
:1057D00020468DF86E308DF875308DF87A308DF862
:1057E00081308DF886308DF88D308DF892308DF8BF
:1057F00099308DF89E308DF8A5308DF8AB308DF84E
:10580000AC308DF8AD308DF8AE308DF8AF308DF80E
:10581000B030FFF74AFF4FF448700DF0B9F82A4650
:1058200069462046FFF741FF4FF42F700DF0B0F8A6
:105830002046FFF76DFF4FF42F700DF0A9F82A46B0
:1058400069462046FFF731FF4FF42F700DF0A0F8A6
:105850002046FFF75DFF4FF42F700DF099F831B03F
:1058600030BD00BF528F01002DE9F0410C1EB2B0D7
:10587000054641DB632C40DD03260DF1C8080124F9
:105880001AAB1F4600229C5401320C2AFBD10C3368
:105890009845F7D1602239462846FFF706FFC82011
:1058A0000DF076F82846FFF733FF4FF4FA700DF04D
:1058B0006FF8013EE4D160223146384610F03BFAE1
:1058C0002846602239468DF87D408DF888408DF855
:1058D00093408DF89A408DF89E408DF8A7408DF842
:1058E000A9408DF8B440FFF7E0FE4FF4FA600DF0E8
:1058F0004FF832B0BDE8F08100246022504902A880
:1059000010F0F5F90A23009300231946642220467B
:105910000BF072FD012608AB14A90122824202DCC1
:105920009E540132FAE70C338B42F6D1602202A971
:105930002846FFF7BAFE0DF06FF8424B1A6841F2A5
:105940008831821A8A420AD8192194FBF1F201FBAC
:105950001242002ACDD13C4A1268A242C9D0186036
:10596000394B192C1C6036D1602200211AA810F086
:10597000E2F9012340F20112ADF876208DF878307B
:10598000ADF87A20ADF87C208DF881308DF8893023
:105990008DF895308DF89C308DF8A0308DF8A730BB
:1059A0008DF8AB30ADF8B220ADF8B4208DF8B7303B
:1059B0008DF8B8308DF8B93060221AA92846FFF763
:1059C00074FE40F2DC500CF0E3FF602202A928468E
:1059D000FFF76BFE8DE7322C05D160221B491AA818
:1059E00010F085F9E8E74B2CEBD1602200211AA8D2
:1059F00010F0A1F9012340F201128DF875308DF8F5
:105A000076308DF877308DF87830ADF87A208DF8D3
:105A10007C308DF884308DF889308DF890308DF899
:105A200095308DF89B308DF8A0308DF8A6308DF82C
:105A3000AB308DF8B130ADF8B6208DF8B830BBE79B
:105A4000B28F0100AC070020D803002012900100A3
:105A500070B5E0B0054660220021684610F06BF991
:105A6000602201244FF0013600210DEB02008DF879
:105A700027408DF82C408DF833408DF8384007963C
:105A8000109610F058F96022002130A88DF871406E
:105A90008DF872408DF87C408DF87F408DF88740FE
:105AA0008DF88C408DF893408DF898408DF8A0408B
:105AB0008DF8A3408DF8AD408DF8AE4010F03BF965
:105AC0006022002148A88DF8DB408DF8E0408DF879
:105AD000E7408DF8EC408DF8F3408DF8F8408DF8F4
:105AE000FF408DF804413496439610F024F960226B
:105AF00048A928468DF82E418DF831418DF8344162
:105B00008DF837418DF83A418DF83D418DF840418F
:105B10008DF843418DF846418DF849418DF84C414F
:105B20008DF84F418DF852418DF855418DF858410F
:105B30008DF85B418DF85E418DF861418DF86441CF
:105B40008DF86A418DF86D418DF870418DF8734183
:105B5000FFF7ABFD4FF448700CF01AFF03246022EE
:105B600069462846FFF7A1FD4FF496700CF010FF30
:105B700060220DEB02012846FFF797FD4FF4967067
:105B80000CF006FF602230A92846FFF78EFD4FF487
:105B900096700CF0FDFE013CE1D160B070BD4FF697
:105BA000FF7399421FBF0368CA0903EBC20301F0E8
:105BB0007F011ABF586800EBC1000020704710B584
:105BC0000446B4F5803F08460BD20921611808D27B
:105BD00003681B68984700B910BD0123C480838007
:105BE000FAE70020F8E70A680B46526801461846B3
:105BF000104710B50A79042A044608D0052A09D0AE
:105C0000022A0FD10022FEF795FA204610BD01228C
:105C10000968F8E70B68DA880833C0E90032002326
:105C20002372F2E70023C0E900330123F8E7B2F55D
:105C3000803FF8B506460F461546046807D223682C
:105C400009329B682046984708B1C580F8BD236893
:105C500020465B6839469847012333710020F5E7F9
:105C600038B5002383604368044643B905681F20A4
:105C70002968FFF7A4FF08B901232B71606038BDC4
:105C800038B50D464168044649B18268CB889A42CE
:105C900005D1520001320068FFF7C9FF60606368F8
:105CA00023B1A2681344511CA1601D7238BDFFFFCF
:105CB00010B50446C0E90012083004F035FB00239B
:105CC00084F82830034904F12C000BF002FF204631
:105CD00010BD00BFB48D010002F04CBA2DE9F04FA9
:105CE0005C4D46685C498DB0044606A80BF0F1FE99
:105CF000296803A80BF0EDFE03A906A80BF0ECFF42
:105D00000146304602F06CFE03A80BF097FE06A891
:105D10000BF094FE2068FFF70BFD504803F054FD94
:105D2000032806D14D4803F053FE4FF47A700CF06F
:105D30002FFE4B4F29683A684848484EDFF828A1A3
:105D400003F072FD0CF068FE8146DFF828B14FF0D9
:105D50000708304603F038FD03281FD00CF05CFE26
:105D6000DAF80030A0EB0900984217D259463D48B6
:105D70000BF099FD4FF47A700CF00AFEB8F10108AF
:105D8000E7D1304603F024FE4FF4FA700CF000FE29
:105D90003A682968304603F047FDD6E70CF03CFE30
:105DA0002E4E314F0546314606A803F0A5FD0021D1
:105DB00006A80BF02EFD037873B3284803F004FD0A
:105DC000032834D1254906A803F096FD002106A832
:105DD0000BF01FFD037853B32449656803A80BF04B
:105DE00078FE1E4906A803F087FD06A968460BF059
:105DF00043FC694603A80BF06FFF0146284602F0FA
:105E0000EFFD68460BF01AFE03A80BF017FE2068A2
:105E1000FFF77EFC01201AE00CF0FEFD3B68401B02
:105E20009842CAD24FF4FA700CF0B2FDBBE7656835
:105E30000F4906A80BF04DFE06A9284602F0D0FD3A
:105E400006A80BF0FBFD2068FFF76AFC00200DB0F0
:105E5000BDE8F08FD4030020A09101007C14002045
:105E6000D0030020AC180020EC8E0100CC91010082
:105E7000B5910100C39801002DE9F04700250446C3
:105E80000E46A946A28C276AABB29A420FD907EBFD
:105E9000C3089A46D8F8041019B1336830465B68D5
:105EA000984747F83A900135C8F80490EAE700238C
:105EB000A384BC424FF6FF73238507D0336839466D
:105EC0005B683046984704232462E384BDE8F0878A
:105ED0002DE9F3470E8D4FF6FF739E4205460C46A3
:105EE00017460CD0314604F12000FFF758FE038816
:105EF00023852860AE80284602B0BDE8F0878B8CF1
:105F000053B16E463046FEF7D9F9009B23B196E8AF
:105F1000030085E80300EEE7A28CE38C934217D1DF
:105F2000B3F5007F3FD05B009EB2236A3968A3427D
:105F30004FEAC6022FD10B68384611469847804673
:105F400088B3202221460FF0D2FEC4F82080E684D8
:105F5000B4F82480D4F820A008F101039BB2B3F573
:105F6000007FA3843B680CBF7F268026F1001B685E
:105F7000384698470AEBC809002808BF00260023C6
:105F8000C9F8040021462AF838602846A9F80230EA
:105F9000FEF794F9AFE7D1F8088038461946C047B4
:105FA00080460028D1D100232B604FF6FF73AB80D1
:105FB000A1E737B50A6804460D4668460C31FFF77D
:105FC00087FF009B43B9012223604FF6FF732A71BC
:105FD000A380204603B030BDBDF804202360A2801A
:105FE000F7E7FFFFFFFFFFFF2DE9F74F91F90030C3
:105FF0002B2B044632D02D2B31D10131012591F9C3
:106000000020A2F13003DBB2092B01D92E2A28D1BE
:10601000DFF868B28846002000214FF0993A4FF02F
:106020000A0EC4461CF9013BA3F13002D2B2092A80
:106030001DD88B4508BF824520D30EFB01F3A0FB82
:106040000E0119440023D2B2DF43D6438F4208BF6A
:10605000864213D380185941E046E2E7013100251A
:10606000CDE700232370204603B0BDE8F08F2BB9A5
:10607000E5B1B1F1004F08BF01280FD3764F0023DF
:106080004FF0FF368F4208BF864203F1010910D25C
:1060900000230A220FF0D8FB4B46F3E702234042CD
:1060A000237061EB4101C4E90201DCE703232370A3
:1060B000F9E7A3EB080707EB0806434618F901CBFD
:1060C00032B2ACF13006F6B2092EF4D9BCF12E0F83
:1060D00022D1C6460FF27819D9E900894FF00A0A91
:1060E00073460EF1010E93F800C0ACF1300C5FFA6C
:1060F0008CFCBCF1090F0FD8894508BF8045EFD350
:10610000A0FB0A6716EB0C000AFB017702F1FF36D1
:1061100047F1000132B2E3E793F9006026F0200670
:10612000452E66D193F901602D2E25D19F1C4FF08D
:10613000010C00264FF00A083B4617F901EBAEF1BF
:10614000300E5FFA8EF9B9F1090F26D808FB06E682
:10615000B318B3F59A7FEFDDBCF1000F13D0DFED7C
:106160003F7A9FED3F7A002D18BFF0EE477A01236A
:106170002370C4ED027A76E72B2E14BF5F1C9F1CA0
:106180004FF0000CD5E700222DB1364B04212170D1
:10619000C4E9022367E7344BF8E7BCF1000F00D0F5
:1061A000764293F90030002B7FF45BAF164406F182
:1061B00026034C2B24D8002908BFB0F5000F1FD2AE
:1061C00007EE900A002EF8EEE77AD6BF2749284955
:1061D000764200237EB1F20742BFDAB201EB8202BF
:1061E00092ED007A4FEA660648BF67EE877A013380
:1061F000F0E70026D5E7002DB9D0F1EE677AB6E7D3
:106200000EF054FF002ECABF1A4B1B4B0193804661
:106210008946DCBF01937642002786B1F3070BD590
:10622000F9B201A8FEF7E5F84046494653EC102BB9
:106230000EF072FF8046894676100137EDE715B102
:1062400009F10043994604232370C4E902890AE74F
:106250009899999999990100FFFF0F00000000009B
:10626000000000800000F0FF0000F07F649101005A
:106270007C910100708C0100288C0100999999197A
:1062800070B5006878B1C4884B689C42F9D10D683C
:1062900000239C4207D9C218EE5692F90820964274
:1062A000EFD10133F5E770BD2DE9FF4182680D465E
:1062B0004168032A044601F108011CD8084600235E
:1062C000D7B2461AF6B2B74206D910F9016B002EC2
:1062D00008BF43F00103F4E76BB902202871D8B27C
:1062E000874203D9C856E8540133F8E70023AB547A
:1062F00004B0BDE8F08100268E542768D4F80880E9
:106300008DF80C60CDE9011807F1080001A9FFF72D
:10631000B7FF68B9424661683846FFF788FC2368D2
:106320009A6802609860666005232B712860DFE739
:10633000838801338380F7E72DE9F0418AB001AC0F
:1063400084E80E00109D0F4671B907914FF6FF7358
:10635000ADF82030079820B107A82946FDF72DFF9A
:1063600007980AB0BDE8F0810488DDF8088021466E
:1063700005F12C00FFF713FCADF818400590C0B1F3
:10638000C388ADF81A30012607AC0599D9B19EB182
:106390002046FFF72EFC089A42450DD107990023AD
:1063A0009A4212D017F903C0C856844504D101336C
:1063B000F6E74FF6FF73E4E7294605A886F00106E5
:1063C000FDF7FBFEE1E70791C0E705AB93E80300AB
:1063D00084E80300BEE730B5054689B00C460846A0
:1063E00009B110F094FACDE9024000248DF8104074
:1063F00002AA95F83C3007CA202B08BF05F13804E3
:1064000005AB83E807004CB100950ECB2046FFF7A3
:1064100093FF003018BF012009B030BD2046F8E7D7
:1064200030B585B001466846FFF7DEFD9DF80030C7
:10643000013B032B48D8DFE803F00218242FDDEDE1
:10644000027A9FED257AF4EEC77AF1EE10FA3BDB83
:106450009FED227AF4EEC77AF1EE10FA34D8FDEE11
:10646000E77A17EE900A05B030BDDDE9020110F1C0
:10647000004241F10003012B08BF002A28BF002081
:10648000F1E7DDE9020100238B426FF0004208BF13
:10649000824238BF0020E6E7DDE902450022104BCA
:1064A000204629460FF0BEF80028DCD008A3D3E927
:1064B0000023204629460FF0ABF80028D3D0204611
:1064C00029460FF0D9F8CEE70020CCE7AFF30080E3
:1064D0000000C0FFFFFFDF41000000CFFFFFFF4EC5
:1064E0000000E0C1FFFFFFFF38B5057904460B4609
:1064F000018815F0100003D003F12C00FFF74FFBCB
:10650000023D1C2D65D8DFE805F02E6432340F649F
:10651000646411641564376464646464646464640A
:106520006464176422644C00207838BD206820EA37
:10653000E070FAE72068F8E7D0E9000100238B4219
:106540006FF0004208BF824238BF0020EDE7D0E97B
:10655000000110F1004241F10003012B08BF002AA5
:1065600028BF0020E1E72046FFF75AFFDDE720685B
:10657000FAE720680830F7E7D4ED007A9FED187A43
:10658000F4EEC77AF1EE10FA23DB9FED167AF4EE03
:10659000C77AF1EE10FA1CD8FDEEE77A17EE900AF2
:1065A000C3E7D0E9004500220F4B204629460FF0F3
:1065B00039F80028B9D008A3D3E90023204629469A
:1065C0000FF026F80028B0D0204629460FF054F8E6
:1065D000ABE70020A9E700BF0000C0FFFFFFDF41DD
:1065E000000000CFFFFFFF4E0000E0C1437E6BB90B
:1065F000D0E9043293423DBF5A1C02611B784FF030
:10660000FF3323EAE37303760123437690F91800FE
:10661000704738B5044600252046FFF7E7FF0A28F3
:1066200006DC092808DA48B10123237300200AE0B8
:106630000D2801D02028F7D16576EDE7237B002BCC
:1066400014BF0220012038BD70B505464C1E00263F
:1066500014F9010F50B12846FFF7C8FF28B194F98B
:106660000030834203D16E76F2E7022070BD032032
:10667000FCE72DE9F04387B006460D46FFF7B6FF6D
:10668000002427462F28E3B20BDD39280BDC013428
:10669000402C24D033197776D8773046FFF7A6FF01
:1066A000F0E72B28F3D0A0F12D02D2B2012AEED9C7
:1066B00020F0200252B2452AE9D03344002283F868
:1066C000202006F1200102A8FFF78EFC9DF808307B
:1066D000013B032B62D8DFE803F03924043E3F235B
:1066E000EBE7DDE90489B9F1010F08BFB8F1000F4C
:1066F00007D20A232B71C5F80080002007B0BDE83F
:10670000F083F1696846FFF754FC009B0BB9042045
:10671000F4E71A222A71BDF804202A80C3E900890F
:10672000EBE7DDE9048918F1004249F10003012B90
:1067300008BF002A01D20C23DCE7F1696846FFF7A5
:1067400038FC009B002BE2D01C22E3E70E232B71C8
:10675000049B2B60D1E7DDE90489494640460EF0F1
:10676000D3FF07460EF080FC02460B4640464946E2
:106770000EF03AFF18B10E232B712F60BDE7F169BF
:106780006846FFF716FC009B002BC0D01E222A7122
:10679000BDF804202A80C3E90089AEE70320ADE7F5
:1067A00070B550F8046B07C88CB003AB16F1380510
:1067B00083E8070002D100200CB070BD93E8070009
:1067C00096F83C30202B06AC09AB18BF002584E8B6
:1067D000070083E80700002DEDD000960ECB284679
:1067E000FFF7AAFDE8E770B50646FFF7D9FF0546B3
:1067F00088B10479018814F0100003D030682C307F
:10680000FFF7CDF90C2C29D006D8062C24D00A2C61
:1068100024D07CB3012070BD1A2C24D00BD80E2CB0
:10682000F8D1D5ED007AF5EE407AF1EE10FA14BF0A
:1068300001200020EFE71C2C15D01E2CEAD10022ED
:106840000023D0E900014FF001040EF0CDFE08B1A5
:106850004FF00004E0B2DEE72878DCE7286800307B
:1068600018BF0120D7E7D0E90023134314BF01204C
:106870000020D0E72046CEE7F8B506460F46FFF7E2
:106880008FFF3368054668B10479018814F0100061
:1068900003D003F12C00FFF782F90C2C1AD003D897
:1068A0000A2C12D038681CE01A2C1BD01C2CF9D1F1
:1068B000D0E9002312F1004043F10001012908BF93
:1068C000002834BF0123002302E02B68DB43DB0FE9
:1068D000002BE7D03046FFF763FF316808B1FFF7C0
:1068E00003FEF8BDD0E90023002199426FF000407B
:1068F00008BF90422CBF01230023E9E738B50446C6
:106900000D46FFF773FEA8424FF0000004BF60760B
:10691000012038BD7F2837B50C4605D841B2204646
:10692000FFF7AEF903B030BD00238DF8003000F062
:106930003F03800982B263F07F031F2A8DF8013084
:10694000C3B20DD863F03F038DF802300DF103059B
:1069500015F9011D0029E5D02046FFF791F9F7E769
:10696000C0F3891003F03F0363F07F030F288DF815
:106970000230C3B205DC63F01F038DF8033001ADB4
:10698000E6E703F03F03801163F07F0360F00F0040
:106990008DF803308DF804000DF10505D8E7FFFFF1
:1069A0002DE9F0478046FFF721FE0024384E88F895
:1069B0001940074625464046FFF718FE8742014624
:1069C00088F819505CD010B90220BDE8F0875C2827
:1069D00052D14046FFF70AFE0028F5D075283CD179
:1069E00088F819504FF004094FF0000A4046FFF7AD
:1069F000FDFD0028E8D04028CBBF20F02002303831
:106A0000373AC3B2C8BFD3B20F2B01D90320DCE79A
:106A100009F1FF3943EA0A1319F0FF091FFA83FA53
:106A200088F81950E2D10AF520539BB2B3F5806F74
:106A300002D2CAF30904BEE70AF510539BB2B3F5BC
:106A4000806F3DBFCAF3090A4AEA842A0AF58030FA
:106A500050464146FFF75EFFADE700239A5799196C
:106A6000002AD3D0904203F10203F7D191F901102B
:106A70000029CBD088F819504046FFF701F99AE772
:106A8000D8F80430002B0CBF042000209DE700BF85
:106A9000A28D010070B50E4686B00446FDF719FEC2
:106AA000B36832682568CDE9032300238DF81430DC
:106AB000064648B12946FDF7B0FB009506AB13E941
:106AC0000E003046FDF7A2FC206810B1007980F07E
:106AD000010006B070BDF0B587B006460C46FDF764
:106AE000F8FD3768054620460CB10FF010FF002373
:106AF000CDE903408DF8143055B139462846FDF7ED
:106B00008CFB009706AB13E90E002846FDF77EFCD0
:106B1000306810B1007980F0010007B0F0BD2F2877
:106B20000EDD392803DD5E2803DD7A2803DC012031
:106B30007047402804DD5A28CCBF00200120704750
:106B40000020704770B50446FFF78AF82046FFF72B
:106B50004DFD27281ED022281CD02046FFF746FDD9
:106B60000546FFF7DCFF98B10026294620466676E9
:106B7000FFF786F82046FFF739FD0546FFF7CFFF00
:106B80000028F2D16368002B0CBF0420002000E035
:106B9000032070BD2046FFF703FFFAE72DE9F04F11
:106BA0005FFA83F98DB004460D46B9F1000F00F08D
:106BB000858000234376FFF72CFDB8B97D21204660
:106BC000FFF79CFE88B90DF124082046FFF7BAFFB5
:106BD00060B92046FFF71DFD064638B93A21204628
:106BE000FFF78CFE28B9032000E000200DB0BDE8BF
:106BF000F08FD4E9013213448DF82C601E72D4E971
:106C000001320833CDE90932E369009398E80E00B8
:106C10002846FFF791FB074600284BD1D4F81CB05B
:106C200005A85946FDF767FB059E0EB90420DDE770
:106C3000594607A8FDF75FFB079F002FF6D0BDF868
:106C400020A0A6F806A06988BDF818304FF6FF729C
:106C500091422DD00BF12C000393FEF7A0FF039B74
:106C6000C380A5F802A031462046FFF71DFB09F1BD
:106C7000FF334FF000023946204600F021F800288B
:106C8000B4D12046FFF7C5FC0028AFD17D212046B6
:106C9000FFF734FE0028A8D12C212046FFF72EFE56
:106CA0000028A0D02046FFF7B4FC00288DD09DE737
:106CB0002B80D6E7E169FDF7B0FAD8E7052095E724
:106CC000F8B506460C461F46FFF7A3FC0546B8B9C3
:106CD0003046FFF78BFC662842D013DC272803D010
:106CE0005B2817D0222840D13046FEF7B9FF304646
:106CF000FFF756FE054618B921463046FFF7D4FA8D
:106D00002846F8BD742822D07B2812D06E282CD1BA
:106D1000184921E0402323714FF6FF7323806380DD
:106D20004FF000023B462146304600F029F8054668
:106D3000E6E7202323714FF6FF73238063804FF033
:106D400000023B4621463046FFF728FFEFE70623C7
:106D500023710949012323703046FFF775FCE6E7EC
:106D60000623237125700549F6E721463046FFF7D3
:106D700080FCDCE79D8D0100BC8D0100C18D010010
:106D80002DE9F347DDB204460E46002D46D0002320
:106D90004376FFF73EFCA8B95D212046FFF7AEFD24
:106DA00078B94FF6FF7A013DD4F81C906846494601
:106DB000FDF7A1FADDF80080B8F1000F05D104203D
:106DC00000E0002002B0BDE8F0877188BDF80470D3
:106DD000514521D009F12C00FEF7E1FEC7807780F4
:106DE0002B464FF0000241462046FFF769FF00287E
:106DF000E8D12046FFF70DFC0028E3D15D212046B5
:106E0000FFF77CFD0028DCD12C212046FFF776FD22
:106E10000028C9D10320D5E73780E0E70520D1E776
:106E20002DE9F04104460E688D68016898B000F1C4
:106E300038070C30FFF720F80023D4F800802371C6
:106E40003544A06828B10368A3604146FEF7CBFE35
:106E5000F7E784F83C00CDE9004002908DF80C0083
:106E60008DF819004FF00A034FF0000239466846CA
:106E7000CDE904650794FFF723FF054640B99DF966
:106E800018302BB194F83C3013F0080F18BF0325CD
:106E9000019818B1009B1968FEF7A5FE284618B0A6
:106EA000BDE8F081014803F0A9BC00BFB007002095
:106EB00010B541F27D6186B00446134803F0BAFC78
:106EC0002046FEF70BFF114801F0CEFE01F0C4FE94
:106ED000646802280CBF0E490E4968460AF0F9FDA5
:106EE0006946204601F07CFD68460AF0A7FD684629
:106EF000094902F001FD094B1A68094B68461968F7
:106F000001F07AF906B010BDB0070020BD71000095
:106F100002990100149901007C140020D003002084
:106F2000D40300202DE9F04F914B8FB01B680193E3
:106F300004460F469046002603F1FF39019BB342F9
:106F400040F30F8156B38B49656808A80AF0C1FD6C
:106F50000A22314605A80AF0ECFD05A908A80AF0A6
:106F6000BBFE85490AF0C4FE0A22824649460BA8A8
:106F70000AF0DFFD0BA950460AF0AEFE0146284696
:106F800001F02EFD0BA80AF059FD05A80AF056FDE8
:106F900008A80AF053FD2068FEF7DCFB774802F0F2
:106FA00013FC03281CD12546DFF808A255F8080B6E
:106FB000FEF7BEFB724BDAF800101A88284602F082
:106FC00079FE30BB65686F490BA80AF082FD284640
:106FD0000BA901F005FD0BA80AF030FD0136ADE765
:106FE000656869490BA80AF074FD0BA9284601F0F1
:106FF000F7FC0BA80AF022FD2068FEF791FB204663
:10700000FEF76CFE82460028CDD150460FB0BDE899
:10701000F08F5E4905A80AF05CFD414605A80AF01C
:107020005BFE5B490AF064FE5A490AF061FEDAF839
:107030000010834608A80AF04CFD08A958460AF03B
:107040004BFE5549DFF870B10AF052FE53490AF081
:107050004FFE53490AF04CFE0A228246B9680BA83B
:107060000AF079FD0BA950460AF036FE4A490AF0AB
:107070003FFE4C490AF03CFE39460AF02DFE01461F
:1070800002A80AF0AEFD0BA80AF0D8FC08A80AF086
:10709000D5FC05A80AF0D2FC02A928460AF0FEFB9E
:1070A0000BF0BAFC82460BF0B7FCDBF80030A0EB2B
:1070B0000A0098424CD2284602F094FE00284CD098
:1070C000294605A80AF08EFC284603F00FF8364939
:1070D00008A80AF0FEFC08A905A80AF09CFE0028F2
:1070E00030DC32490BA80AF0F4FC0BA905A80AF021
:1070F00092FE00280BA8D4BF4FF0000A4FF0010AFF
:107100000AF09CFC08A80AF099FCBAF1000F1CD008
:10711000274965680BA80AF0DCFC41460BA80AF079
:10712000DBFD0146284601F05BFC0BA80AF086FC5B
:107130002068FEF7EDFA05A80AF080FC02A80AF024
:107140007DFC62E74FF0010ADCE705A80AF076FC57
:10715000284602F0CBFF02A83EE70A200BF018FCFD
:10716000A1E72068FEF7DCFA4FF0000A4DE700BF08
:10717000D88E0100DA930100E99301007C1400200D
:10718000E88E010012940100EE9301002E9401009C
:1071900034940100409401008C9401004794010054
:1071A00068940100799401008F9401009694010085
:1071B000A2940100CC030020CC8E01002DE9F04107
:1071C00090B03022002104A80EF0B5FD1D4B0493B1
:1071D0001D4B1E4E93E8070001AD85E80700002413
:1071E0007B2255F82410304603F064FC302204A9B9
:1071F000304603F00BFD304603F0D0FC0BF00CFCE6
:1072000041F2873807460BF007FCC01B404514D8F5
:10721000304603F03BFD60B1302204A90B4803F077
:10722000B0FA0E9B0A481BBA1844002110B0BDE802
:10723000F0810A200BF0ACFBE5E70134032CCFD141
:107240000020F2E7E30006EC94910100B007002073
:107250008081557C2DE9F04FB64BB74F00F1080502
:107260000446B3B08946904639681A88284602F029
:1072700021FD6668824680B9B04912A80AF029FC4F
:107280003046022212A901F0CBFB12A80AF0D6FB6D
:107290005646304633B0BDE8F08FA949DFF8E4A286
:1072A000DFF8E4B212A80AF014FC002212A930465A
:1072B00001F0B6FB12A80AF0C1FBA249666812A849
:1072C0000AF007FC0A2241460EA80AF032FC0EA979
:1072D00012A80AF001FD9C490AF00AFD0146304659
:1072E00001F07EFB0EA80AF0A9FB12A80AF0A6FB8B
:1072F0009649666812A80AF0ECFB494612A80AF003
:10730000EBFC0146304601F06BFB12A80AF096FB3D
:107310002068FEF79DFB8E490EA80AF0DAFB49466D
:107320000EA80AF0D9FC8B49DFF860920AF0E0FC65
:1073300089490AF0DDFC3968064612A80AF0C9FB43
:1073400012A930460AF0C8FC84490AF0D1FC8449ED
:107350000AF0CEFC014605A80AF043FC12A80AF088
:107360006DFB0EA80AF06AFB05A928460AF096FAFA
:107370000BF052FB06460BF04FFBD9F80070801B58
:10738000B84207D2284602F02DFDC0B90A200BF002
:10739000FFFAF0E76468734912A80AF09AFB2046E6
:1073A000022212A901F03CFB12A80AF047FB284672
:1073B00002F09CFE002605A80AF040FB69E70A22BD
:1073C00029460EA80AF022FB63680093514612A8D2
:1073D0000AF07FFB0EA912A80AF07EFC009B014672
:1073E000184601F0FDFA12A80AF028FB59460EA82B
:1073F0000AF0ADFC30B30EA80AF020FB66685A49CB
:1074000012A80AF066FB002212A9304601F008FB20
:1074100012A80AF013FB404600F028FFD4F80490AD
:10742000064698B9514912A80AF053FB4846022271
:1074300012A901F0F5FA12A80AF000FB284602F0A2
:1074400055FEB8E70EA80AF0F9FA9FE7484912A8D6
:107450000AF03FFB002212A9484601F0E1FA12A807
:107460000AF0ECFA0BF0D8FA83460BF0D5FA0021BB
:1074700082462068FEF7F8F9284602F0B3FC80B98E
:1074800066683C4912A80AF024FB012212A9304682
:1074900001F0C6FA12A80AF0D1FA4FF47A700BF094
:1074A00077FA07EB470300934FF0FF390027474572
:1074B00080F217810BF0B0FA009BA0EB0B00984212
:1074C0000FD964682C4912A80AF003FB2046012258
:1074D00012A901F0A5FA12A80AF0B0FA00F0F2FE23
:1074E00065E70BF099FA42F21073A0EB0A0098429C
:1074F00002D964682149E6E7284602F073FC0028B7
:1075000000F0BA80802212A9284602F064FD061E0F
:107510003EDC66681A490EA80AF0DBFA01220EA9C1
:10752000304601F07DFA0EA80AF088FA64200BF0CC
:107530002FFABCE7E88E0100CC030020549601002E
:107540007996010095960100A3960100AA96010084
:10755000B996010034940100409401008C9401001C
:1075600079940100BE960100EA9601000A97010095
:107570003297010052970100729701009C97010019
:10758000CA970100DF960100E8960100CC8E010049
:107590000BF042FA3146824612A800F073FE864292
:1075A0002AD00090B24964680BA80AF092FA0A2225
:1075B000314608A80AF0BDFA08A90BA80AF08CFB0E
:1075C000AC490AF095FB009B0A22194606460EA814
:1075D0000AF0AFFA0EA930460AF07EFB01462046BB
:1075E00001F0FEF90EA80AF029FA08A80AF026FA16
:1075F0000BA80AF023FA71E73744642605237E437B
:1076000096FBF8F696FBF3F299FBF3F39A427FF7B9
:107610004EAF31462068FEF727F96368964901931B
:107620000BA80AF056FA0A22394608A80AF081FA8D
:1076300008A90BA80AF050FB90490AF059FB0A224E
:10764000814631460EA80AF074FA0EA948460AF09F
:1076500043FB8B490AF04CFB019B0146184601F0A5
:10766000BFF90EA80AF0EAF908A80AF0E7F90BA892
:107670000AF0E4F9B1461AE7284602F073FD06461F
:1076800068BB804964680EA80AF023FA0A223946CA
:107690000BA80AF04EFA0BA90EA80AF01DFB7A49B6
:1076A0000AF026FB0A220746414612A80AF041FAD0
:1076B00012A938460AF010FB74490AF019FB01467A
:1076C000204601F08DF912A80AF0B8F90BA80AF0CB
:1076D000B5F90EA80AF0B2F900F0F4FDAEE60A2002
:1076E00025E7284602F002FD12AD66686849284683
:1076F0000AF0EFF900222946304601F091F92846B8
:107700000AF09CF900F0D6FD6768064660B9614949
:1077100028460AF0DEF938460222294601F080F9AF
:1077200028460AF08BF946E65B4928460AF0D1F96B
:1077300000222946384601F073F928460AF07EF9FE
:107740006768564928460AF0C4F900222946384697
:1077500001F066F928460AF071F964212068FEF705
:1077600083F84F4B129315AB1D934FF480230027E2
:107770001E930BA84FF6FF73ADF87C30ADF8863042
:107780008DF84C7014978DF8847001F0B3F8454B68
:107790000F934FF0010808230BA90EA810938DF842
:1077A00044800E95FFF776F90BA80AF047F93E4B97
:1077B0000F930F2310933D4B8DF8448019680E955D
:1077C0000EA8FFF788F93A4B0F9309231093394B12
:1077D0008DF8448019680E950EA8FFF77CF936499C
:1077E00008A80AF076F920ABCDE9033503AB93E89E
:1077F000030008AAFDF786FAD4F804802F490EA8E2
:107800000AF067F93A460EA9404601F009F90EA8B8
:107810000AF014F908A90BA80AF0E3F928490EA800
:107820000AF057F90EAA0BA92046FFF77BFB0EA81A
:107830000AF004F90BA80AF001F940F6B8300BF091
:10784000A7F864681F490EA80AF043F93A460EA942
:10785000204601F0E5F80EA80AF0F0F800F038FD37
:1078600008A80AF0EBF82846FCF771FCA3E500BF76
:10787000E69701000D980100179801002498010077
:107880002D980100309801005E980100A396010038
:10789000609801007298010090980100B298010070
:1078A000B8030020068D0100AB8E0100C403002048
:1078B000A18E0100C8030020B48D0100C59801000D
:1078C000218F0100E59801002DE9F043A1B010AE31
:1078D0000F464468B349054630460AF0FAF839467F
:1078E00030460AF0F9F90146204601F079F83046B1
:1078F0000AF0A4F8AC4B109313AB1B934FF4802306
:1079000000241C9339464FF6FF7330468DF84440EF
:107910001294ADF874308DF87C40ADF87E30FFF7EE
:107920007FFAC7B2FFB1A1496D680CA80AF0D1F87F
:107930009F4B09A853F827100AF0CBF809A90CA807
:107940000AF0CAF90146284601F04AF809A80AF0E7
:1079500075F80CA80AF072F83046FCF7F8FB2046E0
:1079600021B0BDE8F083934F30463946FEF733FD32
:10797000044668B96D6890490CA80AF0AAF8284630
:1079800001220CA901F04CF80CA80AF057F8E3E723
:10799000CDE90C670F2301270CA80E938DF83C70DE
:1079A000FEF721FF85F82800002833D1834B0D9383
:1079B0000CA807230C960E938DF83C70FEF7F0FE92
:1079C00030B303791A1FBA4201D9022B20D10CA877
:1079D000FEF7E6FE014618B109A8FEF70AF9099973
:1079E00009A80AF076F876496F680CA80AF071F8D1
:1079F00009A90CA80AF070F90146384600F0F0FF1A
:107A00000CA80AF01BF82868FDF782FE09A8BCE75D
:107A10006C49E5E7DFF8E08130464146FEF7DBFCE4
:107A2000044610B96D686849A6E768493046FEF714
:107A3000D2FC044610B96D6865499DE70D230CA87A
:107A40008DF83C70CDE90C680E93FEF7A9FE6149F4
:107A50000C9F044606A80AF03CF8002C00F0998020
:107A6000214609A8FEF7C5F80999002900F0918080
:107A700006A80AF0C6F805F12C0406A920460AF06B
:107A8000BAF806A809F0DAFF53496F680CA80AF0A3
:107A900020F821460CA80AF01FF9002201463846BA
:107AA00000F0BEFF0CA809F0C9FF4C496F680CA894
:107AB0000AF00FF84A4B09A819680AF00AF809A950
:107AC0000CA80AF009F900220146384600F0A8FF88
:107AD00009A809F0B3FF0CA809F0B0FF2868FDF76A
:107AE0005BFE404909A809F0F4FF06A800F002FF78
:107AF00006A909A80AF0F0F83B490AF0F9F821466E
:107B00000AF0EAF839490AF0F3F8394B04461968E3
:107B10000CA809F0DEFF0CA920460AF0DDF80146AA
:107B200003A80AF05EF80CA809F088FF06A809F07F
:107B300085FF09A809F082FF244B0D934FF001093E
:107B40000423002409A90CA80C960E938DF83C90F0
:107B50000994FEF791FE071ED5F804804EDC2549F6
:107B60000CA809F0B6FF0A22394609A809F0E1FF7E
:107B700009A90CA80AF0B0F84A460146404600F0B0
:107B80004FFF09A809F05AFF0CA809F057FF03A8F6
:107B9000FBE6CDE9014701AB06AA93E80300FDF738
:107BA000B1F868E7D2940100B8030020EC9401001A
:107BB000DC030020FF9401000F95010046950100B1
:107BC0004E950100BD9401006C950100989501004F
:107BD0009D950100B48D0100C0950100DA9501006A
:107BE000C4030020F59501001696010020960100BF
:107BF000C80300202C9601005E95010012490CA8D4
:107C000009F067FF0A22394609A809F092FF09A97D
:107C10000CA80AF061F80D490AF06AF822460146FC
:107C2000404600F0FDFE09A809F008FF0CA809F085
:107C300005FF4FF4FA600AF0ABFE3A4603A9284666
:107C4000FFF708FB0446A2E744960100A396010053
:107C50002DE9F04F4568B54997B0044613A809F0DF
:107C600038FF002213A9284600F0DAFEB04D13A811
:107C700009F0E4FEAF49666813A809F02AFF2968F5
:107C800010A809F026FF10A913A80AF025F8002271
:107C90000146304600F0C4FE10A809F0CFFE13A83C
:107CA00009F0CCFE2068FDF743FDA34801F08CFDF0
:107CB000032812D06568A14913A809F00AFF012220
:107CC00013A9284600F0ACFE13A809F0B7FE2068FF
:107CD000FDF726FD17B0BDE8F08F99490DA809F012
:107CE000F8FE0AA800F006FE0AA90DA809F0F4FFA4
:107CF000944909F0FDFF2968064610A809F0E9FE3D
:107D000010A9304609F0E8FF8F49904E09F0F0FFC6
:107D10008F4B0546196813A809F0DBFE13A9284606
:107D200009F0DAFF014601A809F05BFF13A809F08A
:107D300085FE10A809F082FE0AA809F07FFE0DA8B2
:107D400009F07CFE8349656813A809F0C2FE01A909
:107D500013A809F0C1FF0146284600F041FE13A810
:107D600009F06CFE7C4B31681A8804F1080528463E
:107D700001F0A0FF98B96568784913A809F0A9FE39
:107D8000022213A9284600F04BFE13A809F056FE64
:107D90002068FDF7C5FC01A809F050FE9AE770497C
:107DA000DFF8E891DFF8E8A1DFF8E8B110A809F002
:107DB00090FE01A910A809F08FFF6A4909F098FF09
:107DC000694909F095FF3168074613A809F081FE5B
:107DD00013A9384609F080FF644909F089FF644916
:107DE00009F086FF014604A809F0FBFE13A809F07C
:107DF00025FE10A809F022FE04A9284609F04EFD30
:107E000066685C4913A809F064FE002213A9304695
:107E100000F006FE13A809F011FE574907A809F063
:107E200058FE0AF0F9FD544980460AA809F051FEAF
:107E300000273E460AF0F0FDD9F80030A0EB08001C
:107E4000984280F0E880284601F0CCFF002800F03E
:107E5000AC800A2229460DA809F0D8FD514613A886
:107E600009F037FE13A90DA809F09BFF064613A8D9
:107E700009F0E4FD002E40D04049666813A809F0DF
:107E800028FE0DA913A809F027FF0146304600F08F
:107E9000A7FD13A809F0D2FD394913A809F019FE6E
:107EA00013A90DA809F0B7FF064613A809F0C6FDEF
:107EB000002E22DA3349666813A809F00AFE0DA9DC
:107EC00013A809F009FF0146304600F089FD13A808
:107ED00009F0B4FD284602F009F92068FDF720FCFE
:107EE0000DA809F0ABFD0AA809F0A8FD07A809F044
:107EF000A5FD04A809F0A2FD4DE759460DA809F01B
:107F000026FF0646002847D067681F4913A809F0D6
:107F1000E0FD002213A9384600F082FD13A809F005
:107F20008DFD0DA809F08AFD374683E7E191010038
:107F3000C4030020029201007C140020149201006E
:107F40003E9201005C92010020960100CC030020CB
:107F5000C80300206D920100E88E010080920100AC
:107F6000B996010034940100409401008C94010002
:107F700079940100A3920100B48D0100C592010023
:107F80008F940100D7920100F8920100CC8E01007D
:107F9000BD920100E89601008FB10DA90AA809F071
:107FA0007AFE0DA809F04AFD0126284602F0DAF80B
:107FB00008B9002E2FD10A200AF0EAFC3AE76349FB
:107FC00010A809F086FD10A90DA809F0EAFE0646E2
:107FD00058B95F4913A809F07CFD13A90DA809F051
:107FE000E0FE064613A809F029FD10A809F026FDB9
:107FF000002ED6D05749666813A809F06AFD0DA96E
:1080000013A809F069FE0146304600F0E9FC13A808
:1080100009F014FDC5E7284602F068F86EB96568F6
:108020004D4913A809F055FD2846022213A900F076
:10803000F7FC13A809F002FD6BE06FB30C9B5BB378
:108040000AA809F04CFF7B210AA809F0CFFE7D2188
:1080500005460AA809F0F9FE002D5EDA65683F4979
:1080600013A809F036FD012213A9284600F0D8FC18
:1080700013A809F0E3FC3A49656813A809F029FD43
:108080000AA913A809F028FE0146284600F0A8FC1A
:1080900013A809F0D3FC56E06568324913A809F02B
:1080A00018FD012213A9284600F0BAFC13A809F014
:1080B000C5FC2D49656813A809F00BFD0A22394655
:1080C00010A809F036FD10A913A809F005FE014615
:1080D000284600F085FC10A809F0B0FC13A809F0B0
:1080E000ADFC2249656813A809F0F3FC0A220C993B
:1080F00010A809F030FD10A913A809F0EDFD014604
:10810000284600F06DFC10A809F098FC13A809F0AF
:1081100095FC2068FDF704FBE5E600289EDB431C88
:108120002A460AA913A809F095FE13A90AA809F07E
:1081300062FD13A809F082FC0AA92046FFF7C4FBE0
:1081400000287FF4D0AE656809496AE717930100FB
:1081500025930100DF960100359301009193010002
:10816000B6930100569301007393010083930100BD
:10817000C693010010B50A4C88B004F1300168467E
:1081800002F070F96946204603F066FC684601F08B
:1081900045FD04F16001204603F0A4FA08B010BDCB
:1081A000880D002010B5084C204603F0D3F904F1E7
:1081B00030004FF47F4102F043F904F16000BDE864
:1081C000104002F01BBB00BF880D002010B5084C0A
:1081D000084B236304F1400001F020FD04F10C0082
:1081E00009F02CFC2046BDE8104009F027BC00BF78
:1081F000880D002078A00100F0B5031D05460E464D
:1082000017460FCB8FB003AC84E80F00144B0893D4
:1082100094E80F0095F814C0124C8DF834C009ADE5
:1082200085E80F00104B009332463B4608A92046D4
:1082300003F0A6F904F1300002F0C6F9FB23009325
:1082400000231A46E02108A809F0B4F941F2E942F6
:1082500008A904F1600002F06FFB0FB0F0BD00BF91
:10826000C4A70100880D0020DC160020014608B5D7
:10827000034803F0B9F8003018BF012008BD00BF63
:10828000DC1600202DE9F041094F054600EB0108FE
:1082900004464445A4EB050606D014F8011B3846F5
:1082A00003F0DCF80128F4D03046BDE8F08100BFCF
:1082B000DC16002008B5024803F0BEF8012008BD16
:1082C000DC160020014803F0B7B800BFDC16002020
:1082D000014803F00DB900BFDC1600200E224260F9
:1082E000084A8260084AC260084A02614FF07C5224
:1082F0004261074A016082614FF4F0711422C0E9C3
:1083000007127047000010410000E0403333333F54
:1083100000005041FFFFFFFFF0B52DED028B064638
:108320008DB0007908F04AFF0A250446022730790B
:1083300008F044FF044401200AF02AFB94FBF7F400
:10834000013DF4D120460CF07DFE2DA3D3E900239E
:108350000CF0E2FE0DF0D8F9642C08EE100A3FDDB7
:108360002349376803A809F0B4FB0A22214668466E
:1083700009F0DFFB694603A809F0AEFC1D4909F0CE
:10838000B7FCB0EE480A0446032106A809F043FCF6
:1083900006A9204609F0A0FC174909F0A9FC96EDB2
:1083A000060A044628EE000A012109A809F033FC58
:1083B00009A9204609F090FC104909F099FC2A46C9
:1083C0000146384600F02CFB09A809F037FB06A847
:1083D00009F034FB684609F031FB03A809F02EFBD5
:1083E000B0EE480A0DB0BDEC028BF0BDAFF30080DB
:1083F00096990100A8990100B4990100C099010063
:108400006D1AD0A6016D6A3F13B50446FFF784FFCD
:10841000DFED117AD4ED046A94ED057A66EEA76A71
:1084200027EE277A20EE270AFDEEE67A642317EE80
:10843000902AFDEEC77A009317EE901AFDEEC07AEF
:10844000002317EE900A08F0D7FF6428A8BF642025
:1084500020EAE07002B010BD00007A4410B5044676
:10846000FFF7D2FFE3695843642390FBF3F010BD9C
:1084700010B50446FFF7C8FF236A9842ACBF00203E
:10848000012010BD2DE9F0412DED028B044690B086
:10849000002100790AF040F92046FFF73DFF204611
:1084A000B0EE408AFFF7B0FF80462046FFF7D6FFC8
:1084B00033492568074604A809F00BFBB0EE480ACB
:1084C000022101A809F0A7FB01A904A809F004FCF6
:1084D0002C4909F00DFC94ED060A064628EE000A28
:1084E000012107A809F097FB07A9304609F0F4FB22
:1084F000254909F0FDFB0A22064641460AA809F073
:1085000018FB0AA9304609F0E7FB204909F0F0FB07
:108510000A22064639460DA809F00BFB0DA9304684
:1085200009F0DAFB1A4909F0E3FB0022014628466C
:1085300000F076FA0DA809F081FA0AA809F07EFA8F
:1085400007A809F07BFA01A809F078FA04A809F055
:1085500075FA2046FFF78CFF60B124680D490DA81D
:1085600009F0B7FA204601220DA900F059FA0DA82A
:1085700009F064FA10B0BDEC028BBDE8F08100BFD9
:10858000C3990100B4990100DD990100E19901004E
:10859000EC990100FF9901002DE9F0432DED028BCC
:1085A0008BB00446FFF7B8FE2046B0EE408AFFF7D6
:1085B0002BFF06462046FFF751FF25685449074622
:1085C00007A809F086FA002207A9284600F028FA31
:1085D00007A809F033FA4F49256807A809F079FA86
:1085E000B0EE480A032104A809F015FB04A907A866
:1085F00009F072FB484909F07BFB0146284600F070
:10860000EFF904A809F01AFA07A809F017FA434984
:10861000256807A809F05DFA94ED060A012128EE05
:10862000000A04A809F0F7FA04A907A809F054FB06
:10863000394909F05DFB0146284600F0D1F904A84C
:1086400009F0FCF907A809F0F9F93549256807A8E8
:1086500009F03FFA0A22314604A809F06AFA04A98F
:1086600007A809F039FB2F4909F042FB01462846CB
:1086700000F0B6F904A809F0E1F907A809F0DEF95D
:108680002949D4F8008004A809F023FA3C260A22DC
:1086900097FBF6F501A8294609F04BFA01A904A8B1
:1086A00009F01AFB214909F023FB0A22814606FB47
:1086B000157107A809F03DFA07A9484609F00CFB17
:1086C0001B4909F015FB00220146404600F0A8F9BD
:1086D00007A809F0B3F901A809F0B0F904A809F056
:1086E000ADF92046FFF7C4FE60B12468114907A820
:1086F00009F0EFF92046012207A900F091F907A837
:1087000009F09CF90BB0BDEC028BBDE8F08300BF13
:108710000B9A01001A9A0100508F01002D9A010056
:10872000489A01002E8E0100519A0100679A0100BB
:1087300058990100FF99010038B50D4604490446D7
:1087400006231622097802F0BDFC6561204638BD7B
:10875000D08E010070B52DED028B8AB045693C4981
:10876000044607A809F0B5F9002207A9284600F039
:1087700057F907A809F062F93721204602F0A8FC52
:108780004FF4FA600AF004F900221146204602F084
:1087900043FD00212046F0EE408A02F0D9FDF4EEC0
:1087A000688AF1EE10FAB0EE408A656942D6B4EEFE
:1087B000400AF1EE10FA3DD6264904A809F089F9DD
:1087C000B0EE680A022101A809F025FA01A904A85F
:1087D00009F082FA204909F08BFAB0EE480A064601
:1087E000022107A809F017FA07A9304609F074FA20
:1087F0001A4909F07DFA00220146284600F010F9D6
:1088000007A809F01BF901A809F018F904A809F054
:1088100015F96469124907A809F05BF9002207A954
:10882000204600F0FDF807A809F008F90AB0BDECF1
:10883000028B70BD0B4907A809F04BF928460122AD
:1088400007A900F0EDF807A809F0F8F8E1E700BF84
:108850006A9A0100829A0100999A01002E8E010005
:10886000DD9A0100A89A01000022114602F0D4BC52
:10887000002102F06DBDFFFFF0B587B001AD2946C4
:108880001248134F134E00F043FF1349114809F0EB
:10889000B8F900242B5D0F2B03D83946304609F078
:1088A0000BFA1022295D03A809F032F903A930461A
:1088B00009F0F1F9013403A809F0C0F8062CE9D158
:1088C000044809F000FB07B0F0BD00BF7C14002095
:1088D000BA8D0100C4130020B48D010010B5044C02
:1088E00023781BB9FFF7C8FF0123237010BD00BF19
:1088F000C0130020064B1B7810B504460BB9FFF7D8
:10890000EDFF0449204609F06CF9204610BD00BF78
:10891000C0130020C4130020204B1B78F7B50BB9FF
:10892000FFF7DCFF1E491F481F4E1E4D1F4F08F06A
:10893000D3FF1F491B4808F0CFFF1E49194808F014
:10894000B2FF1D49174808F0BDFF69461B4800F0FB
:10895000DFFE1B49134808F0A6FF00241DF8043071
:108960000F2B03D83146284608F09DFF10221DF832
:108970000410284609F013F8052C03D03946284680
:1089800008F091FF0134062CE8D1064808F094FF66
:108990000749044808F0A0FF03B0F0BDC013002051
:1089A000F49A0100AC180020BA8D0100039D01006B
:1089B000089B01001B9B0100C41300207C140020B5
:1089C000339B01000149024809F083B8B48D0100CE
:1089D000C4130020014809F031B800BFC4130020BF
:1089E000014808F06FBF00BFAC180020012A10B585
:1089F000044609D003D3022A08D0054900E00549FE
:108A000009F067F8204610BD0349F9E70349F7E785
:108A1000519B0100449B0100499B0100959B010073
:108A20002DE9F041022A90B098BF564B07460E46FA
:108A30001446554998BF9D560DA888BF2D2509F0AD
:108A400048F8224639460AA8FFF7D0FF0AA90DA820
:108A500009F042F94D4909F04BF9014601A809F026
:108A6000C0F80AA808F0EAFF0DA808F0E7FF484997
:108A70000DA809F02EF831460DA809F02DF944494A
:108A800009F036F9014604A809F0ABF80DA808F082
:108A9000D5FF039B069E3F499E42B8BF1E46F31A70
:108AA00007A8022793FBF7F7DC1B09F012F84FF039
:108AB0000008B84506DA294607A809F002F908F1C6
:108AC0000108F6E701A907A809F0E5F80027A74281
:108AD00005DA294607A809F0F4F80137F7E72D4928
:108AE0000AA808F0F6FF0024B44205DA29460AA8CD
:108AF00009F0E7F80134F7E727490DA808F0E9FF86
:108B000007A90DA809F0E8F8234909F0F1F8014692
:108B1000224808F0D7FE0DA808F090FF20490DA8C4
:108B200008F0D7FF04A90DA809F0D6F81C4909F0F0
:108B3000DFF80146194808F0C5FE0DA808F07EFFD1
:108B400015490DA808F0C5FF0AA90DA809F0C4F839
:108B5000114909F0CDF80146104808F0B3FE0DA800
:108B600008F06CFF0AA808F069FF07A808F066FF84
:108B700004A808F063FF01A808F060FF10B0BDE88A
:108B8000F08100BF419B0100599B01005B9B0100EC
:108B900028B40100B48D01005D9B0100AC180020D9
:108BA000609B0100014807F05DBF00BFAC180020CA
:108BB00008B5074B1860074B1B681844064B186034
:108BC000064B02221A7009F027FF054B186008BDFA
:108BD000DC130020F4030020D4130020D81300205D
:108BE000D013002038B5164D164C09F015FF2B6830
:108BF000C01AB0F57A7F06D3226803F57A73013282
:108C000022602B60F1E7104D23682A689A4208D849
:108C10000E4B1B682BB1984750EA010304D0FFF7B5
:108C2000C7FF2068002138BD094A23681268134431
:108C3000084A2B601378003318BF01231370F0E744
:108C4000D0130020DC130020D4130020E0130020F8
:108C5000F4030020D813002008B5FFF7C3FF014B31
:108C6000187808BDD8130020034B1860034B1A680E
:108C7000034B1A60FFF7B6BFE0130020DC1300209F
:108C8000D413002008B50368002B02DA09480CF061
:108C900081F88B4208D949008B4205D20029B6BF22
:108CA0006FF00043016003600068BDE808400130D8
:108CB0000CF03EB8749C010010B50446406828B121
:108CC00063781BB940F2AC410CF05CF8204610BD53
:108CD00008B4F3B507AB044600F10C0553F8042BB8
:108CE0000193802128460DF0B5FFD4F89000A8B17B
:108CF00094F89430012B11D90F4908F0D4FDD4F821
:108D00009060336828465F680DF001FE29460246F0
:108D10003046B847D4F8900008F0CEFD2846646885
:108D20000DF0F5FD29460246204607F0B1FF02B0DE
:108D3000BDE8F04001B07047C49B0100034653F802
:108D4000080B984201D00CF013B87047F8B50646EE
:108D5000456808460F460DF0DAFDA842024628BFD6
:108D60002A46044622B1394630680CF0B1FF00B9FA
:108D7000281BF8BD012A30B404D191F900300370EA
:108D800030BC7047002AFBD030BC0CF0B0BFFFFFF6
:108D900000F1080373B5044603600D46D1B10846DF
:108DA0000DF0B5FD0F280646019006D9002101A857
:108DB000FFF768FF019B2060A360324629462068C8
:108DC000FFF7D8FF019B2268636000212046D15441
:108DD00002B070BD01480BF0D7FF00BF8C9C0100B2
:108DE0002DE9F347DDF82880164642689A46A8EB3D
:108DF0000603571A13440268019300F108039A42CC
:108E00000D46044614BF81680F2101A8FFF73AFF01
:108E1000BF1B81461DB12A462168FFF7ABFFBAF19F
:108E2000000F08D0B8F1000F05D04246514609EBBB
:108E30000500FFF79FFF47B121682E4405EB0800AE
:108E40003A4631444844FFF795FF2046FFF776FF46
:108E5000019BC4F80090A36002B0BDE8F087F7B5AD
:108E60000268466800F108039A4218BF836806F159
:108E7000010508BF0F239D4204460F4606D9012372
:108E8000009300231A463146FFF7AAFF23689F5537
:108E90002368656000225A5503B0F0BD012A30B442
:108EA00004D191F90030037030BC7047002AFBD028
:108EB00030BC0CF027BFFFFF2DE9F74F8146144669
:108EC00040680C9E02F10042013A121A96429846FE
:108ED00002D937480BF05EFF4A46A6EB040B52F866
:108EE000083B934218BFD9F808200BEB000A08BFD3
:108EF0000F22524552D35F189845A0EB0101A1EB18
:108F0000040522D3034498451FD876BB95B1B442DB
:108F100010D02A463919B819FFF7C0FFB44209D258
:108F20003C4408EB06039C4227D332464146384670
:108F3000FFF7B4FFD9F80030C9F804A00022484672
:108F400003F80A2003B0BDE8F08F35B1B44204D075
:108F50002A463919B819FFF7A1FF002EEAD0324688
:108F600041463846FFF706FFE4E7B4421DD33246D8
:108F700041463846FFF792FFC8E7444503D83246DA
:108F800008EB0B01EDE7A4EB080422464146384606
:108F9000FFF784FF321BB9193819E3E700964346FF
:108FA00022464846FFF71CFFC4E7002DB8D0B0E7C3
:108FB0005B9C010037B5044608460D460DF0A7FC42
:108FC0002B460090626800212046FFF775FF03B032
:108FD00030BDFFFF2DE9F04F8FB00AAB029106467E
:108FE000089398490298002309938DF828309246F7
:108FF000FFF7ACFE031C0490D6F8900018BF0123C5
:10900000069328B196F8943013B18F4908F04BFCC1
:1090100009F002FD4FF000080123DFF854B205907B
:109020004746CDF80480CDF80C8099464446079316
:1090300009F0F2FC059BB268C01A904200F21A8156
:10904000079B5BB17068026812699047079B002814
:10905000EDD0706803685B69984745B2D6F8900018
:1090600038B196F8943023B10A2D24D1774908F00D
:109070001AFCD6F8900060B196F89430022B08D90B
:10908000734908F010FC0A222146D6F8900008F037
:109090006FFC631E072B29D8DFE813F03A005C0051
:1090A0007E008A008D00B7002B01A200092C00F081
:1090B000E3800123BBE70D2D01D16649D7E7202DC1
:1090C00001D16549D3E71F2D0CDC644908F0EBFBA7
:1090D00029460A22D6F8900008F063FC6049D6F8C9
:1090E0009000C4E7294608F0E2FBC2E72B2D05D12A
:1090F000294608A8FFF7B3FE0124DAE71BF9073079
:10910000AB4240F09C80DDF8188001370824D0E79E
:109110003A2D294608A801D03D2D3AD1FFF79FFEF0
:10912000049B8BB1029B099A5B689A4206D15AB1A3
:10913000029B089819680CF0CBFD28B1494908A892
:10914000FFF738FF4FF0010846495046FFF732FF5E
:109150000224AEE77C2D0ED1DAF800000CF0FBFC07
:109160000023CAF80430DAF8003003904FF0000210
:109170001A7003249DE70D2D00F0B2800A2D00F037
:10918000B18096F88C3013B1202D00F0AD802946C7
:109190005046FFF764FE8CE729465046FFF75FFE16
:1091A000019B039A01330193934208BF052480E792
:1091B0000A2D08BF05242C495046FFF7C7FD60B1B2
:1091C0002A495046FFF7C2FD002804BF4FF00109AD
:1091D00009244F2D2AD1012798E781460924F8E771
:1091E0001BF907207B1C58460793AA4218BF072487
:1091F0000DF08DFB079B984270D107464FF0000998
:10920000B8F1000F19D1092436E01BF907207B1CA7
:1092100058460793AA4218BF07240DF078FB079B16
:1092200098425BD107464FF00109E9E7B8F1000F1A
:109230003FF43CAF092C7FF43CAF4FF00008002412
:1092400037E700BF159C0100229C0100289C01000B
:10925000439C01002D9C0100329C0100379C0100C1
:109260002B9C0100B48D010093940100959B01009B
:10927000399C01004FF00309D6F89000B8B196F878
:109280009430022B13D91E4908F00DFB0A22214607
:10929000D6F8900008F06AFB1A49D6F8900008F05A
:1092A00002FB0A224946D6F8900008F061FBD6F886
:1092B0009000012386F88C3048B196F8943033B191
:1092C000114908F0F0FAD6F8900008F0F5FA08A86D
:1092D000FFF734FD48460FB0BDE8F08F1F46E8E6C3
:1092E0000424E6E60524E4E6B8F1000F7FF4E1AEDD
:1092F0009DE6002398464FF002091C4697E600BF02
:109300003E9C01004B9C0100519C010030B504467D
:10931000406803688DB05B68984706AA1D49684697
:10932000FFF736FD08AB069306AA002369462046E0
:1093300007938DF82030FFF74DFE0546D4F89000D6
:1093400088B194F89430012B0DD9134908F0ABFA89
:109350000699D4F8900008F0BFFA7DB90F49D4F807
:10936000900008F0B9FA06A8FFF7E8FC6846FFF796
:10937000E5FCB5FA85F040090DB030BD012DD4F8FB
:10938000900001D10649ECE7032D0CBF05490649C1
:10939000E7E700BF159C0100629B01007C9B010078
:1093A0008A9B01009B9B0100AE9B010008B42DE944
:1093B000F3431646044609AB306853F8042B019377
:1093C000884604F10C050021716001708021284657
:1093D0000DF040FCD4F89000B0B108F06DFA2449CB
:1093E000D4F8900008F05FFAD4F890703B682846F3
:1093F000D3F804900DF08BFA294602463846C84748
:10940000D4F8900008F058FA284667680DF07FFA03
:1094100029460246384607F03BFC32464146204684
:10942000FFF7D8FD0546D4F8900068B1114908F05F
:109430003AFA3168D4F8900008F04EFA65B90E494E
:10944000D4F8900008F048FAB5FA85F0400902B067
:10945000BDE8F04301B07047012DD4F8900001D170
:109460000649EFE7032D0CBF05490649EAE700BFAF
:10947000FF9B0100099C01007C9B01008A9B01006D
:109480009B9B0100AE9B01002DE9F0430446406820
:1094900091B01646002834D02378002B31D10368D0
:1094A000194DDB69DFF86C90DFF86C80174F984737
:1094B0000AAA174904A8FFF76BFC60680368DB6819
:1094C00098474FF4FA72AA602378A3B9002E12DDF0
:1094D00003AA49460AA8FFF75BFC3B4604AA0AA96F
:1094E000CDF800800848FFF761FF20700AA8FFF759
:1094F00025FC013EE8E742F2107304A8AB60FFF7D9
:109500001DFC11B0BDE8F083E4130020CFAE0100D4
:10951000B48D0100DC9B0100EC9B0100074B084867
:1095200058600022012142F210701A705970986040
:1095300083F88C1083F89420704700BFE413002058
:10954000042200200148FFF7B7BB00BFE41300204E
:1095500008B50368002B02DA09480BF01BFC8B42AC
:1095600008D949008B4205D20029B6BF6FF00043ED
:10957000016003600068BDE8084001300BF0D8BB13
:10958000749C010073B542F21073036000F5F87328
:109590000025C0F8E831012600F50273044680F882
:1095A000E451C0F8EC5180F8F051C0F80032C0F836
:1095B000045280F8085204230096A822C02100F526
:1095C000067007F0F7FF33460096A822C02104F585
:1095D0000C7007F0EFFFFF2300951A46194604F5BB
:1095E000127007F0E7FF204602B070BD73B5054664
:1095F0000E4619B912B10D480BF0C6FB941B0F2C87
:10960000019406D9002101A8FFF7A2FF019B286061
:10961000AB60224631462868FFF7ACFB019B2A6805
:109620006B600021D15402B070BD00BF8C9C010062
:109630002DE9F04F91F902303A2B89B04FD191F9D1
:1096400005303A2B4BD191F908303A2B47D191F99B
:109650000B303A2B43D191F90E303A2B3FD10C46C7
:10966000451E01F112070DF110094FF0000AA21C6E
:10967000214602A8CDF80890FFF7B8FF029E0CF033
:1096800073FAD0F800B00CF06FFA1022C0F800A006
:1096900001A930460DF08EFA019B9E42804602D110
:1096A00010480BF074FB0CF05FFA0368222B02D118
:1096B0000C480BF072FB0CF057FA03681BB90CF066
:1096C00053FAC0F800B005F8018F02A80334FFF781
:1096D00035FBA742CBD1012009B0BDE8F08F0020B7
:1096E000FAE700BFB69C010038B500F10803044654
:1096F00003600D4649B108460DF009F92A182046C5
:109700002946FFF773FF204638BD4FF0FF32F6E7DA
:1097100030B58FB00C4602A82249FFF7E5FF0322BF
:109720004FF4E1312048FFF7AFFE204908A8FFF7CA
:10973000DBFF1F4B009302AA1E4B1B4808A9FFF733
:1097400035FE054608A8FFF7F9FACDB102980CF0EE
:1097500002FA01281AD1184908A8FFF7C5FF174BCC
:10976000009302AA134B104808A9FFF71FFE0546F5
:1097700008A8FFF7E3FA1DB102992046FFF758FF4A
:1097800002A8FFF7DBFA20460FB030BD02980CF0BC
:10979000E2F90228F4D10A4908A8FFF7A5FF094B0E
:1097A000DEE700BFB48D0100E41300202E9D010010
:1097B000399D0100CFAE0100FC9C0100059D010018
:1097C000129D01001E9D010010B503228CB04FF4C4
:1097D000E1311148FFF758FE10496846FFF784FF52
:1097E0000F4906A8FFF780FF0E4B0B486A4606A9F3
:1097F000FFF7DCFD044606A8FFF7A0FA34B101200C
:1098000009F0C6F800980CF0A6F9C4B26846FFF754
:1098100095FA20460CB010BDE4130020B48D010071
:10982000969D0100A29D0100F0B591B004460E4640
:1098300004A82849284D1746FFF756FF03224FF486
:10984000E1312648FFF720FE25490AA8FFF74CFF23
:1098500001230193234B00930AA9234B1F4804AA19
:10986000FFF7A4FD0AA8FFF769FA20490AA8F7B98B
:10987000FFF73AFFCDE900561D4B184804AA0AA984
:10988000FFF794FD05460AA8FFF758FADDB109F085
:10989000C3F8054609F0C0F82368401B984212D26D
:1098A0002046FFF791FF0328F4D104460CE0FFF7B0
:1098B0001BFFCDE9016700950E4B084804AA0AA9D1
:1098C000FFF774FDDEE7042404A8FFF737FA20460B
:1098D00011B0F0BDB48D01007F9D0100E4130020A4
:1098E0002E9D0100679D0100609D0100749D010097
:1098F000E69C01008C9D010070B503228EB00546E8
:109900004FF4E1312848FFF7BFFD0024274902A8A2
:10991000FFF7EAFE2346224621460094284607F038
:1099200049FE234908A8FFF7DFFE224B009302AA55
:10993000214B1D4808A9FFF739FD064608A8FFF787
:10994000FDF9D6B102980CF006F901281BD11B498C
:1099500008A8FFF7C9FE1A4B00930194194B12484F
:1099600002AA08A9FFF722FD044608A8FFF7E6F9B6
:109970001CB10299284607F03FFF02A8FFF7DEF965
:1099800028460EB070BD02980CF0E5F80228F4D11C
:109990000D4908A8FFF7A8FE0C4B034802AA08A926
:1099A000FFF704FDE0E700BFE4130020B48D0100E1
:1099B0002E9D0100399D0100CFAE01001D9E0100CA
:1099C000259E0100609D0100049E01000F9E010084
:1099D00010B5104C10498CB06846FFF785FE032285
:1099E00020464FF4E131FFF74FFD0C4906A8FFF781
:1099F0007BFE0B4B6A4606A92046FFF7D7FC0446C0
:109A000006A8FFF79BF96846FFF798F920460CB0C7
:109A100010BD00BFE4130020B48D0100BC9C010008
:109A2000C99C01000148FFF7ADBD00BF7C140020B8
:109A300010B5054C04F50070FFF780F904F5F470DB
:109A4000FFF77CF910BD00BF7C1400200020704798
:109A50000069013018BF0120704708B503685B6BCF
:109A6000984780F00100C0B208BD13B502AB026890
:109A700003F8011D546819460122A04702B010BD29
:109A800007B5036801225B6A0DF1070198470128B9
:109A90000CBF9DF807004FF0FF3003B05DF804FBEA
:109AA00000690B69C31A584258417047704700203B
:109AB000704740F20C41C0680BF064B910B510213A
:109AC00004460BF05FF9204610BD08B5FFF7F6FF1E
:109AD00008BD7FB503680446164601A81D6A07F055
