:10400000007F0020B1C8000059C70000ADC8000003
:10401000ADC80000ADC80000ADC80000ADC80000CC
:10402000000000000000000000000000ADC800001B
:10403000ADC8000000000000ADC80000ADC8000021
:104040000000000000000000000000000000000070
:104050000000000000000000000000000000000060
:104060000000000000000000000000000000000050
:104070000000000000000000000000000000000040
:104080000000000000000000000000000000000030
:104090000000000000000000000000000000000020
:1040A0000000000000000000000000000000000010
:1040B0000000000000000000000000000000000000
:1040C00010B5054C237833B9044B13B10448AFF352
:1040D00000800123237010BD880200200000000032
:1040E000C87C010008B5034B1BB103490348AFF37B
:1040F000008008BD000000008C020020C87C010088
:104100004308400003F0553300F0AA3018438308F9
:10411000800000F0CC3003F03333034318091B0157
:1041200003F0F03300F00F30184300BA7047084630
:1041300011460FF0D5BB08460EF00ABE08460EF039
:10414000FFBD4FF6FF7399421FBF0368CA0903EB17
:10415000C20301F07F011ABF586800EBC1000020C4
:10416000704710B50446B4F5803F08460BD20921CC
:10417000611808D203681B68984700B910BD012375
:10418000C4808380FAE70020F8E7B1F5803F70B57E
:1041900006460D46144609D2136801F109029B68D0
:1041A00001462046984708B1C58070BD2368204667
:1041B0005B68314698470020F7E70A680B4652686B
:1041C00001461846104738B50B79042B044605D034
:1041D000052B0CD00023C0E9003306E00D6828460B
:1041E0000DB10FF037FCC4E90050012305E00B6866
:1041F000DA880833C0E9003200232372204638BD34
:1042000038B5C588044601F12C002946FFF799FF0F
:10421000A580206008B1C388E38038BD38B5436A03
:10422000034400251D710446011D00680AF017FFB4
:1042300000B16562606A38BD38B5436A01331F2B2F
:1042400004460D4606D8636A5A1C62621C4401206B
:10425000257138BDFFF7E2FF0028F4D00020F8E711
:1042600038B5002383604368044643B905681F20BE
:104270002968FFF776FF08B901232B71606038BD0C
:1042800070B5044640680D4668B1A168C38899427C
:1042900009D12668490032680131FFF776FF08B975
:1042A000012333716060636823B1A2681344511C19
:1042B000A1601D7270BD0379DA072DE9F04705464C
:1042C0000C4610D500688B68002263B1984231D14A
:1042D00083882168013B9BB2838023B903683AB38A
:1042E0001360FFF76AFF2E79F30608D52F8804F1D3
:1042F0002C003946FFF725FFA38E0380A78616F012
:10430000600F1CD02E884FF6FF7A04F12C09564519
:1043100013D031464846FFF714FF21460746B0F850
:104320000680FFF7C8FFA38E3B80A6864646EEE7D1
:10433000A360D6E71A461B68C7E72E806E8000236D
:104340002B71BDE8F087FFFF30B585B00446002132
:104350000DF10F0008F0E2FC431C21D004F124050C
:10436000104BDFED110A9FED110A9DF80F2001940B
:1043700000930021C3B2284608F076FD00220C21EC
:104380000446284608F062FE0440284608F0C8FDAE
:10439000E4B20440284608F0EAFD204005B030BDF4
:1043A0000020FBE7114400000000484200401C468A
:1043B00030B5016802690D0185B004465059FFF718
:1043C0009FFE2A4401905068FFF79AFE0290906881
:1043D000FFF796FE0390D3686269A3610131B1FBD8
:1043E000F2F302FB1311216049B994F8203003B9AC
:1043F000A361236E03B19847012384F85C300C223B
:1044000001A902480EF023FD05B030BDA80200202E
:104410002C49F8B50D680A682B4C0B68D210A25CC9
:104420005C4204F0070403F0070358BF6342274CC3
:1044300042FA03F3226822F4384222F01802226082
:10444000226C22F4415222F03002DB07226404F194
:1044500040041CD51E4B1F4F13F8152003EB4503DA
:104460001C325B7837F832201C331612360156FAAC
:1044700082F237F8333004F5F864052644F82260F8
:104480001A12120152FA83F3042244F823200B6813
:104490006024013393FBF4F204FB12330B6080B110
:1044A000046874B1A36963B10BF0B4FBE369C01A8B
:1044B000A369984205D92046FFF77AFF0BF0AAFBC3
:1044C000E061F8BDA4020020A80200200000044022
:1044D00020640100346E010030B585B00B68009394
:1044E0004B6801938B680293002501230560C0F897
:1044F00010D0436104460395FFF75AFFA56105B04C
:1045000030BDFFFF00F10C01074AC1624FF480216A
:104510000260016300224FF6FF71027182608186A2
:1045200080F83C20C18770471800002008B5024978
:104530000248FFF7D1FF08BD10640100D802002037
:1045400008B502490248FFF7C7FF08BDF063010044
:10455000D802002008B502490248FFF7BDFF08BD98
:1045600000640100D80200207FB50B4E0324002513
:10457000FFF7F0FFC8200BF009FB01A93046CDE999
:1045800001550395FFF7A8FFC8200BF0FFFA013C87
:10459000EED104B070BD00BFD802002010B50324D6
:1045A000FFF7C4FF4FF4FA700BF0F0FAFFF7D2FFF9
:1045B0004FF4FA700BF0EAFA013CF1D110BDFFFFA5
:1045C000F0B587B087682549254E054668460AF04C
:1045D00068FC0024BC4205DA314668460AF03FFD1B
:1045E0000134F7E71F4903A80AF05BFC694603A8FA
:1045F0000AF045FD1B490AF04EFD01461A480AF033
:1046000053FB03A80AF002FC184903A80AF049FC6E
:10461000294603A80AF033FD14490AF03CFD01467F
:1046200011480AF041FB03A80AF0F0FB0D4903A86A
:104630000AF037FC694603A80AF021FD09490AF08F
:104640002AFD014608480AF02FFB03A80AF0DEFB0A
:1046500068460AF0DBFB07B0F0BD00BFFE64010056
:10466000526001007E5D0100A00D0020815D01000F
:104670002DE9F04190B0484907A80AF012FC4749DB
:1046800004A80AF00EFC04A907A80AF0F8FC0146E9
:104690000AA80AF07DFC0AA8FFF792FF0AA80AF010
:1046A000B5FB04A80AF0B2FB07A80AF0AFFBFFF7BE
:1046B00051FF3B4803F0ECF9032806D1384803F0DA
:1046C000EBFA4FF47A700BF061FA364A334934480A
:1046D000334C354FDFF8DC8003F00AFA0BF09AFA1E
:1046E00006460725204603F0D3F903281DD00BF01A
:1046F00091FA44F61F63801B984216D8394640460B
:104700000AF0C3FA4FF47A700BF040FA013DE9D198
:10471000204603F0C1FA4FF4FA700BF037FA214A41
:104720001E49204603F0E4F9DBE71D4803F0B0F929
:10473000032824D11D4904A80AF0B3FB18490AA88C
:1047400003F03EFA0AA901A80AF08EF901A904A80B
:104750000AF095FC014607A80AF01AFC07A8FFF723
:104760002FFF07A80AF052FB01A80AF04FFB04A88C
:104770000AF04CFBFFF7DAFE10B0BDE8F0810C49FF
:104780000AA80AF08EFB0AA8FFF71AFF0AA80AF087
:104790003DFBFFF7D5FEEFE72F5D0100445D010013
:1047A000EC090020485D0100005F0100525D01003E
:1047B000675D0100A00D00202DE9F04700250446AB
:1047C0000E46A946A28C276AABB29A420FD907EBD4
:1047D000C3089A46D8F8041019B1336830465B68AC
:1047E000984747F83A900135C8F80490EAE7002363
:1047F000A384BC424FF6FF73238507D03368394644
:104800005B683046984704232462E384BDE8F08760
:1048100038B505680446A06828B10368A360294636
:10482000FFF7CBFCF7E704F10C002168FFF7C4FFAA
:10483000204638BDC0E900120822826001220273BE
:1048400070478B8C30B5013B0D6A9AB205EBC20400
:10485000616849B1638835F832509D4204D95D1CC6
:1048600011EBC301658005D1002303604FF6FF7390
:10487000838030BD016003EBC213F9E72DE9F347F4
:104880000E8D4FF6FF739E4205460C4617460CD020
:10489000314604F12000FFF754FC0388238528608B
:1048A000AE80284602B0BDE8F0878B8C53B16E46CF
:1048B0003046FFF7C6FF009B23B196E8030085E86A
:1048C0000300EEE7A28CE38C934217D1B3F5007F8F
:1048D0003FD05B009EB2236A3968A3424FEAC6020A
:1048E0002FD10B68384611469847804688B320225E
:1048F00021460EF0ACFAC4F82080E684B4F8248097
:10490000D4F820A008F101039BB2B3F5007FA38483
:104910003B680CBF7F268026F1001B68384698470D
:104920000AEBC809002808BF00260023C9F80400C4
:1049300021462AF838602846A9F80230FFF781FF9F
:10494000AFE7D1F8088038461946C04780460028AE
:10495000D1D100232B604FF6FF73AB80A1E737B5B1
:104960000A6804460D4668460C31FFF787FF009B36
:104970004FF6FF7233B90121297120462360A280CE
:1049800003B030BD0021DA801971BDF80420F4E7CE
:1049900037B50A6804460D4668460C31FFF76EFFCE
:1049A000009B43B9012223604FF6FF732A71A38055
:1049B000204603B030BDBDF804202360A280F7E795
:1049C00007B50368082203EBC10168460EF03FFA01
:1049D0009DED000B03B05DF804FBFFFFFFFFFFFF41
:1049E0002DE9F74F91F900302B2B044632D02D2BB7
:1049F00031D10131012591F90020A2F13003DBB260
:104A0000092B01D92E2A28D1DFF868B28846002068
:104A100000214FF0993A4FF00A0EC4461CF9013BB1
:104A2000A3F13002D2B2092A1DD88B4508BF8245B6
:104A300020D30EFB01F3A0FB0E0119440023D2B2D8
:104A4000DF43D6438F4208BF864213D380185941B3
:104A5000E046E2E701310025CDE700232370204640
:104A600003B0BDE8F08F2BB9E5B1B1F1004F08BF3D
:104A700001280FD3764F00234FF0FF368F4208BF37
:104A8000864203F1010910D200230A220DF0ACFF87
:104A90004B46F3E702234042237061EB4101C4E936
:104AA0000201DCE703232370F9E7A3EB080707EB18
:104AB0000806434618F901CB32B2ACF13006F6B223
:104AC000092EF4D9BCF12E0F22D1C6460FF2781967
:104AD000D9E900894FF00A0A73460EF1010E93F8E6
:104AE00000C0ACF1300C5FFA8CFCBCF1090F0FD8A0
:104AF000894508BF8045EFD3A0FB0A6716EB0C0081
:104B00000AFB017702F1FF3647F1000132B2E3E719
:104B100093F9006026F02006452E66D193F90160D6
:104B20002D2E25D19F1C4FF0010C00264FF00A08B6
:104B30003B4617F901EBAEF1300E5FFA8EF9B9F191
:104B4000090F26D808FB06E6B318B3F59A7FEFDD08
:104B5000BCF1000F13D0DFED3F7A9FED3F7A002DBF
:104B600018BFF0EE477A01232370C4ED027A76E78E
:104B70002B2E14BF5F1C9F1C4FF0000CD5E70022AA
:104B80002DB1364B04212170C4E9022367E7344B71
:104B9000F8E7BCF1000F00D0764293F90030002B0B
:104BA0007FF45BAF164406F126034C2B24D8002972
:104BB00008BFB0F5000F1FD207EE900A002EF8EEE6
:104BC000E77AD6BF27492849764200237EB1F2070B
:104BD00042BFDAB201EB820292ED007A4FEA66063A
:104BE00048BF67EE877A0133F0E70026D5E7002D4E
:104BF000B9D0F1EE677AB6E70DF050FB002ECABFD0
:104C00001A4B1B4B019380468946DCBF01937642C9
:104C1000002786B1F3070BD5F9B201A8FFF7D0FE44
:104C20004046494653EC102B0DF06EFB80468946FA
:104C300076100137EDE715B109F1004399460423D9
:104C40002370C4E902890AE7989999999999010012
:104C5000FFFF0F0000000000000000800000F0FFD8
:104C60000000F07F585C0100705C0100D05C010026
:104C7000885C01009999991970B5006878B1C48869
:104C80004B689C42F9D10D6800239C4207D9C21899
:104C9000EE5692F908209642EFD10133F5E770BD48
:104CA000D0E90132F0B5134400221A72D0E900565F
:104CB00085B087688DF80C20044606F1080301A929
:104CC00005F10800CDE90137FFF7D6FF78B92A686A
:104CD00039463046FFF759FA08B901232B7123688A
:104CE0009A68026098600023636005B0F0BD838815
:104CF00001338380F9E72DE9F0418AB001AC84E803
:104D00000E00109D0F4671B907914FF6FF73ADF875
:104D10002030079820B107A82946FFF771FA0798B5
:104D20000AB0BDE8F0810488DDF80880214605F16D
:104D30002C00FFF706FAADF818400590C0B1C38803
:104D4000ADF81A30012607AC0599D9B19EB12046BD
:104D5000FFF739FA089A42450DD1079900239A4284
:104D600012D017F903C0C856844504D10133F6E7C1
:104D70004FF6FF73E4E7294605A886F00106FFF722
:104D80003FFAE1E70791C0E705AB93E8030084E849
:104D90000300BEE72DE9F04188B001AC054684E888
:104DA0000E00084679B194E807002F4605AE57F883
:104DB000088B86E80B0031463846FFF75DFF28B1C7
:104DC00083880133838008B0BDE8F081069C4146AA
:104DD0002046FFF7C6F910B901232B71F3E7059EB2
:104DE00000F1080200239C4203D0F156D154013354
:104DF000F9E7044400232372AB680360A860E2E78C
:104E0000437E6BB9D0E9043293423DBF5A1C026124
:104E10001B784FF0FF3323EAE373037601234376D5
:104E200090F91800704738B5044600252046FFF772
:104E3000E7FF0A2806DC092808DA48B101232373B2
:104E400000200AE00D2801D02028F7D16576EDE793
:104E5000237B002B14BF0220012038BD70B505460E
:104E60004C1E002614F9010F50B12846FFF7C8FF69
:104E700028B194F90030834203D16E76F2E7022024
:104E800070BD0320FCE72DE9F04387B006460D46D0
:104E9000FFF7B6FF002427462F28E3B20BDD3928A1
:104EA0000BDC0134402C24D033197776D877304688
:104EB000FFF7A6FFF0E72B28F3D0A0F12D02D2B226
:104EC000012AEED920F0200252B2452AE9D033441B
:104ED000002283F8202006F1200102A8FFF780FDC0
:104EE0009DF80830013B032B62D8DFE803F039243A
:104EF000043E3F23EBE7DDE90489B9F1010F08BF68
:104F0000B8F1000F07D20A232B71C5F800800020EA
:104F100007B0BDE8F083F1696846FFF739FD009BF3
:104F20000BB90420F4E71A222A71BDF804202A8064
:104F3000C3E90089EBE7DDE9048918F1004249F192
:104F40000003012B08BF002A01D20C23DCE7F16922
:104F50006846FFF71DFD009B002BE2D01C22E3E713
:104F60000E232B71049B2B60D1E7DDE904894946B0
:104F700040460DF099FC07460DF06EF902460B46CF
:104F8000404649460DF028FC18B10E232B712F60C6
:104F9000BDE7F1696846FFF7FBFC009B002BC0D022
:104FA0001E222A71BDF804202A80C3E90089AEE7D9
:104FB0000320ADE770B550F8046B07C88CB003ABA5
:104FC00016F1380583E8070002D100200CB070BD4F
:104FD00093E8070096F83C30202B06AC09AB18BFCD
:104FE000002584E8070083E80700002DEDD0009637
:104FF0000ECB2846FFF77FFEE8E770B50646FFF7C1
:10500000D9FF054688B10479018814F0100003D057
:1050100030682C30FFF795F80C2C29D006D8062CD8
:1050200024D00A2C24D07CB3012070BD1A2C24D0AB
:105030000BD80E2CF8D1D5ED007AF5EE407AF1EED2
:1050400010FA14BF01200020EFE71C2C15D01E2CF5
:10505000EAD100220023D0E900014FF001040DF055
:10506000BBFB08B14FF00004E0B2DEE72878DCE7D4
:105070002868003018BF0120D7E7D0E90023134388
:1050800014BF01200020D0E72046CEE7F8B5054642
:1050900016460C468F18BC4205D014F8011B284652
:1050A000FFF7CAF8F7E7AB6A3344AB62F8BD38B52F
:1050B000054608460C460EF0CDFC21460246284621
:1050C000FFF7E4FF38BD2DE9F04186B00DF116047D
:1050D000054616461F46A046304639460A2200239A
:1050E0000DF082FC303204F8012D002330463946A1
:1050F0000A220DF079FC06460F4656EA0703EBD16B
:10510000A8EB040221462846FFF7C0FF06B0BDE821
:10511000F08138B504460D46FFF772FEA8424FF005
:10512000000004BF6076012038BD2DE9F04104681D
:1051300014F1380692B003D1002012B0BDE8F0811E
:10514000021D07CA06AB83E8070080460028F3D09B
:1051500094F83C201ABB202284F83C204FF6FF72C2
:1051600022876287CDF8188093E8070009AD85E8AB
:105170000700009495E80E003046FFF7BCFD0028BC
:10518000DBD195E807000CAF87E80700214602A8AD
:10519000FFF7E5FB029E2EB900252846CDE7202A21
:1051A000E0D0C9E7214604A8FFF7D9FB049D002DF4
:1051B000F2D097E807000FAB83E807009DF838208E
:1051C000AAB104233371C6F80080BDF81470F780CB
:1051D000618FBDF80C804FF6FF73994211D004F136
:1051E0002C00FEF7AEFFA0F806806787D5E70ECB50
:1051F0002046FFF7CFFD0028CED005233371306065
:10520000E3E7A4F83880F0E710B52DED028B0446F3
:10521000B0EE408AFFF789FF2168044630B1FFF7FE
:105220004AF80E23237184ED008A0120BDEC028B25
:1052300010BD70B504460E46FFF777FF216805469E
:1052400020B1FFF738F804232B712E60206810B1CD
:10525000007980F0010070BDF0B50D4687B00446BE
:10526000FFF763FFAB682F682668CDE90073002362
:105270008DF80830054680B13146FFF71CF86A46C4
:1052800007CA03AB83E807003FB10ECB3046FFF7F8
:1052900081FD10B105232B712860206810B10079C1
:1052A00080F0010007B0F0BD70B504460E46FFF770
:1052B0003CFF2168054620B1FEF7FDFF04232B715A
:1052C0002E60206810B1007980F0010070BD7F2849
:1052D00037B50C4605D841B22046FEF7D1FF03B0E2
:1052E00030BD00238DF8003000F03F03800982B20A
:1052F00063F07F031F2A8DF80130C3B20DD863F02D
:105300003F038DF802300DF1030515F9011D002949
:10531000E5D02046FEF7B4FFF7E7C0F3891003F0AD
:105320003F0363F07F030F288DF80230C3B205DC22
:1053300063F01F038DF8033001ADE6E703F03F0390
:10534000801163F07F0360F00F008DF803308DF85B
:1053500004000DF10505D8E72DE9F0478046FFF779
:105360004FFD0024384E88F8194007462546404630
:10537000FFF746FD8742014688F819505CD010B906
:105380000220BDE8F0875C2852D14046FFF738FD87
:105390000028F5D075283CD188F819504FF0040941
:1053A0004FF0000A4046FFF72BFD0028E8D04028C8
:1053B000CBBF20F020023038373AC3B2C8BFD3B2D7
:1053C0000F2B01D90320DCE709F1FF3943EA0A1367
:1053D00019F0FF091FFA83FA88F81950E2D10AF58B
:1053E00020539BB2B3F5806F02D2CAF30904BEE723
:1053F0000AF510539BB2B3F5806F3DBFCAF3090A9B
:105400004AEA842A0AF5803050464146FFF75FFF9A
:10541000ADE700239A579919002AD3D0904203F19F
:105420000203F7D191F901100029CBD088F8195067
:105430004046FEF725FF9AE7D8F80430002B0CBF52
:10544000042000209DE700BFEC64010010B5044675
:10545000FEF7F2FEA36A1844A06210BD2DE9F041E8
:105460000D46222116460446FFF7F0FFDFF8508074
:105470002E44B54215D015F9011B104B13F9027CCF
:10548000AFB1023313F9032C8A42F7D15C212046D5
:10549000FFF7DCFFF9B20DE041462046FFF707FEBB
:1054A000E7E722212046FFF7D1FFBDE8F081002980
:1054B000F2D0C9B22046FFF7C9FFDAE7F264010073
:1054C000E564010070B5002A1D4675F1000306462B
:1054D000144605DA2D21FFF7B9FF644265EB450557
:1054E00022462B463046FFF7EEFD70BDFFFFFFFF63
:1054F0002DE9F04F5BEC10AB8BB007460D4610EE7C
:10550000102A5B4610EE100A59460DF065F930B9C5
:10551000AF493846FFF7CBFD0BB0BDE8F08F002256
:105520000023504659460DF057F968B952465B467C
:10553000504659460CF032FD02460B46504659463D
:105540000DF04AF90028E3D10022002350465946C5
:105550000DF04CF930B12D213846FFF777FF0BF1F4
:1055600000439B46012301932C460A2324B1019A50
:105570005A43013C0192F9E791A3D3E90023504635
:1055800059460DF047F900286AD0DFF850924FF0E5
:1055900008084FF48076414604A8CDF81090FFF734
:1055A0000FFA52465B4651EC100B0DF029F978B119
:1055B000884B0493414604A8FFF702FA5046594627
:1055C00053EC102B0CF0A0FE344482468B4624B2E0
:1055D00018F1FF384FEA6606DDD2CDF80C800022C4
:1055E0000023504659460DF01FF900283DD076A300
:1055F000D3E90023504659460DF002F9A8B3002321
:105600000293DDE90223A3EB020919F0800F2CD1EC
:105610000DF128086F4B48F8183D49464046FFF702
:10562000CFF900226C4B51EC100B0CF06DFE524682
:105630005B460DF0F9F878B1684B04934946404653
:10564000FFF7BEF95046594653EC102B0CF05CFEA8
:10565000A41B82468B4624B2029B76100133CFE70F
:1056600008234FF480760393B9E7504659460DF06E
:10567000FBF80A2206460346092B08D9B3FBF2F3CE
:10568000013D0199B1FBF2F16DB20191F4E73046B1
:105690000CF0C0FD02460B46504659460CF07CFC0F
:1056A0008046019889460CF0B5FD02460B464046FF
:1056B00049460CF029FE804689460DF0D5F8824611
:1056C0000CF0A8FD02460B46404649460CF064FC2F
:1056D0000B4602460CF062FC0DF0C6F8019B0AEB8B
:1056E0000008434508D8013694B1092E10D9013479
:1056F00024B24FF0000801260A22B8FBF2F302FBA5
:10570000138141B9002D06DD013D98466DB2F4E7E5
:105710004FF00008F0E70DF126010A22B6FBF2F384
:1057200002FB1366303601F8016D1E46002BF5D1E1
:105730000DF12606721A3846FFF7A8FCEDB108AA4B
:105740002B4611464FF00A0C013B5BB2581C09D0A6
:10575000B8FBFCF00CFB108808F1300802F8018D52
:105760008046F1E7EDB2EB434D1B2E2205F8012CEC
:1057700019445A423846FFF789FC002C3FF4CCAE5E
:1057800065213846FFF762FE002CA5B205DA2D210F
:105790003846FFF75BFE6D42ADB231460A22B5FBDB
:1057A000F2F302FB1355303501F8015D9DB2002D77
:1057B000F5D1721A3846FFF769FCADE6AFF3008009
:1057C00000000000D0126341F168E388B5F8E43EC0
:1057D000E0640100885C010000002440D05C01000E
:1057E0002DE9F041057906460C46018815F01000B8
:1057F00003D002F12C00FEF7A4FC0C2D00F09680E3
:1058000015D8052D00F0878006D8032D00F087807D
:10581000042D73D04E4995E0062D00F090800A2D9E
:10582000F8D1326800232046FFF74DFC1DE01C2D07
:1058300000F0828006D80E2D0ED01A2DEAD1D0E9C4
:105840000023F0E7202D34D0402D11D01E2DE1D1C2
:10585000092190ED000B05E030680CF0FDFC41ECF7
:10586000100B06212046FFF743FEA06ABDE8F08139
:105870005B212046FFF7EAFD35884FF6FF76B542FB
:1058800012D0E76A294607F12C00FEF75AFC0546BC
:105890003A462146FFF7A4FFED88B542EFD02C2110
:1058A0002046FFF7D3FDEAE75D212046FFF7CEFD56
:1058B000DBE77B212046FFF7C9FD4FF6FF773588F0
:1058C0000126BD4218D0D4F82C80294608F12C00BE
:1058D000FEF737FC054642462146FFF781FFED887B
:1058E000BD4206D0002E0CBF2C213A212046FFF7E6
:1058F000ADFD86F00106E4E77D21D6E7356845B1C8
:1059000028460EF0A7F8024629462046FFF7A6FDD6
:10591000ABE72A46F8E73168CA880831F5E731680D
:105920002046CA880831FFF7B1FB9EE73268D317DB
:105930002046FFF7C7FD98E7D0E90023F8E7337862
:1059400023B104492046FFF7B2FB8EE70249F9E78D
:10595000E0640100FF640100046501002DE9F043EB
:10596000B7B06B46002783E8030002AD3946104606
:1059700002920B9709F01CFB0FCD0CAC0FC40FCD9E
:105980000FC495E8030084E803000CAE0FCE16ADFB
:10599000DDE900890FC50FCE0FC594E8030085E847
:1059A000030016AE0FCE20AC0FC40FCE0FC495E887
:1059B000030020AE84E803000FCE2AAD0FC50FCE42
:1059C0000FC594E8030085E8030020A83497FEF78C
:1059D00025FC16A8CDF8D490FEF720FCB8F1000FF6
:1059E00012D04A462AA94046FFF7FAFE04462AA8E2
:1059F000FEF714FC0CA8FEF711FC02A8FEF70EFC43
:105A0000204637B0BDE8F08302492AA8FFF74FFBD4
:105A1000349CECE7E06401002F280EDD392803DD1B
:105A20005E2803DD7A2803DC01207047402804DD6E
:105A30005A28CCBF0020012070470020704770B565
:105A40000446FEF70DFC2046FFF7DAF927281ED0A2
:105A500022281CD02046FFF7D3F90546FFF7DCFFCC
:105A600098B10026294620466676FEF709FC2046B6
:105A7000FFF7C6F90546FFF7CFFF0028F2D16368AC
:105A8000002B0CBF0420002000E0032070BD204646
:105A9000FFF762FCFAE72DE9F04F5FFA83F98DB06A
:105AA00004460D46B9F1000F00F08A8000234376CA
:105AB000FFF7B9F9B0B97D212046FFF72AFB80B97D
:105AC00009AF2046FFF7BBFF60B92046FFF7ABF9EF
:105AD000064638B93A212046FFF71BFB28B90320B8
:105AE00000E000200DB0BDE8F08FD4E9013213448E
:105AF0008DF82C601E72D4E901320833CDE90932E9
:105B0000E369009397E80E002846FFF7F4F8804613
:105B1000002851D12046FFF7C3F8D4F81CB08246C4
:105B2000594605A8FEF71BFF059E0EB90420D9E7CC
:105B3000594607A8FEF713FFDDF81C80B8F1000FE7
:105B4000F4D0C6F800A0BDF820A0A6F806A0698889
:105B50004FF6FF72052391423371BDF8183029D0FA
:105B60000BF12C000393FEF7ECFA039BC380A5F81E
:105B700002A009F1FF334FF000024146204600F039
:105B800021F80028AED12046FFF74DF90028A9D111
:105B90007D212046FFF7BDFA0028A2D12C21204606
:105BA000FFF7B7FA00289AD02046FFF73CF9002803
:105BB00087D097E72B80DAE7E169FEF77CFBD8E72F
:105BC00005208FE7F8B506460C461F46FFF72BF970
:105BD0000546C8B93046FFF713F9662844D015DCEE
:105BE000272803D05B2819D0222842D13046FEF75F
:105BF00037FB3046FFF7B0FB054628B93046FFF7C4
:105C00004FF80523237120602846F8BD742822D060
:105C10007B2812D06E282CD1184921E04023237113
:105C20004FF6FF73238063804FF000023B4621460E
:105C3000304600F029F80546E6E7202323714FF6A9
:105C4000FF73238063804FF000023B4621463046BD
:105C5000FFF721FFEFE70623237109490123237092
:105C60003046FFF7FBF8E6E7062323712570054968
:105C7000F6E721463046FFF706F9DCE7E06401006D
:105C8000FF640100046501002DE9F347DDB204461D
:105C90000E46002D46D000234376FFF7C4F8A8B97E
:105CA0005D212046FFF735FA78B94FF6FF7A013DBE
:105CB000D4F81C9068464946FEF751FEDDF8008096
:105CC000B8F1000F05D1042000E0002002B0BDE8CB
:105CD000F0877188BDF80470514521D009F12C007E
:105CE000FEF72FFAC78077802B464FF0000241461F
:105CF0002046FFF767FF0028E8D12046FFF793F81A
:105D00000028E3D15D212046FFF703FA0028DCD10B
:105D10002C212046FFF7FDF90028C9D10320D5E743
:105D20003780E0E70520D1E72DE9F04104460E6811
:105D30008D68016898B000F138070C30FEF73CFD23
:105D40000023D4F8008023713544A06828B103688B
:105D5000A3604146FEF731FAF7E784F83C00CDE94D
:105D6000004002908DF80C008DF819004FF00A03E6
:105D70004FF0000239466846CDE904650794FFF705
:105D800021FF054640B99DF918302BB194F83C30FD
:105D900013F0080F18BF0325019818B1009B19686C
:105DA000FEF70BFA284618B0BDE8F08138B502219D
:105DB0000E4C0F480623162203F074F90D4802F02A
:105DC000FFFB002504F124002560C4E9065584F892
:105DD000205006F0E1FE084884F85C5002F0FEFC1A
:105DE00006490748BDE8384009F05BB8D8020020F2
:105DF000B8020020200900203C030020FE640100BE
:105E0000CC02002008B5054809F000F8044807F066
:105E100001F90448BDE8084002F04CB8CC0200206B
:105E2000FC0200202009002010B590B03022002193
:105E300004A80DF030F8184B0493184B1848196853
:105E40007B2202F027FE302204A9154802F0CEFE84
:105E5000134802F093FE4FF47A7009F097FE104851
:105E600002F004FF044668B90E4901A809F019F8C8
:105E700001A8FEF7A5FB01A808F0C8FF20460021F5
:105E800010B010BD302204A9054802F06AFC0E9B38
:105E900005481BBA1844F2E7E30006EC1C0000209A
:105EA0003C030020185D01008081557C2DE9F04FF6
:105EB000A54FDFF8F08291B006460D460024384623
:105EC00001F0E6FD032824D0A0490DA808F0E9FF61
:105ED0000DA8FEF775FB0DA808F098FFFEF730FB44
:105EE000FEF7C6FB384601F0D3FD032811D09849D0
:105EF0000DA808F0D6FF0DA8FEF762FB0DA808F06C
:105F000085FFFEF71DFB4FF00009484611B0BDE8C4
:105F1000F08FFEF71FFB40F6B83241468D4802F085
:105F200015F800283ED18C490DA808F0BAFF0DA83D
:105F3000FEF746FB01340DA808F068FF032CE0D003
:105F4000002CBCD0854907A808F0ABFF0A222146E7
:105F500004A808F0C5FF04A907A809F090F8804933
:105F600009F099F80A22814602210AA808F0B8FF30
:105F70000AA9484609F083F801460DA809F008F877
:105F80000DA8FEF71DFB0DA808F040FF0AA808F0B9
:105F90003DFF04A808F03AFF07A808F037FFFEF716
:105FA000E3FA8CE76F49DFF8ACB107A808F079FF96
:105FB000294607A809F063F86B4909F06CF86B49AA
:105FC00009F069F86A4909F066F8414681460AA86D
:105FD00008F067FF0AA9484609F051F8634909F03B
:105FE0005AF8644909F057F8634909F054F85F49D1
:105FF00009F051F8614909F04EF80A228146B1686A
:106000000DA808F07FFF0DA9484609F038F8574958
:1060100009F041F85A4909F03EF85A4909F03BF8AD
:10602000594909F038F8314609F029F8014601A824
:1060300008F0AEFF0DA808F0E9FE0AA808F0E6FE99
:1060400007A808F0E3FE01A9424808F019FE09F08C
:10605000E1FD42F20F7A814609F0DCFDA0EB090078
:10606000504500F20481584602F008F8002840F03C
:10607000EA800A2009F08AFDEEE7FEF761FA01A83E
:1060800008F0C4FE3FE7334802F07CF93F49284658
:1060900009F00EF83E498146002800F0858007A8E7
:1060A00008F0FFFE07A904A809F047F800281DDC46
:1060B00038490AA808F0F5FE0AA904A809F03DF835
:1060C000002810DC34490DA808F0EBFE0DA904A847
:1060D00009F033F800280DA8D4BF4FF000094FF0A5
:1060E000010908F093FE0AA808F090FE07A808F03E
:1060F0008DFEB9F1000F00F0908027490DA808F03F
:10610000D0FE0DA904A809F018F882460DA808F0E1
:106110007DFEBAF1000FCCBF204921490DA808F03F
:10612000C0FE0DA8FEF74CFA0DA808F06FFE04A8FB
:1061300008F06CFE01A808F069FEB9F1000F3FF409
:10614000FFAEFEF7F3F9E0E6EC0900207262010011
:106150009662010020090020BE6201005E6201001B
:106160006D620100DA620100E06201003763010044
:10617000EA620100F16201000063010011630100A5
:10618000226301002F630100356301003A630100BF
:106190004F63010056630100626301006663010002
:1061A00080630100AF6201000AA808F07AFE0AA924
:1061B00004A808F0C2FF00282CDC37490DA808F01D
:1061C00070FE0DA904A808F0B8FF00280DA8D4BFE0
:1061D0004FF000094FF0010908F018FE0AA808F076
:1061E00015FEB9F1000F18D02C490AA808F059FE85
:1061F00029460AA808F043FF01460DA808F0C8FE8A
:106200000DA8FEF7DDF90DA808F000FE0AA808F0B9
:10621000FDFD8CE74FF00109E0E721490DA808F0EA
:1062200040FE0DA8FEF7CCF901340DA808F0EEFDF4
:10623000032C05D1FEF784F904A808F0E7FD1EE75A
:106240004FF0000973E71749DFF8609004A808F0E1
:1062500028FE484601F012FF00283FF414AF4846DC
:1062600001F072FD41B204A808F0FEFEF1E70E490C
:106270000DA808F016FE0DA8FEF7A2F90DA808F06B
:10628000C5FD0134094802F07DF8032C3FF4F5AE5A
:1062900001A808F0BBFD53E6566301009F630100AF
:1062A000BA630100FE640100D363010020090020ED
:1062B0002DE9F043C7B036ACA549204608F0F1FD02
:1062C0002046FEF77DF926AD204608F09FFDA14946
:1062D000284608F0E6FDA04922A808F0E2FD22A920
:1062E000284608F0CCFE0146204608F051FE204624
:1062F000FEF766F9204608F089FD22A808F086FD21
:10630000284608F083FDFEF725F9944801F0C0FB0C
:1063100003280ED09249204608F0C3FD2046FEF720
:106320004FF9204608F072FDFEF70AF947B0BDE8C4
:10633000F0838C4922A808F0B4FD8B491FA808F00F
:10634000B0FD1FA922A808F09AFE884908F0A3FE14
:1063500081490646284608F0A4FD2946304608F043
:106360008EFE834908F097FE82490646204608F0D3
:1063700098FD2146304608F082FE014604A808F048
:1063800007FE204608F042FD284608F03FFD1FA802
:1063900008F03CFD22A808F039FD774922A808F052
:1063A00080FD76491FA808F07CFD1FA922A808F0EF
:1063B00066FE734908F06FFE0A22064640F6B831C1
:1063C000284608F08DFD2946304608F058FE014663
:1063D000204608F0DDFD2046FEF7F2F8204608F0E2
:1063E00015FD284608F012FD1FA808F00FFD22A891
:1063F00008F00CFD40F6B8326049624801F0A6FD95
:1064000078B96149204608F04CFD2046FEF7D8F8DF
:10641000204608F0FBFCFEF793F804A808F0F6FC11
:1064200084E75A49DFF85C81204608F03AFD2046AF
:10643000FEF7C6F8204608F0E9FC5549284608F062
:1064400030FD04A9284608F01AFE524908F023FE40
:10645000514908F020FE514908F01DFE4749064603
:10646000204608F01EFD2146304608F008FE4A4945
:1064700008F011FE4A4908F00EFE4A4908F00BFEEA
:10648000494908F008FE014607A808F081FD2046AA
:1064900008F0BCFC284608F0B9FC4449284608F03E
:1064A00000FD04A9284608F0EAFD0146204608F050
:1064B0006FFD2046FEF784F8204608F0A7FC28462A
:1064C00008F0A4FC07A92F4808F0DAFB09F0A2FBAA
:1064D00037490746204608F0E4FC2046FEF770F8EE
:1064E000204608F093FC42F21076404601F0C6FDCB
:1064F000002863D109F08EFBC01BB042F5D92D49AD
:10650000284608F0CEFC0A22114622A808F0E8FC32
:1065100022A9284608F0B3FD274908F0BCFD014632
:10652000204608F035FD2046FEF74AF8204608F0E0
:106530006DFC22A808F06AFC284608F067FC1148A8
:1065400001F020FFFDF7FCFF07A808F05FFC64E7FF
:106550009D5D0100BE5D0100D05D0100EC090020E1
:10656000D75D0100015E01001F5E01002C5E01008D
:106570003D5E0100495E01005D5E0100AF62010009
:1065800066680100200900207B5E01009E5E01001C
:10659000D05E0100E062010037630100EA620100A1
:1065A000226301002F63010035630100D55E010005
:1065B000E35E0100025F0100205F01007749784E31
:1065C000784FDFF81082204608F06BFC2046FDF77C
:1065D000F7FF204608F01AFC73490AA808F061FC8E
:1065E00071490DA808F05DFC0A223146204608F0EA
:1065F000F5FB21460DA808F0D5FC204608F006FC66
:106600000C9B3BBB3946204608F04BFC21460DA8AD
:1066100008F078FD8146204608F0F8FBB9F1000F3C
:1066200018D00DA90AA808F0A4FC4146284608F095
:1066300038FC0AA9284608F022FD0146204608F049
:10664000A7FC2046FDF7BCFF204608F0DFFB2846EC
:1066500008F0DCFB55490DA808F02AFD0028C3D03E
:106660004F4910A808F0A6FB5149284608F019FC2C
:1066700010A9284608F003FD0146204608F088FCD2
:106680002046FDF79DFF204608F0C0FB284608F095
:10669000BDFB434801F076FE29AA464B31924FF4E8
:1066A00080222693329200234FF6FF7210A92846CB
:1066B0008DF89C302893ADF8CC208DF8D430ADF80F
:1066C000D620FFF731FBC6B2002E41D03A4922A8AE
:1066D00008F0E7FB394B1FA853F8261008F0E1FB40
:1066E0001FA922A808F0CBFC0146204608F050FC68
:1066F0002046FDF765FF204608F088FB1FA808F03C
:1067000085FB22A808F082FB2D4922A808F0C9FBCE
:1067100010A922A808F0B3FC0146204608F038FC76
:106720002046FDF74DFF204608F070FB22A808F038
:106730006DFBFDF705FF2846FEF76AF810A808F084
:1067400065FB0DA808F062FB0AA808F05FFBFBE6FA
:106750001C49204608F0A5FB2046FDF731FF2046E6
:1067600008F054FB184B379301260F23204638932B
:1067700036958DF8E460FEF740FC144B187058BB5A
:106780001349204608F08DFB2046FDF719FF2046EF
:1067900008F03CFBFDF7CAFECDE700BF295F010012
:1067A000200900204A5F0100FE640100615F0100D2
:1067B000635F010018000020725F010000000020EC
:1067C000945F0100B45F0100D65F01001C09002046
:1067D000E65F01004F5F0100BF4B379320460D235A
:1067E0008DF8E46036953893FEF7E4FBBB49369F9D
:1067F00006461FA808F055FB002E00F061813146C7
:1068000022A8FDF7E0FC2299002900F059811FA879
:1068100008F0CEFB1FA9B24808F0C4FB1FA808F07F
:10682000F5FAB04B37930C23389320460123369565
:106830008DF8E430FEF7BEFB002800F04A810379B2
:10684000043B012B00F245812046FEF7B3FB0146D5
:1068500018B122A8FDF7B7FC229913A808F021FB74
:10686000A149204608F01DFB2046FDF7A9FE204661
:1068700008F0CCFA9D4922A808F013FB9C491FA8F8
:1068800008F00FFB1FA922A808F0F9FB01462046DB
:1068900008F07EFB2046FDF793FE204608F0B6FA8E
:1068A0001FA808F0B3FA22A808F0B0FA914922A86C
:1068B00008F0F7FA8A4922A808F0E1FB01462046D1
:1068C00008F066FB2046FDF77BFE204608F09EFAA6
:1068D00022A808F09BFA884922A808F0E2FA13A936
:1068E00022A808F0CCFB0146204608F051FB2046C8
:1068F000FDF766FE204608F089FA22A808F086FA1D
:106900007E4B3793012613232046389336958DF816
:10691000E460FEF772FB7A4B1870002800F0C2802A
:106920007849204608F0BDFA2046FDF749FE20468A
:1069300008F06CFA7449204608F0B3FA2046FDF7D7
:106940003FFE204608F062FA7049204608F0A9FA96
:106950002046FDF735FE204608F058FA6C492046DF
:1069600008F09FFA2046FDF72BFE204608F04EFA6D
:106970006849204608F095FA2046FDF721FE20469A
:1069800008F044FA6449204608F08BFA2046FDF7E7
:1069900017FE204608F03AFAFDF700FE2046FDF704
:1069A000B1FD5E4A214622A8FDF744FF5C4922A8BA
:1069B000FEF77AFC5B4B239322A80E238DF894609C
:1069C00022942493FEF7B1FB2299064628B1FDF7E5
:1069D00072FC04233371544B3360544B23930126D0
:1069E0000E234349249322A88DF894602294FEF745
:1069F00020FC4F4B23933A498DF894600D2322A835
:106A000024932294FEF728FC344916A808F049FA8A
:106A100044AACDE9022402AB93E8030016AAFEF7CC
:106A20009DFF444922A808F03CFA22A8FDF7C8FDC2
:106A300022A808F0EBF916A91FA808F0A9FA3E4908
:106A40001CA808F02EFA364919A808F02AFA19A944
:106A50001CA808F014FB014622A808F099FA22A904
:106A60001FA8FFF723FA064622A808F0CFF919A8B5
:106A700008F0CCF91CA808F0C9F91FA808F0C6F95D
:106A8000002E61D02D4922A808F00BFA22A8FDF7AC
:106A900097FD22A808F0BAF916A808F0B7F9204621
:106AA000FDF7B6FE2649204608F0FBF92046FDF723
:106AB00087FD204608F0AAF913A808F0A7F93AE6DE
:106AC0006B46C3E900671FAA93E80300FEF746FF81
:106AD000A0E61C49C1E600BF20600100FE64010081
:106AE000CC0200202E6001003B600100BE5D010071
:106AF000D05D010054600100656001007560010017
:106B0000B402002089600100AD600100E560010071
:106B10000D61010021610100426101006B61010012
:106B20001F5E010074610100836101009261010038
:106B3000A1610100AF610100D9610100E7610100BD
:106B400040620100835D010000499CE7166201007C
:106B500030B54FF416519DB055480CAC07F07CF998
:106B60005448FDF7F1FBFDF7F5FC5349204608F0CA
:106B700098F92046FDF724FD204608F047F94F49D3
:106B800008A808F08EF94E4905A808F08AF905A969
:106B900008A808F074FA0146204608F0F9F92046E2
:106BA000FDF70EFD204608F031F905A808F02EF992
:106BB00008A808F02BF93721424802F079FAFDF7CE
:106BC00057FD41F27D61404801F024FE3F4800F04E
:106BD00067FA00F05DFA02280CBF3D493D492046A6
:106BE00008F05FF92046FDF7EBFC204608F00EF9AF
:106BF0002046FDF787FC384A214608A8FDF71AFE13
:106C00002F4908A8FEF750FB344B099309230A9338
:106C100008A8012308948DF82C30FEF786FA08990D
:106C2000054628B1FDF747FB04232B712C4B2B6045
:106C30002C4B09930F230A932B490894012308A88E
:106C40008DF82C30FEF7F5FA284902A808F029F94A
:106C50001AABCDE900346B4693E8030002AAFEF7B5
:106C60007DFE02A905A808F093F9214908A808F0BB
:106C700018F908A905A8FFF719F908A808F0C6F837
:106C800005A808F0C3F8FFF713FB1A4908A808F095
:106C900008F908A8FDF794FC08A808F0B7F802A8BE
:106CA00008F0B4F82046FDF7B3FD1DB030BD00BFBD
:106CB000A00D0020D8020020BE650100D8650100AB
:106CC0001F5E0100B80200203C030020295E000086
:106CD000E4650100F66501006B61010011660100C9
:106CE000495E01001B660100D05D0100FE640100E9
:106CF0003A6301002B6601002DE9F0432DED028B74
:106D00009DB008F087FF0546A14800F0C1FE0328AA
:106D10000DD0FDF715FC9F490CA808F0C2F80CA88F
:106D2000FDF74EFC0CA808F071F8FDF7A1FC9A4E97
:106D300034684EF65F232A1B9A4228D804F56A4429
:106D40006034641B42F21072B4FBF2F302FB134393
:106D5000632B1CD891490CA808F0A3F80A224FF421
:106D60007A7108A8B4FBF1F108F0DEF808A90CA8C4
:106D700008F085F98A4908F08EF90146894807F03C
:106D800093FF08A808F042F80CA808F03FF8336811
:106D90004EF66022EB1A934240F2BF800CAC82495F
:106DA0003560204608F07DF82046FDF709FC2046B6
:106DB00008F02CF8002211467C4802F01DFA002150
:106DC0007A48F0EE408A02F0B3FAF4EE688AF1EE07
:106DD00010FAB0EE408A80F1C980B4EE400AF1EEBC
:106DE00010FA80F1C380724905A808F05AF8B0EE95
:106DF000680A022102A808F0E5F802A905A808F02F
:106E00003EF96C4908F047F9B0EE480A06460221FF
:106E100008A808F0D7F808A9304608F030F9664904
:106E200008F039F90146204608F0B2F82046FDF78F
:106E3000C7FB204607F0EAFF08A807F0E7FF02A813
:106E400007F0E4FF05A807F0E1FF2046FDF75AFB35
:106E50005A4A214608A8FDF7EDFC594908A8FEF753
:106E600023FA584B099301260B23B0EE680A08A8B1
:106E70000A938DF82C600894FEF7C6F9524A214611
:106E800008A8FDF7D7FCB0EE480A08A8FEF7BCF941
:106E900000F0C4F84D4B09938046092308A88DF8EB
:106EA0002C60894608940A93FEF73FF9089F06462E
:106EB00070B13946FDF7FFF918F1004249F10003BE
:106EC000012B08BF002A42D20C233371C6F8008080
:106ED0003F4902A807F0E5FF1AABCDE900346B4645
:106EE00093E8030002AAFEF739FD02A905A808F0FD
:106EF0004FF8384908A807F0D4FF08A905A8FEF7FD
:106F0000D5FF08A807F082FF05A807F07FFF02A8B9
:106F100007F07CFF2046FDF77BFC2F4A2F491368C2
:106F2000EB1A8B4202D91560FFF7C2F92C4B1B7884
:106F300043B347F23052B5FBF2F302FB1355B5F5FC
:106F40007A7F1FD2FDF72AFBFDF704FB1AE03946D2
:106F500005A8FDF71DFD059B002BB9D01C22327141
:106F6000BDF818203280C3E90089B1E71D492046E9
:106F700007F097FF2046FDF723FB204607F046FF6A
:106F8000FDF7DEFA1DB0BDEC028BBDE8F08300BF5B
:106F9000EC0900200A650100140900202D6501009C
:106FA0005C770100A00D002043650100B8020020BD
:106FB0005A65010061650100716501006B610100A6
:106FC0001F5E0100736501007F6501008865010097
:106FD000FE640100926501001809002080EE360071
:106FE0001C090020A865010008B5074B1860074B75
:106FF0001B681844064B1860064B02221A7008F0F2
:1070000009FE054B186008BD4C0900202000002037
:1070100044090020480900204009002038B5164DD9
:10702000164C08F0F7FD2B68C01AB0F57A7F06D32E
:10703000226803F57A73013222602B60F1E7104D6C
:1070400023682A689A4208D80E4B1B682BB19847D0
:1070500050EA010304D0FFF7C7FF2068002138BDC4
:10706000094A236812681344084A2B6013780033D6
:1070700018BF01231370F0E7400900204C090020DD
:107080004409002050090020200000204809002069
:1070900008B5FFF7C3FF014B187808BD4809002069
:1070A000034B1860034B1A68034B1A60FFF7B6BF17
:1070B000500900204C0900204409002008B503684D
:1070C000002B02DA09480AF058FF8B4208D9490020
:1070D0008B4205D20029B6BF6FF000430160036008
:1070E0000068BDE8084001300AF033BF9567010031
:1070F00010B50446406828B163781BB940F2AC4132
:107100000AF016FF204610BD08B4F3B507AB0446DD
:1071100000F10C0553F8042B0193802128460CF054
:1071200099FDD4F89000A8B194F89430012B11D9AE
:107130000F4907F0AAFDD4F89060336828465F68CD
:107140000CF088FC294602463046B847D4F8900037
:1071500007F0A4FD284664680CF07CFC2946024632
:10716000204606F08FFF02B0BDE8F04001B0704746
:10717000E5660100034653F8080B984201D00AF077
:10718000D5BE7047F8B50646456808460F460CF070
:1071900061FCA842024628BF2A46044622B139466D
:1071A00030680BF045FE00B9281BF8BD012A30B449
:1071B00004D191F90030037030BC7047002AFBD035
:1071C00030BC0BF044BEFFFF00F1080373B504466A
:1071D00003600D46D1B108460CF03CFC0F28064672
:1071E000019006D9002101A8FFF768FF019B2060EC
:1071F000A360324629462068FFF7D8FF019B22682A
:10720000636000212046D15402B070BD01480AF0ED
:10721000B1FE00BFAD6701002DE9F347DDF828801E
:10722000164642689A46A8EB0603571A13440268AA
:10723000019300F108039A420D46044614BF816889
:107240000F2101A8FFF73AFFBF1B81461DB12A4657
:107250002168FFF7ABFFBAF1000F08D0B8F1000FBB
:1072600005D04246514609EB0500FFF79FFF47B1A5
:1072700021682E4405EB08003A4631444844FFF7A4
:1072800095FF2046FFF776FF019BC4F80090A360AE
:1072900002B0BDE8F087F7B50268466800F1080360
:1072A0009A4218BF836806F1010508BF0F239D426B
:1072B00004460F4606D90123009300231A4631469F
:1072C000FFF7AAFF23689F552368656000225A557F
:1072D00003B0F0BD012A30B404D191F9003003703D
:1072E00030BC7047002AFBD030BC0BF0BBBDFFFFA9
:1072F0002DE9F74F8146144640680C9E02F100428A
:10730000013A121A9642984602D937480AF035FED9
:107310004A46A6EB040B52F8083B934218BFD9F833
:1073200008200BEB000A08BF0F22524552D35F180A
:107330009845A0EB0101A1EB040522D30344984535
:107340001FD876BB95B1B44210D02A463919B81966
:10735000FFF7C0FFB44209D23C4408EB06039C424D
:1073600027D3324641463846FFF7B4FFD9F80030FC
:10737000C9F804A00022484603F80A2003B0BDE87B
:10738000F08F35B1B44204D02A463919B819FFF745
:10739000A1FF002EEAD0324641463846FFF706FFED
:1073A000E4E7B4421DD3324641463846FFF792FF28
:1073B000C8E7444503D8324608EB0B01EDE7A4EBE0
:1073C0000804224641463846FFF784FF321BB919AC
:1073D0003819E3E70096434622464846FFF71CFF6C
:1073E000C4E7002DB8D0B0E77C67010037B504468C
:1073F00008460D460CF02EFB2B46009062680021DB
:107400002046FFF775FF03B030BDFFFF2DE9F04FB9
:107410008FB00AAB02910646089398490298002360
:1074200009938DF828309246FFF7ACFE031C0490B8
:10743000D6F8900018BF0123069328B196F894302F
:1074400013B18F4907F021FC08F0E4FB4FF000086E
:107450000123DFF854B205904746CDF80480CDF8FB
:107460000C8099464446079308F0D4FB059BB2680C
:10747000C01A904200F21A81079B5BB170680268E3
:1074800012699047079B0028EDD0706803685B691C
:10749000984745B2D6F8900038B196F8943023B1A9
:1074A0000A2D24D1774907F0F0FBD6F8900060B19F
:1074B00096F89430022B08D9734907F0E6FB0A22AC
:1074C0002146D6F8900007F045FC631E072B29D80B
:1074D000DFE813F03A005C007E008A008D00B70000
:1074E0002B01A200092C00F0E3800123BBE70D2D46
:1074F00001D16649D7E7202D01D16549D3E71F2D7A
:107500000CDC644907F0C1FB29460A22D6F890003A
:1075100007F039FC6049D6F89000C4E7294607F027
:10752000B8FBC2E72B2D05D1294608A8FFF7B3FE0B
:107530000124DAE71BF90730AB4240F09C80DDF80C
:10754000188001370824D0E73A2D294608A801D031
:107550003D2D3AD1FFF79FFE049B8BB1029B099A08
:107560005B689A4206D15AB1029B089819680BF0E1
:107570005FFC28B1494908A8FFF738FF4FF0010820
:1075800046495046FFF732FF0224AEE77C2D0ED16C
:10759000DAF800000BF0AFFB0023CAF80430DAF889
:1075A000003003904FF000021A7003249DE70D2D68
:1075B00000F0B2800A2D00F0B18096F88C3013B143
:1075C000202D00F0AD8029465046FFF764FE8CE781
:1075D00029465046FFF75FFE019B039A0133019352
:1075E000934208BF052480E70A2D08BF05242C49D3
:1075F0005046FFF7C7FD60B12A495046FFF7C2FD6C
:10760000002804BF4FF0010909244F2D2AD101277A
:1076100098E781460924F8E71BF907207B1C5846A8
:107620000793AA4218BF07240CF014FA079B98424C
:1076300070D107464FF00009B8F1000F19D10924A5
:1076400036E01BF907207B1C58460793AA4218BF57
:1076500007240CF0FFF9079B98425BD107464FF0D7
:107660000109E9E7B8F1000F3FF43CAF092C7FF4C2
:107670003CAF4FF00008002437E700BF3667010039
:107680004367010049670100646701004E6701001C
:1076900053670100586701004C670100FE64010058
:1076A00053630100B66601005A6701004FF00309F9
:1076B000D6F89000B8B196F89430022B13D91E4931
:1076C00007F0E3FA0A222146D6F8900007F040FBC3
:1076D0001A49D6F8900007F0D8FA0A224946D6F897
:1076E000900007F037FBD6F89000012386F88C3025
:1076F00048B196F8943033B1114907F0C6FAD6F87C
:10770000900007F0CBFA08A8FFF734FD48460FB009
:10771000BDE8F08F1F46E8E60424E6E60524E4E62B
:10772000B8F1000F7FF4E1AE9DE6002398464FF0DC
:1077300002091C4697E600BF5F6701006C67010005
:107740007267010030B50446406803688DB05B681D
:10775000984706AA1D496846FFF736FD08AB069311
:1077600006AA00236946204607938DF82030FFF7CC
:107770004DFE0546D4F8900088B194F89430012B62
:107780000DD9134907F081FA0699D4F8900007F053
:1077900095FA7DB90F49D4F8900007F08FFA06A842
:1077A000FFF7E8FC6846FFF7E5FCB5FA85F040090D
:1077B0000DB030BD012DD4F8900001D10649ECE7A1
:1077C000032D0CBF05490649E7E700BF36670100F6
:1077D000836601009D660100AB660100BC66010086
:1077E000CF66010008B42DE9F3431646044609AB01
:1077F000306853F8042B0193884604F10C050021EE
:1078000071600170802128460CF024FAD4F89000B1
:10781000B0B107F043FA2449D4F8900007F035FAE4
:10782000D4F890703B682846D3F804900CF012F915
:10783000294602463846C847D4F8900007F02EFA89
:10784000284667680CF006F929460246384606F0D5
:1078500019FC324641462046FFF7D8FD0546D4F8CC
:10786000900068B1114907F010FA3168D4F890001F
:1078700007F024FA65B90E49D4F8900007F01EFA13
:10788000B5FA85F0400902B0BDE8F04301B0704799
:10789000012DD4F8900001D10649EFE7032D0CBF6C
:1078A00005490649EAE700BF206701002A67010091
:1078B0009D660100AB660100BC660100CF66010059
:1078C0002DE9F0430446406891B01646002834D0B4
:1078D0002378002B31D10368194DDB69DFF86C90F8
:1078E000DFF86C80174F98470AAA174904A8FFF7DA
:1078F0006BFC60680368DB6898474FF4FA72AA6013
:107900002378A3B9002E12DD03AA49460AA8FFF77F
:107910005BFC3B4604AA0AA9CDF800800848FFF7A3
:1079200061FF20700AA8FFF725FC013EE8E742F25C
:10793000107304A8AB60FFF71DFC11B0BDE8F08325
:10794000540900205B770100FE640100FD66010020
:107950000D670100074B084858600022012142F2E0
:1079600010701A705970986083F88C1083F8942006
:10797000704700BF54090020F81600200148FFF7A7
:10798000B7BB00BF5409002008B50368002B02DA1A
:1079900009480AF0F2FA8B4208D949008B4205D215
:1079A0000029B6BF6FF00043016003600068BDE8C6
:1079B000084001300AF0CDBA9567010073B542F274
:1079C0001073036000F5F8730025C0F8E831012654
:1079D00000F50273044680F8E451C0F8EC5180F8D9
:1079E000F051C0F80032C0F8045280F80852042365
:1079F0000096A822C02100F5067006F0D3FF33469A
:107A00000096A822C02104F50C7006F0CBFFFF23DE
:107A100000951A46194604F5127006F0C3FF204679
:107A200002B070BD73B505460E4619B912B10D48C6
:107A30000AF0A0FA941B0F2C019406D9002101A88A
:107A4000FFF7A2FF019B2860AB6022463146286801
:107A5000FFF7ACFB019B2A686B600021D15402B098
:107A600070BD00BFAD67010038B500F108030446E2
:107A700003600D4649B108460BF0ECFF2A1820467A
:107A80002946FFF7CFFF204638BD4FF0FF32F6E71B
:107A900010B503228CB04FF4E1311148FFF710FF0D
:107AA00010496846FFF7E0FF0F4906A8FFF7DCFF23
:107AB0000E4B0B486A4606A9FFF794FE044606A83B
:107AC000FFF758FB34B1012008F060F800980BF084
:107AD00012F9C4B26846FFF74DFB20460CB010BD4A
:107AE00054090020FE6401007F6801008B680100DA
:107AF000F0B591B004460E4604A82849284D174613
:107B0000FFF7B2FF03224FF4E1312648FFF7D8FE1A
:107B100025490AA8FFF7A8FF01230193234B0093EF
:107B20000AA9234B1F4804AAFFF75CFE0AA8FFF727
:107B300021FB20490AA8F7B9FFF796FFCDE90056C7
:107B40001D4B184804AA0AA9FFF74CFE05460AA8CF
:107B5000FFF710FBDDB108F05DF8054608F05AF8B4
:107B60002368401B984212D22046FFF791FF03285A
:107B7000F4D104460CE0FFF777FFCDE901670095EB
:107B80000E4B084804AA0AA9FFF72CFEDEE70424DE
:107B900004A8FFF7EFFA204611B0F0BDFE64010023
:107BA000686801005409002017680100506801004E
:107BB000496801005D680100016801007568010005
:107BC00070B503228EB005464FF4E1312848FFF727
:107BD00077FE0024274902A8FFF746FF23462246E6
:107BE00021460094284606F0DDFE234908A8FFF749
:107BF0003BFF224B009302AA214B1D4808A9FFF727
:107C0000F1FD064608A8FFF7B5FAD6B102980BF0C9
:107C100072F801281BD11B4908A8FFF725FF1A4B52
:107C200000930194194B124802AA08A9FFF7DAFD44
:107C3000044608A8FFF79EFA1CB10299284606F0F0
:107C4000D3FF02A8FFF796FA28460EB070BD02983F
:107C50000BF051F80228F4D10D4908A8FFF704FFF2
:107C60000C4B034802AA08A9FFF7BCFDE0E700BFE0
:107C700054090020FE640100176801002268010019
:107C80005B770100066901000E6901004968010087
:107C9000ED680100F868010010B5104C10498CB077
:107CA0006846FFF7E1FE032220464FF4E131FFF77B
:107CB00007FE0C4906A8FFF7D7FE0B4B6A4606A93C
:107CC0002046FFF78FFD044606A8FFF753FA6846E3
:107CD000FFF750FA20460CB010BD00BF5409002039
:107CE000FE640100D7670100E46701000148FFF767
:107CF00065BE00BFEC09002010B5054C04F500700E
:107D0000FFF738FA04F5F470FFF734FA10BD00BF3E
:107D1000EC090020002070470069013018BF0120E5
:107D2000704708B503685B6B984780F00100C0B2EC
:107D300008BD13B502AB026803F8011D546819466B
:107D40000122A04702B010BD07B5036801225B6A9B
:107D50000DF10701984701280CBF9DF807004FF06F
:107D6000FF3003B05DF804FB00690B69C31A584289
:107D70005841704770470020704740F20C41C0687E
:107D80000AF0D6B810B5102104460AF0D1F8204602
:107D900010BD08B5FFF7F6FF08BD7FB503680446C0
:107DA000164601A81D6A06F05FFE3246019920467C
:107DB000A847044601A807F029F8204604B070BD82
:107DC000036810B504469B689847A368013BA3600D
:107DD0002BB923682046DB68BDE81040184710BD6A
:107DE00000F1080370B5044603600E46B1B10846C1
:107DF0000BF030FE0F28054604D901300AF0A9F82F
:107E0000A5602060012D20680BD196F90030037029
:107E10002368656000225A55204670BD04480AF068
:107E2000A9F8002DF4D02A4631460BF010F8EFE700
:107E3000AD670100036813B962B6BFF36F8F704777
:107E400013B5EFF3108300930123019372B6019BE6
:107E50005A1E019233B104686846FFF7EBFF2046D3
:107E600002B010BD6846FFF7E5FFF8E713B504461A
:107E7000EFF3108300930123019372B6019B5A1E06
:107E80000192684633B1FFF7D5FF601CC0F30900CB
:107E900002B010BDFFF7CEFFFAE710B50446006848
:107EA00028B14368013B43600BB9FFF789FF2046C7
:107EB00010BDFFFF10B5044B044640F81C3BFFF714
:107EC000ECFF204610BD00BFB06A010030B5036969
:107ED000002B8FB0044607DB0368DB6A984718B9AC
:107EE000236820469B6A98472369013321D11249B0
:107EF00002A8FFF775FF03224FF4E1310F48FFF7A7
:107F0000DFFC0F4908A8FFF76BFF0E4B009302AA96
:107F10000D4B0A4808A9FFF765FC054608A8FFF7BE
:107F200029F91DB102980AF0E6FE206102A8FFF7C8
:107F300021F90FB030BD00BFFE64010054090020DC
:107F4000896A0100976A01005B77010070B50446F9
:107F500092B00D461646FFF7B9FF2369002B25DBCB
:107F60001E4906A8FFF73CFF03224FF4E1311C48ED
:107F7000FFF7A6FC6369DBB11A490CA8FFF730FFD5
:107F800063690295CDE9036323690193164B00935E
:107F900006AA164B12480CA9FFF724FC04460CA8AD
:107FA000FFF7E8F806A8A4B9FFF7E4F8002013E00B
:107FB0000F490CA8FFF714FFCDE90256236901937E
:107FC0000C4B009306AA0C4B05480CA9FFF70AFCC2
:107FD000E4E7FFF7CFF8012012B070BDFE640100A6
:107FE00054090020C8690100E8690100D86901004E
:107FF000FA6901001B6A01000E6A010070B503698D
:10800000002B90B005460E4614462ADB164904A8FC
:10801000FFF7E6FE03224FF4E1311448FFF750FC6E
:1080200013490AA8FFF7DCFE02942B690193114B58
:10803000009304AA104B0D480AA9FFF765F80AA897
:10804000FFF798F8224631460848FFF77BFB0546C4
:1080500004A825B1FFF78EF8204610B070BDFFF7D9
:1080600089F80024F8E700BFFE64010054090020ED
:10807000A2690100B9690100AF69010030B5036967
:10808000002B8FB0054635DB84695CB104F5816057
:10809000FFF7D6FE002808DDA86900F58160FFF72C
:1080A000CFFE044620460FB030BD154902A8FFF7A9
:1080B00097FE03224FF4E1311248FFF701FC124909
:1080C00008A8FFF78DFE2B690193104B009302AABD
:1080D0000F4B0C4808A9FFF785FB044608A8FFF7DB
:1080E00049F84CB102980AF006FE041E04DA02A810
:1080F000FFF740F80024D5E702A8FFF73BF8D1E7E7
:10810000FE64010054090020496A0100556A01001B
:10811000496801002DE9F04F0369002B93B0074631
:10812000C0F287808369002B00F08380424906A853
:10813000FFF756FEBA69EFF310830C9301230D93FA
:1081400072B60D9B591E0D911BB1D2F80854C5F59E
:1081500080653A4E0CA8FFF76DFE002403223046DE
:108160004FF4E131FFF7ACFB013D86F88C40344918
:108170000CA8FFF735FE02953B690193314B009344
:108180003046314B06AA0CA9FFF72CFB06460CA87B
:10819000FEF7F0FF002E41D0079B002B47D04FF099
:1081A0000109CA46AC4239D2079B9C4236D2069B93
:1081B000BE6913F804B0EFF31083CDE9043972B649
:1081C000059B5A1E059223B3EFF31083CDE90C3AB9
:1081D00072B60D9B5A1E0D923BB1D6F80834A3F52A
:1081E0008063D3F1000848EB03080CA8FFF722FED8
:1081F000B8F1000FE4D1D6F8000406F800B0FFF79C
:1082000035FED6F80834C6F800040133C6F8083441
:10821000D6E704A8FFF70EFE0134C3E74FF0FF34A2
:1082200006A8FEF7A7FF204613B0BDE8F08F1C4656
:10823000F6E74FF0FF34F6E7FE6401005409002032
:108240006E6901007E690100AF69010038B504461E
:1082500080690D4650B100F58160FFF7F1FDA8423D
:1082600004D22046BDE83840FFF754BF38BD2DE9A1
:10827000F74F07468A4611461646FFF7E7FF3B6968
:10828000002B33DBBC6994B34FF0010B5644002440
:10829000D946B2452BD0BBF1000F28D0BD69D5F827
:1082A00008344BB995F800809B460AF8018BBBF166
:1082B000000FEED00134ECE7EFF31083CDE9003985
:1082C00072B6019B5A1E019263B1D5F8040415F8E9
:1082D0000080FFF7CBFDD5F80834C5F80404013B56
:1082E000C5F808346846FFF7A5FDDEE70024204600
:1082F00003B0BDE8F08F10B504460121FFF7A6FFDB
:108300002369002B0ADBA36943B1D3F808241AB10F
:10831000D3F80424985C10BDFF20FCE74FF0FF3039
:10832000F9E7FFFF10B50369002B8EB004461DDB93
:108330000F4902A8FFF754FD03224FF4E1310D4825
:10834000FFF7BEFA0C4908A8FFF74AFD236901931D
:108350000A4B009302AA0A4B064808A9FFF742FA03
:1083600008A8FEF707FF02A8FEF704FF0EB010BD35
:10837000FE64010054090020906901009869010021
:108380004968010010B50369002B8EB0044620DB5C
:10839000154902A8FFF724FD03224FF4E1311348E9
:1083A000FFF78EFA124908A8FFF71AFD2369019317
:1083B000104B009302AA104B0C4808A9FFF712FAC1
:1083C00008A8FEF7D7FE4FF0FF33236102A8FEF79F
:1083D000D1FEA3690022C3F80024C3F80424C3F823
:1083E00008240EB010BD00BFFE6401005409002037
:1083F000506901005E6901004968010010B5036819
:108400008EB01B6904469847002829DC2369002B9D
:1084100028DB154902A8FFF7E3FC03224FF4E13102
:108420001248FFF74DFA124908A8FFF7D9FC236953
:108430000193104B009302AA0F4B0C4808A9FFF7B9
:10844000D1F9044608A8FEF795FE1CB102980AF07F
:1084500052FCC4B202A8FEF78DFE20460EB010BD3D
:108460000124FAE70024F8E7FE6401005409002023
:10847000636A0100756A01004968010030B50C4665
:1084800095B0054602A806F085FA2369002B34DB77
:108490001E4908A8FFF7A4FC03224FF4E1311C4851
:1084A000FFF70EFA1B490EA8FFF79AFC2369019308
:1084B000194B009308AA194B15480EA9FFF792F91A
:1084C00004460EA8FEF756FEA4B108992C4602A851
:1084D00006F08AFB124B44F8043B03AB0FCB84E855
:1084E0000F009DF81C302B7508A8FEF743FE2846A8
:1084F00015B030BD08A8FEF73DFE002300931A46D4
:108500001946284606F04EFAF1E700BFFE64010066
:1085100054090020316A01003C6A010049680100E9
:108520005070010010B50369002B8EB0044626DBA5
:10853000144902A8FFF754FC03224FF4E13112481A
:10854000FFF7BEF9114908A8FFF74AFC2369019318
:108550000F4B009302AA0F4B0B4808A9FFF742F9F3
:10856000044608A8FEF706FE1CB102980AF0C3FBF9
:1085700084B202A8FEF7FEFD20460EB010BD002416
:10858000FAE700BFFE6401005409002034690100CD
:10859000416901004968010013B500230446D1E98F
:1085A0000002C1E900332368206002A800936368D9
:1085B00040F8043D6260FFF770FC204602B010BD39
:1085C00073B54FF47A730025C0E90153174B03606C
:1085D0004FF0FF33C0E904350446C0E9065540F2C8
:1085E0000C4009F0B6FC4FF48062064629460AF0BA
:1085F00052FC1020C6F80054C6F80454C6F80854BB
:10860000CDE9006509F0A5FC0123C0E90133084B61
:108610000360C6600190694604F11800FFF7BCFFD3
:1086200001A8FFF73AFC204602B070BDB06A010015
:108630002069010003689B6B184708B503689B6DB0
:10864000984780F00100C0B208BD13B502AB0268C4
:1086500003F8011D546819460122A04702B010BD5D
:1086600007B5036801229B6B0DF1070198470128AC
:108670000CBF9DF807004FF0FF3003B05DF804FB1E
:1086800000690B69C31A58425841704700F108034A
:1086900070B5044603600E46B1B108460BF0DAF936
:1086A0000F28054604D9013009F053FCA56020606D
:1086B000012D20680BD196F90030037023686560A6
:1086C00000225A55204670BD044809F053FC002D85
:1086D000F4D02A4631460AF0BAFBEFE7AD67010055
:1086E00013B5EFF3108300930123019372B6019B3E
:1086F0005A1E019233B104686846FFF79BFB20467F
:1087000002B010BD6846FFF795FBF8E770B5044668
:1087100000F2D4500D46FFF7E3FFA84205D22368CC
:1087200020469B6CBDE87040184770BD13B50446E9
:10873000EFF3108300930123019372B6019B5A1E3D
:108740000192684653B1FFF775FB631C40F2B552C6
:10875000B3FBF2F002FB103002B010BDFFF76AFB72
:10876000FAE72DE9F34703680D46DB6C114617461F
:108770000446984701262F444FF00008B246BD42F8
:1087800028D03EB3D4F8D4354BB994F814901E4693
:1087900005F8019B002EF2D008F10108EFE7EFF396
:1087A0001083CDE9003A72B6019B5A1E01926BB15B
:1087B000D4F8D005231893F81490FFF7B7FFD4F836
:1087C000D435C4F8D005013BC4F8D4356846FFF76A
:1087D00031FBDDE7404602B0BDE8F08738B5002543
:1087E0004FF47A73C0E90153094B036004464FF01C
:1087F000FF33036140F2B552294614300AF04BFBB7
:10880000C4F8CC55C4F8D055C4F8D455204638BD6A
:10881000D46C010030B5036901338FB005460C46B6
:1088200028D1154902A8FFF731FF03224FF4E131A7
:108830001248FFF745F8124908A8FFF727FF114B28
:108840000194009302AA104B0C4808A9FEF7CAFF36
:10885000044608A8FEF78EFC4CB102980AF04BFAC9
:10886000286102A8FEF786FC01200FB030BD02A8E7
:10887000FEF780FC0020F8E7FE64010054090020A8
:10888000236C01002E6C01004968010070B503697A
:10889000013394B005460E46144631D1194908A853
:1088A000FFF7F4FE03224FF4E1311748FFF708F811
:1088B00016490EA8FFF7EAFE314605A806F0D4F8DF
:1088C000059B1148CDE90143114B009308AA114BB8
:1088D0000EA9FEF787FF044605A806F097FA0EA832
:1088E000FEF748FC4CB108980AF005FA286108A880
:1088F000FEF740FC012014B070BD08A8FEF73AFC5A
:108900000020F8E7FE64010054090020236C0100F8
:108910002E6C0100196C010070B50369013394B02D
:1089200005460E46144631D1194908A8FFF7AEFE98
:1089300003224FF4E1311748FEF7C2FF16490EA893
:10894000FFF7A4FE314605A806F08EF8059B1148F6
:10895000CDE90143114B009308AA114B0EA9FEF774
:1089600041FF044605A806F051FA0EA8FEF702FCE6
:108970004CB108980AF0BFF9286108A8FEF7FAFB85
:10898000012014B070BD08A8FEF7F4FB0020F8E742
:10899000FE640100540900208D6B01009D6B0100F5
:1089A000196C010010B50369002B8EB0044620DB62
:1089B000114902A8FFF76AFE03224FF4E1310F4884
:1089C000FEF77EFF0E4908A8FFF760FE23690193BA
:1089D0000C4B009302AA0C4B084808A9FEF702FFB3
:1089E00008A8FEF7C7FB4FF0FF33236102A8FEF78C
:1089F000C1FB0EB010BD00BFFE6401005409002091
:108A0000ED6B0100F76B01004968010070B5036967
:108A1000002B94B004460E4615462EDB184908A8D4
:108A2000FFF734FE03224FF4E1311648FEF748FF0A
:108A300015490EA8FFF72AFE314605A8246906F05D
:108A400013F8059B0194CDE90253104B009308AA3B
:108A50000F4B0C480EA9FEF7C5FE044605A806F00C
:108A6000D5F90EA8FEF786FB08A824B1FEF782FB15
:108A7000012014B070BDFEF77DFB0020F9E700BFB8
:108A8000FE64010054090020166B0100366B0100E2
:108A9000296B010070B50369002B90B004460E46A7
:108AA000154626DB144904A8FFF7F0FD03224FF416
:108AB000E1311248FEF704FF11490AA8FFF7E6FD6D
:108AC000CDE90256236901930E4B009304AA0E4B85
:108AD0000A480AA9FEF786FE04460AA8FEF74AFBE2
:108AE00004A824B1FEF746FB012010B070BDFEF7CC
:108AF00041FB0020F9E700BFFE640100540900209B
:108B00004B6B01005F6B0100296B010010B503691D
:108B1000002B8EB0044624DB134902A8FFF7B6FDF4
:108B200003224FF4E1311148FEF7CAFE104908A8AC
:108B3000FFF7ACFD236901930E4B009302AA0E4B85
:108B40000A4808A9FEF74EFE044608A8FEF712FBE5
:108B500002A824B1FEF70EFB01200EB010BDFEF7F7
:108B600009FB0020F9E700BFFE6401005409002062
:108B7000AF6B0100C26B01004968010010B50369C9
:108B8000002B8EB0044624DB134902A8FFF77EFDBC
:108B900003224FF4E1311148FEF792FE104908A874
:108BA000FFF774FD236901930E4B009302AA0E4B4D
:108BB0000A4808A9FEF716FE044608A8FEF7DAFAE6
:108BC00002A824B1FEF7D6FA01200EB010BDFEF7C0
:108BD000D1FA0020F9E700BFFE640100540900202B
:108BE000A96C0100B86C01004968010070B5036907
:108BF000002B90B005460E4614462ADB164904A801
:108C0000FFF744FD03224FF4E1311448FEF758FE0C
:108C100013490AA8FFF73AFD02942B690193114BFF
:108C2000009304AA104B0D480AA9FEF76DFA0AA892
:108C3000FEF7A0FA224631460848FEF783FD0546B6
:108C400004A825B1FEF796FA204610B070BDFEF7D5
:108C500091FA0024F8E700BFFE64010054090020E7
:108C6000536C01005E6C0100AF69010010B503692F
:108C7000002B8EB004462DDB174902A8FFF706FD36
:108C80000023C4F8CC35C4F8D035C4F8D435032259
:108C90004FF4E1311148FEF713FE114908A8FFF720
:108CA000F5FC236901930F4B009302AA0E4B0B486E
:108CB00008A9FEF797FD044608A8FEF75BFA1CB169
:108CC00002980AF018F8044602A8FEF753FA204664
:108CD0000EB010BD0024FAE7FE6401005409002024
:108CE000756B0100806B01004968010030B50369B4
:108CF000002B8FB0044632DB00F2D4552846FFF734
:108D0000EFFC002806DD2846FFF7EAFC0446204673
:108D10000FB030BD134902A8FFF7B8FC03224FF48F
:108D2000E1311148FEF7CCFD104908A8FFF7AEFC71
:108D3000236901930E4B009302AA0E4B0A4808A91F
:108D4000FEF750FD044608A8FEF714FA1CB102987D
:108D500009F0D1FF044602A8FEF70CFAD7E7002479
:108D6000D5E700BFFE64010054090020896C0100B2
:108D7000986C0100496801002DE9F04F0369002B50
:108D800093B00446C0F28480434906A8FFF77EFCF6
:108D9000EFF310830C9301230D9372B60D9B5A1EB3
:108DA0000D9223B1D4F8D455C5F5B66505356E1EC0
:108DB0003A4D0CA8FFF73EF84FF000080322284672
:108DC0004FF4E131FEF77CFD85F88C8034490CA826
:108DD000FFF75CFC029623690193324B009328460F
:108DE000314B06AA0CA9FEF7FDFC05460CA8FEF7C0
:108DF000C1F9002D41D0079B002B47D045464FF0CD
:108E00000108C146B54238D2079B9D4235D2069B28
:108E100013F805A0EFF31083CDE9043872B640F2E1
:108E2000B55B059B5A1E059213B3EFF31083CDE992
:108E30000C3972B60D9B5A1E0D922BB1D4F8D47515
:108E4000A7EB0B035F425F410CA8FEF7F3FF002F77
:108E5000E7D1D4F8CC05231883F814A0FFF766FCFB
:108E6000D4F8D435C4F8CC050133C4F8D435D8E7E8
:108E700004A8FEF7DFFF0135C4E74FF0FF3406A872
:108E8000FEF778F9204613B0BDE8F08F1C46F6E7F0
:108E90004FF0FF34F6E700BFFE64010054090020E4
:108EA000036C01000D6C0100AF69010010B503698E
:108EB000002B8EB0044629DB164902A8FFF7E6FB1B
:108EC00003224FF4E1311448FEF7FAFC134908A8D5
:108ED000FFF7DCFB23690193114B009302AA114BAE
:108EE0000D4808A9FEF77EFC044608A8FEF742F9E3
:108EF0004CB1029809F0FFFE044602A8FEF73AF9C9
:108F000020460EB010BD4FF0FF34F6E74FF0FF34AF
:108F1000F6E700BFFE64010054090020D76B010092
:108F2000E16B01004968010010B50369002B8EB0A8
:108F300004461DDB0F4902A8FFF7A8FB03224FF4EC
:108F4000E1310D48FEF7BCFC0C4908A8FFF79EFB79
:108F5000236901930A4B009302AA0A4B064808A909
:108F6000FEF740FC08A8FEF705F902A8FEF702F993
:108F70000EB010BDFE640100540900203B6C0100DE
:108F8000466C01004968010030B50C4695B00546B5
:108F900002A805F0FFFC2369002B34DB1E4908A85A
:108FA000FFF774FB03224FF4E1311C48FEF788FC05
:108FB0001B490EA8FFF76AFB23690193194B009325
:108FC00008AA194B15480EA9FEF70CFC04460EA87A
:108FD000FEF7D0F8A4B108992C4602A805F004FECB
:108FE000124B44F8043B03AB0FCB84E80F009DF811
:108FF0001C302B7508A8FEF7BDF8284615B030BD0B
:1090000008A8FEF7B7F8002300931A461946284629
:1090100005F0C8FCF1E700BFFE6401005409002020
:109020006B6C0100796C010049680100507001000F
:1090300010B50369002B8EB0044626DB144902A844
:10904000FFF724FB03224FF4E1311248FEF738FC0E
:10905000114908A8FFF71AFB236901930F4B0093EE
:1090600002AA0F4B0B4808A9FEF7BCFB044608A850
:10907000FEF780F81CB1029809F03DFE84B202A808
:10908000FEF778F820460EB010BD0024FAE700BFC6
:10909000FE64010054090020F46A0100046B010021
:1090A0004968010082714BF680324171C26070479D
:1090B00038B504460D464079022106F02FFC06F033
:1090C000A9FDA0F5FA60A060657438BD70B50546CD
:1090D0000E460024687906F045FCB04206D1EB68E4
:1090E000A34204F1010203D84FF0FF34204670BDC3
:1090F0001446EFE730B50D46D1B0044606F08AFDC0
:109100003DB9A368C31AB3F5FA6F02D2207C51B0FF
:1091100030BD00250221A06025606079257106F030
:10912000FDFB012006F032FD0121607906F0F6FB1F
:109130002946607906F00AFCA379153B012B15D866
:1091400040F24C4006F01EFD0221607906F0E6FB7D
:10915000607C06F017FD72B600212046FFF7B6FFCF
:10916000013007D10020207462B6D0E7142006F049
:109170000DFDE9E701212046FFF7A8FF0130F1D0FE
:10918000002500212046FFF7A1FF01214DF8050031
:109190002046FFF79BFF0DEB05030835B5F5A07FD3
:1091A0005860EED162B600225DF832500DEBC2037A
:1091B000691C586801D0431C02D100202074A6E726
:1091C000D1108542635C4FEA4303DBB202F1010236
:1091D00038BF43F00103282A6354E5D1617823782E
:1091E00022790B44A1780B44E1780B44DBB29A421C
:1091F000E3D10120E2E7FFFF2DE9F8430D462DED15
:10920000028B11460446FFF775FF00287FD0A37933
:109210000B3B0B2B7BD8DFE803F006407A7A7A7A97
:109220007A7A7A7A6666A378E07808EE103A0106D0
:10923000B8EE488A48BFFFEE007A00F00F0048BF42
:1092400037EEC88A08F0F6FF33A3D3E9002309F00C
:109250005BF8064618EE100A0F4608F0FDFF0B46B5
:1092600002463946304608F099FE09F01DFB0346D8
:109270006DB108F0F1FF2CA3D3E9002309F044F805
:10928000274B002208F08AFE09F00EFB0346BDECD6
:10929000028B00EE103ABDE8F883E078A67800F083
:1092A0000F0008F0C7FF1CA3D3E9002309F02CF836
:1092B00007EE906AF8EE677A804617EE900A8946C4
:1092C00008F0CAFF02460B464046494608F066FED3
:1092D00009F0EAFA3206034648BF80F00043002D49
:1092E000D5D01846C5E7A678E378300200F4FE40F2
:1092F000184307EE900AF8EEE77A17EE900A08F0A6
:10930000ABFF05A3D3E9002308F0FEFFE0E7054B20
:10931000BDE700BFAFF300809A9999999999B93F39
:10932000000040400000C07FCDCCCCCCCCCCFC3F7A
:10933000D0B50446FFF7DEFE002834D0A3790B3BFE
:109340000B2B30D8DFE803F006062F2F2F2F2F2FFF
:109350002F2F1E1E607808F06DFF16A3D3E900239F
:1093600008F0D2FF064620780F4608F063FF024659
:109370000B463046394608F011FE09F095FA00EE2A
:10938000100AD0BD208840BA80B207EE900AF8EEED
:10939000E77A17EE900A08F05FFF06A3D3E90023EF
:1093A00008F0B2FFE9E70248E9E700BFAFF3008049
:1093B0000000C07F9A9999999999B93F08B506F02C
:1093C000CBFB002008BD27207047704737B5FFF75B
:1093D000FCFF01210D2006F0A1FA00210D2006F06E
:1093E000B5FA68460722032108F030FDBDF80030C9
:1093F0001C4CC3F384130125684607220521E5545C
:1094000008F024FDBDF80030C3F38413684607223A
:109410000621E55408F01AFDBDF80030C3F38413AB
:10942000684607220921E55408F010FDBDF8003018
:10943000C3F38413684607220A21E55408F006FDA9
:10944000BDF80030C3F3841307220B216846E554AE
:1094500008F0FCFCBDF80030C3F38413E55403B0FE
:1094600030BD00BF2A0D00200B7930B4DB01114C58
:10947000114DDBB2A3714B788A781B01120302F401
:109480004052DBB213430A788446A85CCA781202C1
:1094900002F4407200F003001343034363804B79EE
:1094A000064ADB01DBB22372002030BCCCF800207E
:1094B000704700BF004204406C6F010054445700E5
:1094C000024B0020FF2218701A70704700420440BF
:1094D00030B5836A85B004468C4601ADABB193E8E4
:1094E000070085E807006268117883F804C0E26A23
:1094F0009A6019601846626A9047A36A1BB195E8A2
:10950000070083E8070005B030BD2B46EBE700BF3E
:1095100010B4EFF30383103B5BB203F1C001204AA8
:10952000204C52F821006FF3104042F8210054F80B
:109530002330D3E906218A421BD0186940B393F83F
:1095400020400F2C0BD99968496840F82210D9693E
:1095500001328A429A610CD05DF8044B7047072CA7
:1095600019D8996809798154D96901328A429A6176
:10957000F2D15B680C4993F903305DF8044B58094C
:10958000012203F01F0302FA03F341F82030704771
:1095900098684068DCE79C68A48820F81240D7E708
:1095A00000600040980C002000E100E0F0B5EFF30F
:1095B0000383103B5BB203F1C0022F492F4C51F8DB
:1095C00022006FF3104041F8220054F8233058680D
:1095D000026A002A30D092F801C0DC695A69BCF1F5
:1095E000010F17D094420FD0D96841B393F82000EF
:1095F0000F280AD80728986895BF895C31F812109F
:109600000171818001325A61F0BD986851F82210D1
:109610004160F7E704F1FF3E724513D0016900296C
:10962000E0D090F9031016484D0901F01F010CFA23
:1096300001F140F82510D5E75A69DC69D2E798684E
:109640004160DFE790F903E00EF1C0064FEA5E10DB
:10965000800051F8267000F1604000F561400EF086
:109660001F0E0CFA0EF56FF3104741F82670C0F884
:1096700080510560B6E700BF00600040980C0020F4
:1096800000E100E010B4EFF30383103B5BB2324A19
:10969000324C03F1C00152F821006FF3104042F840
:1096A000210054F823008268D278920706D54268D8
:1096B000527A012A02D05DF8044B70475909284CB0
:1096C0000122203103F01F0302FA03F344F8213092
:1096D000BFF34F8FBFF36F8F436893F90230002BB6
:1096E0002FDB5909203103F01F0302FA03F344F87A
:1096F0002130BFF34F8FBFF36F8FD0E90114237870
:1097000091F902106FF386130029237014DB01F125
:10971000C00C114C4B099B0001F01F018A4003F162
:10972000604354F82C1003F561436FF3104144F883
:109730002C10C3F880211A605DF8044B0121FFF75B
:10974000C7BE82685DF8044B13786FF386131370FD
:109750000121FFF7BDBE00BF00600040980C002053
:1097600000E100E070B5EFF30384103C314B64B2CC
:1097700053F82460736893F90230002B42DB5A09D6
:109780002D492032012003F01F0300FA03F341F8B2
:109790002230BFF34F8FBFF36F8FD6E9012392F9C9
:1097A00002101A7800296FF386121A7015DB01F186
:1097B000C00C224D4A09920001F01F0100FA01F18C
:1097C00002F1604255F82C0002F561426FF310403F
:1097D00045F82C00C2F880111160DA780021D5B26A
:1097E0001207D97021D4EB0712D405F01405142DFB
:1097F00016D0124BC03453F824206FF3104243F8B4
:10980000242070BDB3681A786FF386121A70E4E7EB
:109810000421304605F01405FFF75AFE142DE8D157
:1098200008213046FFF754FEE3E705213046FFF7F5
:109830004FFED8E7980C002000E100E000600040F7
:10984000036A70B50446987800F07B0098700D4666
:10985000217841B32261E269E5601069002841D0B6
:10986000226982B1A378816800688E68E16803F09C
:109870000303013B22FA03F3002222619BB2B047AB
:1098800080B9236A21789A7842F080029A7039BBB5
:1098900094F802C00CF0030CBCF1020F1AD02A7825
:1098A000DA70002070BD94F802C0E0690CF0030E7D
:1098B0000069A2EB0E02226105EB0E02E2600028B5
:1098C000CED19A780CF0030C42F08002BCF1020F6A
:1098D0009A70E4D12A8842F47E420020DA8170BD79
:1098E000002070BD9A7842F080029A7070BD00BF6F
:1098F000036A91F801C09A7800B502F07B0E02F07D
:109900000B029A700022C2608878587010461A784C
:109910006CF301021A70CA789A7493F807C00A7837
:109920000CF0A30102F05C020A43DA7183F802E052
:109930005DF804FB10B5D0E90721002343608B706C
:1099400092F905202F49044650090123203002F0E6
:109950001F0203FA02F241F82020BFF34F8FBFF33A
:109960006F8FE26992F90B205009203002F01F023C
:1099700003FA02F241F82020BFF34F8FBFF36F8F3D
:10998000E26992F907205009203002F01F0203FA21
:1099900002F241F82020BFF34F8FBFF36F8FE269CF
:1099A00092F90920500902F01F02934000F12002B1
:1099B00041F82230BFF34F8FBFF36F8FE369DA684E
:1099C00022B1936810681B6A9847E3691B691BB151
:1099D0009A681868136A9847EFF31081012383F39C
:1099E0001088E369084A1C78D2F800014FF0004360
:1099F000E3400343C2F80031D2F8003181F310880C
:109A0000002010BD00E100E0006F0440F0B5846A62
:109A100085B005460F4694466E46B4B194E80F00F3
:109A200086E80F00EB691B7884F804C02360EB6ABA
:109A30002046C4E902736B6A9847AC6A1CB196E889
:109A40000F0084E80F0005B0F0BD3446EAE700BF20
:109A50008C46516830B4029C0D6880B91C609CF83B
:109A6000010038B9E8784FF0010C0B346CF30510A5
:109A7000E8701C60936810681B6830BC184704F1DC
:109A80000C001860EBE700BF2DE9F0470D460978A0
:109A90000323CB4013F0010301F1007218BF102320
:109AA000037002F5605283785201012161F30103D2
:109AB0000262A9696A6942620022C0E90A21C5619D
:109AC00083706B7882B0044623B98378022262F3F4
:109AD0000103837095F90B00594B95F80AC04209B0
