:10400000007F0020C5F200006DF10000C1F2000049
:10401000C1F20000C1F20000C1F20000C1F20000D4
:10402000000000000000000000000000C1F20000DD
:10403000C1F2000000000000C1F20000C1F2000067
:104040000000000000000000000000000000000070
:104050000000000000000000000000000000000060
:104060000000000000000000000000000000000050
:104070000000000000000000000000000000000040
:104080000000000000000000000000000000000030
:104090000000000000000000000000000000000020
:1040A0000000000000000000000000000000000010
:1040B0000000000000000000000000000000000000
:1040C00010B5054C237833B9044B13B10448AFF352
:1040D00000800123237010BD78060020000000003E
:1040E00048B2010008B5034B1BB103490348AFF3C5
:1040F000008008BD000000007C06002048B20100DE
:104100000846114612F03CBA084611F077BC084642
:1041100011F06CBC4FF6FF7399421FBF0368CA09C8
:1041200003EBC20301F07F011ABF586800EBC10026
:10413000002070472DE9F84F05680446A16831B1A9
:104140000B68A3602B6828465B689847F6E72668EB
:1041500004F10C0B0D468946228EE76AABB29A42F7
:104160000FD907EBC3089A46D8F8041019B1336881
:1041700030465B68984747F83A900135C8F8049094
:10418000EAE700232386BB454FF6FF73A38604D0DE
:10419000336839465B68304698472046BDE8F88F5B
:1041A00038B5C588044601F12C002946FFF7B2FF57
:1041B000A580206008B1C388E38038BD38B5436A64
:1041C000034400251D710446011D00680DF078FCB4
:1041D00000B16562606A38BD38B5436A01331F2B90
:1041E00004460D4606D8636A5A1C62621C440120CC
:1041F000257138BDFFF7E2FF0028F4D00020F8E772
:104200000379DA072DE9F04705460C4611D5016818
:10421000A36800226BB1994232D18B882068013BA0
:104220009BB28B802BB90B6842B3136003685B6849
:1042300098472E79F30608D52F8804F12C003946CB
:10424000FFF768FFA38E0380A78616F0600F1CD0CF
:104250002E884FF6FF7A04F12C09564513D03146CB
:104260004846FFF757FF21460746B0F80680FFF79C
:10427000C7FFA38E3B80A6864646EEE7A360D5E740
:104280001A461B68C6E72E806E8000232B71BDE89E
:10429000F087C0E900120822826001220273704791
:1042A0008B8C30B5013B0D6A9AB205EBC204616894
:1042B00049B1638835F832509D4204D95D1C11EB39
:1042C000C301658005D1002303604FF6FF7383802F
:1042D00030BD016003EBC213F9E72DE9F74F8D8E76
:1042E0004FF6FF739D4206460C460ED0294604F158
:1042F0002C00FFF70FFF0388A386002303714FF6FE
:10430000FF73C3803060B58061E00B8E0F6801F1F0
:104310000C0843B168464146FFF7C2FF009810B150
:10432000BDF80450E9E7228E638E934218D1B3F5AD
:10433000007F45D05B009DB2E36A396898454FEA3B
:10434000C50235D10B68384611469847814600288A
:1043500036D02022414611F0CAFBC4F82C90658665
:10436000B4F83090D4F82CB009F101039BB2B3F546
:10437000007F23863B680CBF7F258025E9001B68F2
:10438000384698470BEBC90A002808BF00250023D0
:10439000CAF8040041462BF839506846AAF80230A2
:1043A000FFF77EFF0098BDF804500028A5D107E074
:1043B000D1F8089038461946C84781460028CCD124
:1043C00001232371002333604FF6FF73B38030461F
:1043D00003B0BDE8F08F07B50368082203EBC10105
:1043E000684611F084FB9DED000B03B05DF804FB03
:1043F0002DE9F04188B0074601A880E80E000E9E26
:104400000D4600294DD09DF80C80B8F1000F06D064
:1044100004233B713960404608B0BDE8F08107C80D
:1044200008AA02E90B00B068069CC8B1C188A14285
:104430000BD1002399420AD0C21815F903C092F992
:104440000820944501D10133F4E70068EDE7838843
:104450000133838005233B7138604FF00108DAE7B0
:10446000B4F5803F13D20921611810D23068036877
:104470001B68984758B101238380C48000F108026B
:104480000023A34206D0E956D1540133F9E70123B2
:104490003371C0E7034400221A72B3680360B0604E
:1044A000D8E78846B7E7F8B5054616460C468F1894
:1044B000BC4205D014F8011B2846FFF78DFEF7E734
:1044C000AB6A3344AB62F8BD38B5054608460C46C6
:1044D00012F01DF9214602462846FFF7E4FF38BDD9
:1044E0002DE9F04186B00DF11604054616461F462B
:1044F000A046304639460A22002311F0A9F830328E
:1045000004F8012D0023304639460A2211F0A0F8A4
:1045100006460F4656EA0703EBD1A8EB04022146F4
:104520002846FFF7C0FF06B0BDE8F0812DE9F0474F
:1045300090B003AC84E80E00804694E807000AAE11
:10454000189D86E80B000746F8B908904FF6FF73F0
:10455000ADF82430089B2BB1294608A8FFF720FEB0
:10456000089F77B994E807000DAE86E80700294652
:1045700006A8FFF7B2FEDDF81890B9F1000F4BD195
:104580000027384610B0BDE8F087B8F80060DDF8C5
:104590002C90314605F12C00FFF7BCFDADF83860DA
:1045A0000D90C0B1C388ADF83A304FF0010A0D9BB1
:1045B00083B3BAF1000F26D01A79042A0ED0052A47
:1045C0001CD0B9F1000F1ED10DAA92E8030008AB70
:1045D00083E80300BEE74FF6FF73E4E71E6830464A
:1045E0000EB112F094F881450DD100234B45EBD06C
:1045F000F956F256914206D10133F7E71B6803F1F1
:104600000806D888EFE729460DA88AF0010AFFF7C7
:10461000C7FDCCE7089399E7294608A8FFF75DFE98
:10462000089F002FACD0009596E80E004846FFF793
:10463000DFFE0028A4D0BDF82440A9F80640B8F851
:104640000210BDF81C604FF6FF73994207D005F1C8
:104650002C00FFF75FFDC680A8F8024091E7A8F89C
:104660000060F9E770B5036813F1380686B002D12F
:10467000002006B070BD021D07CA03AC84E8070025
:1046800002460028F4D093F83C1071B9202183F839
:104690003C104FF6FF71198759870392009394E8F5
:1046A0000E003046FFF742FFE3E72029F5D0DFE7B1
:1046B00070B50E4686B00446FFF7D4FFB368326883
:1046C0002568CDE9032300238DF81430064648B150
:1046D0002946FFF795FD009506AB13E90E0030461D
:1046E000FFF786FE206810B1007980F0010006B067
:1046F00070BD10B52DED028B0446B0EE408AFFF779
:10470000B1FF2168044630B1FFF77AFD0E23237113
:1047100084ED008A0120BDEC028B10BD38B5044643
:104720000D46FFF79FFF2168044628B1FFF768FD9B
:104730000C2323712560012038BDF0B587B00646F3
:104740000C46FFF78FFF3768054620460CB111F085
:10475000DEFF0023CDE903408DF8143055B1394612
:104760002846FFF74DFD009706AB13E90E002846DB
:10477000FFF73EFE306810B1007980F0010007B00D
:10478000F0BD10B50446FFF727FDA36A1844A062E8
:1047900010BDFFFF2DE9F0410D46222116460446CB
:1047A000FFF7EFFFDFF850802E44B54215D015F922
:1047B000011B104B13F9027CAFB1023313F9032C28
:1047C0008A42F7D15C212046FFF7DBFFF9B20DE00A
:1047D00041462046FFF778FEE7E722212046FFF713
:1047E000D0FFBDE8F0810029F2D0C9B22046FFF722
:1047F000C8FFDAE7A88B0100B58B010070B5002A6D
:104800001D4675F100030646144605DA2D21FFF713
:10481000B8FF644265EB450522462B463046FFF75C
:104820005FFE70BDFFFFFFFF2DE9F04F5BEC10ABAB
:104830008BB007460D4610EE102A5B4610EE100AAC
:10484000594610F0D5FD30B9AF493846FFF73CFE68
:104850000BB0BDE8F08F002200235046594610F0FF
:10486000C7FD68B952465B465046594610F0A2F95A
:1048700002460B465046594610F0BAFD0028E3D1D7
:10488000002200235046594610F0BCFD30B12D21C6
:104890003846FFF776FF0BF100439B460123019357
:1048A0002C460A2324B1019A5A43013C0192F9E7AC
:1048B00091A3D3E900235046594610F0B7FD0028D4
:1048C0006AD0DFF850924FF008084FF480764146E6
:1048D00004A8CDF81090FFF77EFD52465B4651ECE0
:1048E000100B10F099FD78B1884B0493414604A851
:1048F000FFF771FD5046594653EC102B10F010FB9A
:10490000344482468B4624B218F1FF384FEA6606DB
:10491000DDD2CDF80C80002200235046594610F01D
:104920008FFD00283DD076A3D3E900235046594699
:1049300010F072FDA8B300230293DDE90223A3EB7C
:10494000020919F0800F2CD10DF128086F4B48F89F
:10495000183D49464046FFF73EFD00226C4B51ECA6
:10496000100B10F0DDFA52465B4610F069FD78B18D
:10497000684B049349464046FFF72DFD5046594683
:1049800053EC102B10F0CCFAA41B82468B4624B2B9
:10499000029B76100133CFE708234FF48076039310
:1049A000B9E75046594610F093FD0A2206460346E1
:1049B000092B08D9B3FBF2F3013D0199B1FBF2F1E8
:1049C0006DB20191F4E7304610F030FA02460B4622
:1049D0005046594610F0ECF880460198894610F090
:1049E00025FA02460B464046494610F099FA8046A1
:1049F000894610F06DFD824610F018FA02460B460B
:104A00004046494610F0D4F80B46024610F0D2F862
:104A100010F05EFD019B0AEB0008434508D8013603
:104A200094B1092E10D9013424B24FF000080126A8
:104A30000A22B8FBF2F302FB138141B9002D06DD17
:104A4000013D98466DB2F4E74FF00008F0E70DF134
:104A500026010A22B6FBF2F302FB1366303601F898
:104A6000016D1E46002BF5D10DF12606721A38464F
:104A7000FFF719FDEDB108AA2B4611464FF00A0CBD
:104A8000013B5BB2581C09D0B8FBFCF00CFB108852
:104A900008F1300802F8018D8046F1E7EDB2EB43F2
:104AA0004D1B2E2205F8012C19445A423846FFF7B7
:104AB000FAFC002C3FF4CCAE65213846FFF761FECE
:104AC000002CA5B205DA2D213846FFF75AFE6D42BB
:104AD000ADB231460A22B5FBF2F302FB1355303575
:104AE00001F8015D9DB2002DF5D1721A3846FFF72D
:104AF000DAFCADE6AFF3008000000000D0126341A5
:104B0000F168E388B5F8E43E9D8B0100288A010036
:104B100000002440708A01002DE9F0410579064625
:104B20000C46018815F0100003D002F12C00FFF7AD
:104B3000F1FA0C2D00F0968015D8052D00F0878035
:104B400006D8032D00F08780042D73D04E4995E0E0
:104B5000062D00F090800A2DF8D1326800232046FF
:104B6000FFF7BEFC1DE01C2D00F0828006D80E2D44
:104B70000ED01A2DEAD1D0E90023F0E7202D34D051
:104B8000402D11D01E2DE1D1092190ED000B05E043
:104B9000306810F06DF941EC100B06212046FFF74C
:104BA00043FEA06ABDE8F0815B212046FFF7E9FDE6
:104BB00035884FF6FF76B54212D0E76A294607F1ED
:104BC0002C00FFF7A7FA05463A462146FFF7A4FF57
:104BD000ED88B542EFD02C212046FFF7D2FDEAE761
:104BE0005D212046FFF7CDFDDBE77B212046FFF767
:104BF000C8FD4FF6FF7735880126BD4218D0D4F89E
:104C00002C80294608F12C00FFF784FA054642461D
:104C10002146FFF781FFED88BD4206D0002E0CBF74
:104C20002C213A212046FFF7ACFD86F00106E4E78F
:104C30007D21D6E7356845B1284611F068FD02466A
:104C400029462046FFF7A6FDABE72A46F8E731687C
:104C5000CA880831F5E731682046CA880831FFF76D
:104C600022FC9EE73268D3172046FFF7C7FD98E77E
:104C7000D0E90023F8E7337823B104492046FFF751
:104C800023FC8EE70249F9E79D8B0100BC8B0100F4
:104C9000C18B01002DE9F043B7B06B46002783E8D4
:104CA000030002AD3946104602920B970CF0ADFEA0
:104CB0000FCD0CAC0FC40FCD0FC495E8030084E8F2
:104CC00003000CAE0FCE16ADDDE900890FC50FCE87
:104CD0000FC594E8030085E8030016AE0FCE20ACA4
:104CE0000FC40FCE0FC495E8030020AE84E8030084
:104CF0000FCE2AAD0FC50FCE0FC594E8030085E88F
:104D0000030020A83497FFF759FA16A8CDF8D490DD
:104D1000FFF754FAB8F1000F12D04A462AA94046CC
:104D2000FFF7FAFE04462AA8FFF748FA0CA8FFF797
:104D300045FA02A8FFF742FA204637B0BDE8F083F3
:104D400002492AA8FFF7C0FB349CECE79D8B0100C9
:104D50002DE9F0412DED048B7F4B804993ED028AC4
:104D600093ED009AD3ED018AD3F814809CB005A886
:104D7000D3E903760CF0B1FDB0EE480A032102A896
:104D80000CF04DFE02A905A80CF0AAFE74490CF027
:104D9000B3FE0A220446394608A80CF0CEFD08A945
:104DA00020460CF09DFE6F490CF0A6FE0CAC0A22CA
:104DB0000546314620460CF0C0FD214628460CF041
:104DC0008FFE69490CF098FE0146684803F084FDA7
:104DD00020460CF037FD08A80CF034FD02A80CF0BA
:104DE00031FD05A80CF02EFD0FAA614B17924FF470
:104DF00080220C93189200234FF6FF7205A88DF8BD
:104E000034300E938DF86C30ADF86420ADF86E2020
:104E100003F0EAFC574A214608A8FFF73AFA05A929
:104E200008A8FFF745FC05A80CF00CFD524B0993B0
:104E300001250B23B0EE490A08A80A938DF82C50DF
:104E40000894FFF756FC4D4A214608A8FFF721FABF
:104E5000B0EE680A08A8FFF74CFC494B0993B0EE86
:104E6000480A0E2308A80A938DF82C500894FFF7DF
:104E700040FC444B09933946112308A80A938DF846
:104E80002C500894FFF74AFC3F4B099331461423FA
:104E900008A80A938DF82C500894FFF73FFC3B4B71
:104EA000099308A809238DF82C5008940A93FFF75A
:104EB000D9FB0899054628B1FFF7A2F90A232B71FF
:104EC000C5F80080324902A80CF007FD1AABCDE905
:104ED00000346B4602AA93E80300FFF7DBFE2D497E
:104EE00008A80CF0FAFC02A908A80CF0F9FD01468C
:104EF0001E4803F0F1FC08A80CF0A4FC02A905A8C8
:104F00000CF073FD244B08A819680CF0E6FC08AA05
:104F100005A9224801F0A6FF054608A80CF092FC5E
:104F200005A80CF08FFCADB11D4908A80CF0D5FC0C
:104F300008A90E4803F0ECFC08A80CF083FC02A8BA
:104F40000CF080FC2046FFF7F5F81CB0BDEC048B9C
:104F5000BDE8F0811349E8E7B8060020B88A0100EF
:104F6000D98A0100E98A0100FD8A01003807002082
:104F7000B8030020068B01000F8B01001B8B010082
:104F8000248B0100338B0100458B01005A8B0100FB
:104F9000B48B0100648B0100BC0300203C0700209F
:104FA000728B0100898B01002DE9F0412DED048BFE
:104FB0007A488AB000F04AFE0DF032FC0446784888
:104FC00004F004FB032810D0764800F061FB76491A
:104FD00007A80CF082FC07A9744803F099FC07A805
:104FE0000CF030FC6D4800F033FE714E714B3568AB
:104FF0001F68631BBB4226D23D442D1B42F2107238
:10500000B5FBF2F302FB1353632B1CD86A4907A8C4
:105010000CF063FC0A224FF47A7104A8B5FBF1F19D
:105020000CF0AFFC04A907A80CF05AFD63490CF082
:1050300063FD01465D4803F04FFC04A80CF002FC40
:1050400007A80CF0FFFB3368E31A9F4279D85C494C
:10505000346007A80CF041FC07A9544803F058FC41
:1050600007A80CF0EFFB574803F078FB5548F0EE2B
:10507000408A03F077FB5448B0EE408A03F0D0F842
:105080005148B0EE409A03F043F980464E4803F091
:1050900069F9F4EE688AF1EE10FA074667D6B4EEC5
:1050A000488AF1EE10FA62D64849494E04A80CF03D
:1050B00014FCB0EE680A012101A80CF0B0FC01A9B3
:1050C00004A80CF00DFD43490CF016FDB0EE480AA3
:1050D0000546012107A80CF0A2FC07A928460CF000
:1050E000FFFC3D490CF008FD0146304803F010FC80
:1050F00007A80CF0A7FB01A80CF0A4FB04A80CF077
:10510000A1FB356803F070FC344B182202FB053319
:10511000C3ED008A83ED018A83ED029AC3E9038718
:10512000586133680133002B336003DDFFF710FE55
:1051300000233360244803F01FF958B3194800F0E6
:10514000AFFA274A136842F20F71E31A8B4203D970
:105150001D48146003F0A2F9224A23491368E31A98
:105160008B4212D90D48146002F0FEFC0DE01F497D
:1051700007A80CF0B2FB07A90C4803F0C9FB07A86D
:105180000CF060FB074800F083FA0AB0BDEC048B1A
:10519000BDE8F081034800F073FAD2E73C07002035
:1051A0007C140020D4060020C78B010038070020A3
:1051B00078070020D48C0100EA8B0100D8AC0100F4
:1051C000008C01008007002094060020178C01004D
:1051D000D00600201E8C01002E8C0100B806002095
:1051E000740700207C0700207FEE3600308C010021
:1051F000F0B5624D624E9DB00CAC28464FF416518E
:1052000003F0D2FB5F4920460CF067FB214628469D
:1052100003F07EFB20460CF015FB03F0D9FA03F0F7
:10522000F5FA594920460CF058FB08A803F0DCFABF
:1052300008A920460CF054FC0146284603F068FB00
:1052400008A80CF0FFFA20460CF0FCFA304600F0FB
:105250002FFA304600F024FA4C494D4E20460CF00F
:105260003CFB2146284603F053FB20460CF0EAFAAB
:10527000484803F0EDF9484920460CF02EFB214642
:10528000284603F045FB20460CF0DCFA434803F0C7
:105290007DF8304601F0ACFD0FAA1792404B0C93FD
:1052A0004FF480220023189205A84FF6FF728DF864
:1052B00034300E938DF86C30ADF86420ADF86E206C
:1052C00003F092FA374A214608A8FEF7E2FF05A943
:1052D00008A8FFF7EDF905A80CF0B4FA324B0993D2
:1052E00009230A93314B0894012719688DF82C7013
:1052F00008A8FFF722FA2E4B09930F230A932D4B90
:10530000089419688DF82C7008A8FFF716FA2A4936
:1053100002A80CF0E2FA1AABCDE900346B4602AAFF
:1053200093E80300FFF7B6FC02A905A80CF05DFBAB
:10533000224B08A819680CF0D0FA08AA05A9304633
:1053400001F090FD08A80CF07DFA05A80CF07AFA9F
:10535000304602F009FC1A4908A80CF0BEFA08A968
:10536000284603F0D5FA08A80CF06CFA02A80CF055
:1053700069FA2046FEF7DEFE1DB0F0BD38070020BA
:10538000D4060020468C0100608C01006C8C01006A
:105390003C07002080070020818C0100940600203B
:1053A000B8030020068B0100A18C0100C803002077
:1053B000AB8C0100C4030020B48B0100C0030020AB
:1053C000BB8C010038B50B4C0B4D204603F082FA24
:1053D000284600F045F922462946084800F022FCFC
:1053E0002146074803F026F921460648BDE8384023
:1053F00002F0F8BE38070020D40600203C07002049
:10540000800700209406002010B5074C04F12C0002
:105410000CF018FA04F1080004F002FB0348BDE8A0
:1054200010400AF001BB00BF3C070020F806002036
:105430004308400003F0553300F0AA3018438308B6
:10544000800000F0CC3003F03333034318091B0114
:1054500003F0F03300F00F30184300BA7047FFFF3D
:1054600030B585B0044600210DF10F000AF060F957
:10547000431C21D004F12405104BDFED110A9FEDF0
:10548000110A9DF80F20019400930021C3B2284611
:105490000AF0F4F900220C21044628460AF0E0FA4A
:1054A000044028460AF046FAE4B2044028460AF0CE
:1054B00068FA204005B030BD0020FBE72955000008
:1054C0000000484200401C4630B5016802690D01E9
:1054D00085B004465059FFF7ABFF2A44019050684D
:1054E000FFF7A6FF02909068FFF7A2FF0390D36832
:1054F0006269A3610131B1FBF2F302FB1311216078
:1055000049B994F8203003B9A361236E03B19847D9
:10551000012384F85C300C2201A9024810F0E7FA5C
:1055200005B030BDA00700202C49F8B50D680A6809
:105530002B4C0B68D210A25C5C4204F0070403F011
:10554000070358BF6342274C42FA03F3226822F450
:10555000384222F018022260226C22F4415222F0DA
:105560003002DB07226404F140041CD51E4B1F4FA0
:1055700013F8152003EB45031C325B7837F8322013
:105580001C331612360156FA82F237F8333004F51E
:10559000F864052644F822601A12120152FA83F3C5
:1055A000042244F823200B686024013393FBF4F2B7
:1055B00004FB12330B6080B1046874B1A36963B15A
:1055C0000DF02EF9E369C01AA369984205D9204667
:1055D000FFF77AFF0DF024F9E061F8BD980700208D
:1055E000A007002000000440A48E0100B0A3010029
:1055F00030B585B00B6800934B6801938B680293BC
:10560000002501230560C0F810D0436104460395CE
:10561000FFF75AFFA56105B030BDF8B50F46011D73
:105620000E463D460024EB1BDBB29A420AD915F820
:1056300001CB01334CEA0404DB0604BF34600436BA
:105640006400F0E7FFF7D4FFF8BD1FB5002301A900
:10565000CDE901330393FFF7CBFF05B05DF804FB01
:1056600038B5002504460560C0E9065580F820508D
:10567000243009F09BFF84F85C50204638BDFFFFC2
:1056800008B50249FFF7B4FF08BD00BF948E0100C2
:1056900008B50249FFF7ACFF08BD00BF748E0100DA
:1056A00008B50249FFF7A4FF08BD00BF848E0100C2
:1056B00010B50446FFF7D4FE2046BDE81040FFF7C2
:1056C000EFBFFFFFF7B50D4B0D4F1B680D4E01935C
:1056D00005460024019BA3420DDD2846FFF7E0FFAD
:1056E00038680DF059F82846FFF7AFFF30680DF025
:1056F00053F80134EEE703B0F0BD00BFDC8C0100CD
:10570000E48C0100E08C010030B56025B1B00446A6
:105710002A463049684610F0EAF92A46694620468A
:10572000FFF77BFF4FF47A700DF036F82A46002120
:105730000DEB050010F0FFF901232A460DEB0501E2
:1057400020468DF86E308DF875308DF87A308DF8F2
:1057500081308DF886308DF88D308DF892308DF84F
:1057600099308DF89E308DF8A5308DF8AB308DF8DE
:10577000AC308DF8AD308DF8AE308DF8AF308DF89F
:10578000B030FFF74AFF4FF448700DF005F82A4695
:1057900069462046FFF741FF4FF42F700CF0FCFFE5
:1057A0002046FFF76DFF4FF42F700CF0F5FF2A46EF
:1057B00069462046FFF731FF4FF42F700CF0ECFFE5
:1057C0002046FFF75DFF4FF42F700CF0E5FF31B07E
:1057D00030BD00BF528D01002DE9F0410C1EB2B06A
:1057E000054641DB632C40DD03260DF1C80801248A
:1057F0001AAB1F4600229C5401320C2AFBD10C33F9
:105800009845F7D1602239462846FFF706FFC820A1
:105810000CF0C2FF2846FFF733FF4FF4FA700CF08C
:10582000BBFF013EE4D160223146384610F083F9D7
:105830002846602239468DF87D408DF888408DF8E5
:1058400093408DF89A408DF89E408DF8A7408DF8D2
:10585000A9408DF8B440FFF7E0FE4FF4FA600CF079
:105860009BFF32B0BDE8F08100246022504902A8BD
:1058700010F03DF90A2300930023194664222046C4
:105880000BF0BEFC012608AB14A90122824202DC07
:105890009E540132FAE70C338B42F6D1602202A902
:1058A0002846FFF7BAFE0CF0BBFF424B1A6841F2E4
:1058B0008831821A8A420AD8192194FBF1F201FB3D
:1058C0001242002ACDD13C4A1268A242C9D01860C7
:1058D000394B192C1C6036D1602200211AA810F017
:1058E0002AF9012340F20112ADF876208DF87830C4
:1058F000ADF87A20ADF87C208DF881308DF88930B4
:105900008DF895308DF89C308DF8A0308DF8A7304B
:105910008DF8AB30ADF8B220ADF8B4208DF8B730CB
:105920008DF8B8308DF8B93060221AA92846FFF7F3
:1059300074FE40F2DC500CF02FFF602202A92846D2
:10594000FFF76BFE8DE7322C05D160221B491AA8A8
:1059500010F0CDF8E8E74B2CEBD1602200211AA81B
:1059600010F0E9F8012340F201128DF875308DF83E
:1059700076308DF877308DF87830ADF87A208DF864
:105980007C308DF884308DF889308DF890308DF82A
:1059900095308DF89B308DF8A0308DF8A6308DF8BD
:1059A000AB308DF8B130ADF8B6208DF8B830BBE72C
:1059B000B28D0100AC070020D8030020128E010038
:1059C00070B5E0B0054660220021684610F0B3F8DB
:1059D000602201244FF0013600210DEB02008DF80A
:1059E00027408DF82C408DF833408DF838400796CD
:1059F000109610F0A0F86022002130A88DF87140B8
:105A00008DF872408DF87C408DF87F408DF887408E
:105A10008DF88C408DF893408DF898408DF8A0401B
:105A20008DF8A3408DF8AD408DF8AE4010F083F8AE
:105A30006022002148A88DF8DB408DF8E0408DF809
:105A4000E7408DF8EC408DF8F3408DF8F8408DF884
:105A5000FF408DF804413496439610F06CF86022B4
:105A600048A928468DF82E418DF831418DF83441F2
:105A70008DF837418DF83A418DF83D418DF8404120
:105A80008DF843418DF846418DF849418DF84C41E0
:105A90008DF84F418DF852418DF855418DF85841A0
:105AA0008DF85B418DF85E418DF861418DF8644160
:105AB0008DF86A418DF86D418DF870418DF8734114
:105AC000FFF7ABFD4FF448700CF066FE0324602234
:105AD00069462846FFF7A1FD4FF496700CF05CFE76
:105AE00060220DEB02012846FFF797FD4FF49670F8
:105AF0000CF052FE602230A92846FFF78EFD4FF4CD
:105B000096700CF049FE013CE1D160B070BD4FF6DB
:105B1000FF7399421FBF0368CA0903EBC20301F078
:105B20007F011ABF586800EBC1000020704710B514
:105B30000446B4F5803F08460BD20921611808D20B
:105B400003681B68984700B910BD0123C480838097
:105B5000FAE70020F8E7B1F5803F70B506460D463C
:105B6000144609D2136801F109029B6801462046D8
:105B7000984708B1C58070BD236820465B683146F0
:105B800098470020F7E70A680B4652680146184616
:105B9000104738B50B79042B044605D0052B0CD0E3
:105BA0000023C0E9003306E00D6828460DB110F06F
:105BB000AEFDC4E90050012305E00B68DA88083324
:105BC000C0E9003200232372204638BD38B50023D7
:105BD00083604368044643B905681F202968FFF7BE
:105BE000A6FF08B901232B71606038BD70B504466B
:105BF00040680D4668B1A168C388994209D12668FA
:105C0000490032680131FFF7A6FF08B9012333715B
:105C10006060636823B1A2681344511CA1601D72C7
:105C200070BDFFFF10B50446C0E90012083004F053
:105C30007DFA002384F82830034904F12C000BF08E
:105C40004CFE204610BD00BFB48B010002F016BA16
:105C50002DE9F04F5C4D46685C498DB0044606A8BE
:105C60000BF03BFE296803A80BF037FE03A906A83A
:105C70000BF036FF0146304602F04AFE03A80BF057
:105C8000E1FD06A80BF0DEFD2068FFF709FD504896
:105C900003F09CFC032806D14D4803F09BFD4FF414
:105CA0007A700CF079FD4B4F29683A684848484EA5
:105CB000DFF828A103F0BAFC0CF0B2FD8146DFF852
:105CC00028B14FF00708304603F080FC03281FD0AE
:105CD0000CF0A6FDDAF80030A0EB0900984217D2CC
:105CE00059463D480BF0E3FC4FF47A700CF054FD3C
:105CF000B8F10108E7D1304603F06CFD4FF4FA70BB
:105D00000CF04AFD3A682968304603F08FFCD6E76C
:105D10000CF086FD2E4E314F0546314606A803F0A5
:105D2000EDFC002106A80BF078FC037873B328483B
:105D300003F04CFC032834D1254906A803F0DEFC0F
:105D4000002106A80BF069FC037853B32449656869
:105D500003A80BF0C2FD1E4906A803F0CFFC06A95C
:105D600068460BF08DFB694603A80BF0B9FE0146AF
:105D7000284602F0CDFD68460BF064FD03A80BF049
:105D800061FD2068FFF77CFC01201AE00CF048FD63
:105D90003B68401B9842CAD24FF4FA700CF0FCFCEE
:105DA000BBE765680F4906A80BF097FD06A92846D2
:105DB00002F0AEFD06A80BF045FD2068FFF768FC79
:105DC00000200DB0BDE8F08FD4030020A08F0100AB
:105DD0007C140020D0030020AC180020EC8C0100C3
:105DE000CC8F0100B58F0100D59601002DE9F04759
:105DF000002504460E46A946A28C276AABB29A42F9
:105E00000FD907EBC3089A46D8F8041019B13368C4
:105E100030465B68984747F83A900135C8F80490D7
:105E2000EAE70023A384BC424FF6FF73238507D023
:105E3000336839465B683046984704232462E3841C
:105E4000BDE8F0872DE9F3470E8D4FF6FF739E42B4
:105E500005460C4617460CD0314604F12000FFF7EA
:105E600056FE038823852860AE80284602B0BDE830
:105E7000F0878B8C53B16E463046FEF711FA009BCB
:105E800023B196E8030085E80300EEE7A28CE38CDB
:105E9000934217D1B3F5007F3FD05B009EB2236AD7
:105EA0003968A3424FEAC6022FD10B683846114623
:105EB0009847804688B3202221460FF018FEC4F888
:105EC0002080E684B4F82480D4F820A008F10103EF
:105ED0009BB2B3F5007FA3843B680CBF7F2680266E
:105EE000F1001B68384698470AEBC809002808BF2C
:105EF00000260023C9F8040021462AF83860284605
:105F0000A9F80230FEF7CCF9AFE7D1F8088038469F
:105F10001946C04780460028D1D100232B604FF698
:105F2000FF73AB80A1E737B50A6804460D466846A3
:105F30000C31FFF787FF009B43B9012223604FF626
:105F4000FF732A71A380204603B030BDBDF8042042
:105F50002360A280F7E7FFFF2DE9F74F91F90030AA
:105F60002B2B044632D02D2B31D10131012591F953
:105F70000020A2F13003DBB2092B01D92E2A28D14F
:105F8000DFF868B28846002000214FF0993A4FF0C0
:105F90000A0EC4461CF9013BA3F13002D2B2092A11
:105FA0001DD88B4508BF824520D30EFB01F3A0FB13
:105FB0000E0119440023D2B2DF43D6438F4208BFFB
:105FC000864213D380185941E046E2E701310025AB
:105FD000CDE700232370204603B0BDE8F08F2BB936
:105FE000E5B1B1F1004F08BF01280FD3764F002370
:105FF0004FF0FF368F4208BF864203F1010910D2ED
:1060000000230A220FF024FB4B46F3E70223404211
:10601000237061EB4101C4E90201DCE70323237033
:10602000F9E7A3EB080707EB0806434618F901CB8D
:1060300032B2ACF13006F6B2092EF4D9BCF12E0F13
:1060400022D1C6460FF27819D9E900894FF00A0A21
:1060500073460EF1010E93F800C0ACF1300C5FFAFC
:106060008CFCBCF1090F0FD8894508BF8045EFD3E0
:10607000A0FB0A6716EB0C000AFB017702F1FF3662
:1060800047F1000132B2E3E793F9006026F0200601
:10609000452E66D193F901602D2E25D19F1C4FF01E
:1060A000010C00264FF00A083B4617F901EBAEF150
:1060B000300E5FFA8EF9B9F1090F26D808FB06E613
:1060C000B318B3F59A7FEFDDBCF1000F13D0DFED0D
:1060D0003F7A9FED3F7A002D18BFF0EE477A0123FB
:1060E0002370C4ED027A76E72B2E14BF5F1C9F1C31
:1060F0004FF0000CD5E700222DB1364B0421217062
:10610000C4E9022367E7344BF8E7BCF1000F00D085
:10611000764293F90030002B7FF45BAF164406F112
:1061200026034C2B24D8002908BFB0F5000F1FD23E
:1061300007EE900A002EF8EEE77AD6BF27492849E5
:10614000764200237EB1F20742BFDAB201EB82024F
:1061500092ED007A4FEA660648BF67EE877A013310
:10616000F0E70026D5E7002DB9D0F1EE677AB6E763
:106170000EF0A0FE002ECABF1A4B1B4B01938046A7
:106180008946DCBF01937642002786B1F3070BD521
:10619000F9B201A8FEF71FF94046494653EC102B0F
:1061A0000EF0BEFE8046894676100137EDE715B148
:1061B00009F10043994604232370C4E902890AE7E0
:1061C0009899999999990100FFFF0F00000000002C
:1061D000000000800000F0FF0000F07F648F0100ED
:1061E0007C8F0100708A0100288A01009999991911
:1061F00070B5006878B1C4884B689C42F9D10D68CD
:1062000000239C4207D9C218EE5692F90820964204
:10621000EFD10133F5E770BDD0E90132F0B5134499
:1062200000221A72D0E9005685B087688DF80C20DC
:10623000044606F1080301A905F10800CDE901377C
:10624000FFF7D6FF78B92A6839463046FFF783FC56
:1062500008B901232B7123689A68026098600023B3
:10626000636005B0F0BD838801338380F9E72DE9D1
:10627000F0418AB001AC84E80E00109D0F4671B960
:1062800007914FF6FF73ADF82030079820B107A8AB
:106290002946FDF785FF07980AB0BDE8F08104881C
:1062A000DDF80880214605F12C00FFF730FCADF841
:1062B00018400590C0B1C388ADF81A30012607AC6C
:1062C0000599D9B19EB12046FFF763FC089A424573
:1062D0000DD1079900239A4212D017F903C0C8566E
:1062E000844504D10133F6E74FF6FF73E4E729460E
:1062F00005A886F00106FDF753FFE1E70791C0E727
:1063000005AB93E8030084E80300BEE730B505461B
:1063100089B00C46084609B110F0F9F9CDE9024000
:1063200000248DF8104002AA95F83C3007CA202BB3
:1063300008BF05F1380405AB83E807004CB10095B0
:106340000ECB2046FFF793FF003018BF012009B0A5
:1063500030BD2046F8E7FFFF30B585B001466846FE
:10636000FFF7FAFD9DF80030013B032B48D8DFE82A
:1063700003F00218242FDDED027A9FED257AF4EE6A
:10638000C77AF1EE10FA3BDB9FED227AF4EEC77A82
:10639000F1EE10FA34D8FDEEE77A17EE900A05B068
:1063A00030BDDDE9020110F1004241F10003012B93
:1063B00008BF002A28BF0020F1E7DDE90201002321
:1063C0008B426FF0004208BF824238BF0020E6E7F0
:1063D000DDE902450022104B204629460FF026F841
:1063E0000028DCD008A3D3E90023204629460FF07B
:1063F00013F80028D3D0204629460FF041F8CEE705
:106400000020CCE7AFF300800000C0FFFFFFDF41BA
:10641000000000CFFFFFFF4E0000E0C1FFFFFFFFC5
:1064200038B5057904460B46018815F0100003D0F5
:1064300003F12C00FFF76BFB043D1A2D62D8DFE857
:1064400005F02D310E61616110611461346161618B
:10645000616161616161616116612161490020785A
:1064600038BD206820EAE070FAE72068F8E7D0E954
:10647000000100238B426FF0004208BF824238BF08
:106480000020EDE7D0E9000110F1004241F10003E6
:10649000012B08BF002A28BF0020E1E72068FFF792
:1064A0005BFFDDE720680830F9E7D4ED007A9FED67
:1064B000187AF4EEC77AF1EE10FA23DB9FED157A25
:1064C000F4EEC77AF1EE10FA1CD8FDEEE77A17EE7B
:1064D000900AC5E7D0E9004500220F4B2046294627
:1064E0000EF0A4FF0028BBD007A3D3E90023204669
:1064F00029460EF091FF0028B2D0204629460EF022
:10650000BFFFADE70020ABE70000C0FFFFFFDF41AA
:10651000000000CFFFFFFF4E0000E0C1437E6BB9DB
:10652000D0E9043293423DBF5A1C02611B784FF000
:10653000FF3323EAE37303760123437690F91800CF
:10654000704738B5044600252046FFF7E7FF0A28C4
:1065500006DC092808DA48B10123237300200AE089
:106560000D2801D02028F7D16576EDE7237B002B9D
:1065700014BF0220012038BD70B505464C1E002610
:1065800014F9010F50B12846FFF7C8FF28B194F95C
:106590000030834203D16E76F2E7022070BD032003
:1065A000FCE72DE9F04387B006460D46FFF7B6FF3E
:1065B000002427462F28E3B20BDD39280BDC0134F9
:1065C000402C24D033197776D8773046FFF7A6FFD2
:1065D000F0E72B28F3D0A0F12D02D2B2012AEED998
:1065E00020F0200252B2452AE9D03344002283F839
:1065F000202006F1200102A8FFF7AEFC9DF808302C
:10660000013B032B62D8DFE803F03924043E3F232B
:10661000EBE7DDE90489B9F1010F08BFB8F1000F1C
:1066200007D20A232B71C5F80080002007B0BDE80F
:10663000F083F1696846FFF776FC009B0BB90420F4
:10664000F4E71A222A71BDF804202A80C3E90089E0
:10665000EBE7DDE9048918F1004249F10003012B61
:1066600008BF002A01D20C23DCE7F1696846FFF776
:106670005AFC009B002BE2D01C22E3E70E232B7177
:10668000049B2B60D1E7DDE90489494640460EF0C2
:106690003FFF07460EF0ECFB02460B4640464946DC
:1066A0000EF0A6FE18B10E232B712F60BDE7F16925
:1066B0006846FFF738FC009B002BC0D01E222A71D1
:1066C000BDF804202A80C3E90089AEE70320ADE7C6
:1066D00070B550F8046B07C88CB003AB16F13805E1
:1066E00083E8070002D100200CB070BD93E80700DA
:1066F00096F83C30202B06AC09AB18BF002584E887
:10670000070083E80700002DEDD000960ECB284649
:10671000FFF7ADFDE8E770B50646FFF7D9FF054680
:1067200088B10479018814F0100003D030682C304F
:10673000FFF7EDF90C2C29D006D8062C24D00A2C12
:1067400024D07CB3012070BD1A2C24D00BD80E2C81
:10675000F8D1D5ED007AF5EE407AF1EE10FA14BFDB
:1067600001200020EFE71C2C15D01E2CEAD10022BE
:106770000023D0E900014FF001040EF039FE08B10A
:106780004FF00004E0B2DEE72878DCE7286800304C
:1067900018BF0120D7E7D0E90023134314BF01201D
:1067A0000020D0E72046CEE7F8B506460F46FFF7B3
:1067B0008FFF3368054668B10479018814F0100032
:1067C00003D003F12C00FFF7A2F90C2C1AD003D848
:1067D0000A2C12D038681CE01A2C1BD01C2CF9D1C2
:1067E000D0E9002312F1004043F10001012908BF64
:1067F000002834BF0123002302E02B68DB43DB0FBA
:10680000002BE7D03046FFF763FF316808B1FFF790
:1068100007FEF8BDD0E90023002199426FF0004047
:1068200008BF90422CBF01230023E9E738B5044696
:106830000D46FFF773FEA8424FF0000004BF6076DC
:10684000012038BD7F2837B50C4605D841B2204617
:10685000FFF7CCF903B030BD00238DF8003000F015
:106860003F03800982B263F07F031F2A8DF8013055
:10687000C3B20DD863F03F038DF802300DF103056C
:1068800015F9011D0029E5D02046FFF7AFF9F7E71C
:10689000C0F3891003F03F0363F07F030F288DF8E6
:1068A0000230C3B205DC63F01F038DF8033001AD85
:1068B000E6E703F03F03801163F07F0360F00F0011
:1068C0008DF803308DF804000DF10505D8E7FFFFC2
:1068D0002DE9F0478046FFF721FE0024384E88F866
:1068E0001940074625464046FFF718FE87420146F5
:1068F00088F819505CD010B90220BDE8F0875C28F8
:1069000052D14046FFF70AFE0028F5D075283CD149
:1069100088F819504FF004094FF0000A4046FFF77D
:10692000FDFD0028E8D04028CBBF20F02002303801
:10693000373AC3B2C8BFD3B20F2B01D90320DCE76B
:1069400009F1FF3943EA0A1319F0FF091FFA83FA24
:1069500088F81950E2D10AF520539BB2B3F5806F45
:1069600002D2CAF30904BEE70AF510539BB2B3F58D
:10697000806F3DBFCAF3090A4AEA842A0AF58030CB
:1069800050464146FFF75EFFADE700239A5799193D
:10699000002AD3D0904203F10203F7D191F90110FC
:1069A0000029CBD088F819504046FFF71FF99AE725
:1069B000D8F80430002B0CBF042000209DE700BF56
:1069C000A28B010070B50E4686B00446FDF74AFE64
:1069D000B36832682568CDE9032300238DF81430AD
:1069E000064648B12946FDF70BFC009506AB13E9B6
:1069F0000E003046FDF7FCFC206810B1007980F0F5
:106A0000010006B070BDF0B587B006460C46FDF734
:106A100029FE3768054620460CB10FF078FE0023AA
:106A2000CDE903408DF8143055B139462846FDF7BD
:106A3000E7FB009706AB13E90E002846FDF7D8FCEC
:106A4000306810B1007980F0010007B0F0BD2F2848
:106A50000EDD392803DD5E2803DD7A2803DC012002
:106A60007047402804DD5A28CCBF00200120704721
:106A70000020704770B50446FFF7A8F82046FFF7DE
:106A80004DFD27281ED022281CD02046FFF746FDAA
:106A90000546FFF7DCFF98B10026294620466676BA
:106AA000FFF7A4F82046FFF739FD0546FFF7CFFFB3
:106AB0000028F2D16368002B0CBF0420002000E006
:106AC000032070BD2046FFF703FFFAE72DE9F04FE2
:106AD0005FFA83F98DB004460D46B9F1000F00F05E
:106AE0008A8000234376FFF72CFDB0B97D21204634
:106AF000FFF79CFE80B909AF2046FFF7BBFF60B9E6
:106B00002046FFF71EFD064638B93A212046FFF71A
:106B10008DFE28B9032000E000200DB0BDE8F08F05
:106B2000D4E9013213448DF82C601E72D4E901328D
:106B30000833CDE90932E369009397E80E0028464F
:106B4000FFF795FB8046002851D12046FFF764FBF4
:106B5000D4F81CB08246594605A8FDF7BEFB059E39
:106B60000EB90420D9E7594607A8FDF7B6FBDDF8B2
:106B70001C80B8F1000FF4D0C6F800A0BDF820A02A
:106B8000A6F806A069884FF6FF720523914233717B
:106B9000BDF8183029D00BF12C000393FEF7B7FF96
:106BA000039BC380A5F802A009F1FF334FF0000258
:106BB0004146204600F022F80028AED12046FFF7DB
:106BC000C0FC0028A9D17D212046FFF72FFE002818
:106BD000A2D12C212046FFF729FE00289AD020467A
:106BE000FFF7AFFC002887D097E72B80DAE7E16951
:106BF000FDF706FBD8E705208FE7FFFFF8B506464F
:106C00000C461F46FFF79DFC0546C8B93046FFF706
:106C100085FC662844D015DC272803D05B2819D0D2
:106C2000222842D13046FEF7D1FF3046FFF750FE12
:106C3000054628B93046FFF7EFFA05232371206097
:106C40002846F8BD742822D07B2812D06E282CD17B
:106C5000184921E0402323714FF6FF73238063809E
:106C60004FF000023B462146304600F029F8054629
:106C7000E6E7202323714FF6FF73238063804FF0F4
:106C800000023B4621463046FFF720FFEFE7062390
:106C900023710949012323703046FFF76DFCE6E7B5
:106CA0000623237125700549F6E721463046FFF794
:106CB00078FCDCE79D8B0100BC8B0100C18B0100DF
:106CC0002DE9F347DDB204460E46002D46D00023E1
:106CD0004376FFF736FCA8B95D212046FFF7A6FDF5
:106CE00078B94FF6FF7A013DD4F81C9068464946C2
:106CF000FDF7F3FADDF80080B8F1000F05D10420AC
:106D000000E0002002B0BDE8F0877188BDF8047093
:106D1000514521D009F12C00FEF7F9FEC78077809C
:106D20002B464FF0000241462046FFF767FF002840
:106D3000E8D12046FFF705FC0028E3D15D2120467D
:106D4000FFF774FD0028DCD12C212046FFF76EFDF3
:106D50000028C9D10320D5E73780E0E70520D1E737
:106D60002DE9F04104460E688D68016898B000F185
:106D700038070C30FFF73AF80023D4F8008023716D
:106D80003544A06828B10368A3604146FEF7FBFEC6
:106D9000F7E784F83C00CDE9004002908DF80C0044
:106DA0008DF819004FF00A034FF00002394668468B
:106DB000CDE904650794FFF721FF054640B99DF929
:106DC00018302BB194F83C3013F0080F18BF03258E
:106DD000019818B1009B1968FEF7D5FE284618B037
:106DE000BDE8F081014803F00BBC00BFB0070020F4
:106DF00010B541F27D6186B00446134803F01CFCD7
:106E00002046FEF725FF114801F030FE01F026FE76
:106E1000646802280CBF0E490E4968460AF05DFD01
:106E20006946204601F058FD68460AF00BFD6846A9
:106E3000094902F063FC094B1A68094B6846196856
:106E400001F05EF906B010BDB0070020FD70000033
:106E500014970100269701007C140020D003002025
:106E6000D40300202DE9F04F914B8FB01B680193A4
:106E700004460F469046002603F1FF39019BB342BA
:106E800040F30F8156B38B49656808A80AF025FDC9
:106E90000A22314605A80AF050FD05A908A80AF003
:106EA0001FFE85490AF028FE0A22824649460BA8A1
:106EB0000AF043FD0BA950460AF012FE014628468F
:106EC00001F00AFD0BA80AF0BDFC05A80AF0BAFC07
:106ED00008A80AF0B7FC2068FEF7F4FB774802F038
:106EE00075FB03281CD12546DFF808A255F8080BCE
:106EF000FEF7D6FB724BDAF800101A88284602F02B
:106F0000DBFD30BB65686F490BA80AF0E6FC28463C
:106F10000BA901F0E1FC0BA80AF094FC0136ADE7E7
:106F2000656869490BA80AF0D8FC0BA9284601F04E
:106F3000D3FC0BA80AF086FC2068FEF7A9FB2046CC
:106F4000FEF786FE82460028CDD150460FB0BDE840
:106F5000F08F5E4905A80AF0C0FC414605A80AF07A
:106F6000BFFD5B490AF0C8FD5A490AF0C5FDDAF8D1
:106F70000010834608A80AF0B0FC08A958460AF099
:106F8000AFFD5549DFF870B10AF0B6FD53490AF07C
:106F9000B3FD53490AF0B0FD0A228246B9680BA836
:106FA0000AF0DDFC0BA950460AF09AFD4A490AF0A6
:106FB000A3FD4C490AF0A0FD39460AF091FD0146B7
:106FC00002A80AF012FD0BA80AF03CFC08A80AF07F
:106FD00039FC05A80AF036FC02A928460AF062FB33
:106FE0000BF01EFC82460BF01BFCDBF80030A0EB24
:106FF0000A0098424CD2284602F0F6FD00284CD0F8
:10700000294605A80AF0F2FB284602F071FF36492E
:1070100008A80AF062FC08A905A80AF000FE0028EA
:1070200030DC32490BA80AF058FC0BA905A80AF07D
:10703000F6FD00280BA8D4BF4FF0000A4FF0010A5C
:107040000AF000FC08A80AF0FDFBBAF1000F1CD002
:10705000274965680BA80AF040FC41460BA80AF0D6
:107060003FFD0146284601F037FC0BA80AF0EAFB79
:107070002068FEF705FB05A80AF0E4FB02A80AF069
:10708000E1FB62E74FF0010ADCE705A80AF0DAFB52
:10709000284602F02DFF02A83EE70A200BF07CFBF9
:1070A000A1E72068FEF7F4FA4FF0000A4DE700BFB1
:1070B000D88C0100DA910100E99101007C140020D4
:1070C000E88C010012920100EE9101002E92010065
:1070D00034920100409201008C920100479201001D
:1070E00068920100799201008F920100969201004E
:1070F000A2920100CC030020CC8C01002DE9F041CC
:1071000090B03022002104A80EF015FD1D4B049311
:107110001D4B1E4E93E8070001AD85E807000024D3
:107120007B2255F82410304603F0C6FB302204A918
:10713000304603F06DFC304603F032FC0BF070FB80
:1071400041F2873807460BF06BFBC01B404514D853
:10715000304603F09DFC60B1302204A90B4803F0D7
:1071600012FA0E9B0A481BBA1844002110B0BDE861
:10717000F0810A200BF010FBE5E70134032CCFD19E
:107180000020F2E7E30006EC948F0100B007002036
:107190008081557C2DE9F04FB24BB34F00F10805CB
:1071A0000446B3B08946904639681A88284602F0EA
:1071B00083FC6668824678B9AC4912A80AF08DFB58
:1071C000304612A901F0A4FB12A80AF03BFB564678
:1071D000304633B0BDE8F08FA549DFF8D8A2DFF81C
:1071E000D8B212A80AF079FB12A9304601F090FB40
:1071F00012A80AF027FB9F49666812A80AF06DFBE7
:107200000A2241460EA80AF098FB0EA912A80AF01D
:1072100067FC99490AF070FC0146304601F05CFBBE
:107220000EA80AF00FFB12A80AF00CFB934966683F
:1072300012A80AF052FB494612A80AF051FC014676
:10724000304601F049FB12A80AF0FCFA2068FEF76C
:10725000B7FB8B490EA80AF040FB49460EA80AF07E
:107260003FFC8849DFF854920AF046FC86490AF050
:1072700043FC3968064612A80AF02FFB12A93046D3
:107280000AF02EFC81490AF037FC81490AF034FCEF
:10729000014605A80AF0A9FB12A80AF0D3FA0EA825
:1072A0000AF0D0FA05A928460AF0FCF90BF0B8FA62
:1072B00006460BF0B5FAD9F80070801BB84207D229
:1072C000284602F091FCB8B90A200BF065FAF0E705
:1072D0006468704912A80AF000FB204612A901F068
:1072E00017FB12A80AF0AEFA284602F001FE0026AB
:1072F00005A80AF0A7FA6BE70A2229460EA80AF0A9
:1073000089FA63680093514612A80AF0E6FA0EA9BA
:1073100012A80AF0E5FB009B0146184601F0DCFAD2
:1073200012A80AF08FFA59460EA80AF014FC20B3EE
:107330000EA80AF087FA6668574912A80AF0CDFA33
:1073400012A9304601F0C8FA12A80AF07BFA4046AA
:1073500000F010FFD4F80490064690B94F4912A8E7
:107360000AF0BBFA484612A901F0D2FA12A80AF0B4
:1073700069FA284602F0BCFDBAE70EA80AF062FAE4
:10738000A2E7474912A80AF0A8FA12A9484601F054
:10739000A3FA12A80AF056FA0BF042FA83460BF051
:1073A0003FFA002182462068FEF716FA284602F0CE
:1073B0001BFC78B966683B4912A80AF08EFA12A93C
:1073C000304601F089FA12A80AF03CFA4FF47A70BC
:1073D0000BF0E2F907EB470300934FF0FF3900276A
:1073E000474580F216810BF01BFA009BA0EB0B00C7
:1073F00098420ED964682C4912A80AF06EFA204609
:1074000012A901F085FA12A80AF01CFA00F0DEFEBB
:107410006AE70BF005FA42F21073A0EB0A009842FB
:1074200002D964682149E7E7284602F0DDFB00281D
:1074300000F0BA80802212A9284602F0CEFC061E77
:107440003EDC66681A490EA80AF047FA0EA93046D3
:1074500001F042FA0EA80AF0F5F964200BF09CF94D
:10746000BEE700BFE88C0100CC030020549401006B
:107470007994010095940100A3940100AA9401005D
:10748000B994010034920100409201008C920100F5
:1074900079920100BE940100EA9401000A9501006E
:1074A00032950100529501007B950100A5950100E0
:1074B000D3950100DF940100E8940100CC8C010019
:1074C0000BF0AEF93146824612A800F05FFE86420C
:1074D0002AD00090AE4964680BA80AF0FEF90A228F
:1074E000314608A80AF029FA08A90BA80AF0F8FA08
:1074F000A8490AF001FB009B0A22194606460EA87D
:107500000AF01BFA0EA930460AF0EAFA01462046B4
:1075100001F0FEF90EA80AF095F908A80AF092F910
:107520000BA80AF08FF971E73744642605237E43E0
:1075300096FBF8F696FBF3F299FBF3F39A427FF78A
:107540004FAF31462068FEF747F9636892490193CF
:107550000BA80AF0C2F90A22394608A80AF0EDF988
:1075600008A90BA80AF0BCFA8C490AF0C5FA0A224D
:10757000814631460EA80AF0E0F90EA948460AF005
:10758000AFFA87490AF0B8FA019B0146184601F0A4
:10759000A3F90EA80AF056F908A80AF053F90BA8A7
:1075A0000AF050F9B1461BE7284602F0DDFC06461A
:1075B00068BB7C4964680EA80AF08FF90A22394634
:1075C0000BA80AF0BAF90BA90EA80AF089FA7649B5
:1075D0000AF092FA0A220746414612A80AF0ADF9CB
:1075E00012A938460AF07CFA70490AF085FA014679
:1075F000204601F08DF912A80AF024F90BA80AF030
:1076000021F90EA80AF01EF900F0E0FDB1E60A200B
:1076100024E7284602F06CFC12AD666864492846EF
:107620000AF05BF92946304601F056F928460AF07F
:1076300009F900F0C3FD6768064658B95D49284658
:107640000AF04BF93846294601F062F928460AF05B
:10765000F9F84DE6584928460AF03FF929463846D8
:1076600001F056F928460AF0EDF8676853492846B4
:107670000AF033F92946384601F02EF928460AF077
:10768000E1F864212068FEF7A7F815AA1D924C4B7B
:1076900012934FF4802200231E920BA84FF6FF7224
:1076A000ADF87C20ADF886208DF84C3014938DF821
:1076B000843001F099F8434B0F93012708230BA95D
:1076C0000EA810938DF844700E95FFF77BF90BA868
:1076D0000AF0B8F83C4B0F930F2310933B4B8DF8F7
:1076E000447019680E950EA8FFF78DF9384B0F936B
:1076F00009231093374B8DF8447019680E950EA826
:10770000FFF781F9344908A80AF0E7F820ABCDE982
:10771000033503AB93E8030008AAFDF7BBFA6768DB
:107720002E490EA80AF0D9F80EA9384601F0D4F86F
:107730000EA80AF087F808A90BA80AF056F92849FC
:107740000EA80AF0CAF80EAA0BA92046FFF78AFB7A
:107750000EA80AF077F80BA80AF074F840F6B830D3
:107760000BF01AF864681F490EA80AF0B6F80EA9C3
:10777000204601F0CDF80EA80AF064F800F02CFDC8
:1077800008A80AF05FF82846FCF7D4FCB0E500BF73
:10779000F89501001F960100299601003696010018
:1077A0003F9601004296010070960100A3940100EB
:1077B0007296010084960100A2960100C496010011
:1077C000B8030020068B0100AB8C0100C40300202D
:1077D000A18C0100C8030020B48B0100D7960100E2
:1077E000218D0100F79601002DE9F041A0B010AE07
:1077F0000F464468B149054630460AF06EF83946EE
:1078000030460AF06DF90146204601F065F8304631
:107810000AF018F8AA4B109313AB1B934FF4802374
:1078200000241C9339464FF6FF7330468DF84440D0
:107830001294ADF874308DF87C40ADF87E30FFF7CF
:107840008FFAC7B2FFB19F496D680CA80AF045F8DE
:107850009D4B09A853F827100AF03FF809A90CA876
:107860000AF03EF90146284601F052F809A809F04D
:10787000E9FF0CA809F0E6FF3046FCF75BFC204668
:1078800020B0BDE8F081914F30463946FEF73EFD0D
:10789000044650B96D688E490CA80AF01EF82846B7
:1078A0000CA901F035F80CA83CE0CDE90C670F23DA
:1078B00001270CA80E938DF83C70FEF72CFF85F87D
:1078C0002800002833D1834B0D930CA807230C9676
:1078D0000E938DF83C70FEF7FBFE30B30379043B4A
:1078E000BB4222D80CA8FEF7F3FE014618B109A846
:1078F000FEF74FF9099909A809F0EFFF76496F687B
:107900000CA809F0EAFF09A90CA80AF0E9F8014659
:10791000384600F0FDFF0CA809F094FF2868FDF739
:10792000AFFE09A809F08EFFA6E76C49E3E7DFF890
:10793000E08130464146FEF7E9FC044610B96D6827
:107940006749A9E767493046FEF7E0FC044610B9ED
:107950006D686549A0E70D230CA88DF83C70CDE952
:107960000C680E93FEF7B4FE60490C9F044606A80F
:1079700009F0B3FF002C00F09780214609A8FEF71C
:1079800008F90999002900F08F8006A80AF03DF84F
:1079900005F12C0406A920460AF031F806A809F0E2
:1079A00051FF53496F680CA809F097FF21460CA8B6
:1079B0000AF096F80146384600F08EFF0CA809F050
:1079C00041FF4C496F680CA809F087FF4A4B09A892
:1079D000196809F082FF09A90CA80AF081F801468C
:1079E000384600F079FF09A809F02CFF0CA809F02F
:1079F00029FF2868FDF788FE404909A809F06DFFB6
:107A000006A800F0F1FE06A909A80AF069F83C49A9
:107A10000AF072F821460AF063F83A490AF06CF865
:107A2000394B044619680CA809F057FF0CA92046E9
:107A30000AF056F8014603A809F0D7FF0CA809F090
:107A400001FF06A809F0FEFE09A809F0FBFE254B80
:107A50000D9304230E934FF00008012309A90CA8ED
:107A60000C968DF83C30CDF82480FEF79DFE071E65
:107A70006C684FDC25490CA809F02FFF0A22394613
:107A800009A809F05AFF09A90CA80AF029F801462B
:107A9000204600F03DFF09A809F0D4FE0CA809F02B
:107AA000D1FE444603A83DE7CDE9014701AB06AA54
:107AB00093E80300FDF7EEF86AE700BFD2920100F9
:107AC000B8030020EC920100DC030020FF920100CB
:107AD0000F930100469301004E930100BD920100F7
:107AE0006C930100989301009D930100B48B0100F9
:107AF000C0930100DA930100C4030020F593010054
:107B00001694010020940100C80300202C94010069
:107B10005E93010012490CA809F0DFFE0A223946E3
:107B200009A809F00AFF09A90CA809F0D9FF0D4915
:107B300009F0E2FF0146204600F0CEFE09A809F058
:107B400081FE0CA809F07EFE4FF4FA600AF024FED4
:107B50003A4603A92846FFF71DFB0446A2E700BFEB
:107B600044940100A39401002DE9F04F4568B24907
:107B700097B0044613A809F0B0FE13A9284600F0F8
:107B8000C7FEAE4D13A809F05DFEAD49666813A8A7
:107B900009F0A3FE296810A809F09FFE10A913A8F8
:107BA00009F09EFF0146304600F096FE10A809F04D
:107BB00049FE13A809F046FE2068FDF771FDA148B3
:107BC00001F004FD032811D065689F4913A809F04E
:107BD00084FE13A9284600F09BFE13A809F032FE8C
:107BE0002068FDF755FD17B0BDE8F08F97490DA847
:107BF00009F073FE0AA800F0F7FD0AA90DA809F024
:107C00006FFF934909F078FF2968064610A809F02C
:107C100064FE10A9304609F063FF8E498E4E09F0CC
:107C20006BFF8E4B0546196813A809F056FE13A981
:107C3000284609F055FF014601A809F0D6FE13A811
:107C400009F000FE10A809F0FDFD0AA809F0FAFDF0
:107C50000DA809F0F7FD8249656813A809F03DFEFB
:107C600001A913A809F03CFF0146284600F034FEA4
:107C700013A809F0E7FD7B4B31681A8804F1080569
:107C8000284601F019FF90B96568774913A809F0F3
:107C900024FE13A9284600F03BFE13A809F0D2FDEC
:107CA0002068FDF7F5FC01A809F0CCFD9BE76F49C2
:107CB000DFF8E491DFF8E4A1DFF8E4B110A809F0FF
:107CC0000CFE01A910A809F00BFF694909F014FF87
:107CD000684909F011FF3168074613A809F0FDFD56
:107CE00013A9384609F0FCFE634909F005FF634912
:107CF00009F002FF014604A809F077FE13A809F075
:107D0000A1FD10A809F09EFD04A9284609F0CAFCAF
:107D100066685B4913A809F0E0FD13A9304600F03E
:107D2000DBFD13A809F08EFD564907A809F0D5FD23
:107D30000AF076FD534980460AA809F0CEFD0027D7
:107D40003E460AF06DFDD9F80030A0EB08009842DD
:107D500080F0E780284601F047FF002800F0AB8064
:107D60000A2229460DA809F055FD514613A809F02D
:107D7000B4FD13A90DA809F018FF064613A809F0D1
:107D800061FD002E40D04049666813A809F0A5FDAA
:107D90000DA913A809F0A4FE0146304600F09CFD91
:107DA00013A809F04FFD394913A809F096FD13A94E
:107DB0000DA809F034FF064613A809F043FD002E74
:107DC00022DA3349666813A809F087FD0DA913A8C4
:107DD00009F086FE0146304600F09AFD13A809F02E
:107DE00031FD284602F084F82068FDF751FC0DA80B
:107DF00009F028FD0AA809F025FD07A809F022FDD1
:107E000004A809F01FFD4EE759460DA809F0A3FE8E
:107E10000646002846D067681E4913A809F05DFD94
:107E200013A9384600F058FD13A809F00BFD0DA862
:107E300009F008FD374684E7E18F0100C403002004
:107E4000029001007C140020149001003E9001007B
:107E50005C90010020940100CC030020C8030020A6
:107E60006D900100E88C010080900100B994010040
:107E700034920100409201008C920100799201003D
:107E8000A3900100B48B0100C59001008F92010006
:107E9000D7900100F8900100CC8C0100BD9001004A
:107EA000E89401008FB10DA90AA809F0F8FD0DA80A
:107EB00009F0C8FC0126284602F056F808B9002E41
:107EC0002FD10A200AF068FC3BE7624910A809F0AC
:107ED00004FD10A90DA809F068FE064658B95E49D0
:107EE00013A809F0FAFC13A90DA809F05EFE0646D6
:107EF00013A809F0A7FC10A809F0A4FC002ED6D006
:107F00005649666813A809F0E8FC0DA913A809F002
:107F1000E7FD0146304600F0DFFC13A809F092FCB3
:107F2000C5E7284601F0E4FF66B965684C4913A827
:107F300009F0D3FC284613A900F0EAFC13A809F0C5
:107F400081FC69E067B30C9B53B30AA809F0CBFE30
:107F50007B210AA809F04EFE7D2105460AA809F0FA
:107F600078FE002D5CDA65683E4913A809F0B5FC7F
:107F700013A9284600F0CCFC13A809F063FC3A4989
:107F8000656813A809F0A9FC0AA913A809F0A8FDBF
:107F90000146284600F0A0FC13A809F053FC55E068
:107FA0006568324913A809F098FC13A9284600F027
:107FB000AFFC13A809F046FC2D49656813A809F029
:107FC0008CFC0A22394610A809F0B7FC10A913A8A6
:107FD00009F086FD0146284600F07EFC10A809F055
:107FE00031FC13A809F02EFC2249656813A809F09A
:107FF00074FC0A220C9910A809F0B1FC10A913A86E
:1080000009F06EFD0146284600F066FC10A809F054
:1080100019FC13A809F016FC2068FDF739FBE9E606
:108020000028A0DB431C2A460AA913A809F016FE63
:1080300013A90AA809F0E3FC13A809F003FC0AA994
:108040002046FFF7D1FB00287FF4D4AE65680A49CB
:108050006DE700BF1791010025910100DF94010039
:108060003591010091910100B691010056910100F6
:108070007391010083910100C691010010B50A4C73
:1080800088B004F13001684602F0EEF869462046F7
:1080900003F0E6FB684601F0C3FC04F160012046F2
:1080A00003F024FA08B010BD880D002010B5084C6C
:1080B000204603F053F904F130004FF47F4102F001
:1080C000C1F804F16000BDE8104002F099BA00BFA9
:1080D000880D002010B5084C084B236304F14000C4
:1080E00001F09EFC04F10C0009F0ACFB2046BDE859
:1080F000104009F0A7BB00BF880D0020809E010042
:10810000F0B5031D05460E4617460FCB8FB003ACE6
:1081100084E80F00144B089394E80F0095F814C0FE
:10812000124C8DF834C009AD85E80F00104B009358
:1081300032463B4608A9204603F026F904F13000F8
:1081400002F044F9FB23009300231A46E02108A81B
:1081500009F034F941F2E94208A904F1600002F0A3
:10816000EDFA0FB0F0BD00BFCCA50100880D0020D6
:10817000DC160020014608B5034803F039F800304A
:1081800018BF012008BD00BFDC1600202DE9F0411A
:10819000094F054600EB010804464445A4EB0506DB
:1081A00006D014F8011B384603F05CF80128F4D01F
:1081B0003046BDE8F08100BFDC16002008B502485B
:1081C00003F03EF8012008BDDC160020014803F052
:1081D00037B800BFDC160020014803F08DB800BF9F
:1081E000DC1600200E224260084A8260084AC26003
:1081F000084A02614FF07C524261074A0160826185
:108200004FF4F0711422C0E90712704700001041CA
:108210000000E0403333333F00005041FFFFFFFFD9
:10822000F0B52DED028B05468DB0007908F0CAFE41
:108230000A2604460227287908F0C4FE04440120D7
:108240000AF0AAFA94FBF7F4013EF4D120460CF0B0
:10825000FDFD2DA3D3E900230CF062FE0DF058F9CB
:10826000642C08EE100A3EDD23492E6803A809F0AD
:1082700034FB0A222146684609F05FFB694603A8E1
:1082800009F02EFC1D4909F037FCB0EE480A0446FF
:10829000032106A809F0C3FB06A9204609F020FC2B
:1082A000174909F029FC95ED060A044628EE000A54
:1082B000012109A809F0B3FB09A9204609F010FC27
:1082C000104909F019FC0146304600F005FB09A8E9
:1082D00009F0B8FA06A809F0B5FA684609F0B2FA4A
:1082E00003A809F0AFFAB0EE480A0DB0BDEC028B5E
:1082F000F0BD00BFAFF30080A8970100BA9701005E
:10830000C6970100D29701006D1AD0A6016D6A3F91
:1083100013B50446FFF784FFDFED117AD4ED046A4C
:1083200094ED057A66EEA76A27EE277A20EE270AF3
:10833000FDEEE67A642317EE902AFDEEC77A0093ED
:1083400017EE901AFDEEC07A002317EE900A08F09F
:1083500057FF6428A8BF642020EAE07002B010BD77
:1083600000007A4410B50446FFF7D2FFE369584392
:10837000642390FBF3F010BD10B50446FFF7C8FF6F
:10838000236A9842ACBF0020012010BD2DE9F041C6
:108390002DED028B044690B0002100790AF0C0F860
:1083A0002046FFF73DFF2046B0EE408AFFF7B0FFC2
:1083B00080462046FFF7D6FF32492568074604A8C5
:1083C00009F08BFAB0EE480A022101A809F027FB58
:1083D00001A904A809F084FB2B4909F08DFB94ED59
:1083E000060A064628EE000A012107A809F017FB35
:1083F00007A9304609F074FB244909F07DFB0A22E5
:10840000064641460AA809F098FA0AA9304609F03A
:1084100067FB1F4909F070FB0A22064639460DA882
:1084200009F08BFA0DA9304609F05AFB194909F0F9
:1084300063FB0146284600F04FFA0DA809F002FA46
:108440000AA809F0FFF907A809F0FCF901A809F04A
:10845000F9F904A809F0F6F92046FFF78DFF58B1A5
:1084600024680D490DA809F038FA20460DA900F03E
:108470004FFA0DA809F0E6F910B0BDEC028BBDE88B
:10848000F08100BFD5970100C6970100EF9701006A
:10849000F3970100FE970100119801002DE9F043C8
:1084A0002DED028B8BB00446FFF7BAFE2046B0EEEE
:1084B000408AFFF72DFF06462046FFF753FF256849
:1084C0005249074607A809F008FA07A9284600F00C
:1084D0001FFA07A809F0B6F94D49256807A809F061
:1084E000FCF9B0EE480A032104A809F098FA04A99F
:1084F00007A809F0F5FA474909F0FEFA01462846AF
:1085000000F0EAF904A809F09DF907A809F09AF922
:108510004149256807A809F0E0F994ED060A012110
:1085200028EE000A04A809F07AFA04A907A809F0BD
:10853000D7FA384909F0E0FA0146284600F0CCF9AC
:1085400004A809F07FF907A809F07CF933492568E8
:1085500007A809F0C2F90A22314604A809F0EDF98A
:1085600004A907A809F0BCFA2D4909F0C5FA01468B
:10857000284600F0B1F904A809F064F907A809F049
:1085800061F92849D4F8008004A809F0A6F93C262E
:108590000A2297FBF6F501A8294609F0CEF901A9B0
:1085A00004A809F09DFA204909F0A6FA0A2281469A
:1085B00006FB157107A809F0C0F907A9484609F09C
:1085C0008FFA1A4909F098FA0146404600F084F9FA
:1085D00007A809F037F901A809F034F904A809F04F
:1085E00031F92046FFF7C8FE58B12468104907A8A2
:1085F00009F073F9204607A900F08AF907A809F0E5
:1086000021F90BB0BDEC028BBDE8F0832698010088
:1086100035980100508D01004898010063980100D1
:108620002E8C01006C980100829801006A9701006D
:108630001198010038B50D46044904460623162258
:10864000097802F041FC6561204638BDD08C0100FC
:1086500070B52DED028B8AB045693A49044607A8EA
:1086600009F03BF907A9284600F052F907A809F0DC
:10867000E9F83721204602F02DFC4FF4FA600AF0A9
:108680008BF800221146204602F0CAFC0021204649
:10869000F0EE408A02F060FDF4EE688AF1EE10FA26
:1086A000B0EE408A656940D6B4EE400AF1EE10FAA9
:1086B0003BD6254904A809F010F9B0EE680A02215A
:1086C00001A809F0ACF901A904A809F009FA1F49A9
:1086D00009F012FAB0EE480A0646022107A809F08E
:1086E0009EF907A9304609F0FBF9194909F004FA87
:1086F0000146284600F0F0F807A809F0A3F801A801
:1087000009F0A0F804A809F09DF86469114907A8C8
:1087100009F0E3F807A9204600F0FAF807A809F0E5
:1087200091F80AB0BDEC028B70BD0B4907A809F0A7
:10873000D4F8284607A900F0EBF807A809F082F85A
:10874000E3E700BF859801009D980100B4980100FF
:108750002E8C010001990100C398010000221146EE
:1087600002F05EBC002102F0F7BCFFFFF0B587B05D
:1087700001AD29461248134F134E00F0CBFE1349AA
:10878000114809F042F900242B5D0F2B03D839461C
:10879000304609F095F91022295D03A809F0BCF8CC
:1087A00003A9304609F07BF9013403A809F04AF81F
:1087B000062CE9D1044809F08AFA07B0F0BD00BFE1
:1087C0007C140020BA8B0100C4130020B48B01007C
:1087D00010B5044C23781BB9FFF7C8FF01232370A1
:1087E00010BD00BFC0130020064B1B7810B5044617
:1087F0000BB9FFF7EDFF0449204609F0F6F82046D3
:1088000010BD00BFC0130020C4130020204B1B78F4
:10881000F7B50BB9FFF7DCFF1E491F481F4E1E4D71
:108820001F4F08F05DFF1F491B4808F059FF1E4904
:10883000194808F03CFF1D49174808F047FF6946F2
:108840001B4800F067FE1B49134808F030FF002466
:108850001DF804300F2B03D83146284608F027FFB7
:1088600010221DF80410284608F09DFF052C03D0A7
:108870003946284608F01BFF0134062CE8D106488B
:1088800008F01EFF0749044808F02AFF03B0F0BDB6
:10889000C013002018990100AC180020BA8B010009
:1088A0000B9B01002C9901003F990100C41300208B
:1088B0007C140020579901000149024809F00DB8C5
:1088C000B48B0100C4130020014808F0BBBF00BFF7
:1088D000C41300207047FFFF014808F0F7BE00BF37
:1088E000AC180020F8B50849084E0546174608F0B0
:1088F000F4FF0024BC4205DA3146284609F0E0F8CE
:108900000134F7E72846F8BDB48B0100A5A20100A9
:10891000F0B5224C8A68224D224E87B00F460146A0
:108920006846FFF7DFFF214603A808F0D6FF694637
:1089300003A809F0D5F8214609F0DEF801462846DB
:1089400008F0C4FE03A808F07DFF314603A808F034
:10895000C4FF394603A809F0C3F8314609F0CCF842
:108960000146284608F0B2FE03A808F06BFF214636
:1089700003A808F0B2FF694603A809F0B1F8214640
:1089800009F0BAF80146284608F0A0FE03A808F04E
:1089900059FF684608F056FF07B0F0BD6599010021
:1089A000AC18002068990100014807F05FBF00BFC4
:1089B000AC18002008B5074B1860074B1B6818441B
:1089C000064B1860064B02221A7009F029FF054B6E
:1089D000186008BDDC130020F4030020D41300202D
:1089E000D8130020D013002038B5164D164C09F0CE
:1089F00017FF2B68C01AB0F57A7F06D3226803F5FB
:108A00007A73013222602B60F1E7104D23682A68E7
:108A10009A4208D80E4B1B682BB1984750EA0103C5
:108A200004D0FFF7C7FF2068002138BD094A23683A
:108A300012681344084A2B601378003318BF0123CF
:108A40001370F0E7D0130020DC130020D4130020B3
:108A5000E0130020F4030020D813002008B5FFF72E
:108A6000C3FF014B187808BDD8130020034B1860D2
:108A7000034B1A68034B1A60FFF7B6BFE0130020E0
:108A8000DC130020D413002008B50368002B02DAA1
:108A900009480CF07BF88B4208D949008B4205D27B
:108AA0000029B6BF6FF00043016003600068BDE8B5
:108AB000084001300CF053B87C9A010010B5044610
:108AC000406828B163781BB940F2AC410CF036F82D
:108AD000204610BD08B4F3B507AB044600F10C0501
:108AE00053F8042B0193802128460DF0B3FFD4F8EE
:108AF0009000A8B194F89430012B11D90F4908F0D7
:108B0000D6FDD4F89060336828465F680DF0FFFD0D
:108B1000294602463046B847D4F8900008F0D0FD08
:108B2000284664680DF0F3FD29460246204607F00A
:108B3000B3FF02B0BDE8F04001B07047CC9901002E
:108B4000034653F8080B984201D00BF0F5BF70476D
:108B5000F8B50646456808460F460DF0D8FDA84210
:108B6000024628BF2A46044622B1394630680CF036
:108B7000AFFF00B9281BF8BD012A30B404D191F928
:108B80000030037030BC7047002AFBD030BC0CF0C2
:108B9000AEBFFFFF00F1080373B5044603600D4646
:108BA000D1B108460DF0B3FD0F280646019006D955
:108BB000002101A8FFF768FF019B2060A3603246F7
:108BC00029462068FFF7D8FF019B226863600021D7
:108BD0002046D15402B070BD01480BF0D1FF00BF58
:108BE000949A01002DE9F347DDF828801646426883
:108BF0009A46A8EB0603571A13440268019300F142
:108C000008039A420D46044614BF81680F2101A84B
:108C1000FFF73AFFBF1B81461DB12A462168FFF7C7
:108C2000ABFFBAF1000F08D0B8F1000F05D04246F3
:108C3000514609EB0500FFF79FFF47B121682E441D
:108C400005EB08003A4631444844FFF795FF2046BB
:108C5000FFF776FF019BC4F80090A36002B0BDE867
:108C6000F087F7B50268466800F108039A4218BF1A
:108C7000836806F1010508BF0F239D4204460F4695
:108C800006D90123009300231A463146FFF7AAFFB5
:108C900023689F552368656000225A5503B0F0BDD4
:108CA000012A30B404D191F90030037030BC704710
:108CB000002AFBD030BC0CF025BFFFFF2DE9F74F99
:108CC0008146144640680C9E02F10042013A121A95
:108CD0009642984602D937480BF058FF4A46A6EB11
:108CE000040B52F8083B934218BFD9F808200BEB4D
:108CF000000A08BF0F22524552D35F189845A0EBD7
:108D00000101A1EB040522D3034498451FD876BB8B
:108D100095B1B44210D02A463919B819FFF7C0FFEF
:108D2000B44209D23C4408EB06039C4227D33246A6
:108D300041463846FFF7B4FFD9F80030C9F804A01F
:108D40000022484603F80A2003B0BDE8F08F35B191
:108D5000B44204D02A463919B819FFF7A1FF002EF2
:108D6000EAD0324641463846FFF706FFE4E7B44210
:108D70001DD3324641463846FFF792FFC8E74445C7
:108D800003D8324608EB0B01EDE7A4EB08042246BA
:108D900041463846FFF784FF321BB9193819E3E71B
:108DA0000096434622464846FFF71CFFC4E7002DC5
:108DB000B8D0B0E7639A010037B5044608460D46BF
:108DC0000DF0A5FC2B460090626800212046FFF7BD
:108DD00075FF03B030BDFFFF2DE9F04F8FB00AAB38
:108DE00002910646089398490298002309938DF84A
:108DF00028309246FFF7ACFE031C0490D6F8900092
:108E000018BF0123069328B196F8943013B18F4907
:108E100008F04DFC09F004FD4FF000080123DFF8D5
:108E200054B205904746CDF80480CDF80C809946A1
:108E30004446079309F0F4FC059BB268C01A9042BF
:108E400000F21A81079B5BB1706802681269904753
:108E5000079B0028EDD0706803685B69984745B2AE
:108E6000D6F8900038B196F8943023B10A2D24D169
:108E7000774908F01CFCD6F8900060B196F8943061
:108E8000022B08D9734908F012FC0A222146D6F8B1
:108E9000900008F071FC631E072B29D8DFE813F05F
:108EA0003A005C007E008A008D00B7002B01A20012
:108EB000092C00F0E3800123BBE70D2D01D16649A9
:108EC000D7E7202D01D16549D3E71F2D0CDC64497C
:108ED00008F0EDFB29460A22D6F8900008F065FC60
:108EE0006049D6F89000C4E7294608F0E4FBC2E7E1
:108EF0002B2D05D1294608A8FFF7B3FE0124DAE798
:108F00001BF90730AB4240F09C80DDF81880013738
:108F10000824D0E73A2D294608A801D03D2D3AD1A2
:108F2000FFF79FFE049B8BB1029B099A5B689A42F4
:108F300006D15AB1029B089819680CF0C9FD28B1F6
:108F4000494908A8FFF738FF4FF001084649504645
:108F5000FFF732FF0224AEE77C2D0ED1DAF80000D5
:108F60000CF0FDFC0023CAF80430DAF8003003905E
:108F70004FF000021A7003249DE70D2D00F0B2801F
:108F80000A2D00F0B18096F88C3013B1202D00F03E
:108F9000AD8029465046FFF764FE8CE729465046CF
:108FA000FFF75FFE019B039A01330193934208BFD1
:108FB000052480E70A2D08BF05242C495046FFF7F9
:108FC000C7FD60B12A495046FFF7C2FD002804BF23
:108FD0004FF0010909244F2D2AD1012798E7814636
:108FE0000924F8E71BF907207B1C58460793AA427F
:108FF00018BF07240DF08BFB079B984270D10746E2
:109000004FF00009B8F1000F19D1092436E01BF91F
:1090100007207B1C58460793AA4218BF07240DF06F
:1090200076FB079B98425BD107464FF00109E9E7C1
:10903000B8F1000F3FF43CAF092C7FF43CAF4FF088
:109040000008002437E700BF1D9A01002A9A01009A
:10905000309A01004B9A0100359A01003A9A0100BA
:109060003F9A0100339A0100B48B010093920100F2
:109070009D990100419A01004FF00309D6F8900034
:10908000B8B196F89430022B13D91E4908F00FFBA3
:109090000A222146D6F8900008F06CFB1A49D6F84F
:1090A000900008F004FB0A224946D6F8900008F028
:1090B00063FBD6F89000012386F88C3048B196F80F
:1090C000943033B1114908F0F2FAD6F8900008F064
:1090D000F7FA08A8FFF734FD48460FB0BDE8F08F57
:1090E0001F46E8E60424E6E60524E4E6B8F1000FAE
:1090F0007FF4E1AE9DE6002398464FF002091C463E
:1091000097E600BF469A0100539A0100599A010060
:1091100030B50446406803688DB05B68984706AA7E
:109120001D496846FFF736FD08AB069306AA0023E3
:109130006946204607938DF82030FFF74DFE05461F
:10914000D4F8900088B194F89430012B0DD91349CC
:1091500008F0ADFA0699D4F8900008F0C1FA7DB98C
:109160000F49D4F8900008F0BBFA06A8FFF7E8FC16
:109170006846FFF7E5FCB5FA85F040090DB030BD53
:10918000012DD4F8900001D10649ECE7032D0CBF66
:1091900005490649E7E700BF1D9A01006A990100E9
:1091A0008499010092990100A3990100B6990100E8
:1091B00008B42DE9F3431646044609AB306853F86A
:1091C000042B0193884604F10C05002171600170A5
:1091D000802128460DF03EFCD4F89000B0B108F094
:1091E0006FFA2449D4F8900008F061FAD4F890702E
:1091F0003B682846D3F804900DF089FA29460246C8
:109200003846C847D4F8900008F05AFA28466768EC
:109210000DF07DFA29460246384607F03DFC3246FD
:1092200041462046FFF7D8FD0546D4F8900068B1C6
:10923000114908F03CFA3168D4F8900008F050FA6F
:1092400065B90E49D4F8900008F04AFAB5FA85F0ED
:10925000400902B0BDE8F04301B07047012DD4F8D9
:10926000900001D10649EFE7032D0CBF05490649DF
:10927000EAE700BF079A0100119A010084990100F2
:1092800092990100A3990100B69901002DE9F043DC
:109290000446406891B01646002834D02378002B4D
:1092A00031D10368194DDB69DFF86C90DFF86C8011
:1092B000174F98470AAA174904A8FFF76BFC606884
:1092C0000368DB6898474FF4FA72AA602378A3B961
:1092D000002E12DD03AA49460AA8FFF75BFC3B46B5
:1092E00004AA0AA9CDF800800848FFF761FF2070A2
:1092F0000AA8FFF725FC013EE8E742F2107304A834
:10930000AB60FFF71DFC11B0BDE8F083E413002053
:10931000D7AC0100B48B0100E4990100F49901007D
:10932000074B084858600022012142F210701A7061
:109330005970986083F88C1083F89420704700BFB0
:10934000E4130020042200200148FFF7B7BB00BF50
:10935000E413002008B50368002B02DA09480BF07B
:1093600015FC8B4208D949008B4205D20029B6BFB3
:109370006FF00043016003600068BDE80840013001
:109380000BF0EDBB7C9A010073B542F210730360E1
:1093900000F5F8730025C0F8E831012600F50273E6
:1093A000044680F8E451C0F8EC5180F8F051C0F860
:1093B0000032C0F8045280F8085204230096A82214
:1093C000C02100F5067007F0F9FF33460096A82289
:1093D000C02104F50C7007F0F1FFFF2300951A4639
:1093E000194604F5127007F0E9FF204602B070BD7F
:1093F00073B505460E4619B912B10D480BF0C0FB06
:10940000941B0F2C019406D9002101A8FFF7A2FF9D
:10941000019B2860AB60224631462868FFF7ACFB11
:10942000019B2A686B600021D15402B070BD00BF5F
:10943000949A01002DE9F04F91F902303A2B89B04E
:109440004FD191F905303A2B4BD191F908303A2B95
:1094500047D191F90B303A2B43D191F90E303A2B89
:109460003FD10C46451E01F112070DF110094FF0D6
:10947000000AA21C214602A8CDF80890FFF7B8FF09
:10948000029E0CF075FAD0F800B00CF071FA1022C0
:10949000C0F800A001A930460DF08CFA019B9E4255
:1094A000804602D110480BF06EFB0CF061FA0368A5
:1094B000222B02D10C480BF06CFB0CF059FA03681C
:1094C0001BB90CF055FAC0F800B005F8018F02A8DE
:1094D0000334FFF735FBA742CBD1012009B0BDE82B
:1094E000F08F0020FAE700BFBE9A010038B500F106
:1094F0000803044603600D4649B108460DF007F91C
:109500002A1820462946FFF773FF204638BD4FF042
:10951000FF32F6E730B58FB00C4602A82249FFF7BC
:10952000E5FF03224FF4E1312048FFF7AFFE204969
:1095300008A8FFF7DBFF1F4B009302AA1E4B1B4836
:1095400008A9FFF735FE054608A8FFF7F9FACDB1DF
:1095500002980CF004FA01281AD1184908A8FFF75C
:10956000C5FF174B009302AA134B104808A9FFF739
:109570001FFE054608A8FFF7E3FA1DB10299204631
:10958000FFF758FF02A8FFF7DBFA20460FB030BD07
:1095900002980CF0E4F90228F4D10A4908A8FFF770
:1095A000A5FF094BDEE700BFB48B0100E4130020E8
:1095B000369B0100419B0100D7AC0100049B0100D8
:1095C0000D9B01001A9B0100269B010010B5032290
:1095D0008CB04FF4E1311148FFF758FE104968464E
:1095E000FFF784FF0F4906A8FFF780FF0E4B0B48DB
:1095F0006A4606A9FFF7DCFD044606A8FFF7A0FAB5
:1096000034B1012009F0C8F800980CF0A8F9C4B2F0
:109610006846FFF795FA20460CB010BDE413002011
:10962000B48B01009E9B0100AA9B0100F0B591B094
:1096300004460E4604A82849284D1746FFF756FF52
:1096400003224FF4E1312648FFF720FE25490AA8FE
:10965000FFF74CFF01230193234B00930AA9234BEF
:109660001F4804AAFFF7A4FD0AA8FFF769FA2049DA
:109670000AA8F7B9FFF73AFFCDE900561D4B184885
:1096800004AA0AA9FFF794FD05460AA8FFF758FAAD
:10969000DDB109F0C5F8054609F0C2F82368401BA2
:1096A000984212D22046FFF791FF0328F4D10446D6
:1096B0000CE0FFF71BFFCDE9016700950E4B084852
:1096C00004AA0AA9FFF774FDDEE7042404A8FFF743
:1096D00037FA204611B0F0BDB48B0100879B010022
:1096E000E4130020369B01006F9B0100689B010082
:1096F0007C9B0100EE9A0100949B010070B503224F
:109700008EB005464FF4E1312848FFF7BFFD002435
:10971000274902A8FFF7EAFE234622462146009485
:10972000284607F04BFE234908A8FFF7DFFE224B2F
:10973000009302AA214B1D4808A9FFF739FD0646F0
:1097400008A8FFF7FDF9D6B102980CF008F9012836
:109750001BD11B4908A8FFF7C9FE1A4B00930194BF
:10976000194B124802AA08A9FFF722FD044608A8CF
:10977000FFF7E6F91CB10299284607F041FF02A85D
:10978000FFF7DEF928460EB070BD02980CF0E7F83E
:109790000228F4D10D4908A8FFF7A8FE0C4B034896
:1097A00002AA08A9FFF704FDE0E700BFE4130020C8
:1097B000B48B0100369B0100419B0100D7AC010036
:1097C000259C01002D9C0100689B01000C9C010060
:1097D000179C010010B5104C10498CB06846FFF77B
:1097E00085FE032220464FF4E131FFF74FFD0C497F
:1097F00006A8FFF77BFE0B4B6A4606A92046FFF73B
:10980000D7FC044606A8FFF79BF96846FFF798F9CE
:1098100020460CB010BD00BFE4130020B48B010043
:10982000C49A0100D19A01000148FFF7ADBD00BF05
:109830007C14002010B5054C04F50070FFF780F98A
:1098400004F5F470FFF77CF910BD00BF7C14002014
:10985000002070470069013018BF0120704708B52B
:1098600003685B6B984780F00100C0B208BD13B578
:1098700002AB026803F8011D546819460122A04793
:1098800002B010BD07B5036801225B6A0DF1070144
:10989000984701280CBF9DF807004FF0FF3003B038
:1098A0005DF804FB00690B69C31A584258417047C0
:1098B00070470020704740F20C41C0680BF03EB981
:1098C00010B5102104460BF039F9204610BD08B53B
:1098D000FFF7F6FF08BD7FB503680446164601A8EA
:1098E0001D6A07F0CDFD324601992046A84704467F
:1098F00001A807F0A7FF204604B070BD036810B5AB
:1099000004469B689847A368013BA3602BB9236872
:109910002046DB68BDE81040184710BD00F1080381
:1099200070B5044603600E46B1B108460CF0EFFE78
:109930000F28054604D901300BF011F9A56020600D
:10994000012D20680BD196F9003003702368656003
:1099500000225A55204670BD04480BF011F9002D25
:10996000F4D02A4631460CF0C2F8EFE7949A010091
:10997000036813B962B6BFF36F8F704713B5EFF387
:10998000108300930123019372B6019B5A1E01922A
:1099900033B104686846FFF7EBFF204602B010BD04
:1099A0006846FFF7E5FFF8E713B50446EFF31083C9
:1099B00000930123019372B6019B5A1E01926846DF
:1099C00033B1FFF7D5FF601CC0F3090002B010BD32
:1099D000FFF7CEFFFAE7FFFF0023C0E905334FF49E
:1099E0007A72C0E90132C3610B6903618B698361DB
:1099F000CB69044A02601BB15A6801325A60C361E4
:109A0000704700BFD09D010010B50446006828B122
:109A10004368013B43600BB9FFF770FF204610BD60
:109A200010B5044B044640F81C3BFFF7EDFF204601
:109A300010BD00BFD09D010030B50369002B8FB071
:109A4000044607DB0368DB6A984718B92368204699
:109A50009B6A98472369013321D1124902A8FFF775
:109A60005DFF03224FF4E1310F48FFF70FFC0F4970
:109A700008A8FFF753FF0E4B009302AA0D4B0A48AC
:109A800008A9FFF795FB054608A8FFF759F81DB18F
:109A900002980BF064FF206102A8FFF751F80FB0A5
:109AA00030BD00BFB48B0100E4130020A99D01006C
:109AB000B79D0100D7AC010070B5044692B00D46C9
:109AC0001646FFF7B9FF2369002B25DB1E4906A8C0
:109AD000FFF724FF03224FF4E1311C48FFF7D6FBC8
