:10400000007F0020CDF0000075EF0000C9F0000037
:10401000C9F00000C9F00000C9F00000C9F00000BC
:10402000000000000000000000000000C9F00000D7
:10403000C9F0000000000000C9F00000C9F0000055
:104040000000000000000000000000000000000070
:104050000000000000000000000000000000000060
:104060000000000000000000000000000000000050
:104070000000000000000000000000000000000040
:104080000000000000000000000000000000000030
:104090000000000000000000000000000000000020
:1040A0000000000000000000000000000000000010
:1040B0000000000000000000000000000000000000
:1040C00010B5054C237833B9044B13B10448AFF352
:1040D00000800123237010BD700600200000000046
:1040E00070AE010008B5034B1BB103490348AFF3A1
:1040F000008008BD000000007406002070AE0100C2
:104100000846114612F01CB9084611F057BB084684
:1041100011F04CBB4FF6FF7399421FBF0368CA09E9
:1041200003EBC20301F07F011ABF586800EBC10026
:10413000002070472DE9F84F05680446A16831B1A9
:104140000B68A3602B6828465B689847F6E72668EB
:1041500004F10C0B0D468946228EE76AABB29A42F7
:104160000FD907EBC3089A46D8F8041019B1336881
:1041700030465B68984747F83A900135C8F8049094
:10418000EAE700232386BB454FF6FF73A38604D0DE
:10419000336839465B68304698472046BDE8F88F5B
:1041A00038B5C588044601F12C002946FFF7B2FF57
:1041B000A580206008B1C388E38038BD38B5436A64
:1041C000034400251D710446011D00680DF06BFBC2
:1041D00000B16562606A38BD38B5436A01331F2B90
:1041E00004460D4606D8636A5A1C62621C440120CC
:1041F000257138BDFFF7E2FF0028F4D00020F8E772
:104200000379DA072DE9F04705460C4611D5016818
:10421000A36800226BB1994232D18B882068013BA0
:104220009BB28B802BB90B6842B3136003685B6849
:1042300098472E79F30608D52F8804F12C003946CB
:10424000FFF768FFA38E0380A78616F0600F1CD0CF
:104250002E884FF6FF7A04F12C09564513D03146CB
:104260004846FFF757FF21460746B0F80680FFF79C
:10427000C7FFA38E3B80A6864646EEE7A360D5E740
:104280001A461B68C6E72E806E8000232B71BDE89E
:10429000F087C0E900120822826001220273704791
:1042A0008B8C30B5013B0D6A9AB205EBC204616894
:1042B00049B1638835F832509D4204D95D1C11EB39
:1042C000C301658005D1002303604FF6FF7383802F
:1042D00030BD016003EBC213F9E72DE9F74F8D8E76
:1042E0004FF6FF739D4206460C460ED0294604F158
:1042F0002C00FFF70FFF0388A386002303714FF6FE
:10430000FF73C3803060B58061E00B8E0F6801F1F0
:104310000C0843B168464146FFF7C2FF009810B150
:10432000BDF80450E9E7228E638E934218D1B3F5AD
:10433000007F45D05B009DB2E36A396898454FEA3B
:10434000C50235D10B68384611469847814600288A
:1043500036D02022414611F0AAFAC4F82C90658686
:10436000B4F83090D4F82CB009F101039BB2B3F546
:10437000007F23863B680CBF7F258025E9001B68F2
:10438000384698470BEBC90A002808BF00250023D0
:10439000CAF8040041462BF839506846AAF80230A2
:1043A000FFF77EFF0098BDF804500028A5D107E074
:1043B000D1F8089038461946C84781460028CCD124
:1043C00001232371002333604FF6FF73B38030461F
:1043D00003B0BDE8F08F07B50368082203EBC10105
:1043E000684611F064FA9DED000B03B05DF804FB24
:1043F000F0B585B0064604A800E90E00DDE90175B8
:104400000A983468B4B1E188A9420BD100239942DB
:104410000AD0E21817F903C092F90820944501D197
:104420000133F4E72468EDE7A3880133A380204635
:1044300005B0F0BDB5F5803FF9D209216918F6D273
:1044400003681B6898470028F1D001238380C5804A
:1044500000F10803AC4203D03A571A550134F9E78A
:104460000444002323723368036004463060DEE7AF
:10447000F8B5054616460C468F18BC4205D014F810
:10448000011B2846FFF7A8FEF7E7AB6A3344AB628F
:10449000F8BD38B5054608460C4612F018F8214616
:1044A00002462846FFF7E4FF38BD2DE9F04186B00B
:1044B0000DF11604054616461F46A04630463946FD
:1044C0000A22002310F0A4FF303204F8012D00234B
:1044D000304639460A2210F09BFF06460F4656EA40
:1044E0000703EBD1A8EB040221462846FFF7C0FFE3
:1044F00006B0BDE8F0812DE9F04796B003AD85E840
:104500000E00814695E807000AAE1E9C86E80B0067
:104510008046F0B910904FF6FF73ADF84430109B11
:104520002BB1214610A8FFF73BFE109E6EB995E80F
:1045300007000DF1340888E80700214606A8FFF7B8
:10454000CCFE069D002D49D10026304616B0BDE8B0
:10455000F087B9F800600B9F314604F12C00FFF79B
:10456000D9FDADF850601390B0B1C388ADF85230AA
:104570004FF0010A139B7BB3BAF1000F25D01A79D3
:10458000042A0CD0052A1BD0FFB913AA92E8030015
:1045900010AB83E80300C2E74FF6FF73E6E71E683F
:1045A00030460EB111F093FF87420ED10023BB427B
:1045B000EBD018F90310F256914206D10133F6E719
:1045C0001B6803F10806D888EEE7214613A88AF095
:1045D000010AFFF7E5FDCDE710939CE7214608A807
:1045E000FFF77BFE089E002EAED098E807000D9BDB
:1045F00010AF87E80700002BA6D09DF83C20B2B191
:1046000004222A712B60BDF82470EF80B9F80210E3
:10461000BDF81C804FF6FF73994218D004F12C00AE
:10462000FFF778FDA0F80680A9F802708DE797E8FB
:10463000070013AB83E80700226800920ECB04F159
:104640000800FFF7D5FE28B9012323717CE7A9F8FC
:104650000080E9E705232B712860D4E770B5036873
:1046600013F1380686B002D1002006B070BD021DDD
:1046700007CA03AC84E8070002460028F4D093F888
:104680003C1071B9202183F83C104FF6FF71198757
:1046900059870392009394E80E003046FFF72BFFF2
:1046A000E3E72029F5D0DFE72DE9F0418CB0804623
:1046B0000D46FFF7D3FFD8F80070064628460DB127
:1046C00011F005FF0023CDE903508DF81430BEB181
:1046D00039463046FFF794FD03AB93E8070006AC7C
:1046E00084E8070065B109AB83E807003A680092E7
:1046F0000ECB07F10800FFF77BFE50B901233B7199
:10470000D8F8000010B1007980F001000CB0BDE8CD
:10471000F081052333713060F2E710B52DED028B87
:104720000446B0EE408AFFF799FF2168044630B195
:10473000FFF766FD0E23237184ED008A0120BDEC96
:10474000028B10BD38B504460D46FFF787FF216880
:10475000044628B1FFF754FD0C2323712560012086
:1047600038BD10B50446FFF737FDA36A1844A062B0
:1047700010BDFFFF2DE9F0410D46222116460446EB
:10478000FFF7EFFFDFF850802E44B54215D015F942
:10479000011B104B13F9027CAFB1023313F9032C48
:1047A0008A42F7D15C212046FFF7DBFFF9B20DE02A
:1047B00041462046FFF76DFEE7E722212046FFF73E
:1047C000D0FFBDE8F0810029F2D0C9B22046FFF742
:1047D000C8FFDAE7488801005588010070B5002A53
:1047E0001D4675F100030646144605DA2D21FFF734
:1047F000B8FF644265EB450522462B463046FFF77D
:1048000054FE70BDFFFFFFFF2DE9F04F5BEC10ABD6
:104810008BB007460D4610EE102A5B4610EE100ACC
:10482000594610F0C5FC30B9AF493846FFF731FEA4
:104830000BB0BDE8F08F002200235046594610F01F
:10484000B7FC68B952465B465046594610F092F89C
:1048500002460B465046594610F0AAFC0028E3D108
:10486000002200235046594610F0ACFC30B12D21F7
:104870003846FFF776FF0BF100439B460123019377
:104880002C460A2324B1019A5A43013C0192F9E7CC
:1048900091A3D3E900235046594610F0A7FC002805
:1048A0006AD0DFF850924FF008084FF48076414606
:1048B00004A8CDF81090FFF78EFD52465B4651ECF0
:1048C000100B10F089FC78B1884B0493414604A882
:1048D000FFF781FD5046594653EC102B10F000FABB
:1048E000344482468B4624B218F1FF384FEA6606FC
:1048F000DDD2CDF80C80002200235046594610F03E
:104900007FFC00283DD076A3D3E9002350465946CA
:1049100010F062FCA8B300230293DDE90223A3EBAD
:10492000020919F0800F2CD10DF128086F4B48F8BF
:10493000183D49464046FFF74EFD00226C4B51ECB6
:10494000100B10F0CDF952465B4610F059FC78B1CF
:10495000684B049349464046FFF73DFD5046594693
:1049600053EC102B10F0BCF9A41B82468B4624B2EA
:10497000029B76100133CFE708234FF48076039330
:10498000B9E75046594610F083FC0A220646034612
:10499000092B08D9B3FBF2F3013D0199B1FBF2F108
:1049A0006DB20191F4E7304610F020F902460B4653
:1049B000504659460FF0DCFF80460198894610F0BA
:1049C00015F902460B464046494610F089F98046E3
:1049D000894610F05DFC824610F008F902460B464D
:1049E000404649460FF0C4FF0B4602460FF0C2FF97
:1049F00010F04EFC019B0AEB0008434508D8013635
:104A000094B1092E10D9013424B24FF000080126C8
:104A10000A22B8FBF2F302FB138141B9002D06DD37
:104A2000013D98466DB2F4E74FF00008F0E70DF154
:104A300026010A22B6FBF2F302FB1366303601F8B8
:104A4000016D1E46002BF5D10DF12606721A38466F
:104A5000FFF70EFDEDB108AA2B4611464FF00A0CE8
:104A6000013B5BB2581C09D0B8FBFCF00CFB108872
:104A700008F1300802F8018D8046F1E7EDB2EB4312
:104A80004D1B2E2205F8012C19445A423846FFF7D7
:104A9000EFFC002C3FF4CCAE65213846FFF761FEF9
:104AA000002CA5B205DA2D213846FFF75AFE6D42DB
:104AB000ADB231460A22B5FBF2F302FB1355303595
:104AC00001F8015D9DB2002DF5D1721A3846FFF74D
:104AD000CFFCADE6AFF3008000000000D0126341D0
:104AE000F168E388B5F8E43E3D880100C88601001E
:104AF00000002440108701002DE9F04105790646A9
:104B00000C46018815F0100003D002F12C00FFF7CD
:104B100001FB0C2D00F0968015D8052D00F0878044
:104B200006D8032D00F08780042D73D04E4995E000
:104B3000062D00F090800A2DF8D13268002320461F
:104B4000FFF7B3FC1DE01C2D00F0828006D80E2D6F
:104B50000ED01A2DEAD1D0E90023F0E7202D34D071
:104B6000402D11D01E2DE1D1092190ED000B05E063
:104B7000306810F05DF841EC100B06212046FFF77D
:104B800043FEA06ABDE8F0815B212046FFF7E9FD06
:104B900035884FF6FF76B54212D0E76A294607F10D
:104BA0002C00FFF7B7FA05463A462146FFF7A4FF67
:104BB000ED88B542EFD02C212046FFF7D2FDEAE781
:104BC0005D212046FFF7CDFDDBE77B212046FFF787
:104BD000C8FD4FF6FF7735880126BD4218D0D4F8BE
:104BE0002C80294608F12C00FFF794FA054642462E
:104BF0002146FFF781FFED88BD4206D0002E0CBF95
:104C00002C213A212046FFF7ACFD86F00106E4E7AF
:104C10007D21D6E7356845B1284611F058FC02469B
:104C200029462046FFF7A6FDABE72A46F8E731689C
:104C3000CA880831F5E731682046CA880831FFF78D
:104C400017FC9EE73268D3172046FFF7C7FD98E7A9
:104C5000D0E90023F8E7337823B104492046FFF771
:104C600018FC8EE70249F9E73D8801005C880100E5
:104C7000618801002DE9F043B7B06B46002783E857
:104C8000030002AD3946104602920B970CF0B0FDBE
:104C90000FCD0CAC0FC40FCD0FC495E8030084E812
:104CA00003000CAE0FCE16ADDDE900890FC50FCEA7
:104CB0000FC594E8030085E8030016AE0FCE20ACC4
:104CC0000FC40FCE0FC495E8030020AE84E80300A4
:104CD0000FCE2AAD0FC50FCE0FC594E8030085E8AF
:104CE000030020A83497FFF769FA16A8CDF8D490EE
:104CF000FFF764FAB8F1000F12D04A462AA94046DD
:104D0000FFF7FAFE04462AA8FFF758FA0CA8FFF7A7
:104D100055FA02A8FFF752FA204637B0BDE8F083F3
:104D200002492AA8FFF7B5FB349CECE73D88010057
:104D30002DE9F0412DED048B7D4B7E4993ED028AE8
:104D400093ED009AD3ED018AD3F814809CB005A8A6
:104D5000D3E903760CF0C5FCB0EE480A032102A8A3
:104D60000CF050FD02A905A80CF0ADFD72490CF045
:104D7000B6FD0A220446394608A80CF0D1FC08A961
:104D800020460CF0A0FD6D490CF0A9FD0CAC0A22E8
:104D90000546314620460CF0C3FC214628460CF05F
:104DA00092FD67490CF09BFD0146664803F052FDF9
:104DB00020460CF04BFC08A80CF048FC02A80CF0B4
:104DC00045FC05A80CF042FC0FAA17924FF4802274
:104DD0005D4B18924FF6FF720C93ADF864200023E0
:104DE000ADF86E202146594A8DF8343008A80E934C
:104DF0008DF86C30FFF74DFA554B08A81968FFF78E
:104E000053FC544B099301250B23B0EE490A08A823
:104E10000A938DF82C500894FFF77FFC4E4A2146E8
:104E200008A8FFF736FAB0EE680A08A8FFF775FC85
:104E30004A4B0993B0EE480A0E2308A80A938DF84E
:104E40002C500894FFF769FC454B09933946112310
:104E500008A80A938DF82C500894FFF773FC414B77
:104E600009933146142308A80A938DF82C5008940E
:104E7000FFF768FC3C4B099308A809238DF82C50D8
:104E800008940A93FFF7EAFB0899054628B1FFF753
:104E9000B7F90A232B71C5F80080344902A80CF039
:104EA00020FC1AABCDE900346B4602AA93E803005C
:104EB000FFF7E0FE2E4908A80CF013FC02A908A891
:104EC0000CF001FD01461F4803F0C4FC08A80CF0DB
:104ED000BDFB02A905A80CF07BFC264B08A81968AD
:104EE0000CF0FFFB08AA05A9234802F02DF805469F
:104EF00008A80CF0ABFB05A80CF0A8FBADB11F494E
:104F000008A80CF0EEFB08A90E4803F0BFFC08A8A7
:104F10000CF09CFB02A80CF099FB2046FFF70AF965
:104F20001CB0BDEC048BBDE8F0811549E8E700BF7B
:104F3000B0060020588701007987010089870100A9
:104F40009D87010030070020B8030020A6870100DC
:104F5000C4030020AF870100BB870100C4870100A4
:104F6000D3870100E5870100FA870100548801001A
:104F700004880100BC0300203407002012880100CF
:104F8000298801002DE9F0412DED048B7A488AB083
:104F900000F044FE0DF02AFB0446784804F01CFAA9
:104FA000032810D0764800F05BFB764907A80CF088
:104FB00098FB07A9744803F069FC07A80CF046FBAE
:104FC0006D4800F02DFE714E714B35681F68631BF4
:104FD000BB4226D23D442D1B42F21072B5FBF2F3C8
:104FE00002FB1353632B1CD86A4907A80CF079FB0A
:104FF0000A224FF47A7104A8B5FBF1F10CF0B4FB6E
:1050000004A907A80CF05FFC63490CF068FC01469A
:105010005D4803F01FFC04A80CF018FB07A80CF077
:1050200015FB3368E31A9F4279D85C49346007A8BE
:105030000CF057FB07A9544803F028FC07A80CF014
:1050400005FB574803F0FEFB5548F0EE408A03F09D
:10505000FDFB5448B0EE408A03F056F95148B0EEDB
:10506000409A03F0C9F980464E4803F0EFF9F4EE98
:10507000688AF1EE10FA074667D6B4EE488AF1EE78
:1050800010FA62D64849494E04A80CF02AFBB0EE4B
:10509000680A012101A80CF0B5FB01A904A80CF0D5
:1050A00012FC43490CF01BFCB0EE480A05460121F6
:1050B00007A80CF0A7FB07A928460CF004FC3D4903
:1050C0000CF00DFC0146304803F0E0FB07A80CF0A3
:1050D000BDFA01A80CF0BAFA04A80CF0B7FA3568CA
:1050E00003F040FC344B182202FB0533C3ED008A69
:1050F00083ED018A83ED029AC3E90387586133681F
:105100000133002B336003DDFFF712FE0023336011
:10511000244803F0A5F958B3194800F0A9FA274A22
:10512000136842F20F71E31A8B4203D91D481460D1
:1051300003F028FA224A23491368E31A8B4212D952
:105140000D48146002F082FD0DE01F4907A80CF025
:10515000C8FA07A90C4803F099FB07A80CF076FAE7
:10516000074800F07DFA0AB0BDEC048BBDE8F08181
:10517000034800F06DFAD2E73407002064140020E1
:10518000CC0600206788010030070020700700204F
:10519000748901008A88010000A90100A08801002B
:1051A000780700208C060020B7880100C806002080
:1051B000BE880100CE880100B00600206C070020E8
:1051C000740700207FEE3600D0880100F0B55E4DF8
:1051D0005E4F5F4E9DB00CAC28464FF4165103F065
:1051E000A1FB5C4920460CF07CFA2146284603F0DE
:1051F0004DFB20460CF02AFA574920460CF071FA74
:10520000396808A80CF06DFA08A920460CF05BFB81
:105210000146284603F03AFB08A80CF017FA20468E
:105220000CF014FA304600F02BFA304600F020FA69
:105230004A494B4E20460CF054FA2146284603F0CA
:1052400025FB20460CF002FA464803F075FA464961
:1052500020460CF046FA2146284603F017FB20466C
:105260000CF0F4F9414803F005F9304601F032FE44
:105270000FAA17924FF4802218923D4B0C934FF6D1
:10528000FF720023ADF86420ADF86E202146394A44
:105290008DF8343008A80E938DF86C30FEF7F9FFC6
:1052A000396808A8FFF700FA334B099309230A93DA
:1052B000324B0894012719688DF82C7008A8FFF765
:1052C000F3F92F4B09930F230A932E4B0894196877
:1052D0008DF82C7008A8FFF7E7F92B4902A80CF00D
:1052E00000FA1AABCDE900346B4602AA93E803003A
:1052F000FFF7C0FC02A905A80CF06AFA234B08A826
:1053000019680CF0EEF908AA05A9304601F01CFE58
:1053100008A80CF09BF905A80CF098F9304602F0AB
:1053200095FC1B4908A80CF0DCF908A9284603F0F5
:10533000ADFA08A80CF08AF902A80CF087F920460B
:10534000FEF7F8FE1DB0F0BD30070020C4030020BA
:10535000CC060020E6880100008901000C890100CC
:105360003407002078070020218901008C060020E6
:10537000B8030020A687010041890100CC0300206A
:105380004B890100C803002054880100C00300209D
:105390005B89010038B50B4C0B4D204603F059FAE0
:1053A000284600F045F922462946084800F022FC2C
:1053B0002146074803F0B2F921460648BDE83840C7
:1053C00002F086BF30070020CC0600203407002002
:1053D000780700208C06002010B5074C04F12C0043
:1053E0000CF034F904F1080004F020FA0348BDE899
:1053F00010400AF01DBA00BF34070020F00600205C
:105400004308400003F0553300F0AA3018438308E6
:10541000800000F0CC3003F03333034318091B0144
:1054200003F0F03300F00F30184300BA7047FFFF6D
:1054300030B585B0044600210DF10F000AF07CF86C
:10544000431C21D004F12405104BDFED110A9FED20
:10545000110A9DF80F20019400930021C3B2284641
:105460000AF010F900220C21044628460AF0FCF943
:10547000044028460AF062F9E4B2044028460AF0E3
:1054800084F9204005B030BD0020FBE7F95400004E
:105490000000484200401C4630B5016802690D0119
:1054A00085B004465059FFF7ABFF2A44019050687D
:1054B000FFF7A6FF02909068FFF7A2FF0390D36862
:1054C0006269A3610131B1FBF2F302FB13112160A8
:1054D00049B994F8203003B9A361236E03B198470A
:1054E000012384F85C300C2201A9024810F0DFF996
:1054F00005B030BD980700202C49F8B50D680A6842
:105500002B4C0B68D210A25C5C4204F0070403F041
:10551000070358BF6342274C42FA03F3226822F480
:10552000384222F018022260226C22F4415222F00A
:105530003002DB07226404F140041CD51E4B1F4FD0
:1055400013F8152003EB45031C325B7837F8322043
:105550001C331612360156FA82F237F8333004F54E
:10556000F864052644F822601A12120152FA83F3F5
:10557000042244F823200B686024013393FBF4F2E7
:1055800004FB12330B6080B1046874B1A36963B18A
:105590000DF02CF8E369C01AA369984205D920469A
:1055A000FFF77AFF0DF022F8E061F8BD90070020C8
:1055B0009807002000000440508B0100D89F010094
:1055C00030B585B00B6800934B6801938B680293EC
:1055D000002501230560C0F810D0436104460395FF
:1055E000FFF75AFFA56105B030BDF8B50F46011DA4
:1055F0000E463D460024EB1BDBB29A420AD915F851
:1056000001CB01334CEA0404DB0604BF34600436EA
:105610006400F0E7FFF7D4FFF8BD1FB5002301A930
:10562000CDE901330393FFF7CBFF05B05DF804FB31
:1056300038B5002504460560C0E9065580F82050BD
:10564000243009F0B7FE84F85C50204638BDFFFFD7
:1056500008B50249FFF7B4FF08BD00BF408B010049
:1056600008B50249FFF7ACFF08BD00BF208B010061
:1056700008B50249FFF7A4FF08BD00BF308B010049
:1056800010B50446FFF7D4FE2046BDE81040FFF7F2
:10569000EFBFFFFFF7B50D4B0D4F1B680D4E01938C
:1056A00005460024019BA3420DDD2846FFF7E0FFDD
:1056B00038680CF057FF2846FFF7AFFF30680CF052
:1056C00051FF0134EEE703B0F0BD00BF7C8901005B
:1056D000848901008089010030B56025B1B004469D
:1056E0002A463049684610F0E2F82A4669462046C4
:1056F000FFF77BFF4FF47A700CF034FF2A4600214D
:105700000DEB050010F0F7F801232A460DEB05011B
:1057100020468DF86E308DF875308DF87A308DF822
:1057200081308DF886308DF88D308DF892308DF87F
:1057300099308DF89E308DF8A5308DF8AB308DF80E
:10574000AC308DF8AD308DF8AE308DF8AF308DF8CF
:10575000B030FFF74AFF4FF448700CF003FF2A46C1
:1057600069462046FFF741FF4FF42F700CF0FAFE18
:105770002046FFF76DFF4FF42F700CF0F3FE2A4622
:1057800069462046FFF731FF4FF42F700CF0EAFE18
:105790002046FFF75DFF4FF42F700CF0E3FE31B0B1
:1057A00030BD00BFFF8901002DE9F0410C1EB2B0F1
:1057B000054641DB632C40DD03260DF1C8080124BA
:1057C0001AAB1F4600229C5401320C2AFBD10C3329
:1057D0009845F7D1602239462846FFF706FFC820D2
:1057E0000CF0C0FE2846FFF733FF4FF4FA700CF0C0
:1057F000B9FE013EE4D160223146384610F07BF814
:105800002846602239468DF87D408DF888408DF815
:1058100093408DF89A408DF89E408DF8A7408DF802
:10582000A9408DF8B440FFF7E0FE4FF4FA600CF0A9
:1058300099FE32B0BDE8F08100246022504902A8F0
:1058400010F035F80A2300930023194664222046FD
:105850000BF0DAFB012608AB14A90122824202DC1C
:105860009E540132FAE70C338B42F6D1602202A932
:105870002846FFF7BAFE0CF0B9FE424B1A6841F217
:105880008831821A8A420AD8192194FBF1F201FB6D
:105890001242002ACDD13C4A1268A242C9D01860F7
:1058A000394B192C1C6036D1602200211AA810F047
:1058B00022F8012340F20112ADF876208DF87830FD
:1058C000ADF87A20ADF87C208DF881308DF88930E4
:1058D0008DF895308DF89C308DF8A0308DF8A7307C
:1058E0008DF8AB30ADF8B220ADF8B4208DF8B730FC
:1058F0008DF8B8308DF8B93060221AA92846FFF724
:1059000074FE40F2DC500CF02DFE602202A9284605
:10591000FFF76BFE8DE7322C05D160221B491AA8D8
:105920000FF0C5FFE8E74B2CEBD1602200211AA84D
:105930000FF0E1FF012340F201128DF875308DF870
:1059400076308DF877308DF87830ADF87A208DF894
:105950007C308DF884308DF889308DF890308DF85A
:1059600095308DF89B308DF8A0308DF8A6308DF8ED
:10597000AB308DF8B130ADF8B6208DF8B830BBE75C
:105980005F8A0100A4070020DC030020BF8A010019
:1059900070B5E0B005466022002168460FF0ABFF0D
:1059A000602201244FF0013600210DEB02008DF83A
:1059B00027408DF82C408DF833408DF838400796FD
:1059C00010960FF098FF6022002130A88DF87140EA
:1059D0008DF872408DF87C408DF87F408DF88740BF
:1059E0008DF88C408DF893408DF898408DF8A0404C
:1059F0008DF8A3408DF8AD408DF8AE400FF07BFFE1
:105A00006022002148A88DF8DB408DF8E0408DF839
:105A1000E7408DF8EC408DF8F3408DF8F8408DF8B4
:105A2000FF408DF80441349643960FF064FF6022E6
:105A300048A928468DF82E418DF831418DF8344122
:105A40008DF837418DF83A418DF83D418DF8404150
:105A50008DF843418DF846418DF849418DF84C4110
:105A60008DF84F418DF852418DF855418DF85841D0
:105A70008DF85B418DF85E418DF861418DF8644190
:105A80008DF86A418DF86D418DF870418DF8734144
:105A9000FFF7ABFD4FF448700CF064FD0324602267
:105AA00069462846FFF7A1FD4FF496700CF05AFDA9
:105AB00060220DEB02012846FFF797FD4FF4967028
:105AC0000CF050FD602230A92846FFF78EFD4FF400
:105AD00096700CF047FD013CE1D160B070BD4FF60F
:105AE000FF7399421FBF0368CA0903EBC20301F0A9
:105AF0007F011ABF586800EBC1000020704710B545
:105B00000446B4F5803F08460BD20921611808D23B
:105B100003681B68984700B910BD0123C4808380C7
:105B2000FAE70020F8E7B1F5803F70B506460D466C
:105B3000144609D2136801F109029B680146204608
:105B4000984708B1C58070BD236820465B68314620
:105B500098470020F7E70A680B4652680146184646
:105B6000104738B50B79042B044605D0052B0CD013
:105B70000023C0E9003306E00D6828460DB110F09F
:105B8000A6FCC4E90050012305E00B68DA8808335D
:105B9000C0E9003200232372204638BD38B5002307
:105BA00083604368044643B905681F202968FFF7EE
:105BB000A6FF08B901232B71606038BD70B504469B
:105BC00040680D4668B1A168C388994209D126682A
:105BD000490032680131FFF7A6FF08B9012333718C
:105BE0006060636823B1A2681344511CA1601D72F8
:105BF00070BDFFFF10B50446C0E90012083004F084
:105C00009BF9002384F82830034904F12C000BF0A1
:105C100068FD204610BD00BF5488010002F0A4BA00
:105C20002DE9F04F5C4D46685C498DB0044606A8EE
:105C30000BF057FD296803A80BF053FD03A906A834
:105C40000BF041FE0146304602F020FE03A80BF0A7
:105C5000FDFC06A80BF0FAFC2068FFF709FD504890
:105C600003F0BAFB032806D14D4803F0B9FC4FF40A
:105C70007A700CF077FC4B4F29683A684848484ED8
:105C8000DFF828A103F0D8FB0CF0B0FC8146DFF868
:105C900028B14FF00708304603F09EFB03281FD0C1
:105CA0000CF0A4FCDAF80030A0EB0900984217D2FF
:105CB00059463D480BF0FFFB4FF47A700CF052FC54
:105CC000B8F10108E7D1304603F08AFC4FF4FA70CE
:105CD0000CF048FC3A682968304603F0ADFBD6E783
:105CE0000CF084FC2E4E314F0546314606A803F0D9
:105CF0000BFC002106A80BF094FB037873B3284833
:105D000003F06AFB032834D1254906A803F0FCFB05
:105D1000002106A80BF085FB037853B3244965687E
:105D200003A80BF0DEFC1E4906A803F0EDFB06A954
:105D300068460BF0A9FA694603A80BF0C4FD0146BA
:105D4000284602F0A3FD68460BF080FC03A80BF088
:105D50007DFC2068FFF77CFC01201AE00CF046FC7B
:105D60003B68401B9842CAD24FF4FA700CF0FAFB21
:105D7000BBE765680F4906A80BF0B3FC06A92846E7
:105D800002F084FD06A80BF061FC2068FFF768FCB8
:105D900000200DB0BDE8F08FD80300204C8C01002E
:105DA00064140020D4030020941800208C89010082
:105DB000788C0100618C0100819301002DE9F0478E
:105DC000002504460E46A946A28C276AABB29A4229
:105DD0000FD907EBC3089A46D8F8041019B13368F5
:105DE00030465B68984747F83A900135C8F8049008
:105DF000EAE70023A384BC424FF6FF73238507D054
:105E0000336839465B683046984704232462E3844C
:105E1000BDE8F0872DE9F3470E8D4FF6FF739E42E4
:105E200005460C4617460CD0314604F12000FFF71A
:105E300056FE038823852860AE80284602B0BDE860
:105E4000F0878B8C53B16E463046FEF729FA009BE3
:105E500023B196E8030085E80300EEE7A28CE38C0B
:105E6000934217D1B3F5007F3FD05B009EB2236A07
:105E70003968A3424FEAC6022FD10B683846114653
:105E80009847804688B3202221460FF010FDC4F8C1
:105E90002080E684B4F82480D4F820A008F101031F
:105EA0009BB2B3F5007FA3843B680CBF7F2680269E
:105EB000F1001B68384698470AEBC809002808BF5C
:105EC00000260023C9F8040021462AF83860284635
:105ED000A9F80230FEF7E4F9AFE7D1F808803846B8
:105EE0001946C04780460028D1D100232B604FF6C9
:105EF000FF73AB80A1E737B50A6804460D466846D4
:105F00000C31FFF787FF009B43B9012223604FF656
:105F1000FF732A71A380204603B030BDBDF8042072
:105F20002360A280F7E7FFFF2DE9F74F91F90030DA
:105F30002B2B044632D02D2B31D10131012591F983
:105F40000020A2F13003DBB2092B01D92E2A28D17F
:105F5000DFF868B28846002000214FF0993A4FF0F0
:105F60000A0EC4461CF9013BA3F13002D2B2092A41
:105F70001DD88B4508BF824520D30EFB01F3A0FB43
:105F80000E0119440023D2B2DF43D6438F4208BF2B
:105F9000864213D380185941E046E2E701310025DB
:105FA000CDE700232370204603B0BDE8F08F2BB966
:105FB000E5B1B1F1004F08BF01280FD3764F0023A0
:105FC0004FF0FF368F4208BF864203F1010910D21D
:105FD00000230A220FF01CFA4B46F3E7022340424B
:105FE000237061EB4101C4E90201DCE70323237064
:105FF000F9E7A3EB080707EB0806434618F901CBBE
:1060000032B2ACF13006F6B2092EF4D9BCF12E0F43
:1060100022D1C6460FF27819D9E900894FF00A0A51
:1060200073460EF1010E93F800C0ACF1300C5FFA2C
:106030008CFCBCF1090F0FD8894508BF8045EFD310
:10604000A0FB0A6716EB0C000AFB017702F1FF3692
:1060500047F1000132B2E3E793F9006026F0200631
:10606000452E66D193F901602D2E25D19F1C4FF04E
:10607000010C00264FF00A083B4617F901EBAEF180
:10608000300E5FFA8EF9B9F1090F26D808FB06E643
:10609000B318B3F59A7FEFDDBCF1000F13D0DFED3D
:1060A0003F7A9FED3F7A002D18BFF0EE477A01232B
:1060B0002370C4ED027A76E72B2E14BF5F1C9F1C61
:1060C0004FF0000CD5E700222DB1364B0421217092
:1060D000C4E9022367E7344BF8E7BCF1000F00D0B6
:1060E000764293F90030002B7FF45BAF164406F143
:1060F00026034C2B24D8002908BFB0F5000F1FD26F
:1061000007EE900A002EF8EEE77AD6BF2749284915
:10611000764200237EB1F20742BFDAB201EB82027F
:1061200092ED007A4FEA660648BF67EE877A013340
:10613000F0E70026D5E7002DB9D0F1EE677AB6E793
:106140000EF098FD002ECABF1A4B1B4B01938046E0
:106150008946DCBF01937642002786B1F3070BD551
:10616000F9B201A8FEF737F94046494653EC102B27
:106170000EF0B6FD8046894676100137EDE715B181
:1061800009F10043994604232370C4E902890AE710
:106190009899999999990100FFFF0F00000000005C
:1061A000000000800000F0FF0000F07F108C010074
:1061B000288C010010870100C8860100999999195F
:1061C00070B5006878B1C4884B689C42F9D10D68FD
:1061D00000239C4207D9C218EE5692F90820964235
:1061E000EFD10133F5E770BDD0E90132F0B51344CA
:1061F00000221A72D0E9005685B087688DF80C200D
:10620000044606F1080301A905F10800CDE90137AC
:10621000FFF7D6FF78B92A6839463046FFF783FC86
:1062200008B901232B7123689A68026098600023E3
:10623000636005B0F0BD838801338380F9E72DE901
:10624000F0418AB001AC84E80E00109D0F4671B990
:1062500007914FF6FF73ADF82030079820B107A8DB
:106260002946FDF79DFF07980AB0BDE8F081048834
:10627000DDF80880214605F12C00FFF730FCADF871
:1062800018400590C0B1C388ADF81A30012607AC9C
:106290000599D9B19EB12046FFF763FC089A4245A3
:1062A0000DD1079900239A4212D017F903C0C8569E
:1062B000844504D10133F6E74FF6FF73E4E729463E
:1062C00005A886F00106FDF76BFFE1E70791C0E73F
:1062D00005AB93E8030084E80300BEE730B505464C
:1062E00089B00C46084609B110F0F1F8CDE902403A
:1062F00000248DF8104002AA95F83C3007CA202BE4
:1063000008BF05F1380405AB83E807004CB10095E0
:106310000ECB2046FFF793FF003018BF012009B0D5
:1063200030BD2046F8E72DE9F04188B001AC0546C4
:1063300084E80E00084679B194E807002F4605AEC0
:1063400057F8088B86E80B0031463846FFF738FFD0
:1063500028B183880133838008B0BDE8F081069CB2
:1063600041462046FFF7CBFB10B901232B71F3E721
:10637000059E00F1080200239C4203D0F156D1543F
:106380000133F9E7044400232372AB680360A8607B
:10639000E2E72DE9F047046814F1380694B00746A7
:1063A000884629D100263C684046B8F1000F01D04C
:1063B00010F08DF80023CDE90E808DF840309EB1AD
:1063C00021463046FDF71CFF0EAA07CA11AB83E831
:1063D0000700B8F1000F07D00ECB2046FFF7A3FF50
:1063E00010B1052333713060386810B1007980F046
:1063F000010014B0BDE8F087021D07CA02AB83E8B4
:10640000070081460028CDD094F83C20002A4AD1CC
:10641000202284F83C204FF6FF7222876287CDF855
:10642000089093E8070005AD85E807000094304622
:1064300095E80E00FFF703FF06460028B3D195E864
:1064400007000DF1200A8AE8070021460EA8FDF793
:1064500044FF0E9D002DA5D0214611A8FDF73DFF5C
:10646000119E002E9ED09AE807000BAB83E8070030
:106470009DF82820D2B104232B71C5F80090BDF8F7
:106480004890A5F80690618FBDF83CA04FF6FF73C9
:10649000994216D004F12C00FFF721FBA0F806A0CA
:1064A000A4F83A907FE7202AB9D07BE70ECB2046AC
:1064B000FFF739FF00283FF475AF05232B712860E3
:1064C000DDE7A4F838A0EBE730B585B001466846B3
:1064D000FFF72AFD9DF80030013B032B48D8DFE889
:1064E00003F00218242FDDED027A9FED257AF4EEF9
:1064F000C77AF1EE10FA3BDB9FED227AF4EEC77A11
:10650000F1EE10FA34D8FDEEE77A17EE900A05B0F6
:1065100030BDDDE9020110F1004241F10003012B21
:1065200008BF002A28BF0020F1E7DDE902010023AF
:106530008B426FF0004208BF824238BF0020E6E77E
:10654000DDE902450022104B204629460EF04EFEA2
:106550000028DCD008A3D3E90023204629460EF00A
:106560003BFE0028D3D0204629460EF069FECEE738
:106570000020CCE7AFF300800000C0FFFFFFDF4149
:10658000000000CFFFFFFF4E0000E0C1FFFFFFFF54
:1065900038B5057904460B46018815F0100003D084
:1065A00003F12C00FFF79BFA043D1A2D62D8DFE8B7
:1065B00005F02D310E61616110611461346161611A
:1065C00061616161616161611661216149002078E9
:1065D00038BD206820EAE070FAE72068F8E7D0E9E3
:1065E000000100238B426FF0004208BF824238BF97
:1065F0000020EDE7D0E9000110F1004241F1000375
:10660000012B08BF002A28BF0020E1E72068FFF720
:106610005BFFDDE720680830F9E7D4ED007A9FEDF5
:10662000187AF4EEC77AF1EE10FA23DB9FED157AB3
:10663000F4EEC77AF1EE10FA1CD8FDEEE77A17EE09
:10664000900AC5E7D0E9004500220F4B20462946B5
:106650000EF0CCFD0028BBD007A3D3E900232046D1
:1066600029460EF0B9FD0028B2D0204629460EF08A
:10667000E7FDADE70020ABE70000C0FFFFFFDF4113
:10668000000000CFFFFFFF4E0000E0C1437E6BB96A
:10669000D0E9043293423DBF5A1C02611B784FF08F
:1066A000FF3323EAE37303760123437690F918005E
:1066B000704738B5044600252046FFF7E7FF0A2853
:1066C00006DC092808DA48B10123237300200AE018
:1066D0000D2801D02028F7D16576EDE7237B002B2C
:1066E00014BF0220012038BD70B505464C1E00269F
:1066F00014F9010F50B12846FFF7C8FF28B194F9EB
:106700000030834203D16E76F2E7022070BD032091
:10671000FCE72DE9F04387B006460D46FFF7B6FFCC
:10672000002427462F28E3B20BDD39280BDC013487
:10673000402C24D033197776D8773046FFF7A6FF60
:10674000F0E72B28F3D0A0F12D02D2B2012AEED926
:1067500020F0200252B2452AE9D03344002283F8C7
:10676000202006F1200102A8FFF7DEFB9DF808308B
:10677000013B032B62D8DFE803F03924043E3F23BA
:10678000EBE7DDE90489B9F1010F08BFB8F1000FAB
:1067900007D20A232B71C5F80080002007B0BDE89E
:1067A000F083F1696846FFF7A6FB009B0BB9042054
:1067B000F4E71A222A71BDF804202A80C3E900896F
:1067C000EBE7DDE9048918F1004249F10003012BF0
:1067D00008BF002A01D20C23DCE7F1696846FFF705
:1067E0008AFB009B002BE2D01C22E3E70E232B71D7
:1067F000049B2B60D1E7DDE90489494640460EF051
:1068000067FD07460EF014FA02460B46404649461D
:106810000EF0CEFC18B10E232B712F60BDE7F1698D
:106820006846FFF768FB009B002BC0D01E222A7130
:10683000BDF804202A80C3E90089AEE70320ADE754
:1068400070B550F8046B07C88CB003AB16F138056F
:1068500083E8070002D100200CB070BD93E8070068
:1068600096F83C30202B06AC09AB18BF002584E815
:10687000070083E80700002DEDD000960ECB2846D8
:10688000FFF7DDFCE8E770B50646FFF7D9FF0546E0
:1068900088B10479018814F0100003D030682C30DE
:1068A000FFF71DF90C2C29D006D8062C24D00A2C71
:1068B00024D07CB3012070BD1A2C24D00BD80E2C10
:1068C000F8D1D5ED007AF5EE407AF1EE10FA14BF6A
:1068D00001200020EFE71C2C15D01E2CEAD100224D
:1068E0000023D0E900014FF001040EF061FC08B173
:1068F0004FF00004E0B2DEE72878DCE728680030DB
:1069000018BF0120D7E7D0E90023134314BF0120AB
:106910000020D0E72046CEE7F8B506460F46FFF741
:106920008FFF3368054668B10479018814F01000C0
:1069300003D003F12C00FFF7D2F80C2C1AD003D8A7
:106940000A2C12D038681CE01A2C1BD01C2CF9D150
:10695000D0E9002312F1004043F10001012908BFF2
:10696000002834BF0123002302E02B68DB43DB0F48
:10697000002BE7D03046FFF763FF316808B1FFF71F
:1069800007FEF8BDD0E90023002199426FF00040D6
:1069900008BF90422CBF01230023E9E738B5044625
:1069A0000D46FFF773FEA8424FF0000004BF60766B
:1069B000012038BD7F2837B50C4605D841B22046A6
:1069C000FFF7FCF803B030BD00238DF8003000F075
:1069D0003F03800982B263F07F031F2A8DF80130E4
:1069E000C3B20DD863F03F038DF802300DF10305FB
:1069F00015F9011D0029E5D02046FFF7DFF8F7E77C
:106A0000C0F3891003F03F0363F07F030F288DF874
:106A10000230C3B205DC63F01F038DF8033001AD13
:106A2000E6E703F03F03801163F07F0360F00F009F
:106A30008DF803308DF804000DF10505D8E7FFFF50
:106A40002DE9F0478046FFF721FE0024384E88F8F4
:106A50001940074625464046FFF718FE8742014683
:106A600088F819505CD010B90220BDE8F0875C2886
:106A700052D14046FFF70AFE0028F5D075283CD1D8
:106A800088F819504FF004094FF0000A4046FFF70C
:106A9000FDFD0028E8D04028CBBF20F02002303890
:106AA000373AC3B2C8BFD3B20F2B01D90320DCE7FA
:106AB00009F1FF3943EA0A1319F0FF091FFA83FAB3
:106AC00088F81950E2D10AF520539BB2B3F5806FD4
:106AD00002D2CAF30904BEE70AF510539BB2B3F51C
:106AE000806F3DBFCAF3090A4AEA842A0AF580305A
:106AF00050464146FFF75EFFADE700239A579919CC
:106B0000002AD3D0904203F10203F7D191F901108A
:106B10000029CBD088F819504046FFF74FF89AE784
:106B2000D8F80430002B0CBF042000209DE700BFE4
:106B3000428801002F280EDD392803DD5E2803DDA1
:106B40007A2803DC01207047402804DD5A28CCBF96
:106B50000020012070470020704770B50446FFF701
:106B60001DF82046FFF792FD27281ED022281CD0B2
:106B70002046FFF78BFD0546FFF7DCFF98B10026A6
:106B8000294620466676FFF719F82046FFF77EFD76
:106B90000546FFF7CFFF0028F2D16368002B0CBF3A
:106BA0000420002000E0032070BD2046FFF748FFCE
:106BB000FAE72DE9F04F5FFA83F98DB004460D46F0
:106BC000B9F1000F00F08A8000234376FFF771FDD2
:106BD000B0B97D212046FFF7E1FE80B909AF20461C
:106BE000FFF7BBFF60B92046FFF763FD064638B9E3
:106BF0003A212046FFF7D2FE28B9032000E000200A
:106C00000DB0BDE8F08FD4E9013213448DF82C604B
:106C10001E72D4E901320833CDE90932E3690093E9
:106C200097E80E002846FFF70AFB8046002851D15E
:106C30002046FFF7D9FAD4F81CB08246594605A879
:106C4000FDF74BFB059E0EB90420D9E7594607A86E
:106C5000FDF743FBDDF81C80B8F1000FF4D0C6F857
:106C600000A0BDF820A0A6F806A069884FF6FF7224
:106C7000052391423371BDF8183029D00BF12C0057
:106C80000393FEF72CFF039BC380A5F802A009F134
:106C9000FF334FF000024146204600F021F8002863
:106CA000AED12046FFF705FD0028A9D17D21204661
:106CB000FFF774FE0028A2D12C212046FFF76EFEBC
:106CC00000289AD02046FFF7F4FC002887D097E7E9
:106CD0002B80DAE7E169FDF793FAD8E705208FE723
:106CE000F8B506460C461F46FFF7E3FC0546C8B953
:106CF0003046FFF7CBFC662844D015DC272803D0AC
:106D00005B2819D0222842D13046FEF747FF304693
:106D1000FFF796FE054628B93046FFF765FA0523CA
:106D2000237120602846F8BD742822D07B2812D019
:106D30006E282CD1184921E0402323714FF6FF73B0
:106D4000238063804FF000023B462146304600F02E
:106D500029F80546E6E7202323714FF6FF732380C9
:106D600063804FF000023B4621463046FFF721FF8B
:106D7000EFE7062323710949012323703046FFF70B
:106D8000B3FCE6E70623237125700549F6E72146A3
:106D90003046FFF7BEFCDCE73D8801005C8801005F
:106DA000618801002DE9F347DDB204460E46002D4F
:106DB00046D000234376FFF77CFCA8B95D2120462E
:106DC000FFF7ECFD78B94FF6FF7A013DD4F81C903F
:106DD00068464946FDF781FADDF80080B8F1000FFA
:106DE00005D1042000E0002002B0BDE8F0877188E2
:106DF000BDF80470514521D009F12C00FEF76FFE5B
:106E0000C78077802B464FF0000241462046FFF7AF
:106E100067FF0028E8D12046FFF74BFC0028E3D1AC
:106E20005D212046FFF7BAFD0028DCD12C21204649
:106E3000FFF7B4FD0028C9D10320D5E73780E0E78C
:106E40000520D1E72DE9F04104460E688D68016800
:106E500098B000F138070C30FEF7B0FF0023D4F8EB
:106E6000008023713544A06828B10368A3604146BF
:106E7000FEF771FEF7E784F83C00CDE90040029090
:106E80008DF80C008DF819004FF00A034FF0000246
:106E900039466846CDE904650794FFF721FF0546AA
:106EA00040B99DF918302BB194F83C3013F0080F1D
:106EB00018BF0325019818B1009B1968FEF74BFE17
:106EC000284618B0BDE8F081014803F09FBA00BF22
:106ED000A807002010B541F27D6186B00446134832
:106EE00003F0B0FA2046FEF79BFE114801F07CFD4E
:106EF00001F072FD646802280CBF0E490E49684615
:106F00000AF0EFFB6946204601F0A4FC68460AF04F
:106F10009DFB6846094902F0F7FA094B1A68094BCC
:106F20006846196801F062F906B010BDA807002094
:106F3000E1710000C0930100D293010064140020AD
:106F4000D4030020D80300202DE9F04F914B8FB0DF
:106F50001B68019304460F469046002603F1FF3953
:106F6000019BB34240F30F8156B38B49656808A873
:106F70000AF0B7FB0A22314605A80AF0D1FB05A9A1
:106F800008A80AF0A0FC85490AF0A9FC0A2282465A
:106F900049460BA80AF0C4FB0BA950460AF093FC23
:106FA0000146284601F056FC0BA80AF04FFB05A845
:106FB0000AF04CFB08A80AF049FB2068FEF76AFBC0
:106FC000774802F009FA03281CD12546DFF808A209
:106FD00055F8080BFEF74CFB724BDAF800101A88D4
:106FE000284602F06FFC30BB65686F490BA80AF0B9
:106FF00078FB28460BA901F02DFC0BA80AF026FB14
:107000000136ADE7656869490BA80AF06AFB0BA970
:10701000284601F01FFC0BA80AF018FB2068FEF7B9
:107020001FFB2046FEF7FCFD82460028CDD15046CE
:107030000FB0BDE8F08F5E4905A80AF052FB41464B
:1070400005A80AF040FC5B490AF049FC5A490AF0DD
:1070500046FCDAF80010834608A80AF042FB08A9AB
:1070600058460AF030FC5549DFF870B10AF037FC99
:1070700053490AF034FC53490AF031FC0A22824693
:10708000B9680BA80AF05EFB0BA950460AF01BFC7E
:107090004A490AF024FC4C490AF021FC39460AF01E
:1070A00012FC014602A80AF093FB0BA80AF0CEFAE4
:1070B00008A80AF0CBFA05A80AF0C8FA02A92846DF
:1070C0000AF0F4F90BF092FA82460BF08FFADBF833
:1070D0000030A0EB0A0098424CD2284602F08AFC0D
:1070E00000284CD0294605A80AF084FA284602F068
:1070F00005FE364908A80AF0F4FA08A905A80AF01E
:1071000081FC002830DC32490BA80AF0EAFA0BA90E
:1071100005A80AF077FC00280BA8D4BF4FF0000A9E
:107120004FF0010A0AF092FA08A80AF08FFABAF1B1
:10713000000F1CD0274965680BA80AF0D2FA414617
:107140000BA80AF0C0FB0146284601F083FB0BA800
:107150000AF07CFA2068FEF77BFA05A80AF076FAB6
:1071600002A80AF073FA62E74FF0010ADCE705A80B
:107170000AF06CFA284602F0C1FD02A83EE70A2098
:107180000BF0F0F9A1E72068FEF76AFA4FF0000A69
:107190004DE700BF78890100868E0100958E0100C1
:1071A0006414002088890100BE8E01009A8E0100BF
:1071B000DA8E0100E08E0100EC8E0100388F0100B4
:1071C000F38E0100148F0100258F01003B8F010019
:1071D000428F01004E8F0100D00300206C89010016
:1071E0002DE9F04190B03022002104A80EF083FB7D
:1071F0001D4B04931D4B1E4E93E8070001AD85E81F
:10720000070000247B2255F82410304603F05AFA78
:10721000302204A9304603F001FB304603F0C6FAE1
:107220000BF0E4F941F2873807460BF0DFF9C01B99
:10723000404514D8304603F031FB60B1302204A938
:107240000B4803F0A6F80E9B0A481BBA184400210D
:1072500010B0BDE8F0810A200BF084F9E5E70134B5
:10726000032CCFD10020F2E7E30006EC408C0100B4
:10727000A80700208081557C2DE9F04FB24BB34F19
:1072800000F108050446B3B08946904639681A886B
:10729000284602F017FB6668824678B9AC4912A806
:1072A0000AF01FFA304612A901F0F0FA12A80AF00B
:1072B000CDF95646304633B0BDE8F08FA549DFF82A
:1072C000D8A2DFF8D8B212A80AF00BFA12A93046F9
:1072D00001F0DCFA12A80AF0B9F99F49666812A811
:1072E0000AF0FFF90A2241460EA80AF019FA0EA97F
:1072F00012A80AF0E8FA99490AF0F1FA0146304674
:1073000001F0A8FA0EA80AF0A1F912A80AF09EF955
:107310009349666812A80AF0E4F9494612A80AF0EF
:10732000D2FA0146304601F095FA12A80AF08EF919
:107330002068FEF72DFB8B490EA80AF0D2F94946CA
:107340000EA80AF0C0FA8849DFF854920AF0C7FA8A
:1073500086490AF0C4FA3968064612A80AF0C1F94B
:1073600012A930460AF0AFFA81490AF0B8FA814909
:107370000AF0B5FA014605A80AF02AFA12A80AF09E
:1073800065F90EA80AF062F905A928460AF08EF8F8
:107390000BF02CF906460BF029F9D9F80070801B88
:1073A000B84207D2284602F025FBB8B90A200BF0F4
:1073B000D9F8F0E76468704912A80AF092F92046FB
:1073C00012A901F063FA12A80AF040F9284602F067
:1073D00095FC002605A80AF039F96BE70A22294630
:1073E0000EA80AF01BF963680093514612A80AF030
:1073F00078F90EA912A80AF066FA009B0146184611
:1074000001F028FA12A80AF021F959460EA80AF04C
:1074100095FA20B30EA80AF019F96668574912A820
:107420000AF05FF912A9304601F014FA12A80AF026
:107430000DF9404600F014FFD4F80490064690B9C8
:107440004F4912A80AF04DF9484612A901F01EFA58
:1074500012A80AF0FBF8284602F050FCBAE70EA882
:107460000AF0F4F8A2E7474912A80AF03AF912A97B
:10747000484601F0EFF912A80AF0E8F80BF0B6F868
:1074800083460BF0B3F8002182462068FEF78CF9A2
:10749000284602F0AFFA78B966683B4912A80AF0AC
:1074A00020F912A9304601F0D5F912A80AF0CEF859
:1074B0004FF47A700BF056F807EB470300934FF048
:1074C000FF390027474580F216810BF08FF8009BAB
:1074D000A0EB0B0098420ED964682C4912A80AF060
:1074E00000F9204612A901F0D1F912A80AF0AEF86D
:1074F00000F0E2FE6AE70BF079F842F21073A0EBBD
:107500000A00984202D964682149E7E7284602F058
:1075100071FA002800F0BA80802212A9284602F0F1
:1075200062FB061E3EDC66681A490EA80AF0D9F80E
:107530000EA9304601F08EF90EA80AF087F86420F3
:107540000BF010F8BEE700BF88890100D0030020CF
:107550000091010025910100419101004F9101002E
:107560005691010065910100E08E0100EC8E010052
:10757000388F0100258F01006A910100969101006A
:10758000B6910100DE910100FE91010027920100F9
:10759000519201007F9201008B91010094910100B2
:1075A0006C8901000BF022F83146824612A800F0E7
:1075B00063FE86422AD00090AB4964680BA80AF0AB
:1075C00090F80A22314608A80AF0AAF808A90BA8E0
:1075D0000AF079F9A5490AF082F9009B0A221946B6
:1075E00006460EA80AF09CF80EA930460AF06BF980
:1075F0000146204601F04AF90EA80AF027F808A82B
:107600000AF024F80BA80AF021F871E73744642641
:1076100005237E4396FBF8F696FBF3F299FBF3F312
:107620009A427FF74FAF31462068FEF7BDF8636896
:107630008F4901930BA80AF054F80A22394608A88A
:107640000AF06EF808A90BA80AF03DF989490AF07A
:1076500046F90A22814631460EA80AF061F80EA9C1
:1076600048460AF030F984490AF039F9019B01468D
:10767000184601F0EFF80EA809F0E8FF08A809F095
:10768000E5FF0BA809F0E2FFB1461BE7284602F030
:1076900071FB064668BB794964680EA80AF021F8B8
:1076A0000A2239460BA80AF03BF80BA90EA80AF0EB
:1076B0000AF973490AF013F90A220746414612A84B
:1076C0000AF02EF812A938460AF0FDF86D490AF0C2
:1076D00006F90146204601F0D9F812A809F0B6FFD4
:1076E0000BA809F0B3FF0EA809F0B0FF00F0E4FD0D
:1076F000B1E60A2024E7284602F000FB12AD6668D6
:107700006149284609F0EDFF2946304601F0A2F80C
:10771000284609F09BFF00F0C7FD6768064658B988
:107720005A49284609F0DDFF3846294601F0AEF8EF
:10773000284609F08BFF4DE65549284609F0D1FF50
:107740002946384601F0A2F8284609F07FFF67680D
:107750005049284609F0C5FF2946384601F07AF815
:10776000284609F073FF20686421FEF71DF84A4B94
:10777000129300238DF84C3014938DF88430474BCE
:107780000F93082315AA1093454B1D924FF48022A6
:1077900001271E9219688DF844704FF6FF720EA8EB
:1077A000ADF87C20ADF886200E95FEF7F2FD3D4B3E
:1077B0000F930F2310933C4B8DF8447019680E956E
:1077C0000EA8FEF7E6FD394B0F9309231093384BB3
:1077D0008DF8447019680E950EA8FEF7DAFD35494C
:1077E00008A809F07EFF20ABCDE9033503AB93E891
:1077F000030008AAFDF73EFA67682F490EA809F0B2
:1078000070FF0EA9384601F025F80EA809F01EFFFA
:1078100008A90BA809F0DCFF28490EA809F061FFB0
:107820000EAA0BA92046FFF78FFB0EA809F00EFF4A
:107830000BA809F00BFF40F6B8300AF093FE64681D
:107840001F490EA809F04DFF0EA9204601F01EF8B1
:107850000EA809F0FBFE00F035FD08A809F0F6FEC1
:107860002846FCF767FCB5E5A4920100CB92010025
:10787000D5920100E2920100EB920100EE9201002C
:107880001C9301004F9101001E93010030930100F1
:107890004E93010070930100B8030020A6870100F9
:1078A000C40300204B890100C80300204189010066
:1078B000CC0300205488010083930100CE8901008D
:1078C000A39301002DE9F041A0B010AE0F4644682B
:1078D000B2490546304609F004FF3946304609F002
:1078E000F2FF0146204600F0B5FF304609F0AEFE3B
:1078F000AB4B109313AB1B934FF4802300241C93CA
:1079000039464FF6FF7330468DF844401294ADF877
:1079100074308DF87C40ADF87E30FFF793FAC7B233
:10792000FFB1A0496D680CA809F0DBFE9E4B09A8C9
:1079300053F8271009F0D5FE09A90CA809F0C3FFD8
:107940000146284600F0A2FF09A809F07FFE0CA816
:1079500009F07CFE3046FCF7EDFB204620B0BDE888
:10796000F081924F30463946FEF7B8FC044650B9D4
:107970006D688F490CA809F0B4FE28460CA900F0E8
:1079800085FF0CA83CE0CDE90C670F2301270CA86C
:107990000E938DF83C70FEF776FF85F828000028DE
:1079A00033D1844B0D930CA807230C960E938DF8BE
:1079B0003C70FEF745FF30B30379043BBB4222D84D
:1079C0000CA8FEF73DFF014618B109A8FEF7C9F85B
:1079D000099909A809F085FE77496F680CA809F094
:1079E00080FE09A90CA809F06EFF0146384600F098
:1079F0004DFF0CA809F02AFE2868FDF729FE09A80A
:107A000009F024FEA6E76D49E3E7DFF8E881304698
:107A10004146FEF763FC044610B96D686849A9E762
:107A200068493046FEF75AFC044610B96D6866494D
:107A3000A0E70D230CA88DF83C70CDE90C680E93DF
:107A4000FEF7FEFE61490C9F044606A809F049FEB8
:107A5000002C00F09980214609A8FEF782F80999C8
:107A6000002900F0918006A809F0C2FE05F12C045F
:107A700006A9204609F0B6FE06A809F0E7FD54491C
:107A80006F680CA809F02DFE21460CA809F01BFF19
:107A90000146384600F0DEFE0CA809F0D7FD4D493E
:107AA0006F680CA809F01DFE4B4B09A8196809F076
:107AB00018FE09A90CA809F006FF0146384600F097
:107AC000C9FE09A809F0C2FD0CA809F0BFFD28688D
:107AD000FDF702FE414909A809F003FE404B06A844
:107AE000196809F0FEFD06A909A809F0ECFE3D4958
:107AF00009F0F5FE214609F0E6FE3B4909F0EFFEEC
:107B00003A4B044619680CA809F0EBFD0CA9204675
:107B100009F0D9FE014603A809F05AFE0CA809F0A5
:107B200095FD06A809F092FD09A809F08FFD254BE7
:107B30000D9304230E934FF00008012309A90CA80C
:107B40000C968DF83C30CDF82480FEF7E5FE071E3C
:107B50006C6851DC26490CA809F0C3FD0A2239469D
:107B600009A809F0DDFD09A90CA809F0ACFE014641
:107B7000204600F08BFE09A809F068FD0CA809F06A
:107B800065FD444603A83BE7CDE9014701AB06AAE2
:107B900093E80300FDF76EF868E700BF7E8F0100F1
:107BA000B8030020988F0100E0030020AB8F010094
:107BB000BB8F0100F28F0100FA8F0100698F010075
:107BC0001890010044900100499001005488010080
:107BD0006C90010086900100C8030020A190010074
:107BE000C4030020C2900100CC900100CC0300200F
:107BF000D89001000A90010012490CA809F071FD0B
:107C00000A22394609A809F08BFD09A90CA809F038
:107C10005AFE0D4909F063FE0146204600F01AFEA7
:107C200009A809F013FD0CA809F010FD4FF4FA6043
:107C30000AF098FC3A4603A92846FFF71DFB0446C4
:107C4000A0E700BFF09001004F9101002DE9F04F37
:107C50004568B34997B0044613A809F042FD13A93B
:107C6000284600F013FEAF4D13A809F0EFFCAE4913
:107C7000666813A809F035FD296810A809F031FDE0
:107C800010A913A809F01FFE0146304600F0E2FDDE
:107C900010A809F0DBFC13A809F0D8FC2068FDF758
:107CA000E7FCA24801F098FB032811D06568A049C1
:107CB00013A809F016FD13A9284600F0E7FD13A844
:107CC00009F0C4FC2068FDF7CBFC17B0BDE8F08FCD
:107CD00098490DA809F005FD974B0AA8196809F005
:107CE00000FD0AA90DA809F0EEFD944909F0F7FD81
:107CF0002968064610A809F0F4FC10A9304609F0DE
:107D0000E2FD8F498F4E09F0EAFD8F4B0546196859
:107D100013A809F0E6FC13A9284609F0D4FD014692
:107D200001A809F055FD13A809F090FC10A809F06E
:107D30008DFC0AA809F08AFC0DA809F087FC83498C
:107D4000656813A809F0CDFC01A913A809F0BBFDD3
:107D50000146284600F07EFD13A809F077FC7C4B15
:107D600031681A8804F10805284601F0ABFD90B986
:107D70006568784913A809F0B4FC13A9284600F0F7
:107D800085FD13A809F062FC2068FDF769FC01A8D5
:107D900009F05CFC99E77049DFF8E891DFF8E8A1A9
:107DA000DFF8E8B110A809F09CFC01A910A809F0BF
:107DB0008AFD6A4909F093FD694909F090FD31682F
:107DC000074613A809F08DFC13A9384609F07BFD7E
:107DD000644909F084FD644909F081FD014604A865
:107DE00009F0F6FC13A809F031FC10A809F02EFCEC
:107DF00004A9284609F05AFB66685C4913A809F0F3
:107E000070FC13A9304600F025FD13A809F01EFCF4
:107E1000574907A809F065FC0AF0E8FB5449804679
:107E20000AA809F05EFC00273E460AF0DFFBD9F8FD
:107E30000030A0EB0800984280F0E980284601F06D
:107E4000D9FD002800F0AD800A2229460DA809F0CE
:107E5000E5FB514613A809F044FC13A90DA809F04D
:107E600097FD064613A809F0F1FB002E40D04149CA
:107E7000666813A809F035FC0DA913A809F023FDC5
:107E80000146304600F0E6FC13A809F0DFFB3A4952
:107E900013A809F026FC13A90DA809F0B3FD0646A6
:107EA00013A809F0D3FB002E22DA3449666813A820
:107EB00009F017FC0DA913A809F005FD014630468D
:107EC00000F0E4FC13A809F0C1FB284601F016FFFE
:107ED0002068FDF7C5FB0DA809F0B8FB0AA809F05A
:107EE000B5FB07A809F0B2FB04A809F0AFFB4EE709
:107EF00059460DA809F022FD0646002848D06768BB
:107F00001F4913A809F0EDFB13A9384600F0A2FCA5
:107F100013A809F09BFB0DA809F098FB374684E7EE
:107F20008D8C0100C8030020AE8C01006414002079
:107F3000C08C0100EA8C0100C4030020088D010000
:107F4000CC900100D0030020CC030020198D01004B
:107F5000888901002C8D010065910100E08E0100EF
:107F6000EC8E0100388F0100258F01004F8D01003C
:107F700054880100718D01003B8F0100838D010049
:107F8000A48D01006C890100698D010094910100AC
:107F90008FB10DA90AA809F075FC0DA809F056FBD0
:107FA0000126284601F0E6FE08B9002E2FD10A204E
:107FB0000AF0D8FA39E7624910A809F092FB10A933
:107FC0000DA809F0E5FC064658B95E4913A809F06A
:107FD00088FB13A90DA809F0DBFC064613A809F0DD
:107FE00035FB10A809F032FB002ED6D05649666842
:107FF00013A809F076FB0DA913A809F064FC01464B
:10800000304600F027FC13A809F020FBC5E72846FE
:1080100001F074FE66B965684C4913A809F061FB6C
:10802000284613A900F032FC13A809F00FFB69E001
:1080300067B30C9B53B30AA809F03BFD7B210AA848
:1080400009F0CBFC7D2105460AA809F0F5FC002DBE
:108050005CDA65683E4913A809F043FB13A928467A
:1080600000F014FC13A809F0F1FA3A49656813A866
:1080700009F037FB0AA913A809F025FC0146284698
:1080800000F0E8FB13A809F0E1FA55E06568324911
:1080900013A809F026FB13A9284600F0F7FB13A844
:1080A00009F0D4FA2D49656813A809F01AFB0A22D1
:1080B000394610A809F034FB10A913A809F003FCF5
:1080C0000146284600F0C6FB10A809F0BFFA13A825
:1080D00009F0BCFA2249656813A809F002FB0A22DC
:1080E0000C9910A809F02EFB10A913A809F0EBFBBE
:1080F0000146284600F0AEFB10A809F0A7FA13A825
:1081000009F0A4FA2068FDF7ABFAE7E60028A0DB47
:10811000431C2A460AA913A809F092FC13A90AA82D
:1081200009F060FB13A809F091FA0AA92046FFF7AD
:10813000C9FB00287FF4D2AE65680A496DE700BF2D
:10814000C38D0100D18D01008B910100E18D0100F3
:108150003D8E0100628E0100028E01001F8E010023
:108160002F8E0100728E010010B50A4C88B004F108
:108170003001684601F07EFF6946204603F074FA3C
:10818000684601F053FB04F16001204603F0B2F8A9
:1081900008B010BD800D002010B5084C204602F03C
:1081A000E1FF04F130004FF47F4101F051FF04F191
:1081B0006000BDE8104002F029B900BF800D00202A
:1081C00010B5084C084B236304F1400001F02EFB6E
:1081D00004F10C0009F03AFA2046BDE8104009F01D
:1081E00035BA00BF800D0020A89A0100F0B5031D2C
:1081F00005460E4617460FCB8FB003AC84E80F0040
:10820000144B089394E80F0095F814C0124C8DF8A5
:1082100034C009AD85E80F00104B009332463B4651
:1082200008A9204602F0B4FF04F1300001F0D4FFA9
:10823000FB23009300231A46E02108A808F0C2FFA0
:1082400041F2E94208A904F1600002F07DF90FB0A3
:10825000F0BD00BFF4A10100800D0020C416002075
:10826000014608B5034802F0C7FE003018BF0120E0
:1082700008BD00BFC41600202DE9F041094F054696
:1082800000EB010804464445A4EB050606D014F8AB
:10829000011B384602F0EAFE0128F4D03046BDE862
:1082A000F08100BFC416002008B5024802F0CCFEE1
:1082B000012008BDC4160020014802F0C5BE00BF61
:1082C000C4160020014802F01BBF00BFC4160020E6
:1082D0000E224260084A8260084AC260084A02616F
:1082E0004FF07C524261074A016082614FF4F071A5
:1082F0001422C0E907127047000010410000E0405E
:108300003333333F00005041F0B52DED028B05466D
:108310008DB0007908F05AFD0A2604460227287914
:1083200008F054FD044401200AF01CF994FBF7F412
:10833000013EF4D120460CF069FC2DA3D3E90023C3
:108340000CF0CEFC0CF0C4FF642C08EE100A3EDDED
:1083500023492E6803A809F0C4F90A222146684679
:1083600009F0DEF9694603A809F0ADFA1D4909F0E4
:10837000B6FAB0EE480A0446032106A809F042FA0C
:1083800006A9204609F09FFA174909F0A8FA95EDC9
:10839000060A044628EE000A012109A809F032FA6B
:1083A00009A9204609F08FFA104909F098FA014608
:1083B000304600F04FFA09A809F048F906A809F07C
:1083C00045F9684609F042F903A809F03FF9B0EE13
:1083D000480A0DB0BDEC028BF0BD00BFAFF30080CA
:1083E0005494010066940100729401007E9401008F
:1083F0006D1AD0A6016D6A3F13B50446FFF784FFDE
:10840000DFED117AD4ED046A94ED057A66EEA76A81
:1084100027EE277A20EE270AFDEEE67A642317EE90
:10842000902AFDEEC77A009317EE901AFDEEC07AFF
:10843000002317EE900A08F0E7FD6428A8BF642027
:1084400020EAE07002B010BD00007A4410B5044686
:10845000FFF7D2FFE3695843642390FBF3F010BDAC
:1084600010B50446FFF7C8FF236A9842ACBF00204E
:10847000012010BD2DE9F0412DED028B044690B096
:108480000021007909F032FF2046FFF73DFF20462A
:10849000B0EE408AFFF7B0FF80462046FFF7D6FFD8
:1084A00032492568074604A809F01BF9B0EE480ACE
:1084B000022101A809F0A6F901A904A809F003FA0C
:1084C0002B4909F00CFA94ED060A064628EE000A3C
:1084D000012107A809F096F907A9304609F0F3F938
:1084E000244909F0FCF90A22064641460AA809F087
:1084F00017F90AA9304609F0E6F91F4909F0EFF922
:108500000A22064639460DA809F00AF90DA9304697
:1085100009F0D9F9194909F0E2F90146284600F0B5
:1085200099F90DA809F092F80AA809F08FF807A8A0
:1085300009F08CF801A809F089F804A809F086F878
:108540002046FFF78DFF58B124680D490DA809F0AA
:10855000C8F820460DA900F099F90DA809F076F8A1
:1085600010B0BDEC028BBDE8F08100BF819401002A
:10857000729401009B9401009F940100AA94010051
:10858000BD9401002DE9F0432DED028B8BB0044624
:10859000FFF7BAFE2046B0EE408AFFF72DFF0646F1
:1085A0002046FFF753FF25685249074607A809F000
:1085B00098F807A9284600F069F907A809F046F8D5
:1085C0004D49256807A809F08CF8B0EE480A032148
:1085D00004A809F017F904A907A809F074F9474994
:1085E00009F07DF90146284600F034F904A809F0A5
:1085F0002DF807A809F02AF84149256807A809F0CD
:1086000070F894ED060A012128EE000A04A809F08A
:10861000F9F804A907A809F056F9384909F05FF9F3
:108620000146284600F016F904A809F00FF807A83B
:1086300009F00CF83349256807A809F052F80A2216
:10864000314604A809F06CF804A907A809F03BF921
:108650002D4909F044F90146284600F0FBF804A82A
:1086600008F0F4FF07A808F0F1FF2849D4F80080CB
:1086700004A809F036F83C260A2297FBF6F501A873
:10868000294609F04DF801A904A809F01CF9204970
:1086900009F025F90A22814606FB157107A809F0A1
:1086A0003FF807A9484609F00EF91A4909F017F9E9
:1086B0000146404600F0CEF807A808F0C7FF01A821
:1086C00008F0C4FF04A808F0C1FF2046FFF7C8FE69
:1086D00058B12468104907A809F003F8204607A9F3
:1086E00000F0D4F807A808F0B1FF0BB0BDEC028B86
:1086F000BDE8F083D2940100E1940100FD890100FE
:10870000F49401000F950100CE8801001895010036
:108710002E95010016940100BD94010038B50D4658
:108720000449044606231622097802F0D3FA65614B
:10873000204638BD7089010070B52DED028B8AB0DE
:1087400045693A49044607A808F0CBFF07A928461F
:1087500000F09CF807A808F079FF3721204602F0C6
:10876000BFFA4FF4FA6009F0FDFE002211462046E0
:1087700002F05AFB00212046F0EE408A02F0F0FBA6
:10878000F4EE688AF1EE10FAB0EE408A656940D6E0
:10879000B4EE400AF1EE10FA3BD6254904A808F0E1
:1087A000A0FFB0EE680A022101A809F02BF801A988
:1087B00004A809F088F81F4909F091F8B0EE480ABA
:1087C0000646022107A809F01DF807A9304609F05E
:1087D0007AF8194909F083F80146284600F03AF87A
:1087E00007A808F033FF01A808F030FF04A808F03C
:1087F0002DFF6469114907A808F073FF07A92046F7
:1088000000F044F807A808F021FF0AB0BDEC028B85
:1088100070BD0B4907A808F064FF284607A900F0BF
:1088200035F807A808F012FFE3E700BF3195010013
:108830004995010060950100CE880100AD950100C9
:108840006F9501000022114602F0EEBA002102F0FD
:1088500087BB7047014808F03DBE00BF9418002058
:10886000F8B50849084E0546174608F03AFF0024B7
:10887000BC4205DA3146284609F015F80134F7E71D
:108880002846F8BD54880100CD9E0100F0B5224C69
:108890008A68224D224E87B00F4601466846FFF790
:1088A000DFFF214603A808F01CFF694603A809F072
:1088B0000AF8214609F013F80146284608F00AFE96
:1088C00003A808F0C3FE314603A808F00AFF3946A2
:1088D00003A808F0F8FF314609F001F801462846E0
:1088E00008F0F8FD03A808F0B1FE214603A808F03F
:1088F000F8FE694603A808F0E6FF214608F0EFFFFE
:108900000146284608F0E6FD03A808F09FFE6846E9
:1089100008F09CFE07B0F0BDC4950100941800203B
:10892000C7950100014807F0A5BE00BF94180020BC
:1089300008B5074B1860074B1B681844064B1860B6
:10894000064B02221A7009F051FE054B186008BD53
:10895000C4130020F8030020BC130020C013002023
:10896000B813002038B5164D164C09F03FFE2B68A1
:10897000C01AB0F57A7F06D3226803F57A73013204
:1089800022602B60F1E7104D23682A689A4208D8CC
:108990000E4B1B682BB1984750EA010304D0FFF738
:1089A000C7FF2068002138BD094A236812681344B4
:1089B000084A2B601378003318BF01231370F0E7C7
:1089C000B8130020C4130020BC130020C8130020DB
:1089D000F8030020C013002008B5FFF7C3FF014BC8
:1089E000187808BDC0130020034B1860034B1A68A9
:1089F000034B1A60FFF7B6BFC8130020C413002052
:108A0000BC13002008B50368002B02DA09480BF0FC
:108A1000A0FF8B4208D949008B4205D20029B6BF7E
:108A20006FF00043016003600068BDE8084001305A
:108A30000BF07BBFDB96010010B50446406828B1FF
:108A400063781BB940F2AC410BF05EFF204610BDCD
:108A500008B4F3B507AB044600F10C0553F8042B3A
:108A60000193802128460DF045FED4F89000A8B16E
:108A700094F89430012B11D90F4908F01CFDD4F85B
:108A80009060336828465F680DF021FD2946024654
:108A90003046B847D4F8900008F016FD28466468C0
:108AA0000DF015FD29460246204607F0F9FE02B0FA
:108AB000BDE8F04001B070472B960100034653F823
:108AC000080B984201D00BF01DBF7047F8B5064661
:108AD000456808460F460DF0FAFCA842024628BF3A
:108AE0002A46044622B1394630680CF0D1FE00B95E
:108AF000281BF8BD012A30B404D191F9003003706D
:108B000030BC7047002AFBD030BC0CF0D0BEFFFF59
:108B100000F1080373B5044603600D46D1B1084661
:108B20000DF0D5FC0F280646019006D9002101A8BA
:108B3000FFF768FF019B2060A3603246294620684A
:108B4000FFF7D8FF019B2268636000212046D154C3
:108B500002B070BD01480BF0F9FE00BFF3960100B2
:108B60002DE9F347DDF82880164642689A46A8EBBF
:108B70000603571A13440268019300F108039A424E
:108B80000D46044614BF81680F2101A8FFF73AFF84
:108B9000BF1B81461DB12A462168FFF7ABFFBAF122
:108BA000000F08D0B8F1000F05D04246514609EB3E
:108BB0000500FFF79FFF47B121682E4405EB080031
:108BC0003A4631444844FFF795FF2046FFF776FFC9
:108BD000019BC4F80090A36002B0BDE8F087F7B530
:108BE0000268466800F108039A4218BF836806F1DC
:108BF000010508BF0F239D4204460F4606D90123F5
:108C0000009300231A463146FFF7AAFF23689F55B9
:108C10002368656000225A5503B0F0BD012A30B4C4
:108C200004D191F90030037030BC7047002AFBD0AA
:108C300030BC0CF047BEFFFF2DE9F74F81461446CC
:108C400040680C9E02F10042013A121A9642984680
:108C500002D937480BF07DFE4A46A6EB040B52F8CA
:108C6000083B934218BFD9F808200BEB000A08BF55
:108C70000F22524552D35F189845A0EB0101A1EB9A
:108C8000040522D3034498451FD876BB95B1B4425E
:108C900010D02A463919B819FFF7C0FFB44209D2DB
:108CA0003C4408EB06039C4227D3324641463846F3
:108CB000FFF7B4FFD9F80030C9F804A000224846F5
:108CC00003F80A2003B0BDE8F08F35B1B44204D0F8
:108CD0002A463919B819FFF7A1FF002EEAD032460B
:108CE00041463846FFF706FFE4E7B4421DD332465B
:108CF00041463846FFF792FFC8E7444503D832465D
:108D000008EB0B01EDE7A4EB080422464146384688
:108D1000FFF784FF321BB9193819E3E70096434681
:108D200022464846FFF71CFFC4E7002DB8D0B0E745
:108D3000C296010037B5044608460D460DF0C7FB44
:108D40002B460090626800212046FFF775FF03B0B4
:108D500030BDFFFF2DE9F04F8FB00AAB0291064600
:108D6000089398490298002309938DF82830924679
:108D7000FFF7ACFE031C0490D6F8900018BF012347
:108D8000069328B196F8943013B18F4908F093FBFD
:108D900009F02CFC4FF000080123DFF854B20590D5
:108DA0004746CDF80480CDF80C8099464446079399
:108DB00009F01CFC059BB268C01A904200F21A81AF
:108DC000079B5BB17068026812699047079B002897
:108DD000EDD0706803685B69984745B2D6F890009B
:108DE00038B196F8943023B10A2D24D1774908F090
:108DF00062FBD6F8900060B196F89430022B08D947
:108E0000734908F058FB0A222146D6F8900008F072
:108E1000B7FB631E072B29D8DFE813F03A005C008C
:108E20007E008A008D00B7002B01A200092C00F003
:108E3000E3800123BBE70D2D01D16649D7E7202D43
:108E400001D16549D3E71F2D0CDC644908F033FBE1
:108E500029460A22D6F8900008F0ABFB6049D6F804
:108E60009000C4E7294608F02AFBC2E72B2D05D164
:108E7000294608A8FFF7B3FE0124DAE71BF90730FB
:108E8000AB4240F09C80DDF8188001370824D0E721
:108E90003A2D294608A801D03D2D3AD1FFF79FFE73
:108EA000049B8BB1029B099A5B689A4206D15AB126
:108EB000029B089819680CF0EBFC28B1494908A8F6
:108EC000FFF738FF4FF0010846495046FFF732FFE1
:108ED0000224AEE77C2D0ED1DAF800000CF01FFC66
:108EE0000023CAF80430DAF8003003904FF0000293
:108EF0001A7003249DE70D2D00F0B2800A2D00F0BA
:108F0000B18096F88C3013B1202D00F0AD80294649
:108F10005046FFF764FE8CE729465046FFF75FFE98
:108F2000019B039A01330193934208BF052480E714
:108F30000A2D08BF05242C495046FFF7C7FD60B134
:108F40002A495046FFF7C2FD002804BF4FF001092F
:108F500009244F2D2AD1012798E781460924F8E7F3
:108F60001BF907207B1C58460793AA4218BF072409
:108F70000DF0ADFA079B984270D107464FF00009FB
:108F8000B8F1000F19D1092436E01BF907207B1C2A
:108F900058460793AA4218BF07240DF098FA079B7A
:108FA00098425BD107464FF00109E9E7B8F1000F9D
:108FB0003FF43CAF092C7FF43CAF4FF00008002495
:108FC00037E700BF7C960100899601008F9601006B
:108FD000AA96010094960100999601009E960100C0
:108FE00092960100548801003F8F0100FC9501001A
:108FF000A09601004FF00309D6F89000B8B196F89A
:109000009430022B13D91E4908F055FA0A22214642
:10901000D6F8900008F0B2FA1A49D6F8900008F095
:109020004AFA0A224946D6F8900008F0A9FAD6F87A
:109030009000012386F88C3048B196F8943033B113
:10904000114908F038FAD6F8900008F03DFA08A85F
:10905000FFF734FD48460FB0BDE8F08F1F46E8E645
:109060000424E6E60524E4E6B8F1000F7FF4E1AE5F
:109070009DE6002398464FF002091C4697E600BF84
:10908000A5960100B2960100B896010030B50446DD
:10909000406803688DB05B68984706AA1D4968461A
:1090A000FFF736FD08AB069306AA00236946204663
:1090B00007938DF82030FFF74DFE0546D4F8900059
:1090C00088B194F89430012B0DD9134908F0F3F9C5
:1090D0000699D4F8900008F007FA7DB90F49D4F842
:1090E000900008F001FA06A8FFF7E8FC6846FFF7D1
:1090F000E5FCB5FA85F040090DB030BD012DD4F87E
:10910000900001D10649ECE7032D0CBF0549064943
:10911000E7E700BF7C960100C9950100E3950100D7
:10912000F1950100029601001596010008B42DE9A1
:10913000F3431646044609AB306853F8042B0193F9
:10914000884604F10C0500217160017080212846D9
:109150000DF0D0FAD4F89000B0B108F0B5F9244978
:10916000D4F8900008F0A7F9D4F890703B6828462E
:10917000D3F804900DF0ABF9294602463846C847AB
:10918000D4F8900008F0A0F9284667680DF09FF920
:1091900029460246384607F083FB324641462046C0
:1091A000FFF7D8FD0546D4F8900068B1114908F0E2
:1091B00082F93168D4F8900008F096F965B90E4943
:1091C000D4F8900008F090F9B5FA85F0400902B0A3
:1091D000BDE8F04301B07047012DD4F8900001D1F3
:1091E0000649EFE7032D0CBF05490649EAE700BF32
:1091F0006696010070960100E3950100F19501006B
:1092000002960100159601002DE9F04304464068DE
:1092100091B01646002834D02378002B31D1036852
:10922000194DDB69DFF86C90DFF86C80174F9847B9
:109230000AAA174904A8FFF76BFC60680368DB689B
:1092400098474FF4FA72AA602378A3B9002E12DD72
:1092500003AA49460AA8FFF75BFC3B4604AA0AA9F1
:10926000CDF800800848FFF761FF20700AA8FFF7DB
:1092700025FC013EE8E742F2107304A8AB60FFF75B
:109280001DFC11B0BDE8F083CC130020FFA8010045
:10929000548801004396010053960100074B08488B
:1092A00058600022012142F210701A7059709860C3
:1092B00083F88C1083F89420704700BFCC130020F3
:1092C000EC2100200148FFF7B7BB00BFCC13002002
:1092D00008B50368002B02DA09480BF03AFB8B4211
:1092E00008D949008B4205D20029B6BF6FF0004370
:1092F000016003600068BDE8084001300BF015BB59
:10930000DB96010073B542F21073036000F5F87349
:109310000025C0F8E831012600F50273044680F804
:10932000E451C0F8EC5180F8F051C0F80032C0F8B8
:10933000045280F8085204230096A822C02100F5A8
:10934000067007F03FFF33460096A822C02104F5BF
:109350000C7007F037FFFF2300951A46194604F5F5
:10936000127007F02FFF204602B070BD73B505469E
:109370000E4619B912B10D480BF0E8FA941B0F2CE8
:10938000019406D9002101A8FFF7A2FF019B2860E4
:10939000AB60224631462868FFF7ACFB019B2A6888
:1093A0006B600021D15402B070BD00BFF396010084
:1093B00038B500F10803044603600D4649B108467C
:1093C0000DF085F82A1820462946FFF7CFFF2046E2
:1093D00038BD4FF0FF32F6E710B503228CB04FF4E2
:1093E000E1311148FFF710FF10496846FFF7E0FF31
:1093F0000F4906A8FFF7DCFF0E4B0B486A4606A98B
:10940000FFF794FE044606A8FFF758FB34B101208D
:1094100009F0A8F800980CF082F9C4B26846FFF78A
:109420004DFB20460CB010BDCC1300205488010029
:10943000C5970100D1970100F0B591B004460E46E2
:1094400004A82849284D1746FFF7B2FF03224FF41E
:10945000E1312648FFF7D8FE25490AA8FFF7A8FF03
:1094600001230193234B00930AA9234B1F4804AA0D
:10947000FFF75CFE0AA8FFF721FB20490AA8F7B90D
:10948000FFF796FFCDE900561D4B184804AA0AA91C
:10949000FFF74CFE05460AA8FFF710FBDDB109F007
:1094A000A5F8054609F0A2F82368401B984212D29D
:1094B0002046FFF791FF0328F4D104460CE0FFF7A4
:1094C00077FFCDE9016700950E4B084804AA0AA969
:1094D000FFF72CFEDEE7042404A8FFF7EFFA20468E
:1094E00011B0F0BD54880100AE970100CC130020EC
:1094F0005D970100969701008F970100A3970100E7
:1095000047970100BB97010070B503228EB0054656
:109510004FF4E1312848FFF777FE0024274902A8DD
:10952000FFF746FF2346224621460094284607F0CF
:1095300049FE234908A8FFF73BFF224B009302AAEC
:10954000214B1D4808A9FFF7F1FD064608A8FFF7C3
:10955000B5FAD6B102980CF0E2F801281BD11B49EC
:1095600008A8FFF725FF1A4B00930194194B1248E6
:1095700002AA08A9FFF7DAFD044608A8FFF79EFA39
:109580001CB10299284607F03FFF02A8FFF796FAA0
:1095900028460EB070BD02980CF0C1F80228F4D134
:1095A0000D4908A8FFF704FF0C4B034802AA08A9BD
:1095B000FFF7BCFDE0E700BFCC130020548801009A
:1095C0005D97010068970100FFA801004C98010019
:1095D000549801008F970100339801003E980100D4
:1095E00010B5104C10498CB06846FFF7E1FE03221D
:1095F00020464FF4E131FFF707FE0C4906A8FFF7BC
:10960000D7FE0B4B6A4606A92046FFF78FFD04469E
:1096100006A8FFF753FA6846FFF750FA20460CB049
:1096200010BD00BFCC130020548801001D9701001D
:109630002A9701000148FFF765BE00BF64140020AF
:1096400010B5054C04F50070FFF738FA04F5F47016
:10965000FFF734FA10BD00BF6414002000207047EB
:109660000069013018BF0120704708B503685B6BC3
:10967000984780F00100C0B208BD13B502AB026884
:1096800003F8011D546819460122A04702B010BD1D
:1096900007B5036801225B6A0DF1070198470128AD
:1096A0000CBF9DF807004FF0FF3003B05DF804FBDE
:1096B00000690B69C31A584258417047704700202F
:1096C000704740F20C41C0680BF01EB910B5102174
:1096D00004460BF019F9204610BD08B5FFF7F6FF58
:1096E00008BD7FB503680446164601A81D6A07F049
:1096F000CBFD324601992046A847044601A807F051
:10970000A5FF204604B070BD036810B504469B68F1
:109710009847A368013BA3602BB923682046DB6808
:10972000BDE81040184710BD00F1080370B50446AD
:1097300003600E46B1B108460CF0C9FE0F2805467D
:1097400004D901300BF0F1F8A5602060012D2068EC
:109750000BD196F9003003702368656000225A55DA
:10976000204670BD04480BF0F1F8002DF4D02A46D5
:1097700031460CF09CF8EFE7F3960100036813B94B
:1097800062B6BFF36F8F704713B5EFF3108300938A
:109790000123019372B6019B5A1E019233B10468F2
:1097A0006846FFF7EBFF204602B010BD6846FFF7A2
:1097B000E5FFF8E713B50446EFF3108300930123A8
:1097C000019372B6019B5A1E0192684633B1FFF7AE
:1097D000D5FF601CC0F3090002B010BDFFF7CEFF3B
:1097E000FAE7FFFF0023C0E905334FF47A72C0E9BE
:1097F0000132C3610B6903618B698361CB69044AE0
:1098000002601BB15A6801325A60C361704700BFE1
:10981000F899010010B50446006828B14368013B7F
:1098200043600BB9FFF770FF204610BD10B5044B25
:10983000044640F81C3BFFF7EDFF204610BD00BF7B
:10984000F899010030B50369002B8FB0044607DB9F
:109850000368DB6A984718B9236820469B6A9847D3
:109860002369013321D1124902A8FFF75DFF0322CA
:109870004FF4E1310F48FFF7C7FC0F4908A8FFF785
:1098800053FF0E4B009302AA0D4B0A4808A9FFF79D
:109890004DFC054608A8FFF711F91DB102980BF021
:1098A0003EFF206102A8FFF709F90FB030BD00BFED
:1098B00054880100CC130020D1990100DF990100E8
:1098C000FFA8010070B5044692B00D461646FFF79A
:1098D000B9FF2369002B25DB1E4906A8FFF724FFEB
:1098E00003224FF4E1311C48FFF78EFC6369DBB1C2
:1098F0001A490CA8FFF718FF63690295CDE90363C5
:1099000023690193164B009306AA164B12480CA923
:10991000FFF70CFC04460CA8FFF7D0F806A8A4B982
:10992000FFF7CCF8002013E00F490CA8FFF7FCFE6E
:10993000CDE90256236901930C4B009306AA0C4B08
:1099400005480CA9FFF7F2FBE4E7FFF7B7F80120A1
:1099500012B070BD54880100CC1300201099010092
:10996000309901002099010042990100639901009A
:109970005699010070B50369002B90B005460E465C
:1099800014462ADB164904A8FFF7CEFE03224FF443
:10999000E1311448FFF738FC13490AA8FFF7C4FE69
:1099A00002942B690193114B009304AA104B0D48AC
:1099B0000AA9FFF74DF80AA8FFF780F822463146BA
:1099C0000848FFF763FB054604A825B1FFF776F8C2
:1099D000204610B070BDFFF771F80024F8E700BF13
:1099E00054880100CC130020EA980100019901007D
:1099F000F798010030B50369002B8FB0054635DBC1
:109A000084695CB104F58160FFF7BEFE002808DDC3
:109A1000A86900F58160FFF7B7FE044620460FB045
:109A200030BD154902A8FFF77FFE03224FF4E13154
:109A30001248FFF7E9FB124908A8FFF775FE2B69EA
:109A40000193104B009302AA0F4B0C4808A9FFF793
:109A50006DFB044608A8FFF731F84CB102980BF0F3
:109A60005EFE041E04DA02A8FFF728F80024D5E7FA
:109A700002A8FFF723F8D1E754880100CC13002097
:109A8000919901009D9901008F9701002DE9F04FF8
:109A90000369002B93B00746C0F287808369002BCF
:109AA00000F08380424906A8FFF73EFEBA69EFF353
:109AB00010830C9301230D9372B60D9B591E0D91CB
:109AC0001BB1D2F80854C5F580653A4E0CA8FFF7D3
:109AD00055FE0024032230464FF4E131FFF794FB9A
